{
  "_format": "hh-sol-artifact-1",
  "contractName": "Present",
  "sourceName": "contracts/Present.sol",
  "abi": [
    {
      "inputs": [],
      "stateMutability": "nonpayable",
      "type": "constructor"
    },
    {
      "anonymous": false,
      "inputs": [
        {
          "indexed": true,
          "internalType": "address",
          "name": "owner",
          "type": "address"
        },
        {
          "indexed": true,
          "internalType": "address",
          "name": "approved",
          "type": "address"
        },
        {
          "indexed": true,
          "internalType": "uint256",
          "name": "tokenId",
          "type": "uint256"
        }
      ],
      "name": "Approval",
      "type": "event"
    },
    {
      "anonymous": false,
      "inputs": [
        {
          "indexed": true,
          "internalType": "address",
          "name": "owner",
          "type": "address"
        },
        {
          "indexed": true,
          "internalType": "address",
          "name": "operator",
          "type": "address"
        },
        {
          "indexed": false,
          "internalType": "bool",
          "name": "approved",
          "type": "bool"
        }
      ],
      "name": "ApprovalForAll",
      "type": "event"
    },
    {
      "anonymous": false,
      "inputs": [
        {
          "indexed": true,
          "internalType": "address",
          "name": "previousOwner",
          "type": "address"
        },
        {
          "indexed": true,
          "internalType": "address",
          "name": "newOwner",
          "type": "address"
        }
      ],
      "name": "OwnershipTransferred",
      "type": "event"
    },
    {
      "anonymous": false,
      "inputs": [
        {
          "indexed": true,
          "internalType": "address",
          "name": "from",
          "type": "address"
        },
        {
          "indexed": true,
          "internalType": "address",
          "name": "to",
          "type": "address"
        },
        {
          "indexed": true,
          "internalType": "uint256",
          "name": "tokenId",
          "type": "uint256"
        }
      ],
      "name": "Transfer",
      "type": "event"
    },
    {
      "inputs": [
        {
          "internalType": "address",
          "name": "to",
          "type": "address"
        },
        {
          "internalType": "uint256",
          "name": "tokenId",
          "type": "uint256"
        }
      ],
      "name": "approve",
      "outputs": [],
      "stateMutability": "nonpayable",
      "type": "function"
    },
    {
      "inputs": [
        {
          "internalType": "address",
          "name": "owner",
          "type": "address"
        }
      ],
      "name": "balanceOf",
      "outputs": [
        {
          "internalType": "uint256",
          "name": "",
          "type": "uint256"
        }
      ],
      "stateMutability": "view",
      "type": "function"
    },
    {
      "inputs": [
        {
          "internalType": "uint256",
          "name": "tokenId",
          "type": "uint256"
        }
      ],
      "name": "getApproved",
      "outputs": [
        {
          "internalType": "address",
          "name": "",
          "type": "address"
        }
      ],
      "stateMutability": "view",
      "type": "function"
    },
    {
      "inputs": [
        {
          "internalType": "address",
          "name": "owner",
          "type": "address"
        },
        {
          "internalType": "address",
          "name": "operator",
          "type": "address"
        }
      ],
      "name": "isApprovedForAll",
      "outputs": [
        {
          "internalType": "bool",
          "name": "",
          "type": "bool"
        }
      ],
      "stateMutability": "view",
      "type": "function"
    },
    {
      "inputs": [
        {
          "internalType": "address",
          "name": "recipient",
          "type": "address"
        }
      ],
      "name": "mintNFT",
      "outputs": [
        {
          "internalType": "uint256",
          "name": "",
          "type": "uint256"
        }
      ],
      "stateMutability": "nonpayable",
      "type": "function"
    },
    {
      "inputs": [],
      "name": "name",
      "outputs": [
        {
          "internalType": "string",
          "name": "",
          "type": "string"
        }
      ],
      "stateMutability": "view",
      "type": "function"
    },
    {
      "inputs": [],
      "name": "owner",
      "outputs": [
        {
          "internalType": "address",
          "name": "",
          "type": "address"
        }
      ],
      "stateMutability": "view",
      "type": "function"
    },
    {
      "inputs": [
        {
          "internalType": "uint256",
          "name": "tokenId",
          "type": "uint256"
        }
      ],
      "name": "ownerOf",
      "outputs": [
        {
          "internalType": "address",
          "name": "",
          "type": "address"
        }
      ],
      "stateMutability": "view",
      "type": "function"
    },
    {
      "inputs": [],
      "name": "renounceOwnership",
      "outputs": [],
      "stateMutability": "nonpayable",
      "type": "function"
    },
    {
      "inputs": [
        {
          "internalType": "address",
          "name": "from",
          "type": "address"
        },
        {
          "internalType": "address",
          "name": "to",
          "type": "address"
        },
        {
          "internalType": "uint256",
          "name": "tokenId",
          "type": "uint256"
        }
      ],
      "name": "safeTransferFrom",
      "outputs": [],
      "stateMutability": "nonpayable",
      "type": "function"
    },
    {
      "inputs": [
        {
          "internalType": "address",
          "name": "from",
          "type": "address"
        },
        {
          "internalType": "address",
          "name": "to",
          "type": "address"
        },
        {
          "internalType": "uint256",
          "name": "tokenId",
          "type": "uint256"
        },
        {
          "internalType": "bytes",
          "name": "_data",
          "type": "bytes"
        }
      ],
      "name": "safeTransferFrom",
      "outputs": [],
      "stateMutability": "nonpayable",
      "type": "function"
    },
    {
      "inputs": [
        {
          "internalType": "address",
          "name": "operator",
          "type": "address"
        },
        {
          "internalType": "bool",
          "name": "approved",
          "type": "bool"
        }
      ],
      "name": "setApprovalForAll",
      "outputs": [],
      "stateMutability": "nonpayable",
      "type": "function"
    },
    {
      "inputs": [
        {
          "internalType": "string",
          "name": "name",
          "type": "string"
        }
      ],
      "name": "signCard",
      "outputs": [
        {
          "internalType": "bool",
          "name": "",
          "type": "bool"
        }
      ],
      "stateMutability": "nonpayable",
      "type": "function"
    },
    {
      "inputs": [],
      "name": "signers",
      "outputs": [
        {
          "internalType": "string",
          "name": "",
          "type": "string"
        }
      ],
      "stateMutability": "view",
      "type": "function"
    },
    {
      "inputs": [
        {
          "internalType": "bytes4",
          "name": "interfaceId",
          "type": "bytes4"
        }
      ],
      "name": "supportsInterface",
      "outputs": [
        {
          "internalType": "bool",
          "name": "",
          "type": "bool"
        }
      ],
      "stateMutability": "view",
      "type": "function"
    },
    {
      "inputs": [],
      "name": "symbol",
      "outputs": [
        {
          "internalType": "string",
          "name": "",
          "type": "string"
        }
      ],
      "stateMutability": "view",
      "type": "function"
    },
    {
      "inputs": [],
      "name": "tokenURI",
      "outputs": [
        {
          "internalType": "string",
          "name": "",
          "type": "string"
        }
      ],
      "stateMutability": "nonpayable",
      "type": "function"
    },
    {
      "inputs": [
        {
          "internalType": "uint256",
          "name": "tokenId",
          "type": "uint256"
        }
      ],
      "name": "tokenURI",
      "outputs": [
        {
          "internalType": "string",
          "name": "",
          "type": "string"
        }
      ],
      "stateMutability": "view",
      "type": "function"
    },
    {
      "inputs": [
        {
          "internalType": "address",
          "name": "from",
          "type": "address"
        },
        {
          "internalType": "address",
          "name": "to",
          "type": "address"
        },
        {
          "internalType": "uint256",
          "name": "tokenId",
          "type": "uint256"
        }
      ],
      "name": "transferFrom",
      "outputs": [],
      "stateMutability": "nonpayable",
      "type": "function"
    },
    {
      "inputs": [
        {
          "internalType": "address",
          "name": "newOwner",
          "type": "address"
        }
      ],
      "name": "transferOwnership",
      "outputs": [],
      "stateMutability": "nonpayable",
      "type": "function"
    }
  ],
  "bytecode": "0x608060405260405180602001604052806000815250600990805190602001906200002b92919062000235565b5060405180614b000160405280614ade815260200162003f15614ade9139600a90805190602001906200006092919062000235565b5060405180602001604052806000815250600b90805190602001906200008892919062000235565b506014600c55600a600d55348015620000a057600080fd5b506040518060400160405280601381526020017f4861707079204269727468646179204a61636b000000000000000000000000008152506040518060400160405280600381526020017f4e4654000000000000000000000000000000000000000000000000000000000081525081600090805190602001906200012592919062000235565b5080600190805190602001906200013e92919062000235565b50505062000161620001556200016760201b60201c565b6200016f60201b60201c565b6200034a565b600033905090565b6000600760009054906101000a900473ffffffffffffffffffffffffffffffffffffffff16905081600760006101000a81548173ffffffffffffffffffffffffffffffffffffffff021916908373ffffffffffffffffffffffffffffffffffffffff1602179055508173ffffffffffffffffffffffffffffffffffffffff168173ffffffffffffffffffffffffffffffffffffffff167f8be0079c531659141344cd1fd0a4f28419497f9722a3daafe3b4186f6b6457e060405160405180910390a35050565b8280546200024390620002e5565b90600052602060002090601f016020900481019282620002675760008555620002b3565b82601f106200028257805160ff1916838001178555620002b3565b82800160010185558215620002b3579182015b82811115620002b257825182559160200191906001019062000295565b5b509050620002c29190620002c6565b5090565b5b80821115620002e1576000816000905550600101620002c7565b5090565b60006002820490506001821680620002fe57607f821691505b602082108114156200031557620003146200031b565b5b50919050565b7f4e487b7100000000000000000000000000000000000000000000000000000000600052602260045260246000fd5b613bbb806200035a6000396000f3fe608060405234801561001057600080fd5b506004361061012c5760003560e01c80636352211e116100ad578063a22cb46511610071578063a22cb46514610345578063b88d4fde14610361578063c87b56dd1461037d578063e985e9c5146103ad578063f2fde38b146103dd5761012c565b80636352211e1461029f57806370a08231146102cf578063715018a6146102ff5780638da5cb5b1461030957806395d89b41146103275761012c565b80633c130d90116100f45780633c130d90146101e757806342842e0e14610205578063432a43cc1461022157806346f0975a1461025157806354ba0f271461026f5761012c565b806301ffc9a71461013157806306fdde0314610161578063081812fc1461017f578063095ea7b3146101af57806323b872dd146101cb575b600080fd5b61014b60048036038101906101469190612585565b6103f9565b6040516101589190612d24565b60405180910390f35b6101696104db565b6040516101769190612d3f565b60405180910390f35b61019960048036038101906101949190612618565b61056d565b6040516101a69190612cbd565b60405180910390f35b6101c960048036038101906101c49190612549565b6105f2565b005b6101e560048036038101906101e09190612443565b61070a565b005b6101ef61076a565b6040516101fc9190612d3f565b60405180910390f35b61021f600480360381019061021a9190612443565b610951565b005b61023b600480360381019061023691906125d7565b610971565b6040516102489190612d24565b60405180910390f35b6102596109bd565b6040516102669190612d3f565b60405180910390f35b610289600480360381019061028491906123de565b610a4b565b6040516102969190612fc1565b60405180910390f35b6102b960048036038101906102b49190612618565b610b57565b6040516102c69190612cbd565b60405180910390f35b6102e960048036038101906102e491906123de565b610c09565b6040516102f69190612fc1565b60405180910390f35b610307610cc1565b005b610311610d49565b60405161031e9190612cbd565b60405180910390f35b61032f610d73565b60405161033c9190612d3f565b60405180910390f35b61035f600480360381019061035a919061250d565b610e05565b005b61037b60048036038101906103769190612492565b610e1b565b005b61039760048036038101906103929190612618565b610e7d565b6040516103a49190612d3f565b60405180910390f35b6103c760048036038101906103c29190612407565b610fcf565b6040516103d49190612d24565b60405180910390f35b6103f760048036038101906103f291906123de565b611063565b005b60007f80ac58cd000000000000000000000000000000000000000000000000000000007bffffffffffffffffffffffffffffffffffffffffffffffffffffffff1916827bffffffffffffffffffffffffffffffffffffffffffffffffffffffff191614806104c457507f5b5e139f000000000000000000000000000000000000000000000000000000007bffffffffffffffffffffffffffffffffffffffffffffffffffffffff1916827bffffffffffffffffffffffffffffffffffffffffffffffffffffffff1916145b806104d457506104d38261115b565b5b9050919050565b6060600080546104ea90613286565b80601f016020809104026020016040519081016040528092919081815260200182805461051690613286565b80156105635780601f1061053857610100808354040283529160200191610563565b820191906000526020600020905b81548152906001019060200180831161054657829003601f168201915b5050505050905090565b6000610578826111c5565b6105b7576040517f08c379a00000000000000000000000000000000000000000000000000000000081526004016105ae90612f21565b60405180910390fd5b6004600083815260200190815260200160002060009054906101000a900473ffffffffffffffffffffffffffffffffffffffff169050919050565b60006105fd82610b57565b90508073ffffffffffffffffffffffffffffffffffffffff168373ffffffffffffffffffffffffffffffffffffffff16141561066e576040517f08c379a000000000000000000000000000000000000000000000000000000000815260040161066590612f81565b60405180910390fd5b8073ffffffffffffffffffffffffffffffffffffffff1661068d611231565b73ffffffffffffffffffffffffffffffffffffffff1614806106bc57506106bb816106b6611231565b610fcf565b5b6106fb576040517f08c379a00000000000000000000000000000000000000000000000000000000081526004016106f290612e61565b60405180910390fd5b6107058383611239565b505050565b61071b610715611231565b826112f2565b61075a576040517f08c379a000000000000000000000000000000000000000000000000000000000815260040161075190612fa1565b60405180910390fd5b6107658383836113d0565b505050565b6060600a60405160200161077e9190612bcf565b604051602081830303815290604052600a90805190602001906107a2929190612202565b50610836600a80546107b390613286565b80601f01602080910402602001604051908101604052809291908181526020018280546107df90613286565b801561082c5780601f106108015761010080835404028352916020019161082c565b820191906000526020600020905b81548152906001019060200180831161080f57829003601f168201915b5050505050611637565b6040516020016108469190612c9b565b604051602081830303815290604052600a908051906020019061086a929190612202565b506108fe600a805461087b90613286565b80601f01602080910402602001604051908101604052809291908181526020018280546108a790613286565b80156108f45780601f106108c9576101008083540402835291602001916108f4565b820191906000526020600020905b8154815290600101906020018083116108d757829003601f168201915b50505050506117c1565b6000600a6040516020016109129190612c36565b604051602081830303815290604052905061092c81611637565b60405160200161093c9190612c79565b60405160208183030381529060405291505090565b61096c83838360405180602001604052806000815250610e1b565b505050565b6000600a61097e8361185a565b60405160200161098f929190612bab565b604051602081830303815290604052600a90805190602001906109b3929190612202565b5060019050919050565b600b80546109ca90613286565b80601f01602080910402602001604051908101604052809291908181526020018280546109f690613286565b8015610a435780601f10610a1857610100808354040283529160200191610a43565b820191906000526020600020905b815481529060010190602001808311610a2657829003601f168201915b505050505081565b6000610a55611231565b73ffffffffffffffffffffffffffffffffffffffff16610a73610d49565b73ffffffffffffffffffffffffffffffffffffffff1614610ac9576040517f08c379a0000000000000000000000000000000000000000000000000000000008152600401610ac090612f41565b60405180910390fd5b6001610ad560086118a9565b1015610b1757610ae560086118b7565b6000610af160086118a9565b9050610afd83826118cd565b610b0e81610b0961076a565b611aa7565b80915050610b52565b6040517f08c379a0000000000000000000000000000000000000000000000000000000008152600401610b4990612d81565b60405180910390fd5b919050565b6000806002600084815260200190815260200160002060009054906101000a900473ffffffffffffffffffffffffffffffffffffffff169050600073ffffffffffffffffffffffffffffffffffffffff168173ffffffffffffffffffffffffffffffffffffffff161415610c00576040517f08c379a0000000000000000000000000000000000000000000000000000000008152600401610bf790612ea1565b60405180910390fd5b80915050919050565b60008073ffffffffffffffffffffffffffffffffffffffff168273ffffffffffffffffffffffffffffffffffffffff161415610c7a576040517f08c379a0000000000000000000000000000000000000000000000000000000008152600401610c7190612e81565b60405180910390fd5b600360008373ffffffffffffffffffffffffffffffffffffffff1673ffffffffffffffffffffffffffffffffffffffff168152602001908152602001600020549050919050565b610cc9611231565b73ffffffffffffffffffffffffffffffffffffffff16610ce7610d49565b73ffffffffffffffffffffffffffffffffffffffff1614610d3d576040517f08c379a0000000000000000000000000000000000000000000000000000000008152600401610d3490612f41565b60405180910390fd5b610d476000611b1b565b565b6000600760009054906101000a900473ffffffffffffffffffffffffffffffffffffffff16905090565b606060018054610d8290613286565b80601f0160208091040260200160405190810160405280929190818152602001828054610dae90613286565b8015610dfb5780601f10610dd057610100808354040283529160200191610dfb565b820191906000526020600020905b815481529060010190602001808311610dde57829003601f168201915b5050505050905090565b610e17610e10611231565b8383611be1565b5050565b610e2c610e26611231565b836112f2565b610e6b576040517f08c379a0000000000000000000000000000000000000000000000000000000008152600401610e6290612fa1565b60405180910390fd5b610e7784848484611d4e565b50505050565b6060610e88826111c5565b610ec7576040517f08c379a0000000000000000000000000000000000000000000000000000000008152600401610ebe90612f01565b60405180910390fd5b6000600660008481526020019081526020016000208054610ee790613286565b80601f0160208091040260200160405190810160405280929190818152602001828054610f1390613286565b8015610f605780601f10610f3557610100808354040283529160200191610f60565b820191906000526020600020905b815481529060010190602001808311610f4357829003601f168201915b505050505090506000610f71611daa565b9050600081511415610f87578192505050610fca565b600082511115610fbc578082604051602001610fa4929190612b87565b60405160208183030381529060405292505050610fca565b610fc584611dc1565b925050505b919050565b6000600560008473ffffffffffffffffffffffffffffffffffffffff1673ffffffffffffffffffffffffffffffffffffffff16815260200190815260200160002060008373ffffffffffffffffffffffffffffffffffffffff1673ffffffffffffffffffffffffffffffffffffffff16815260200190815260200160002060009054906101000a900460ff16905092915050565b61106b611231565b73ffffffffffffffffffffffffffffffffffffffff16611089610d49565b73ffffffffffffffffffffffffffffffffffffffff16146110df576040517f08c379a00000000000000000000000000000000000000000000000000000000081526004016110d690612f41565b60405180910390fd5b600073ffffffffffffffffffffffffffffffffffffffff168173ffffffffffffffffffffffffffffffffffffffff16141561114f576040517f08c379a000000000000000000000000000000000000000000000000000000000815260040161114690612da1565b60405180910390fd5b61115881611b1b565b50565b60007f01ffc9a7000000000000000000000000000000000000000000000000000000007bffffffffffffffffffffffffffffffffffffffffffffffffffffffff1916827bffffffffffffffffffffffffffffffffffffffffffffffffffffffff1916149050919050565b60008073ffffffffffffffffffffffffffffffffffffffff166002600084815260200190815260200160002060009054906101000a900473ffffffffffffffffffffffffffffffffffffffff1673ffffffffffffffffffffffffffffffffffffffff1614159050919050565b600033905090565b816004600083815260200190815260200160002060006101000a81548173ffffffffffffffffffffffffffffffffffffffff021916908373ffffffffffffffffffffffffffffffffffffffff160217905550808273ffffffffffffffffffffffffffffffffffffffff166112ac83610b57565b73ffffffffffffffffffffffffffffffffffffffff167f8c5be1e5ebec7d5bd14f71427d1e84f3dd0314c0f7b2291e5b200ac8c7c3b92560405160405180910390a45050565b60006112fd826111c5565b61133c576040517f08c379a000000000000000000000000000000000000000000000000000000000815260040161133390612e41565b60405180910390fd5b600061134783610b57565b90508073ffffffffffffffffffffffffffffffffffffffff168473ffffffffffffffffffffffffffffffffffffffff1614806113b657508373ffffffffffffffffffffffffffffffffffffffff1661139e8461056d565b73ffffffffffffffffffffffffffffffffffffffff16145b806113c757506113c68185610fcf565b5b91505092915050565b8273ffffffffffffffffffffffffffffffffffffffff166113f082610b57565b73ffffffffffffffffffffffffffffffffffffffff1614611446576040517f08c379a000000000000000000000000000000000000000000000000000000000815260040161143d90612dc1565b60405180910390fd5b600073ffffffffffffffffffffffffffffffffffffffff168273ffffffffffffffffffffffffffffffffffffffff1614156114b6576040517f08c379a00000000000000000000000000000000000000000000000000000000081526004016114ad90612e01565b60405180910390fd5b6114c1838383611e68565b6114cc600082611239565b6001600360008573ffffffffffffffffffffffffffffffffffffffff1673ffffffffffffffffffffffffffffffffffffffff168152602001908152602001600020600082825461151c919061319c565b925050819055506001600360008473ffffffffffffffffffffffffffffffffffffffff1673ffffffffffffffffffffffffffffffffffffffff168152602001908152602001600020600082825461157391906130bb565b92505081905550816002600083815260200190815260200160002060006101000a81548173ffffffffffffffffffffffffffffffffffffffff021916908373ffffffffffffffffffffffffffffffffffffffff160217905550808273ffffffffffffffffffffffffffffffffffffffff168473ffffffffffffffffffffffffffffffffffffffff167fddf252ad1be2c89b69c2b068fc378daa952ba7f163c4a11628f55a4df523b3ef60405160405180910390a4611632838383611e6d565b505050565b606060008251141561165a576040518060200160405280600081525090506117bc565b6000604051806060016040528060408152602001613b46604091399050600060036002855161168991906130bb565b6116939190613111565b600461169f9190613142565b67ffffffffffffffff8111156116de577f4e487b7100000000000000000000000000000000000000000000000000000000600052604160045260246000fd5b6040519080825280601f01601f1916602001820160405280156117105781602001600182028036833780820191505090505b509050600182016020820185865187015b8082101561177c576003820191508151603f8160121c168501518453600184019350603f81600c1c168501518453600184019350603f8160061c168501518453600184019350603f8116850151845360018401935050611721565b505060038651066001811461179857600281146117ab576117b3565b603d6001830353603d60028303536117b3565b603d60018303535b50505080925050505b919050565b611857816040516024016117d59190612d3f565b6040516020818303038152906040527f41304fac000000000000000000000000000000000000000000000000000000007bffffffffffffffffffffffffffffffffffffffffffffffffffffffff19166020820180517bffffffffffffffffffffffffffffffffffffffffffffffffffffffff8381831617835250505050611e72565b50565b60606028600d600082825461186f91906130bb565b92505081905550611881600d54611e9b565b82604051602001611893929190612bf1565b6040516020818303038152906040529050919050565b600081600001549050919050565b6001816000016000828254019250508190555050565b600073ffffffffffffffffffffffffffffffffffffffff168273ffffffffffffffffffffffffffffffffffffffff16141561193d576040517f08c379a000000000000000000000000000000000000000000000000000000000815260040161193490612ee1565b60405180910390fd5b611946816111c5565b15611986576040517f08c379a000000000000000000000000000000000000000000000000000000000815260040161197d90612de1565b60405180910390fd5b61199260008383611e68565b6001600360008473ffffffffffffffffffffffffffffffffffffffff1673ffffffffffffffffffffffffffffffffffffffff16815260200190815260200160002060008282546119e291906130bb565b92505081905550816002600083815260200190815260200160002060006101000a81548173ffffffffffffffffffffffffffffffffffffffff021916908373ffffffffffffffffffffffffffffffffffffffff160217905550808273ffffffffffffffffffffffffffffffffffffffff16600073ffffffffffffffffffffffffffffffffffffffff167fddf252ad1be2c89b69c2b068fc378daa952ba7f163c4a11628f55a4df523b3ef60405160405180910390a4611aa360008383611e6d565b5050565b611ab0826111c5565b611aef576040517f08c379a0000000000000000000000000000000000000000000000000000000008152600401611ae690612ec1565b60405180910390fd5b80600660008481526020019081526020016000209080519060200190611b16929190612202565b505050565b6000600760009054906101000a900473ffffffffffffffffffffffffffffffffffffffff16905081600760006101000a81548173ffffffffffffffffffffffffffffffffffffffff021916908373ffffffffffffffffffffffffffffffffffffffff1602179055508173ffffffffffffffffffffffffffffffffffffffff168173ffffffffffffffffffffffffffffffffffffffff167f8be0079c531659141344cd1fd0a4f28419497f9722a3daafe3b4186f6b6457e060405160405180910390a35050565b8173ffffffffffffffffffffffffffffffffffffffff168373ffffffffffffffffffffffffffffffffffffffff161415611c50576040517f08c379a0000000000000000000000000000000000000000000000000000000008152600401611c4790612e21565b60405180910390fd5b80600560008573ffffffffffffffffffffffffffffffffffffffff1673ffffffffffffffffffffffffffffffffffffffff16815260200190815260200160002060008473ffffffffffffffffffffffffffffffffffffffff1673ffffffffffffffffffffffffffffffffffffffff16815260200190815260200160002060006101000a81548160ff0219169083151502179055508173ffffffffffffffffffffffffffffffffffffffff168373ffffffffffffffffffffffffffffffffffffffff167f17307eab39ab6107e8899845ad3d59bd9653f200f220920489ca2b5937696c3183604051611d419190612d24565b60405180910390a3505050565b611d598484846113d0565b611d6584848484612048565b611da4576040517f08c379a0000000000000000000000000000000000000000000000000000000008152600401611d9b90612d61565b60405180910390fd5b50505050565b606060405180602001604052806000815250905090565b6060611dcc826111c5565b611e0b576040517f08c379a0000000000000000000000000000000000000000000000000000000008152600401611e0290612f61565b60405180910390fd5b6000611e15611daa565b90506000815111611e355760405180602001604052806000815250611e60565b80611e3f84611e9b565b604051602001611e50929190612b87565b6040516020818303038152906040525b915050919050565b505050565b505050565b60008151905060006a636f6e736f6c652e6c6f679050602083016000808483855afa5050505050565b60606000821415611ee3576040518060400160405280600181526020017f30000000000000000000000000000000000000000000000000000000000000008152509050612043565b600082905060005b60008214611f15578080611efe906132e9565b915050600a82611f0e9190613111565b9150611eeb565b60008167ffffffffffffffff811115611f57577f4e487b7100000000000000000000000000000000000000000000000000000000600052604160045260246000fd5b6040519080825280601f01601f191660200182016040528015611f895781602001600182028036833780820191505090505b5090505b6000851461203c57600182611fa2919061319c565b9150600a85611fb19190613332565b6030611fbd91906130bb565b60f81b818381518110611ff9577f4e487b7100000000000000000000000000000000000000000000000000000000600052603260045260246000fd5b60200101907effffffffffffffffffffffffffffffffffffffffffffffffffffffffffffff1916908160001a905350600a856120359190613111565b9450611f8d565b8093505050505b919050565b60006120698473ffffffffffffffffffffffffffffffffffffffff166121df565b156121d2578373ffffffffffffffffffffffffffffffffffffffff1663150b7a02612092611231565b8786866040518563ffffffff1660e01b81526004016120b49493929190612cd8565b602060405180830381600087803b1580156120ce57600080fd5b505af19250505080156120ff57506040513d601f19601f820116820180604052508101906120fc91906125ae565b60015b612182573d806000811461212f576040519150601f19603f3d011682016040523d82523d6000602084013e612134565b606091505b5060008151141561217a576040517f08c379a000000000000000000000000000000000000000000000000000000000815260040161217190612d61565b60405180910390fd5b805181602001fd5b63150b7a0260e01b7bffffffffffffffffffffffffffffffffffffffffffffffffffffffff1916817bffffffffffffffffffffffffffffffffffffffffffffffffffffffff1916149150506121d7565b600190505b949350505050565b6000808273ffffffffffffffffffffffffffffffffffffffff163b119050919050565b82805461220e90613286565b90600052602060002090601f0160209004810192826122305760008555612277565b82601f1061224957805160ff1916838001178555612277565b82800160010185558215612277579182015b8281111561227657825182559160200191906001019061225b565b5b5090506122849190612288565b5090565b5b808211156122a1576000816000905550600101612289565b5090565b60006122b86122b384613001565b612fdc565b9050828152602081018484840111156122d057600080fd5b6122db848285613244565b509392505050565b60006122f66122f184613032565b612fdc565b90508281526020810184848401111561230e57600080fd5b612319848285613244565b509392505050565b60008135905061233081613ae9565b92915050565b60008135905061234581613b00565b92915050565b60008135905061235a81613b17565b92915050565b60008151905061236f81613b17565b92915050565b600082601f83011261238657600080fd5b81356123968482602086016122a5565b91505092915050565b600082601f8301126123b057600080fd5b81356123c08482602086016122e3565b91505092915050565b6000813590506123d881613b2e565b92915050565b6000602082840312156123f057600080fd5b60006123fe84828501612321565b91505092915050565b6000806040838503121561241a57600080fd5b600061242885828601612321565b925050602061243985828601612321565b9150509250929050565b60008060006060848603121561245857600080fd5b600061246686828701612321565b935050602061247786828701612321565b9250506040612488868287016123c9565b9150509250925092565b600080600080608085870312156124a857600080fd5b60006124b687828801612321565b94505060206124c787828801612321565b93505060406124d8878288016123c9565b925050606085013567ffffffffffffffff8111156124f557600080fd5b61250187828801612375565b91505092959194509250565b6000806040838503121561252057600080fd5b600061252e85828601612321565b925050602061253f85828601612336565b9150509250929050565b6000806040838503121561255c57600080fd5b600061256a85828601612321565b925050602061257b858286016123c9565b9150509250929050565b60006020828403121561259757600080fd5b60006125a58482850161234b565b91505092915050565b6000602082840312156125c057600080fd5b60006125ce84828501612360565b91505092915050565b6000602082840312156125e957600080fd5b600082013567ffffffffffffffff81111561260357600080fd5b61260f8482850161239f565b91505092915050565b60006020828403121561262a57600080fd5b6000612638848285016123c9565b91505092915050565b61264a816131d0565b82525050565b612659816131e2565b82525050565b600061266a82613078565b612674818561308e565b9350612684818560208601613253565b61268d8161341f565b840191505092915050565b60006126a382613083565b6126ad818561309f565b93506126bd818560208601613253565b6126c68161341f565b840191505092915050565b60006126dc82613083565b6126e681856130b0565b93506126f6818560208601613253565b80840191505092915050565b6000815461270f81613286565b61271981866130b0565b94506001821660008114612734576001811461274557612778565b60ff19831686528186019350612778565b61274e85613063565b60005b8381101561277057815481890152600182019150602081019050612751565b838801955050505b50505092915050565b600061278e601e836130b0565b915061279982613430565b601e82019050919050565b60006127b16010836130b0565b91506127bc82613459565b601082019050919050565b60006127d460328361309f565b91506127df82613482565b604082019050919050565b60006127f760098361309f565b9150612802826134d1565b602082019050919050565b600061281a60268361309f565b9150612825826134fa565b604082019050919050565b600061283d60258361309f565b915061284882613549565b604082019050919050565b6000612860601c8361309f565b915061286b82613598565b602082019050919050565b600061288360248361309f565b915061288e826135c1565b604082019050919050565b60006128a660198361309f565b91506128b182613610565b602082019050919050565b60006128c9602c8361309f565b91506128d482613639565b604082019050919050565b60006128ec60388361309f565b91506128f782613688565b604082019050919050565b600061290f602a8361309f565b915061291a826136d7565b604082019050919050565b600061293260298361309f565b915061293d82613726565b604082019050919050565b6000612955602e8361309f565b915061296082613775565b604082019050919050565b60006129786002836130b0565b9150612983826137c4565b600282019050919050565b600061299b6007836130b0565b91506129a6826137ed565b600782019050919050565b60006129be60208361309f565b91506129c982613816565b602082019050919050565b60006129e1601c836130b0565b91506129ec8261383f565b601c82019050919050565b6000612a0460318361309f565b9150612a0f82613868565b604082019050919050565b6000612a27602c8361309f565b9150612a32826138b7565b604082019050919050565b6000612a4a60208361309f565b9150612a5582613906565b602082019050919050565b6000612a6d602f8361309f565b9150612a788261392f565b604082019050919050565b6000612a906001836130b0565b9150612a9b8261397e565b600182019050919050565b6000612ab360218361309f565b9150612abe826139a7565b604082019050919050565b6000612ad6601d836130b0565b9150612ae1826139f6565b601d82019050919050565b6000612af960318361309f565b9150612b0482613a1f565b604082019050919050565b6000612b1c600a836130b0565b9150612b2782613a6e565b600a82019050919050565b6000612b3f6006836130b0565b9150612b4a82613a97565b600682019050919050565b6000612b62601a836130b0565b9150612b6d82613ac0565b601a82019050919050565b612b818161323a565b82525050565b6000612b9382856126d1565b9150612b9f82846126d1565b91508190509392505050565b6000612bb78285612702565b9150612bc382846126d1565b91508190509392505050565b6000612bdb8284612702565b9150612be682612b32565b915081905092915050565b6000612bfc826127a4565b9150612c0882856126d1565b9150612c1382612781565b9150612c1f82846126d1565b9150612c2a8261298e565b91508190509392505050565b6000612c4182612a83565b9150612c4c826129d4565b9150612c5782612b0f565b9150612c638284612702565b9150612c6e8261296b565b915081905092915050565b6000612c8482612ac9565b9150612c9082846126d1565b915081905092915050565b6000612ca682612b55565b9150612cb282846126d1565b915081905092915050565b6000602082019050612cd26000830184612641565b92915050565b6000608082019050612ced6000830187612641565b612cfa6020830186612641565b612d076040830185612b78565b8181036060830152612d19818461265f565b905095945050505050565b6000602082019050612d396000830184612650565b92915050565b60006020820190508181036000830152612d598184612698565b905092915050565b60006020820190508181036000830152612d7a816127c7565b9050919050565b60006020820190508181036000830152612d9a816127ea565b9050919050565b60006020820190508181036000830152612dba8161280d565b9050919050565b60006020820190508181036000830152612dda81612830565b9050919050565b60006020820190508181036000830152612dfa81612853565b9050919050565b60006020820190508181036000830152612e1a81612876565b9050919050565b60006020820190508181036000830152612e3a81612899565b9050919050565b60006020820190508181036000830152612e5a816128bc565b9050919050565b60006020820190508181036000830152612e7a816128df565b9050919050565b60006020820190508181036000830152612e9a81612902565b9050919050565b60006020820190508181036000830152612eba81612925565b9050919050565b60006020820190508181036000830152612eda81612948565b9050919050565b60006020820190508181036000830152612efa816129b1565b9050919050565b60006020820190508181036000830152612f1a816129f7565b9050919050565b60006020820190508181036000830152612f3a81612a1a565b9050919050565b60006020820190508181036000830152612f5a81612a3d565b9050919050565b60006020820190508181036000830152612f7a81612a60565b9050919050565b60006020820190508181036000830152612f9a81612aa6565b9050919050565b60006020820190508181036000830152612fba81612aec565b9050919050565b6000602082019050612fd66000830184612b78565b92915050565b6000612fe6612ff7565b9050612ff282826132b8565b919050565b6000604051905090565b600067ffffffffffffffff82111561301c5761301b6133f0565b5b6130258261341f565b9050602081019050919050565b600067ffffffffffffffff82111561304d5761304c6133f0565b5b6130568261341f565b9050602081019050919050565b60008190508160005260206000209050919050565b600081519050919050565b600081519050919050565b600082825260208201905092915050565b600082825260208201905092915050565b600081905092915050565b60006130c68261323a565b91506130d18361323a565b9250827fffffffffffffffffffffffffffffffffffffffffffffffffffffffffffffffff0382111561310657613105613363565b5b828201905092915050565b600061311c8261323a565b91506131278361323a565b92508261313757613136613392565b5b828204905092915050565b600061314d8261323a565b91506131588361323a565b9250817fffffffffffffffffffffffffffffffffffffffffffffffffffffffffffffffff048311821515161561319157613190613363565b5b828202905092915050565b60006131a78261323a565b91506131b28361323a565b9250828210156131c5576131c4613363565b5b828203905092915050565b60006131db8261321a565b9050919050565b60008115159050919050565b60007fffffffff0000000000000000000000000000000000000000000000000000000082169050919050565b600073ffffffffffffffffffffffffffffffffffffffff82169050919050565b6000819050919050565b82818337600083830152505050565b60005b83811015613271578082015181840152602081019050613256565b83811115613280576000848401525b50505050565b6000600282049050600182168061329e57607f821691505b602082108114156132b2576132b16133c1565b5b50919050565b6132c18261341f565b810181811067ffffffffffffffff821117156132e0576132df6133f0565b5b80604052505050565b60006132f48261323a565b91507fffffffffffffffffffffffffffffffffffffffffffffffffffffffffffffffff82141561332757613326613363565b5b600182019050919050565b600061333d8261323a565b91506133488361323a565b92508261335857613357613392565b5b828206905092915050565b7f4e487b7100000000000000000000000000000000000000000000000000000000600052601160045260246000fd5b7f4e487b7100000000000000000000000000000000000000000000000000000000600052601260045260246000fd5b7f4e487b7100000000000000000000000000000000000000000000000000000000600052602260045260246000fd5b7f4e487b7100000000000000000000000000000000000000000000000000000000600052604160045260246000fd5b6000601f19601f8301169050919050565b7f222066696c6c3d22677261792220666f6e742d73697a653d2232656d223e0000600082015250565b7f3c7465787420783d2231302220793d2200000000000000000000000000000000600082015250565b7f4552433732313a207472616e7366657220746f206e6f6e20455243373231526560008201527f63656976657220696d706c656d656e7465720000000000000000000000000000602082015250565b7f4e6f7420666f756e640000000000000000000000000000000000000000000000600082015250565b7f4f776e61626c653a206e6577206f776e657220697320746865207a65726f206160008201527f6464726573730000000000000000000000000000000000000000000000000000602082015250565b7f4552433732313a207472616e736665722066726f6d20696e636f72726563742060008201527f6f776e6572000000000000000000000000000000000000000000000000000000602082015250565b7f4552433732313a20746f6b656e20616c7265616479206d696e74656400000000600082015250565b7f4552433732313a207472616e7366657220746f20746865207a65726f2061646460008201527f7265737300000000000000000000000000000000000000000000000000000000602082015250565b7f4552433732313a20617070726f766520746f2063616c6c657200000000000000600082015250565b7f4552433732313a206f70657261746f7220717565727920666f72206e6f6e657860008201527f697374656e7420746f6b656e0000000000000000000000000000000000000000602082015250565b7f4552433732313a20617070726f76652063616c6c6572206973206e6f74206f7760008201527f6e6572206e6f7220617070726f76656420666f7220616c6c0000000000000000602082015250565b7f4552433732313a2062616c616e636520717565727920666f7220746865207a6560008201527f726f206164647265737300000000000000000000000000000000000000000000602082015250565b7f4552433732313a206f776e657220717565727920666f72206e6f6e657869737460008201527f656e7420746f6b656e0000000000000000000000000000000000000000000000602082015250565b7f45524337323155524953746f726167653a2055524920736574206f66206e6f6e60008201527f6578697374656e7420746f6b656e000000000000000000000000000000000000602082015250565b7f227d000000000000000000000000000000000000000000000000000000000000600082015250565b7f3c2f746578743e00000000000000000000000000000000000000000000000000600082015250565b7f4552433732313a206d696e7420746f20746865207a65726f2061646472657373600082015250565b7f226e616d65223a20224861707079204269727468646179204a61636b00000000600082015250565b7f45524337323155524953746f726167653a2055524920717565727920666f722060008201527f6e6f6e6578697374656e7420746f6b656e000000000000000000000000000000602082015250565b7f4552433732313a20617070726f76656420717565727920666f72206e6f6e657860008201527f697374656e7420746f6b656e0000000000000000000000000000000000000000602082015250565b7f4f776e61626c653a2063616c6c6572206973206e6f7420746865206f776e6572600082015250565b7f4552433732314d657461646174613a2055524920717565727920666f72206e6f60008201527f6e6578697374656e7420746f6b656e0000000000000000000000000000000000602082015250565b7f7b00000000000000000000000000000000000000000000000000000000000000600082015250565b7f4552433732313a20617070726f76616c20746f2063757272656e74206f776e6560008201527f7200000000000000000000000000000000000000000000000000000000000000602082015250565b7f646174613a6170706c69636174696f6e2f6a736f6e3b6261736536342c000000600082015250565b7f4552433732313a207472616e736665722063616c6c6572206973206e6f74206f60008201527f776e6572206e6f7220617070726f766564000000000000000000000000000000602082015250565b7f22696d616765223a202200000000000000000000000000000000000000000000600082015250565b7f3c2f7376673e0000000000000000000000000000000000000000000000000000600082015250565b7f646174613a696d6167652f7376672b786d6c3b6261736536342c000000000000600082015250565b613af2816131d0565b8114613afd57600080fd5b50565b613b09816131e2565b8114613b1457600080fd5b50565b613b20816131ee565b8114613b2b57600080fd5b50565b613b378161323a565b8114613b4257600080fd5b5056fe4142434445464748494a4b4c4d4e4f505152535455565758595a6162636465666768696a6b6c6d6e6f707172737475767778797a303132333435363738392b2fa26469706673582212200df5ed3aecc477af246e4d6879b00974a48c0f0deea157a6738c24e7d1deb70b64736f6c634300080100333c3f786d6c2076657273696f6e3d22312e3022207374616e64616c6f6e653d226e6f223f3e3c21444f435459504520737667205055424c494320222d2f2f5733432f2f445444205356472032303031303930342f2f454e222022687474703a2f2f7777772e77332e6f72672f54522f323030312f5245432d5356472d32303031303930342f4454442f73766731302e647464223e3c7376672076657273696f6e3d22312e302220786d6c6e733d22687474703a2f2f7777772e77332e6f72672f323030302f737667222077696474683d22313032342e303030303030707422206865696768743d22313032342e3030303030307074222076696577426f783d2230203020323136302e30303030303020323136302e30303030303022207072657365727665417370656374526174696f3d22784d6964594d6964206d656574223e3c617564696f206175746f706c61793e3c736f75726365207372633d22646174613a617564696f2f6d7065673b6261736536342c2f2f4f4978414141414141414141414141466870626d634141414150414141414e5141414d2b5141425163484377734f44685556485230694969636e4c5445784e5455354f5542415255564b536b354f556c4a585947426d5a6d70716348423164586c3566583245684971506a354b536c3565626d364b6971717177734c61327537362b773850477873724b7a382f53307462573239766b364f6a73374f2f76382f5033392f76372f2f2f2f41414141576b78425455557a4c6a6b3563675251414141414143774241414131434351436f43454141656f414144506b4a4c4267557741414141414141414141414141414141414141414141414141414141414141414141414141414141414141414141414141414141414141414141414141414141414141414141414141414141414141414141414141414141414141414141414141414141414141414141414141414141414141414141414141414141414141414141414141414141414141414141414141414141414141414141414141412f2f4f497841414c6941496f576741414141646753572f2f2b58666b354e5966495748502b55634a31764f59594a2b51703566527a682f2b554f5543636f37742f3954762b676e2b7033314f6944517174307431316c7253596d4468646f72416137696534675970357a6e7a76366b3741705959335268617379794d4f57696e63516e61554436496c45423355356b644f5a4c57516142434b7535774b655a416c5a7a7a4c7762436b484154477152516c78345669703949474b4c51384e41595178696b4d5070654c696775486e6a6863566141773270326d6b6b7a6c4d65306d7054686d704855456b313152747479794a4a3842356b52737670505a4b564255784b5552616c4e4472566453334678412b31474f4a7849634c44574a4c43456f574575696c6d494a5752303069696b636430645a6b7531544c7735465044687a6e79784d73676d364568715078736262696a4b5938784a79725542354e56544e66716f70337a342b55384c71706663684b366e566238764c69574c617055712f2f4d34784f516336613436576a494758477464707a6d3052376375706a6477762b5372355a622f37737338623362587155573862766474352b48466b575261764459534e575a627034792b732f5751616b34346b57354930595635684d5a4a55454c6b644a687344356e6334616b65617071664e392f2f5072335473724b72566d6c686775694a656d5761734b506b2f2f4e59784d386e362f596d576e6f4d5859544b45546c62634a697358487257575a677a594a47413642516856532f38454741415a4d36474d2b5473766d73794e3139743450756f4134544a4b6461434b54487767394f71503562302b72616f663366722b3466483259322f3633595776476462474d366e2b375342695534626553326c2f473263664c6a6674576e444e754f566b30365a3575366730454c6a57747264793662466a39706237346a4b6a5171784d714243616c584934454c6a434654666c772f3858544d59424d674f635579684d346f557842557a59456c424b735047724d524842674547675650752f2f4e59784e596f512f6f695855387741555251544246434a3052492b38734d52664b733734636a52755577543651504549464e4a48427039615579572b7968366d67756a454b434d496949636e39776c4657686a314f2f6f584371566b77417971737767756e7a6c626a736a5a6542676a36727352734c674b30754f755357505331746b614436646139354b2f63715a48447965304d4d305a776741664a616450706b354d4b5736426b365363424c7261473237556b50326470374c4666393247777775497a302b7465534f573139753758495779396b624a452f48515a7777656e6c30464f49347257494a5970442f2f4f59784e78586c425a5366357252494d76526a6b666a443777394e747a644b53774446326c306b746963596135446c4133534b5072447a32504f376a5547724d356166416a5934626c6a2f772f4335444c3336527a687472377a517a76474234684765513561696d64562f4c656367682b4a77335a7257706d6e67616b636d4c3334724c3336624d33386b704e7869565154484a702f484565694b774a63666944734c4d6871772f5a7062567a43744b355a4b4a466e424572696b597a715a74455670702b79435a5a6b386e63694d5345464544415363356e46584765797046753453705165416c4c6f5575306d2b2b4b5862706a6c4374432b517759794a4e42434d6b4e43445163305145476c436d4b495345614467616167505936794e30793869584470756f5367444f45454c472f67495a456a774e2f30484755474a4c6d5a4472594c6f4f3859677347464878426f554567444542473953395171625635356244724b496e4c6f6168702f464f486c624772624143504467763868676a3252414545624d414947536e54434c57416f517439424f6955766c7071383046496259417a4a704469524b49726f5333593836697646614555314c346b6b7170636b517979574f7647464d4670784e72363634732b554e4e343938726c552f2f4f59784e686362425a6166396a51414f754543684652597a514443414578466946334330692f312b4f4f6d4d5878586b7a4a5651743657366c713347325537687851646e7a4b307847527662414c436b6f49437274496b73454e62654278474a7741354d7661652b54524a6130754c506647714756752f595a3344386a643648496e457230464c7368322f487557334c6b6b3279755279754f766d35466976713952583762694d7245673566394d684942444e4d6447746c4d50546a384b2f475134734353495649745679477a4a68797077336f6736527a6b37587431306f347434695930594d6d2b504b6c514468674951447a6f377a6e6b7a4f47444167415931425253475a704d5577496b4245676734795947417a43424a3648744b4d492b5043496277677747692f596b2b556f576138706a304a3466632b703050575a496554377a52327633677364797a546d4e6b384969795a774345494d5653757a4864696b566e46397965767176637636783961705877504568566c3263522f3147652f724d3379596c63353677506e794b50524a4a4a387648495153796b6a4f4436362b5845627a6b43316c717262717043574d75484b7861566d6a38696f4a69314472726c596d6c6a7574565047592b3559314e4f686e6c61525443632f2f4f49784d464146413658487450593058466772706c4a6457476a2f6f523449416949305a6754563635452b774f3735552b353278795a354f566838586c7734574c77374c596c6f435258637547696f4734686b645344347a50794171485372693948544e5747797379575257694953646b4e5a6a59614278494341554f7a61545447363061654c4a694a614147706e4a2b36597644426845426d4e7a6d444543666e536f6379544d4a444d7854493571337959646c307a416f744e73784f625148665741566a77797650764676635467414b58384a4136553149435a613245374a394537396c68654a68326278612b634769367164486b37537473366b4b7a31356e512f666b373535656a63626866666e2f67554d55766c4b55357647715531686d463638655176346e62745839766c363137702f484d326b5035416b704b505637393270666775762b6c355035595759654f5a4f4d64656b4b652b704b5768487332764644637a7643666d784d4c4a2b7772395969614d4555454b5a592f2f4e34784e4d39552f36664875595978644a594739706c47375445543230755168576f6a4c37307055685645656a51686f794a574d68695064366f776f6a56514769636c32614c437049326973425964354b54414550433651424135523878504730306e4967416743796f777a4b4d79704c49784a43417762456778574951306f31597752466861516f434a6a71645a69654c78626f4841414d414b59456767785a74464b3055337473503475526b7337416d6d594e4a694c414739547a645a525177414142754c394d765a57676e5956483042436b4331616e625434515941674b77776d414667436d6a503575575758363554625033566e463178325a6b5166686553676f673472766d4a3262706b444671395932336835696c39496967616950326c52574d4e4c4241484d58756d516b45526f696f684c564632707055344d4235457647303656645a3447364e2f2f4f49784d7843732b3672487573486b4576504c7a71466150377a38434532356547447a4a4a5a4379797857694e734f7244414c6f42673263496743574c7148776367644d6f37746d364d44787846674a634b447849556d4a6734634d41757345795954574171526d56336e5279792f6463566d5477414c426f726243446345346851446c52436175384a6c4a6f4d545050794158695a58396a415751476868334b4d4b77543235743136573545326e7737656442596a6252714a7345587442574c6c76772f543749714d435a63324243597a5672546a6461584b347a535661624c7452716f527a563557314e347059514352737169454179796f5661565678614c3671764f623575446a6a454356454c71695a314569366e556f576b6c46356965574b7334732f7963696b31526a2f752f65386547666d63337a745139316e69456e516a614a3656526d6e5156474c75383274662f47627444752f6262327338797335424139455352455863306f386a4571536f6b6f55696853496c68672f2f4e6f784e517a652f724c48734a4e6864755358567a73346d535158613562766a45694d544d52497741304e536e36664e4a473768574c38786e5473492f776e4b534c35697548797942704b2f36544c7a5636636c4871757761764538364c37744b6c624d6c3561356977447975635072544e617a6d394f30745659735861775a6e744e4b6869743149665055547262632b632b56725a56647079696a5a67575564705249565251424e6c7a6e77733434366e6c75664d76435453517136536c66546e64787261392b374f4e6a506b7457314c366465633971304871434a68626e5761375048664f325a72786565367a642b343731426c4f504c514d75555434735a6256554b6b4a584c647466746a66636c647a595775743643524a5852572f2f4e6f784e4576472b624448734d4e4d614f31523262722b3261574f75375970717a745262486766675470693464636b6f6e57556d7463457072534341534a7873596a3643555453534f6c615642334870535066376e58375554553161776478317951656a63646f3267505346354e54726e44754a7a6d7862662f63373274364a5272546955756174524f456b6d6f6e58584630316a6d743363704778364865326b614e6a5a7a6e4f6d57793276683031385877373363634f633172547358325358626e66754e6d74722b57376a5932644c577471616477362b626257346c486e457170707a7445314f78525370417a50617a5a33537953744a78633871486249474c4d4267633067395351674348676a6d43446d44504762476d45424f6b2f2f4e59784e3875532f4b78763168594154544574386830434467464f6d355473436a7549384a4c2f776f446751785742676d5739565a5853536865674b5042794178346341413537435a7558356c2f6e316739334552324745524930437761535a316239624f3030796867656b6a467748444255796145436a6568584f562b7969786c396e4b50754f32386373726f5444546e646f7834555744746f6d484f522b6875327132555179586843452b476c74764c366547324c4e315254557264755477454441434f414143563731536e2b497936436245396670335578646657707562676561665674324a6b49554f462f2f4f59784d78524e425a65585a7252494d4d756b7452326d316264414769757941534630732f4c70586c6c626c567555586f5a3348615a2b3566567459546e334a79522f6e756c73386165585958497952484e394d58456352333256756531784a4f786175626e726c72366c53765671524f394d5a5661626d3849786a627431724f716b676e4b38335332496c58745a4f784e7134694e484749685a6a72583466644f4a4e4d6145336936776341664b48352b5753335a7553465744526831764b32474a786d58526e4c4c6d6d654168616666476535634b4d54387452434b4b444a6756356c7749595370704f72644c374d45716c69754d3468753134376d633054644e30714345716e422f5733615637476a4b55365843724535586f354d4b70524b424f5a43314361524c6a7665484b79777272673530325068754f6d41656f6167394353564b4152706f4258674a416373494849456f754772425a43554675486d5873556c4456586875336c7a673366356c65516334596d474e4354696c6d77354e6b3670696259584639707a784a6a4d7357444e354c2f622b4334766378344f6f6449452b4c357257613237662f2f4e4c664e64776f325a765856664366573857734f46466751575463614e505342506a64392f7a6233576c3534572f2f4e34784f492b5441702b58647034414c574c50493271333136662b576d497a764e4a4e343344555562795a7242673151416c6c6d496e736b6c78744b4b6d634d77464c4442463644476e4934784a614d734d5a73516d74695367526852594852706e34383059614367634e504a474969545945704b564d4868387763474b46596b4e485634317131756b6177394b574c4c7549574f326654547639616b4e724f6b7431706b694549354f685944517a4b3154344469656f39424966464d51412f49496b446d49783841777230456b47364a6a72647349375a4f4d556d675a6b684e714c426d5644446f3649316f3450773074473477383132594a436e5569434d4755624f7a6c2f64662f66556432345635566e6875523361587a634d51755751314c795532306d4b2b79334c755754684f4752315343647a74684f534a69354b6b374b77584e436b424b634b674e2f2f4e34784e63344c41364f66747353334b68314d5472535259334671317141474868353641414d524a6b6236447038416c6c37434143653245484746526d4d5048504a44774b4b6d704175713234424a7256524741424a5071526a6d487a556e433356783745504347632b7356514b46547a63447a71706243755a57724e6552754e5a73354d39467448623176512b664f583452705a4b70632f6c785859526a32575844676e65753344342b58456b697a796a5578764330704b44434c4642676a42344f434a464d51796d354e5370703546626c743264304c66612b47362f6e3571747669583771466c3375437a357931517168572b4e766a3539362b64596d614c6c59613575336934665935686a43414b6d6a795278394d6347693475414134646d37424a646145694a31536f44674c7348424579554a5079557a4230457a55564e4e53415554463978474841592f2f4e59784f55762b2f4b4e33744d513363705138686371483351687569703269514e6841636d3153613034582b4b5230345178302f4234305658514b547071654861644f4772574839716873397a5456415052636a54744932505a4b58344f7750514434666f4a796f37536362486b6a3039746d6e625964667462756c734778717835724472364a4a7732504f6334383532357a72616b65534a52636a566b6b31703236356131736674347663317466454f6c7a7474636f314c584e4e5458632f61616e613277372f6e64662b35334e4f683074624574627a466f6d74497465335365535362594d76394b414141432f2f4e6f784d77794b2b364633317459415353495a6d566e5a7262726464725a4b6b6a4e467a6a4c415944486c556a5730647a49554c6a4a384c54366c386a497331444f6f4e7a4467615443304f527745676348344541517941427472356a574370454842786d62754942477052655777773356333256776c575246536877755462337943626d514b41596d764b5679694f7847616e726333596439396e34723161324e69356337685a765978536e7a74327335694147797663316d64686e6c6970527936744c376c2b724a717a614e4d69454451464c71656969552f4b376662754e6d70643351554c6a7337654e35327275784f7a44697467694d616963706b6b646748466d43365a646174636e4e53792f586d5a2b704244644a46726b4d2f2f4f49784d354c35424a4c48353351414d6a7049533737385a545571707464705a626577704a714e5563355a7155326547564c4f34567131696d3332764862442b5133577434752b2f394c3872686d4734335437332f346171333773706a387166364e53655532623246764c484875763371356c5461707239447a437a68332b324f593236537839766c71375a6b382f54584b41674a67685170676c41644139556371566a7261494d4b67597841476a4659724e476f3878654d54686e364d426730786b424445495a4d4d677377686d447059474d4c474d314f567a4e674d4d4142673659556a6d67394e6e484f4331436f592b30514f4d44774932493044414349326273655a4643474a7761625530557761775945436e366d304667426c43414b52726f446778704968756779694c4e304f53457055706843356d554a4b424e6942434351434d41674148414451474145554c7349317244795a4f6c3559634e434c41775165556c5946774865416742576c4f7373326d4f58624d6956662f2f4f6f784c466b5a42614848357a5242466756753076644a645553596a4b4537485a5442624c62425339595174305a4163416a69777864787a416777373042747964714f306444444e78396f39464839596d3762624f617a6f45695167654848414b464c3977544453357753504a6754794e3834734d4e4a696a496e3176554d4d52353656314e47596b36734679312b7069626c4456365a393171467079496f393745464f594c7067414753676b3446416d484274385938484c6f2f545072496157354e5661574d5331687a4c734859686d556169326556616c6747314332794e6966782b37634e7a2f306b59687541332f6c38675454527a4c356f3641345167664d58706933577433626d365875355a444e4b767242544a70634e566231574a3457366b39656c307a4263362f54784c776552584c43584976792b6b494a6b53354c4e2f456c464e576761736257367772696c515133537a6a51524f427051724550325143353446534f6c636f31557554714c4c7077514b344b51714a654e57557a4747707158556c615653353761577278687a655a75674951486f697344545552514e654672735a6f775a515355746a585367506674395936302b2f6c6c4d792f567576726d4e696e316335667731667139356a6a686a756b2b59316e616c4772396d3359735a5a546e4c584f3371584b355a7331716561715664565075345a3459642f486666313958564c6e567972324c6c50597037637275546437432f792f3350575837377a392f762f2f38762f3876333933445747504d73734b2f2f4f49784d49374b2f4b5a76396e4141665a783176485075732f787737765050485864382f7565742f39666d3776634d76336e72393530576665792f504c4f766a6c5771587930502b55434155746a4231322f3166755965324648716b524a71574e384148556f6d6a73384334777943783166302b4b6a4c6370743157313564786c7238717777334e4b656662622b7141334a5849574255327256796879727430564e586b6b696a724e617374737955475a59516c454b532b4c6279495861336b4a45776351764f4f794e4d526d7048646d7365574f39416642347230657869354531555476636c43446a5264534b6355512b4546455249376b2f696c7978343859515654784175364744356c2b30567a2f716265362f715a6479324d50525265584e68335246483072577a386447504566537254556a3172557736574f45554b6879594d5843555167626950683839697868374d5246715549466558567971622b4e446d31556c31507735575664467956686c51696643784d35796b35642f2f4e6f784f677974416168337370526252796f327457574e35554f57717a733755484643344978685a5959312b4670646435356252725672546c486f546c30385a5056625646334f586f7a3737393371616c64614d4650556b35363533723061525a547a746c4e685844396572586e46684c56484235564756446763425057486c3846736e6d6c6351326f4f305749513433434b4f4779695349707156724878576774424d427561797a4d59324358696c66546945716a79534e4d376373614f317144697a696e454c643141592f622f56596d6959347262503437796c6c4976746b36583739792b7241636555504c7873756173534156436745613858495851346b50323242735067392f4b47724a4863704d39564966706e386e4f5835752f2f4f49784f684678426156336e73772f4639536e7a762f334447583039583837747663516c6c4a57634354524348497932384f4f6e4f5132376a63316a72725a5843366a39314b395a324a797453612f316d6435647261444c435a4857584e61446b75466272744f72326e336c3359685073317178462f3352696b4f5257616a3032413052694f4263564357596877553279494869586a396578714e4735376836387466576f3462787253735442314478586b6f34563779686d4649765347554a314350427a573830744f54726c6d2b7672464b62534f3056357033374d33796a5332494f354262416f465763347a6a52706c4b6c53383332574566315a53366b416a55584767326466635a53706d2f625a69314a415156416e674452436857587033413043637254326b70656f43336859757a3157786d7a4a6d4d4a494d52775331636934786d6b6679486c7274496f4e75456f4932525a554a57504b58595a2b75746f714c446672434a794d6a6846696b6c38696a732f4a72386b75362f2f4f49784f52474642615766734d772f4c56334f316a71765731542f567459377455466d76576e385a7955773553514a517853666944594a706b4e4b716c54737261636c61794b44596e714837645678355a4a4b736f567158686e6d61696436304241494e4a4578414a3345573851736d7a39514d4c504766714d556c69513854314e506c4b54496d32774a6b67424d5573504551396134576c527068566b53436c57634f6b6f685a69324c5056484769456f7368756d43794b6e71327165386c4e4a787a6166744a494853636e69304d6731575a327a4772314f6279382b56377a47377850626274736559536f364e755156535063315277356e796e754b306f2b5a7a30387a4f4e627854643574555531486f544f32655154593545334b492f4a58323366336e765465644f2b6b6365794d6b65556b6e6861724a4252524d464967793434464b74453548683361394743487a5a61497838734747684a674c4653796c75625a5653664d5165796c7273354d7275637148714f5534536c792f2f4e59784e3474432f366e4848704d315748566b55304d53456c4b6769384b696b6851753861704d68516b497059615661517730557774494c457045396d7058362f6a2f5570536971517557524e5278437a36576c316336545559784b6b717a4b704c537553544a5653582b6b5432566d657243563030716d6872593163566f4e577a48466d766553754d57596f62684c70497438762f35564b537535484a533157713270577a576f576f306975694a385a62474456733547557053332b50387279572f35387070584c49525449694a7277694a762f6346687556414145416b686555695661576c6f514143416b452f2f4e6f784e41774c414a3665317049415744696d7a2b4b41775545437a51767a2b7a7a566d774d5542515177594d2f4b4d3352774436446b6d54426c77346d6442635a5a4161515558334341353267527768414b434864637159676f694469695a6146594b53467a51514c42534d4b6b314c692f77794349424b5735657472614a3631784172434a527342786a42686943786155464256455a63676b68393032586a514e465274466e714c715a47635a44684561486c7a7843484c6d694a416c4f6d36317472382b6d753068784b4a6a6a56476a49426b4830413641324f4e4f5a6376554242525a4b4241456b6451744968705a4867437533635a6f58584d53464669625156776759533059736d625177597359684d6638456b444b68464e2f2f4f59784e706a44425a7a48357252414d5a41703269456d79754c756730422b3049327553756e31684c7734524730586859424269455467794f4977702b49574b495775704d44414b50782b514c49544c61367852755563696a7951787851534b78654249626765515763353249724478654458624c344c566f3279735956777665626b63796865363348365a437a57357436486970494764434d50652f39326869394e4438627033666a6376632b43336662646d455665562f356530687845563375744d516a454d5365704d4c2f744c43434541446844326f614c4564522f6e646c306e70724d7667754f4e656c793347757778544c70686d6c6d342b71614c5569475a75795150516b5653744a5131514d4d564145727761786d756779356e2f4e4c49517735686b6c476a497930534742474a6d796c59755042794b6147796d4f68444e5a4549775746506f7266467431494e7479686c4568724f672f4e71784a494f6d33626532676d572b584337622f6c6f3363564f42577332677870447132346d79763638626a57657275745a35662b3874564a323953586f744d31354a4335694f544e4a4b6165636e4a525877715666372b4f39372f7634343439733336395335712f325853374c384c4e2b376e557556384c504d3874574d592f2f4f49784b6739362f6165666476414163556e4b39446e5573574b5044574865622f65762f2f2f3964332f64662f35662f34612f4c5774574d4d613965336377704e6331765044574e666e313766634f612f2b377a71667976336e646672642f39542b64615556384c644e4e31612b4f6564335834326f414676647851414a5a683961363737695a557062596d7661676f505954436c6a4939307270714251714e696f3253714d53644177524741787064596d554d6761465647325944424d395a4368676879327853685851457a6179694a6b696b51455a3551544248455a524c4573714c396d2b34504c6157736c4f6951616b686d4b75626d36655261686d7331734977764670745063776c6350645a6d547453764c4b38354e4937564255666956456e51724746696436794a6d3258547138392f2b587a372f76392b712f786d2b6e474b636f556159746262316e33546f5844343136707564584f617638347358424a6c704766534e5741784b4653634161464947516b616b6d4759742f2f4e34784d4d787441612b667350536f55584c77703379416f6d59396b723332625067516e456850572f5a47715254436c6d455159376a42614943396f6d724456735754374950737169684573346d524b6f685555516f554678596e46706d537a4e4c52704f7070354b5a3772487a6a52476f524561434a42546b454849456e6d696f7547694674496c596f69504c4e4d4c4e50516c6f57455865783664304d4a657a5873566552614b4b696f6856666d385650486e42794b674a4767364853427a4348514d6979506d642b7270752f3934306e6d35716469425a6868555553746a53655a614958693768353037536f5370316c6c645158546845574a772b513078525543444768534850696e4864536d65486a6741417870767353416d32386342526744676d5747435a4b5737424a6c4c6c3667497244677351564335692f6939546a485954467073754b634e6e2f2f4e59784f73753341713933734a51335a73536e7a737969516a31314a666d44356d786974615a57706f666872575a6d6474324e567364613074747a70303279645656474b64424d546c346b367448493652456f2b645072656a4f75573364386935517556596b6c6953534e4c58434f736975703570785a466e4977774d61787a4a4372357263746e6e36322f393576312b3337647433372b6b326b597048446b5a496b724e65534f79536a5474375633786e6e322f7a756938716d4571644936614851456d70497935474364426857334b41424769613642494e6a4867354e4179514e49673869427a4d617778452f2f4e6f784e5976382f61636e744d4d335a444568497838524c614a627058524a564978454756715a67745a324758783263674755314b577a59376a5a4f6b685761734e774a54552b616b31496e4e524a746f6b32305361394975704b2f39735364305361314539704778734f35654355617365317a5635597a4e6178326e53535074734e6a3058704f70753176746a63357a6e516b3545315a4a33524f384f2f306a5a7a57744e54576b54576f64626e4f642f2f37655866757668334a324a72524f746830477835734f6b314f7964685531622b36356274393344707133585550714a6d6554567373666f6f6d717935694f6d6b33306b74533441413034684959326565414549716b736841774544376a517066664d46556249777944637a2f2f4e6f784f45784d2f364a3331745941415778426a426644334f49702f777757525054425943384d4f6349414b416a676f47347849512f44416841774d474d426f77514146324647414941475a484147646a69357870494d344530317a644330495a5251456267796b52675444564b33445367513353565743546545516b38374b70544b35637742596959697248754d444241595167594b4d514c7a474342513051416f77424c4856306f4e424d656d79355345683357305a4644355643426b42466853557932436d6b7571582b62614d5573626b6275536853785151564652344b45594167734c48413847416b43573231366d6a39796d6f593434706674546c4351304253795532336641773644424179635353744a514e584a614269452f2f4f59784f646874425a523335375a41466f616731647a7655637169303437324c2b76706e444578495a65757476377255346470586c5a66457849506a794142334c645277327a73306f596a53794b6e7870624f384d34642b415a4c4b5a32394b364f6b6c38787a55626c376c3666786b6c4b30395537476d534e49617241374a336368677441323763302b6373617458446c695456624d596431654c624f796c55714e6545666f627448473872465444504b4e357a4d555a59785272307a57722f596944397376662b70424d585448654a59686867416a75594341726e536f674e3736765943556d71596d5a3259786c6953674141474a4e4841486d5647475341494168596f596c47416751446e68674969764149455a314b476b42774b4e444338614e426e445a666c557861325670396d4f43702b4b58734f51544a327363635a6e794f7134564e6f6655594c737370657055716c53504c384e30616f676e67324f534a49706e71627a394d4a59677652796b46327330535661694a616c485371313579473177557668727932686942434534416a544144584d4b67514367794930635934636357516a35564557734670524955426d496f4e416841304955776f674d416f594b45496a78314f7347327a4969545a494243464667416a2f2f4f6f784c746d74426150475a72524941705a49774973495247444c4d4655465741522f466a557973493461626266462b6e6d6431724e4e4a33776151314659346b5641674a426867515955596935533256304e736735416a2f70775158425444365675376c525356514375325139626c53502b2f44714e59654264616d626571594e517758636c596b555442564c314d6934524d5a49414b3344496879454144694b536734435633443735746d654b59676864734f73635855365377624147784d674c344b3959553669746243576b4e3354715134747854465279456d624d30724641323375704c47494c6941436a59674a485153636956704d504c7244524177776b564768464d7a3549476777554b51344b6175456d47767830485a526e53436171703972785a75576f772b585a4151473078574d7363672b5658654c7a75796651424335653242656c4b36614938736c547279787733476973534b78515042796e446c75784949585964615558446f6c66507451563342687361773171567a396f386b4662683263617761514f344f477049454a46733638537470507034657978473176456b6d33474371547a5252505457526f466f375659654b4546694879364a4b6368503141707a7059344a69747243756a75626a336449704c5047795652754a2f625a557832614f70494c69366e5a5945614247727537367a4c396573436172364e426271513758684b6d4652796878583861384672383272377a426d2f6d66565966415932476a61324b716c6d50454a637a74436d7170552f2f4f49784d4d39784161724764683441574b70524f6356686361776c32326e433354733263526f574d5a65797a78387a54743065613058556457716869513556515756374154754657314f5562734e4d7663785951324975717a377946684143423457737743414953414677772b52677a425842534d456f5451326e6e466a4b3246544d504d57387a4a435041414232594f774a68695a464f47543049735941774c356d5270326d696d53434543526d4b474f6959786f624a676c674c47424b4679654b624568777330783254732b4d595a3959665649324f374439656964794b59564c48334a7a4444657143555a38687a4c756575546c6d68796e727378416c612f536632376c577164694c3250625768787361785a49324a727a2f3247597271717370574b39737a656a576f794c4a42596d4d42594e457845544b655245564a5661495443534b535456314b32554c4f4b713763617631677164724d495270634b7955465365664a5a464a714d556b5778324f654f65534b4d596f57632f2f4f49784e3945492b615847765a5333626a69654c45524d564d717577694a76316d71524a476b4b6d78646a4b71474c4c722f6a647177576b73736c4b35496b6f696d42454b5368614453494a694e696875715a35697276636c34674535576849576b41676a44383168474177524538775057513455306343427359316b4b616d6875594967414951434d39304e4e51424c4d4478594d3550664e4455714d6253704d5968644e2b43344d48675344426c5064754b773569695a686c694a533068456467574c6c557132336f76774e53702f4d636f346b2b567944486c796a363474626864572b34654762524d5a466957595648326162394b3530705357764a4764524438465376697a34626d547a336e4c506a696362512b4454506937717478574c786d56326254716b364673645a2b626635436c5270304e4d71694d6f753148594f756e65622f64356b2f3562366e362f7659564c494b5070375746432b7a6c4c74357338314b73537a4952383566587838396b6c50704a35736c74662f2f4e34784f4537712f716a48753653305269334663525755526a6b53734a3035517a6c554453465868335a4c4c70473375457053615458576269656e757341366a2b344b6c6c75517766347932524333556f4679585859544d78525a46556c597651304e51547231333031455253694c692f4d336f3465376e70724c6d38696d6e4a706774536d2f6658782f75506661784f2b43437567466a776f62644b51454270504a556533384d363565707778477a3930396d647063383179626c7036754e586d6a795a4741424d6f45587756334b37662b342f7a3933374e2b7a5272316b355049497246696d42306f4e4f503537756e2b667252653565336e61645a335a6d384d7946394e5546714b6f4941705074464e43543341466e594b6b484144663634334862473166525954464e456f7775716e5757676831414c7a6439756c2b34582f684d326f474c466b71414e2f2f4e59784f4575692f4b326673504d39563774664c4a72725335446758423159484e7a6d464e474b367757646f7a57362b724237386c55354d77665055684d52357476764f54623735395858547464637a4c6a3169517476593562737a536e50714c52635a6b526d5a72326130506a364375617a48346e546e3464712b5074454b4e534a335139616a726f393474384b76753866503962356a592f6a2b587257566b3841337a7935494a624e464339376265315470557a753955355462654f53694953793856536c4543324a315361507457756c3431464b6f48664f535632794e6e38716c5937634a576b366243712f2f4e6f784d307566414b3258734d4e46576e463175384c71506f765842565348733354675474647a6671496a5438546f76694169776e42465744674a4d3050726c654771646470336e3356506c63795151544c68735433346d563333796d72617a6b414e42424547424156515141786f53714368614f615279636d354c62575464345755706a434354637736496871536d4b31463861746a626b76776373694a5063304f713135507564642f2f2b332f2f5a7337737a54364c764a3552594856383730635465723578395666646f702f6d764f4d2b79384e30656151564979324e6f4169464556526f4c574b6758695372383974622f745237614f2b5643495a6a53596d4634722b64416944662b41374e6438386f673132384f41465541712f2f4e59784e3474792b4b3658734d4e4443564764715a53565348676c516c4a4b34634c6d467450574754444e474535712b73516244456a72435336666e54792b722b5454326232724173584c6d6a4748424c6266497857584c5671534e58436a6559693661352b746c6d70364e56435355657446496d555a7257694c75724567754f735041624230454c42304849754c774d455a485131703568585236356d74747037766b70714c6b3457457834776d5239575070346b6d30557247383231477076546a3031717a7173574b464c426f4a6a6a5961374a516f654f7354764631516530742b354e74396461727179332f2f4e6f784d3077532f4c4358734d51335767467773486243305348576a4e3932495139545164586f4965683754576f744e5031544345435356736c6946705741554d346869744a716b4d5555707249744c495643354b525749526f365774626646386238493361695a55776f69566352545a7856596d67524532496d765a7474637354384d634d69795444446d576a6f734f6d6356466a71376852744d7030466e427948494f43356f4b686f4e5955646a304e4a4e30695462726c64654a362f58316d756b69316c564654546f6c7268594a4b7547754575706939497572707453757859546a304e4f6b4e414c47496761486d67304638674d776c4a625541523558654b376e30336b5656547542386956456d4561426768576b6d6751716d2f2f4e6f784e5976492b363176734a512b5566435350424743596472456f2f57435576556c55732b633963786f6a544e72576b3632353751724c6979314879592b316d69354455703042734f625666316d6d4a443031773548557a5163634c4651564a6831745a4b4b334d79762f71734f7555487a4e6378717a4e6346484e62583979774e6d4a44336a686e465a33446b3248564e49612f585a745075312f2b6c515767356f4a6f653472634d334b303166315458797553737a4466394b544d6b6b6a716c78355174414b672b467961465465533346645641426c695a5a2f464a2f49476b5841455a4c38424d41656d73734d474771594b616672787674427538366b4a644b524c526b6a464359616741555243724b467a78554255525245442f2f4e59784f5172552b3653666e735166654234584348735167354641364273445973654952596d6a61594b454d637068523274734e526f4b4c53564a44306f47776e7855356d757a72366156706b50703770704e344872567354557755394d3869724378784968574c54454f687a465861384852463964464e326f79616c47746d62352f6e3156555a747276396e74705774726a5a7a5a7075706c655661344e686965426135554f672b565652786f64437a6f4e4d75345a7879734c4655514a345a326137323236577655334b3032704d474647474845434d416a2b5a6351524654476e6c4b67516e52584d71474f2f2f4e59784e3074302f35656655394141524846374c71655a6d54453179626e375474325a61655352654e334b53704d57366d4763716143752b345241396c32467131626f356d4b793158376b4379436137695958506875335238332b4d546c797345414c55466849307569646a4544616a446f7a636c70374d43535757556a754e4962516d45537661347853565861616e7235564b4b4d557a625131457161646a38747176557070456b35474b4d5161773078706c7152386d3648735568714448366571567a553837396d5566476157724670696861517753476c684b4b58304d7669554f745057664130487865632f2f4f49784d784c68425a4b2f3572494149656b4e4c52335a4447723776304d676c555963574335625575524774666c55686e62555655456a4d75636945566e346e34766e547865636e4a485a35724c487634367264334f3074505357492f6a2f4c31533358316a5570497a5674303033484b7a3953656579704c314e53627458733566566c38576c726a75764c4f7238693855526b523452556e4a5a3456327367514349496351415a6b49447164616677674e68637161302b67694d4d45564d63675743425277426876563549454567774d42474a4e474d6b6e4b71476e576d514f414a494943357042544c517141535442527779597330356c35494c516d7172734f57775778436f30794167307038315a4d324367307165514a577246526f59386f475857437742443451676855536b7349786f364e4d494f4d5364696b42762f41635a61497a704d395256477748424836686c564a4c415946696f4a6571444d505164424457437a6939565177334478633556517442575148463268492f2f4f6f784c46675842614c4835725242434c31554c5351586176354c686f72465664743439386a67754b53702b6d7070396a674a637a5159655a4732366e43786c51463047586f4b4e424c54774d3041436956644351766c39334e334d59483747335367686963724a51677344546e5a7979366a6355746d6d366d4b33457849645968636378594f655a38776d4c506447356835346164527055414d306b5434513878534e774e4a354a4a6f65696c614447624b2f5a6778706d7a68586e565934324e35706d57714c4d4866656a6d7230736c46444b4b434f4a675479676143516841457752497452745179493535353536336871356c626b4e71587464596d3175375034773151784b4936696345784a2b485963464f64623678692f6b504a30794e3147614b686f64546936714f77414e4231482b5742754d77317a5446564d6937735656343264497653424c57456853354c347a536d6b79483253786c593644346a46576f7159675630755070687059486f4b4e734a70544d566c723947626439676e6d2f61697a6b756d70656f3057466c557a424d756c4e5345476f4f542f6e6e7a78315866446374534b72657a33454671567132596c474d635632795433795a4166307449745670356e764f7436334e6d314b6175664b6a74627638703739562f6c386972485734547947334c757679754c57377675736c76765a73566e75565471624f65545675625a743249584b53524774566250374832345849416b78726369646c50356956704c6e71716871754c566e666f51744759676d2f2f4e6f784e4974432f7154486339494162514a37737971487a456471786a52367065744d414c495070652f6a567a6b6856476e7130796b326a4b2b764a76484967705946627465546331736f4b493055696953317033714c524b4374317153776a4c4e6d314d3733683258633457474b43515a4975484e496f35687a477a4c744f5a726f317230374a4e3638732b6661537637736d78577645582f4f2b5a7247713273745849736b33717062664e34333274782f2f326172525a4a63342f6a5a616e6157356f42796e4b445768587a533135695972414b637442715067584567634161416241797376796c656d4530535430526769534b2b6a4a5238537a463161586a6c744438696d486c4e7863395a7642536143346b6a45736a5a524d352f2f4e59784f67716b2f4b4b666e704e434a4237596c45345a697577435534687270376b72567a554b31367165785a4b746c4f4f51757053784b55642f7453707932313866717146443549304b6949504c6b534b6b52556c7436493667577062634a625654715271434a574730632f53725a627a6e4e623638374d7331544f3934616337567a387164617a7437486161527833386438627935634d32307a4f616a3565494e5271736447684a4553456f6c416856565a55794d344e456547354574756b3538306750424b446d49314d774f4157654148435939576c6b334d694d6f7372595045526548386b457336624c2f2f4e59784f5175452f4a75666d4a4e4f533250494668363564713262306b37705a3169717470726e42364e6b3767644878574e6d5676537a6b37532b36636e744c6e53363631316139765558537a617a50374853486d5971313675387470386657536f45305941724542556e616949326c784a3349776c524c4d4d4e4b576b6871384d5553507167704a384c7a79624d5445584674507a5178657a6570506c587674727371564a67743756576272705a32334a5a483865724f4c6a79695764704c4473544f3467673435706b533570564438534143614a646e70377332334c4e51334c6c592f4136413241634d48342f2f4e6f784e497650413554466d47523558495168796a4d797345704e6662693073336f5142704a68474e554d546e5931707752784a7073484e72726c4b4e59576d546b564d485a4e615a4e696b45556e5063746d56545a527046582b745a4547497873597852496c394b3532365633686279332b31546f6e4a554b484a75526b376f312f6b7a366e4b613931386e35577a56646f7a7a35795839622f6a2b4b32636d63782b30786c58336672693257372f48696a6e756d4e5267367553683271716b7a3942356e3133334a38655955585076416f30393153346971425532322f33396c6c62684e74446d595356715664463936515a6d632f56696b616a6b76786c694578736d37595949362f523743316274756f7a6159302f4a566f5a4a432f2f4e59784f4172452f4a54486d4a4e594b6645426f2b6f495a7169524e785a7076434648644c49557357737170537a664b4b556a7176636d325a36776a5674436c6c555566757a3141784e37764b715557383253567153533368354c49592f6570475354617a784f51585132565a4a547235794c6168693268616b7539585a6564703462664474502f556e654b6b56704b7059776c543238316c36527a63746e74716e58555638655662474d63644b594565534a6753797a2b6a5a6361546c7a4d704c74523068533257573757547632516735494765512f54534c736a6f61737735496c685a57787a6a6270476d682f2f4e6f784e6f757642592b586e704e504530766156557274654d6a52794e7458695a75476368534a6e7343724e5178563377316f614434346a526a724b6a304d4e5176486251796a577862457531636178706272576a354e4b536b3665534e754135433061334559584c504c5a3074787578537a576c69394f6264317332533466484c52522f65456e7170657339543272796362505a32593251592b70795a5a6334624d3974355272747253314a7333756a386e44722f4e53795556305a646554634e6235736d356a4c5670616f364142695741414d44456b6951554371426b52662f2f2f2f4158642f2f724c53515548755048566849384a536f53446f616f496955424162574d6b78425455557a4c6a6b354c6a577171717171717171712f2f4e59784f6f72444259755848704d334b7171717171717171717171717171717171717171717171717171717171717171717171717171717171717171717171717171717171717171717171717171717171717171717171717171717171717171717171717171717171717171717171717171717171717171717171717171717171717171717171717171717171717171717171717171717171717171717171717171717171717171717171717171717171717171717171717171717171717171717171717171717171717171717171717171717171717171717171717171717171717171717171717171717171712f2f4d59784f514b384349685868474d414b717171717171717171717171717171717171717171717171717171717171222f3e3c2f617564696f3e3c67207472616e73666f726d3d227472616e736c61746528302e3030303030302c323136302e30303030303029207363616c6528302e3130303030302c2d302e31303030303029222066696c6c3d222330303030303022207374726f6b653d226e6f6e65223e3c7061746820643d224d30203130383030206c30202d31303830302031303830302030203130383030203020302031303830302030203130383030202d31303830302030202d313038303020302030202d31303830307a206d3935383520313635322063323638202d373520343732202d32353220353630202d343836203338202d313032203535202d323230203535202d333932206c30202d313534202d3330342030202d3330342030202d342031373320632d3320313533202d3620313737202d323520323133202d3238203532202d393620313132202d31333720313139202d31372033202d3237352035202d3537332033206c2d353431202d33202d3433202d333020632d3237202d3139202d3534202d3530202d3731202d3834206c2d3238202d35332030202d313030372030202d31303036203234202d353120633330202d3634203835202d31313020313438202d313234203631202d31332031303136202d313320313037322030203539203133203131372035392031343520313135206c3236203439203320333633203320333633202d3335382032202d3335382033202d3320323738202d32203237372036363520302036363520302030202d363334206330202d363934202d33202d373337202d3539202d383831202d3831202d323130202d323634202d333830202d343836202d343534202d313531202d3530202d313938202d3533202d383330202d3438202d3536352033202d3538322034202d363630203236202d323633203734202d34353620323431202d35343920343735202d353720313434202d353720313238202d3534203132373220342031313634202d3120313038322037302031323337203835203138352032353020333335203434382034303720313536203537203137392035392038333020353620353831202d3220353937202d3220363735202d32347a206d32353430202d3532322063323539202d33303220343735202d35343920343830202d353439203620302032392032362035322035382037332031303020333338203431392037373220393238206c3936203131322032343820312032343720302030202d313734302030202d31373430202d3330352030202d33303520302030203132343020302031323431202d333137202d333636202d333138202d333635202d3138352030202d3138352030202d33313520333632202d33313520333633202d33202d31323338202d32202d31323337202d3330352030202d3330352030203020313734302030203137343020323438203020323437202d3120343730202d3534397a222f3e3c2f673e",
  "linkReferences": {},
  "deployedLinkReferences": {}
}