{
  "_format": "hh-sol-artifact-1",
  "contractName": "Present",
  "sourceName": "contracts/Present.sol",
  "abi": [
    {
      "inputs": [],
      "stateMutability": "nonpayable",
      "type": "constructor"
    },
    {
      "anonymous": false,
      "inputs": [
        {
          "indexed": true,
          "internalType": "address",
          "name": "owner",
          "type": "address"
        },
        {
          "indexed": true,
          "internalType": "address",
          "name": "approved",
          "type": "address"
        },
        {
          "indexed": true,
          "internalType": "uint256",
          "name": "tokenId",
          "type": "uint256"
        }
      ],
      "name": "Approval",
      "type": "event"
    },
    {
      "anonymous": false,
      "inputs": [
        {
          "indexed": true,
          "internalType": "address",
          "name": "owner",
          "type": "address"
        },
        {
          "indexed": true,
          "internalType": "address",
          "name": "operator",
          "type": "address"
        },
        {
          "indexed": false,
          "internalType": "bool",
          "name": "approved",
          "type": "bool"
        }
      ],
      "name": "ApprovalForAll",
      "type": "event"
    },
    {
      "anonymous": false,
      "inputs": [
        {
          "indexed": true,
          "internalType": "address",
          "name": "previousOwner",
          "type": "address"
        },
        {
          "indexed": true,
          "internalType": "address",
          "name": "newOwner",
          "type": "address"
        }
      ],
      "name": "OwnershipTransferred",
      "type": "event"
    },
    {
      "anonymous": false,
      "inputs": [
        {
          "indexed": true,
          "internalType": "address",
          "name": "from",
          "type": "address"
        },
        {
          "indexed": true,
          "internalType": "address",
          "name": "to",
          "type": "address"
        },
        {
          "indexed": true,
          "internalType": "uint256",
          "name": "tokenId",
          "type": "uint256"
        }
      ],
      "name": "Transfer",
      "type": "event"
    },
    {
      "inputs": [
        {
          "internalType": "address",
          "name": "to",
          "type": "address"
        },
        {
          "internalType": "uint256",
          "name": "tokenId",
          "type": "uint256"
        }
      ],
      "name": "approve",
      "outputs": [],
      "stateMutability": "nonpayable",
      "type": "function"
    },
    {
      "inputs": [
        {
          "internalType": "address",
          "name": "owner",
          "type": "address"
        }
      ],
      "name": "balanceOf",
      "outputs": [
        {
          "internalType": "uint256",
          "name": "",
          "type": "uint256"
        }
      ],
      "stateMutability": "view",
      "type": "function"
    },
    {
      "inputs": [
        {
          "internalType": "uint256",
          "name": "tokenId",
          "type": "uint256"
        }
      ],
      "name": "getApproved",
      "outputs": [
        {
          "internalType": "address",
          "name": "",
          "type": "address"
        }
      ],
      "stateMutability": "view",
      "type": "function"
    },
    {
      "inputs": [
        {
          "internalType": "address",
          "name": "owner",
          "type": "address"
        },
        {
          "internalType": "address",
          "name": "operator",
          "type": "address"
        }
      ],
      "name": "isApprovedForAll",
      "outputs": [
        {
          "internalType": "bool",
          "name": "",
          "type": "bool"
        }
      ],
      "stateMutability": "view",
      "type": "function"
    },
    {
      "inputs": [
        {
          "internalType": "address",
          "name": "recipient",
          "type": "address"
        }
      ],
      "name": "mintNFT",
      "outputs": [
        {
          "internalType": "uint256",
          "name": "",
          "type": "uint256"
        }
      ],
      "stateMutability": "nonpayable",
      "type": "function"
    },
    {
      "inputs": [],
      "name": "name",
      "outputs": [
        {
          "internalType": "string",
          "name": "",
          "type": "string"
        }
      ],
      "stateMutability": "view",
      "type": "function"
    },
    {
      "inputs": [],
      "name": "owner",
      "outputs": [
        {
          "internalType": "address",
          "name": "",
          "type": "address"
        }
      ],
      "stateMutability": "view",
      "type": "function"
    },
    {
      "inputs": [
        {
          "internalType": "uint256",
          "name": "tokenId",
          "type": "uint256"
        }
      ],
      "name": "ownerOf",
      "outputs": [
        {
          "internalType": "address",
          "name": "",
          "type": "address"
        }
      ],
      "stateMutability": "view",
      "type": "function"
    },
    {
      "inputs": [],
      "name": "renounceOwnership",
      "outputs": [],
      "stateMutability": "nonpayable",
      "type": "function"
    },
    {
      "inputs": [
        {
          "internalType": "address",
          "name": "from",
          "type": "address"
        },
        {
          "internalType": "address",
          "name": "to",
          "type": "address"
        },
        {
          "internalType": "uint256",
          "name": "tokenId",
          "type": "uint256"
        }
      ],
      "name": "safeTransferFrom",
      "outputs": [],
      "stateMutability": "nonpayable",
      "type": "function"
    },
    {
      "inputs": [
        {
          "internalType": "address",
          "name": "from",
          "type": "address"
        },
        {
          "internalType": "address",
          "name": "to",
          "type": "address"
        },
        {
          "internalType": "uint256",
          "name": "tokenId",
          "type": "uint256"
        },
        {
          "internalType": "bytes",
          "name": "_data",
          "type": "bytes"
        }
      ],
      "name": "safeTransferFrom",
      "outputs": [],
      "stateMutability": "nonpayable",
      "type": "function"
    },
    {
      "inputs": [
        {
          "internalType": "address",
          "name": "operator",
          "type": "address"
        },
        {
          "internalType": "bool",
          "name": "approved",
          "type": "bool"
        }
      ],
      "name": "setApprovalForAll",
      "outputs": [],
      "stateMutability": "nonpayable",
      "type": "function"
    },
    {
      "inputs": [
        {
          "internalType": "string",
          "name": "name",
          "type": "string"
        }
      ],
      "name": "signCard",
      "outputs": [
        {
          "internalType": "bool",
          "name": "",
          "type": "bool"
        }
      ],
      "stateMutability": "nonpayable",
      "type": "function"
    },
    {
      "inputs": [
        {
          "internalType": "bytes4",
          "name": "interfaceId",
          "type": "bytes4"
        }
      ],
      "name": "supportsInterface",
      "outputs": [
        {
          "internalType": "bool",
          "name": "",
          "type": "bool"
        }
      ],
      "stateMutability": "view",
      "type": "function"
    },
    {
      "inputs": [],
      "name": "symbol",
      "outputs": [
        {
          "internalType": "string",
          "name": "",
          "type": "string"
        }
      ],
      "stateMutability": "view",
      "type": "function"
    },
    {
      "inputs": [
        {
          "internalType": "uint256",
          "name": "tokenId",
          "type": "uint256"
        }
      ],
      "name": "tokenURI",
      "outputs": [
        {
          "internalType": "string",
          "name": "",
          "type": "string"
        }
      ],
      "stateMutability": "view",
      "type": "function"
    },
    {
      "inputs": [
        {
          "internalType": "address",
          "name": "from",
          "type": "address"
        },
        {
          "internalType": "address",
          "name": "to",
          "type": "address"
        },
        {
          "internalType": "uint256",
          "name": "tokenId",
          "type": "uint256"
        }
      ],
      "name": "transferFrom",
      "outputs": [],
      "stateMutability": "nonpayable",
      "type": "function"
    },
    {
      "inputs": [
        {
          "internalType": "address",
          "name": "newOwner",
          "type": "address"
        }
      ],
      "name": "transferOwnership",
      "outputs": [],
      "stateMutability": "nonpayable",
      "type": "function"
    },
    {
      "inputs": [
        {
          "internalType": "string",
          "name": "text",
          "type": "string"
        },
        {
          "internalType": "string",
          "name": "color",
          "type": "string"
        },
        {
          "internalType": "uint256",
          "name": "spacing",
          "type": "uint256"
        },
        {
          "internalType": "uint256",
          "name": "y",
          "type": "uint256"
        }
      ],
      "name": "write",
      "outputs": [
        {
          "internalType": "string",
          "name": "",
          "type": "string"
        }
      ],
      "stateMutability": "view",
      "type": "function"
    }
  ],
  "bytecode": "0x60806040526000600b60006101000a81548160ff02191690831515021790555060405180602001604052806000815250600c90805190602001906200004692919062001348565b5060405180602001604052806000815250600d90805190602001906200006e92919062001348565b506014600e556037600f5560aa6010553480156200008b57600080fd5b506040518060400160405280600781526020017f484244204a434b000000000000000000000000000000000000000000000000008152506040518060400160405280600381526020017f4e4654000000000000000000000000000000000000000000000000000000000081525081600090805190602001906200011092919062001348565b5080600190805190602001906200012992919062001348565b5050506200014c620001406200127a60201b60201c565b6200128260201b60201c565b604051806080016040528060448152602001620071f0604491396008604051620001769062001c12565b908152602001604051809103902090805190602001906200019992919062001348565b50604051806060016040528060218152602001620074ee602191396008604051620001c49062001f65565b90815260200160405180910390209080519060200190620001e792919062001348565b50604051806080016040528060418152602001620072ce604191396008604051620002129062001f20565b908152602001604051809103902090805190602001906200023592919062001348565b506040518060800160405280604381526020016200750f604391396008604051620002609062001c85565b908152602001604051809103902090805190602001906200028392919062001348565b506040518060600160405280603b815260200162007369603b91396008604051620002ae9062001c57565b90815260200160405180910390209080519060200190620002d192919062001348565b50604051806060016040528060388152602001620073d7603891396008604051620002fc9062001f7c565b908152602001604051809103902090805190602001906200031f92919062001348565b506040518060800160405280604f815260200162007cb7604f913960086040516200034a9062001fd8565b908152602001604051809103902090805190602001906200036d92919062001348565b506040518060600160405280602781526020016200758d602791396008604051620003989062001d0f565b90815260200160405180910390209080519060200190620003bb92919062001348565b506040518060800160405280605f815260200162007459605f91396008604051620003e69062001fef565b908152602001604051809103902090805190602001906200040992919062001348565b506040518060800160405280604a81526020016200740f604a91396008604051620004349062001faa565b908152602001604051809103902090805190602001906200045792919062001348565b50604051806060016040528060408152602001620078d4604091396008604051620004829062001bfb565b90815260200160405180910390209080519060200190620004a592919062001348565b506040518060800160405280604381526020016200798a604391396008604051620004d09062001c6e565b90815260200160405180910390209080519060200190620004f392919062001348565b506040518060600160405280602b81526020016200730f602b913960086040516200051e9062001be4565b908152602001604051809103902090805190602001906200054192919062001348565b5060405180606001604052806036815260200162007b3d6036913960086040516200056c9062001d82565b908152602001604051809103902090805190602001906200058f92919062001348565b5060405180606001604052806035815260200162007299603591396008604051620005ba9062001cf8565b90815260200160405180910390209080519060200190620005dd92919062001348565b506040518060600160405280602f815260200162007c2f602f91396008604051620006089062002006565b908152602001604051809103902090805190602001906200062b92919062001348565b50604051806060016040528060338152602001620077ab603391396008604051620006569062001c40565b908152602001604051809103902090805190602001906200067992919062001348565b506040518060600160405280602f81526020016200733a602f91396008604051620006a49062001c9c565b90815260200160405180910390209080519060200190620006c792919062001348565b5060405180606001604052806035815260200162007a15603591396008604051620006f29062001e68565b908152602001604051809103902090805190602001906200071592919062001348565b50604051806060016040528060338152602001620073a4603391396008604051620007409062001e7f565b908152602001604051809103902090805190602001906200076392919062001348565b506040518060600160405280603b8152602001620075f8603b913960086040516200078e9062001e96565b90815260200160405180910390209080519060200190620007b192919062001348565b50604051806060016040528060218152602001620076ff602191396008604051620007dc9062001e3a565b90815260200160405180910390209080519060200190620007ff92919062001348565b50604051806080016040528060578152602001620077206057913960086040516200082a9062001e0c565b908152602001604051809103902090805190602001906200084d92919062001348565b5060405180608001604052806043815260200162007aa7604391396008604051620008789062001dde565b908152602001604051809103902090805190602001906200089b92919062001348565b50604051806060016040528060368152602001620074b8603691396008604051620008c69062001f4e565b90815260200160405180910390209080519060200190620008e992919062001348565b5060405180608001604052806042815260200162007b73604291396008604051620009149062001dc7565b908152602001604051809103902090805190602001906200093792919062001348565b506040518060600160405280603a815260200162007163603a91396008604051620009629062002079565b908152602001604051809103902090805190602001906200098592919062001348565b506040518060800160405280604a815260200162007940604a91396008604051620009b0906200201d565b90815260200160405180910390209080519060200190620009d392919062001348565b5060405180608001604052806047815260200162007d41604791396008604051620009fe9062001ef2565b9081526020016040518091039020908051906020019062000a2192919062001348565b506040518060600160405280602f8152602001620076d0602f9139600860405162000a4c9062001e23565b9081526020016040518091039020908051906020019062000a6f92919062001348565b5060405180606001604052806031815260200162007d8860319139600860405162000a9a9062001cca565b9081526020016040518091039020908051906020019062000abd92919062001348565b506040518060600160405280603b815260200162007d06603b9139600860405162000ae8906200204b565b9081526020016040518091039020908051906020019062000b0b92919062001348565b506040518060800160405280605d815260200162007a4a605d9139600860405162000b369062001f93565b9081526020016040518091039020908051906020019062000b5992919062001348565b5060405180608001604052806053815260200162007aea60539139600860405162000b849062001d26565b9081526020016040518091039020908051906020019062000ba792919062001348565b506040518060600160405280603b815260200162007234603b9139600860405162000bd29062001ec4565b9081526020016040518091039020908051906020019062000bf592919062001348565b50604051806080016040528060538152602001620077de60539139600860405162000c209062001df5565b9081526020016040518091039020908051906020019062000c4392919062001348565b506040518060800160405280605381526020016200719d60539139600860405162000c6e9062001c29565b9081526020016040518091039020908051906020019062000c9192919062001348565b506040518060600160405280602c815260200162007914602c9139600860405162000cbc9062002062565b9081526020016040518091039020908051906020019062000cdf92919062001348565b506040518060a00160405280607581526020016200785f60759139600860405162000d0a9062001e51565b9081526020016040518091039020908051906020019062000d2d92919062001348565b5060405180608001604052806059815260200162007c5e60599139600860405162000d589062002034565b9081526020016040518091039020908051906020019062000d7b92919062001348565b50604051806080016040528060488152602001620079cd60489139600860405162000da69062001ce1565b9081526020016040518091039020908051906020019062000dc992919062001348565b50604051806080016040528060448152602001620075b460449139600860405162000df49062001d99565b9081526020016040518091039020908051906020019062000e1792919062001348565b506040518060600160405280602e815260200162007831602e9139600860405162000e429062001ead565b9081526020016040518091039020908051906020019062000e6592919062001348565b506040518060600160405280603b815260200162007552603b9139600860405162000e909062001d6b565b9081526020016040518091039020908051906020019062000eb392919062001348565b506040518060600160405280602a81526020016200726f602a9139600860405162000ede9062001cb3565b9081526020016040518091039020908051906020019062000f0192919062001348565b506040518060600160405280603481526020016200777760349139600860405162000f2c9062001d3d565b9081526020016040518091039020908051906020019062000f4f92919062001348565b506040518060600160405280603b815260200162007633603b9139600860405162000f7a9062001db0565b9081526020016040518091039020908051906020019062000f9d92919062001348565b506040518060400160405280601f81526020017f3c7061746820643d274d3020334c3020324c33203256334c3020335a272f3e00815250600860405162000fe49062001fc1565b908152602001604051809103902090805190602001906200100792919062001348565b506040518060a00160405280607a815260200162007bb5607a91396008604051620010329062001f37565b908152602001604051809103902090805190602001906200105592919062001348565b506040518060a00160405280606281526020016200766e606291396008604051620010809062001f09565b90815260200160405180910390209080519060200190620010a392919062001348565b50604051806020016040528060008152506008604051620010c49062001d54565b90815260200160405180910390209080519060200190620010e792919062001348565b5060036009604051620010fa9062001edb565b908152602001604051809103902081905550600160096040516200111e9062001d54565b90815260200160405180910390208190555060016009604051620011429062001d99565b90815260200160405180910390208190555060016009604051620011669062001ead565b908152602001604051809103902081905550600160096040516200118a9062001cb3565b90815260200160405180910390208190555060026009604051620011ae9062001ce1565b90815260200160405180910390208190555060026009604051620011d29062001d6b565b90815260200160405180910390208190555060046009604051620011f69062001dde565b908152602001604051809103902081905550600560096040516200121a9062001f09565b908152602001604051809103902081905550600560096040516200123e9062001e0c565b90815260200160405180910390208190555060056009604051620012629062001f93565b90815260200160405180910390208190555062002954565b600033905090565b6000600760009054906101000a900473ffffffffffffffffffffffffffffffffffffffff16905081600760006101000a81548173ffffffffffffffffffffffffffffffffffffffff021916908373ffffffffffffffffffffffffffffffffffffffff1602179055508173ffffffffffffffffffffffffffffffffffffffff168173ffffffffffffffffffffffffffffffffffffffff167f8be0079c531659141344cd1fd0a4f28419497f9722a3daafe3b4186f6b6457e060405160405180910390a35050565b82805462001356906200209b565b90600052602060002090601f0160209004810192826200137a5760008555620013c6565b82601f106200139557805160ff1916838001178555620013c6565b82800160010185558215620013c6579182015b82811115620013c5578251825591602001919060010190620013a8565b5b509050620013d59190620013d9565b5090565b5b80821115620013f4576000816000905550600101620013da565b5090565b60006200140760018362002090565b9150620014148262002100565b600182019050919050565b60006200142e60018362002090565b91506200143b8262002129565b600182019050919050565b60006200145560018362002090565b9150620014628262002152565b600182019050919050565b60006200147c60018362002090565b915062001489826200217b565b600182019050919050565b6000620014a360018362002090565b9150620014b082620021a4565b600182019050919050565b6000620014ca60018362002090565b9150620014d782620021cd565b600182019050919050565b6000620014f160018362002090565b9150620014fe82620021f6565b600182019050919050565b60006200151860018362002090565b915062001525826200221f565b600182019050919050565b60006200153f60018362002090565b91506200154c8262002248565b600182019050919050565b60006200156660018362002090565b9150620015738262002271565b600182019050919050565b60006200158d60018362002090565b91506200159a826200229a565b600182019050919050565b6000620015b460018362002090565b9150620015c182620022c3565b600182019050919050565b6000620015db60018362002090565b9150620015e882620022ec565b600182019050919050565b60006200160260018362002090565b91506200160f8262002315565b600182019050919050565b60006200162960018362002090565b915062001636826200233e565b600182019050919050565b60006200165060018362002090565b91506200165d8262002367565b600182019050919050565b60006200167760018362002090565b9150620016848262002390565b600182019050919050565b60006200169e60018362002090565b9150620016ab82620023b9565b600182019050919050565b6000620016c560018362002090565b9150620016d282620023e2565b600182019050919050565b6000620016ec60018362002090565b9150620016f9826200240b565b600182019050919050565b60006200171360018362002090565b9150620017208262002434565b600182019050919050565b60006200173a60018362002090565b915062001747826200245d565b600182019050919050565b60006200176160018362002090565b91506200176e8262002486565b600182019050919050565b60006200178860018362002090565b91506200179582620024af565b600182019050919050565b6000620017af60018362002090565b9150620017bc82620024d8565b600182019050919050565b6000620017d660018362002090565b9150620017e38262002501565b600182019050919050565b6000620017fd60018362002090565b91506200180a826200252a565b600182019050919050565b60006200182460018362002090565b9150620018318262002553565b600182019050919050565b60006200184b60018362002090565b915062001858826200257c565b600182019050919050565b60006200187260018362002090565b91506200187f82620025a5565b600182019050919050565b60006200189960018362002090565b9150620018a682620025ce565b600182019050919050565b6000620018c060018362002090565b9150620018cd82620025f7565b600182019050919050565b6000620018e760018362002090565b9150620018f48262002620565b600182019050919050565b60006200190e60078362002090565b91506200191b8262002649565b600782019050919050565b60006200193560018362002090565b9150620019428262002672565b600182019050919050565b60006200195c60018362002090565b915062001969826200269b565b600182019050919050565b60006200198360018362002090565b91506200199082620026c4565b600182019050919050565b6000620019aa60018362002090565b9150620019b782620026ed565b600182019050919050565b6000620019d160018362002090565b9150620019de8262002716565b600182019050919050565b6000620019f860018362002090565b915062001a05826200273f565b600182019050919050565b600062001a1f60018362002090565b915062001a2c8262002768565b600182019050919050565b600062001a4660018362002090565b915062001a538262002791565b600182019050919050565b600062001a6d60018362002090565b915062001a7a82620027ba565b600182019050919050565b600062001a9460018362002090565b915062001aa182620027e3565b600182019050919050565b600062001abb60018362002090565b915062001ac8826200280c565b600182019050919050565b600062001ae260018362002090565b915062001aef8262002835565b600182019050919050565b600062001b0960018362002090565b915062001b16826200285e565b600182019050919050565b600062001b3060018362002090565b915062001b3d8262002887565b600182019050919050565b600062001b5760018362002090565b915062001b6482620028b0565b600182019050919050565b600062001b7e60018362002090565b915062001b8b82620028d9565b600182019050919050565b600062001ba560018362002090565b915062001bb28262002902565b600182019050919050565b600062001bcc60018362002090565b915062001bd9826200292b565b600182019050919050565b600062001bf182620013f8565b9150819050919050565b600062001c08826200141f565b9150819050919050565b600062001c1f8262001446565b9150819050919050565b600062001c36826200146d565b9150819050919050565b600062001c4d8262001494565b9150819050919050565b600062001c6482620014bb565b9150819050919050565b600062001c7b82620014e2565b9150819050919050565b600062001c928262001509565b9150819050919050565b600062001ca98262001530565b9150819050919050565b600062001cc08262001557565b9150819050919050565b600062001cd7826200157e565b9150819050919050565b600062001cee82620015a5565b9150819050919050565b600062001d0582620015cc565b9150819050919050565b600062001d1c82620015f3565b9150819050919050565b600062001d33826200161a565b9150819050919050565b600062001d4a8262001641565b9150819050919050565b600062001d618262001668565b9150819050919050565b600062001d78826200168f565b9150819050919050565b600062001d8f82620016b6565b9150819050919050565b600062001da682620016dd565b9150819050919050565b600062001dbd8262001704565b9150819050919050565b600062001dd4826200172b565b9150819050919050565b600062001deb8262001752565b9150819050919050565b600062001e028262001779565b9150819050919050565b600062001e1982620017a0565b9150819050919050565b600062001e3082620017c7565b9150819050919050565b600062001e4782620017ee565b9150819050919050565b600062001e5e8262001815565b9150819050919050565b600062001e75826200183c565b9150819050919050565b600062001e8c8262001863565b9150819050919050565b600062001ea3826200188a565b9150819050919050565b600062001eba82620018b1565b9150819050919050565b600062001ed182620018d8565b9150819050919050565b600062001ee882620018ff565b9150819050919050565b600062001eff8262001926565b9150819050919050565b600062001f16826200194d565b9150819050919050565b600062001f2d8262001974565b9150819050919050565b600062001f44826200199b565b9150819050919050565b600062001f5b82620019c2565b9150819050919050565b600062001f7282620019e9565b9150819050919050565b600062001f898262001a10565b9150819050919050565b600062001fa08262001a37565b9150819050919050565b600062001fb78262001a5e565b9150819050919050565b600062001fce8262001a85565b9150819050919050565b600062001fe58262001aac565b9150819050919050565b600062001ffc8262001ad3565b9150819050919050565b6000620020138262001afa565b9150819050919050565b60006200202a8262001b21565b9150819050919050565b6000620020418262001b48565b9150819050919050565b6000620020588262001b6f565b9150819050919050565b60006200206f8262001b96565b9150819050919050565b6000620020868262001bbd565b9150819050919050565b600081905092915050565b60006002820490506001821680620020b457607f821691505b60208210811415620020cb57620020ca620020d1565b5b50919050565b7f4e487b7100000000000000000000000000000000000000000000000000000000600052602260045260246000fd5b7f4300000000000000000000000000000000000000000000000000000000000000600082015250565b7f4100000000000000000000000000000000000000000000000000000000000000600082015250565b7f3000000000000000000000000000000000000000000000000000000000000000600082015250565b7f2a00000000000000000000000000000000000000000000000000000000000000600082015250565b7f4700000000000000000000000000000000000000000000000000000000000000600082015250565b7f3400000000000000000000000000000000000000000000000000000000000000600082015250565b7f4200000000000000000000000000000000000000000000000000000000000000600082015250565b7f3300000000000000000000000000000000000000000000000000000000000000600082015250565b7f4800000000000000000000000000000000000000000000000000000000000000600082015250565b7f2100000000000000000000000000000000000000000000000000000000000000600082015250565b7f5500000000000000000000000000000000000000000000000000000000000000600082015250565b7f2c00000000000000000000000000000000000000000000000000000000000000600082015250565b7f4500000000000000000000000000000000000000000000000000000000000000600082015250565b7f3700000000000000000000000000000000000000000000000000000000000000600082015250565b7f5800000000000000000000000000000000000000000000000000000000000000600082015250565b7f3f00000000000000000000000000000000000000000000000000000000000000600082015250565b7f2000000000000000000000000000000000000000000000000000000000000000600082015250565b7f3b00000000000000000000000000000000000000000000000000000000000000600082015250565b7f4400000000000000000000000000000000000000000000000000000000000000600082015250565b7f2e00000000000000000000000000000000000000000000000000000000000000600082015250565b7f2b00000000000000000000000000000000000000000000000000000000000000600082015250565b7f5000000000000000000000000000000000000000000000000000000000000000600082015250565b7f4e00000000000000000000000000000000000000000000000000000000000000600082015250565b7f5a00000000000000000000000000000000000000000000000000000000000000600082015250565b7f4d00000000000000000000000000000000000000000000000000000000000000600082015250565b7f5400000000000000000000000000000000000000000000000000000000000000600082015250565b7f4c00000000000000000000000000000000000000000000000000000000000000600082015250565b7f3c00000000000000000000000000000000000000000000000000000000000000600082015250565b7f4900000000000000000000000000000000000000000000000000000000000000600082015250565b7f4a00000000000000000000000000000000000000000000000000000000000000600082015250565b7f4b00000000000000000000000000000000000000000000000000000000000000600082015250565b7f3a00000000000000000000000000000000000000000000000000000000000000600082015250565b7f5900000000000000000000000000000000000000000000000000000000000000600082015250565b7f44454641554c5400000000000000000000000000000000000000000000000000600082015250565b7f5300000000000000000000000000000000000000000000000000000000000000600082015250565b7f2300000000000000000000000000000000000000000000000000000000000000600082015250565b7f3200000000000000000000000000000000000000000000000000000000000000600082015250565b7f2400000000000000000000000000000000000000000000000000000000000000600082015250565b7f4f00000000000000000000000000000000000000000000000000000000000000600082015250565b7f3100000000000000000000000000000000000000000000000000000000000000600082015250565b7f3500000000000000000000000000000000000000000000000000000000000000600082015250565b7f5700000000000000000000000000000000000000000000000000000000000000600082015250565b7f3900000000000000000000000000000000000000000000000000000000000000600082015250565b7f2d00000000000000000000000000000000000000000000000000000000000000600082015250565b7f3600000000000000000000000000000000000000000000000000000000000000600082015250565b7f3800000000000000000000000000000000000000000000000000000000000000600082015250565b7f4600000000000000000000000000000000000000000000000000000000000000600082015250565b7f5200000000000000000000000000000000000000000000000000000000000000600082015250565b7f3e00000000000000000000000000000000000000000000000000000000000000600082015250565b7f5600000000000000000000000000000000000000000000000000000000000000600082015250565b7f3d00000000000000000000000000000000000000000000000000000000000000600082015250565b7f5100000000000000000000000000000000000000000000000000000000000000600082015250565b6147ff80620029646000396000f3fe608060405234801561001057600080fd5b50600436106101215760003560e01c8063671639c1116100ad578063a22cb46511610071578063a22cb4651461032e578063b88d4fde1461034a578063c87b56dd14610366578063e985e9c514610396578063f2fde38b146103c657610121565b8063671639c11461028857806370a08231146102b8578063715018a6146102e85780638da5cb5b146102f257806395d89b411461031057610121565b806323b872dd116100f457806323b872dd146101c057806342842e0e146101dc578063432a43cc146101f857806354ba0f27146102285780636352211e1461025857610121565b806301ffc9a71461012657806306fdde0314610156578063081812fc14610174578063095ea7b3146101a4575b600080fd5b610140600480360381019061013b919061279f565b6103e2565b60405161014d919061323c565b60405180910390f35b61015e6104c4565b60405161016b9190613257565b60405180910390f35b61018e600480360381019061018991906128c5565b610556565b60405161019b91906131d5565b60405180910390f35b6101be60048036038101906101b99190612763565b6105db565b005b6101da60048036038101906101d5919061265d565b6106f3565b005b6101f660048036038101906101f1919061265d565b610753565b005b610212600480360381019061020d91906127f1565b610773565b60405161021f919061323c565b60405180910390f35b610242600480360381019061023d91906125f8565b61080f565b60405161024f91906134f9565b60405180910390f35b610272600480360381019061026d91906128c5565b61092c565b60405161027f91906131d5565b60405180910390f35b6102a2600480360381019061029d9190612832565b6109de565b6040516102af9190613257565b60405180910390f35b6102d260048036038101906102cd91906125f8565b610d1c565b6040516102df91906134f9565b60405180910390f35b6102f0610dd4565b005b6102fa610e5c565b60405161030791906131d5565b60405180910390f35b610318610e86565b6040516103259190613257565b60405180910390f35b61034860048036038101906103439190612727565b610f18565b005b610364600480360381019061035f91906126ac565b610f2e565b005b610380600480360381019061037b91906128c5565b610f90565b60405161038d9190613257565b60405180910390f35b6103b060048036038101906103ab9190612621565b6110e2565b6040516103bd919061323c565b60405180910390f35b6103e060048036038101906103db91906125f8565b611176565b005b60007f80ac58cd000000000000000000000000000000000000000000000000000000007bffffffffffffffffffffffffffffffffffffffffffffffffffffffff1916827bffffffffffffffffffffffffffffffffffffffffffffffffffffffff191614806104ad57507f5b5e139f000000000000000000000000000000000000000000000000000000007bffffffffffffffffffffffffffffffffffffffffffffffffffffffff1916827bffffffffffffffffffffffffffffffffffffffffffffffffffffffff1916145b806104bd57506104bc8261126e565b5b9050919050565b6060600080546104d3906137be565b80601f01602080910402602001604051908101604052809291908181526020018280546104ff906137be565b801561054c5780601f106105215761010080835404028352916020019161054c565b820191906000526020600020905b81548152906001019060200180831161052f57829003601f168201915b5050505050905090565b6000610561826112d8565b6105a0576040517f08c379a000000000000000000000000000000000000000000000000000000000815260040161059790613459565b60405180910390fd5b6004600083815260200190815260200160002060009054906101000a900473ffffffffffffffffffffffffffffffffffffffff169050919050565b60006105e68261092c565b90508073ffffffffffffffffffffffffffffffffffffffff168373ffffffffffffffffffffffffffffffffffffffff161415610657576040517f08c379a000000000000000000000000000000000000000000000000000000000815260040161064e906134b9565b60405180910390fd5b8073ffffffffffffffffffffffffffffffffffffffff16610676611344565b73ffffffffffffffffffffffffffffffffffffffff1614806106a557506106a48161069f611344565b6110e2565b5b6106e4576040517f08c379a00000000000000000000000000000000000000000000000000000000081526004016106db90613399565b60405180910390fd5b6106ee838361134c565b505050565b6107046106fe611344565b82611405565b610743576040517f08c379a000000000000000000000000000000000000000000000000000000000815260040161073a906134d9565b60405180910390fd5b61074e8383836114e3565b505050565b61076e83838360405180602001604052806000815250610f2e565b505050565b6000600b60009054906101000a900460ff16156107c5576040517f08c379a00000000000000000000000000000000000000000000000000000000081526004016107bc90613359565b60405180910390fd5b600d6107d08361174a565b6040516020016107e1929190613050565b604051602081830303815290604052600d908051906020019061080592919061241c565b5060019050919050565b6000610819611344565b73ffffffffffffffffffffffffffffffffffffffff16610837610e5c565b73ffffffffffffffffffffffffffffffffffffffff161461088d576040517f08c379a000000000000000000000000000000000000000000000000000000000815260040161088490613479565b60405180910390fd5b600b60009054906101000a900460ff166108ec5760006108ab6117d7565b90506001600b60006101000a81548160ff0219169083151502179055506000602290506108d884826118c4565b6108e28183611a9e565b8092505050610927565b6040517f08c379a000000000000000000000000000000000000000000000000000000000815260040161091e90613299565b60405180910390fd5b919050565b6000806002600084815260200190815260200160002060009054906101000a900473ffffffffffffffffffffffffffffffffffffffff169050600073ffffffffffffffffffffffffffffffffffffffff168173ffffffffffffffffffffffffffffffffffffffff1614156109d5576040517f08c379a00000000000000000000000000000000000000000000000000000000081526004016109cc906133d9565b60405180910390fd5b80915050919050565b606060008060405180602001604052806000815250905060005b8751811015610cb3576000600167ffffffffffffffff811115610a44577f4e487b7100000000000000000000000000000000000000000000000000000000600052604160045260246000fd5b6040519080825280601f01601f191660200182016040528015610a765781602001600182028036833780820191505090505b509050888281518110610ab2577f4e487b7100000000000000000000000000000000000000000000000000000000600052603260045260246000fd5b602001015160f81c60f81b81600081518110610af7577f4e487b7100000000000000000000000000000000000000000000000000000000600052603260045260246000fd5b60200101907effffffffffffffffffffffffffffffffffffffffffffffffffffffffffffff1916908160001a90535060008190506000600882604051610b3d9190612f94565b90815260200160405180910390208054610b56906137be565b80601f0160208091040260200160405190810160405280929190818152602001828054610b82906137be565b8015610bcf5780601f10610ba457610100808354040283529160200191610bcf565b820191906000526020600020905b815481529060010190602001808311610bb257829003601f168201915b50505050509050600080600984604051610be99190612f94565b9081526020016040518091039020541415610c20576009604051610c0c906130a1565b908152602001604051809103902054610c40565b600983604051610c309190612f94565b9081526020016040518091039020545b90506000825111610c545750505050610ca0565b85610c5e88611b12565b83604051602001610c7193929190612ffe565b6040516020818303038152906040529550898188610c8f91906135f3565b610c9991906135f3565b9650505050505b8080610cab90613821565b9150506109f8565b506000600283610cc39190613649565b6064610ccf91906136d4565b90506000610cdc82611b12565b610ce587611b12565b898b86604051602001610cfc959493929190613126565b604051602081830303815290604052905080945050505050949350505050565b60008073ffffffffffffffffffffffffffffffffffffffff168273ffffffffffffffffffffffffffffffffffffffff161415610d8d576040517f08c379a0000000000000000000000000000000000000000000000000000000008152600401610d84906133b9565b60405180910390fd5b600360008373ffffffffffffffffffffffffffffffffffffffff1673ffffffffffffffffffffffffffffffffffffffff168152602001908152602001600020549050919050565b610ddc611344565b73ffffffffffffffffffffffffffffffffffffffff16610dfa610e5c565b73ffffffffffffffffffffffffffffffffffffffff1614610e50576040517f08c379a0000000000000000000000000000000000000000000000000000000008152600401610e4790613479565b60405180910390fd5b610e5a6000611cbf565b565b6000600760009054906101000a900473ffffffffffffffffffffffffffffffffffffffff16905090565b606060018054610e95906137be565b80601f0160208091040260200160405190810160405280929190818152602001828054610ec1906137be565b8015610f0e5780601f10610ee357610100808354040283529160200191610f0e565b820191906000526020600020905b815481529060010190602001808311610ef157829003601f168201915b5050505050905090565b610f2a610f23611344565b8383611d85565b5050565b610f3f610f39611344565b83611405565b610f7e576040517f08c379a0000000000000000000000000000000000000000000000000000000008152600401610f75906134d9565b60405180910390fd5b610f8a84848484611ef2565b50505050565b6060610f9b826112d8565b610fda576040517f08c379a0000000000000000000000000000000000000000000000000000000008152600401610fd190613439565b60405180910390fd5b6000600660008481526020019081526020016000208054610ffa906137be565b80601f0160208091040260200160405190810160405280929190818152602001828054611026906137be565b80156110735780601f1061104857610100808354040283529160200191611073565b820191906000526020600020905b81548152906001019060200180831161105657829003601f168201915b505050505090506000611084611f4e565b905060008151141561109a5781925050506110dd565b6000825111156110cf5780826040516020016110b7929190612fab565b604051602081830303815290604052925050506110dd565b6110d884611f65565b925050505b919050565b6000600560008473ffffffffffffffffffffffffffffffffffffffff1673ffffffffffffffffffffffffffffffffffffffff16815260200190815260200160002060008373ffffffffffffffffffffffffffffffffffffffff1673ffffffffffffffffffffffffffffffffffffffff16815260200190815260200160002060009054906101000a900460ff16905092915050565b61117e611344565b73ffffffffffffffffffffffffffffffffffffffff1661119c610e5c565b73ffffffffffffffffffffffffffffffffffffffff16146111f2576040517f08c379a00000000000000000000000000000000000000000000000000000000081526004016111e990613479565b60405180910390fd5b600073ffffffffffffffffffffffffffffffffffffffff168173ffffffffffffffffffffffffffffffffffffffff161415611262576040517f08c379a0000000000000000000000000000000000000000000000000000000008152600401611259906132b9565b60405180910390fd5b61126b81611cbf565b50565b60007f01ffc9a7000000000000000000000000000000000000000000000000000000007bffffffffffffffffffffffffffffffffffffffffffffffffffffffff1916827bffffffffffffffffffffffffffffffffffffffffffffffffffffffff1916149050919050565b60008073ffffffffffffffffffffffffffffffffffffffff166002600084815260200190815260200160002060009054906101000a900473ffffffffffffffffffffffffffffffffffffffff1673ffffffffffffffffffffffffffffffffffffffff1614159050919050565b600033905090565b816004600083815260200190815260200160002060006101000a81548173ffffffffffffffffffffffffffffffffffffffff021916908373ffffffffffffffffffffffffffffffffffffffff160217905550808273ffffffffffffffffffffffffffffffffffffffff166113bf8361092c565b73ffffffffffffffffffffffffffffffffffffffff167f8c5be1e5ebec7d5bd14f71427d1e84f3dd0314c0f7b2291e5b200ac8c7c3b92560405160405180910390a45050565b6000611410826112d8565b61144f576040517f08c379a000000000000000000000000000000000000000000000000000000000815260040161144690613379565b60405180910390fd5b600061145a8361092c565b90508073ffffffffffffffffffffffffffffffffffffffff168473ffffffffffffffffffffffffffffffffffffffff1614806114c957508373ffffffffffffffffffffffffffffffffffffffff166114b184610556565b73ffffffffffffffffffffffffffffffffffffffff16145b806114da57506114d981856110e2565b5b91505092915050565b8273ffffffffffffffffffffffffffffffffffffffff166115038261092c565b73ffffffffffffffffffffffffffffffffffffffff1614611559576040517f08c379a0000000000000000000000000000000000000000000000000000000008152600401611550906132d9565b60405180910390fd5b600073ffffffffffffffffffffffffffffffffffffffff168273ffffffffffffffffffffffffffffffffffffffff1614156115c9576040517f08c379a00000000000000000000000000000000000000000000000000000000081526004016115c090613319565b60405180910390fd5b6115d483838361200c565b6115df60008261134c565b6001600360008573ffffffffffffffffffffffffffffffffffffffff1673ffffffffffffffffffffffffffffffffffffffff168152602001908152602001600020600082825461162f91906136d4565b925050819055506001600360008473ffffffffffffffffffffffffffffffffffffffff1673ffffffffffffffffffffffffffffffffffffffff168152602001908152602001600020600082825461168691906135f3565b92505081905550816002600083815260200190815260200160002060006101000a81548173ffffffffffffffffffffffffffffffffffffffff021916908373ffffffffffffffffffffffffffffffffffffffff160217905550808273ffffffffffffffffffffffffffffffffffffffff168473ffffffffffffffffffffffffffffffffffffffff167fddf252ad1be2c89b69c2b068fc378daa952ba7f163c4a11628f55a4df523b3ef60405160405180910390a4611745838383612011565b505050565b60606005600f600082825461175f91906135f3565b92505081905550600a6010600082825461177991906135f3565b925050819055506117d0826040518060400160405280600481526020017f233939390000000000000000000000000000000000000000000000000000000081525060016002600f546117cb919061367a565b6109de565b9050919050565b606060006117e6601054611b12565b6040516020016117f69190613074565b604051602081830303815290604052905061181081612016565b80600d604051602001611824929190612fcf565b604051602081830303815290604052905061183e816120af565b60405160200161184e91906131b3565b604051602081830303815290604052905061186881612016565b60008160405160200161187b91906130b6565b604051602081830303815290604052905061189581612016565b61189e816120af565b6040516020016118ae9190613104565b6040516020818303038152906040529250505090565b600073ffffffffffffffffffffffffffffffffffffffff168273ffffffffffffffffffffffffffffffffffffffff161415611934576040517f08c379a000000000000000000000000000000000000000000000000000000000815260040161192b90613419565b60405180910390fd5b61193d816112d8565b1561197d576040517f08c379a0000000000000000000000000000000000000000000000000000000008152600401611974906132f9565b60405180910390fd5b6119896000838361200c565b6001600360008473ffffffffffffffffffffffffffffffffffffffff1673ffffffffffffffffffffffffffffffffffffffff16815260200190815260200160002060008282546119d991906135f3565b92505081905550816002600083815260200190815260200160002060006101000a81548173ffffffffffffffffffffffffffffffffffffffff021916908373ffffffffffffffffffffffffffffffffffffffff160217905550808273ffffffffffffffffffffffffffffffffffffffff16600073ffffffffffffffffffffffffffffffffffffffff167fddf252ad1be2c89b69c2b068fc378daa952ba7f163c4a11628f55a4df523b3ef60405160405180910390a4611a9a60008383612011565b5050565b611aa7826112d8565b611ae6576040517f08c379a0000000000000000000000000000000000000000000000000000000008152600401611add906133f9565b60405180910390fd5b80600660008481526020019081526020016000209080519060200190611b0d92919061241c565b505050565b60606000821415611b5a576040518060400160405280600181526020017f30000000000000000000000000000000000000000000000000000000000000008152509050611cba565b600082905060005b60008214611b8c578080611b7590613821565b915050600a82611b859190613649565b9150611b62565b60008167ffffffffffffffff811115611bce577f4e487b7100000000000000000000000000000000000000000000000000000000600052604160045260246000fd5b6040519080825280601f01601f191660200182016040528015611c005781602001600182028036833780820191505090505b5090505b60008514611cb357600182611c1991906136d4565b9150600a85611c28919061386a565b6030611c3491906135f3565b60f81b818381518110611c70577f4e487b7100000000000000000000000000000000000000000000000000000000600052603260045260246000fd5b60200101907effffffffffffffffffffffffffffffffffffffffffffffffffffffffffffff1916908160001a905350600a85611cac9190613649565b9450611c04565b8093505050505b919050565b6000600760009054906101000a900473ffffffffffffffffffffffffffffffffffffffff16905081600760006101000a81548173ffffffffffffffffffffffffffffffffffffffff021916908373ffffffffffffffffffffffffffffffffffffffff1602179055508173ffffffffffffffffffffffffffffffffffffffff168173ffffffffffffffffffffffffffffffffffffffff167f8be0079c531659141344cd1fd0a4f28419497f9722a3daafe3b4186f6b6457e060405160405180910390a35050565b8173ffffffffffffffffffffffffffffffffffffffff168373ffffffffffffffffffffffffffffffffffffffff161415611df4576040517f08c379a0000000000000000000000000000000000000000000000000000000008152600401611deb90613339565b60405180910390fd5b80600560008573ffffffffffffffffffffffffffffffffffffffff1673ffffffffffffffffffffffffffffffffffffffff16815260200190815260200160002060008473ffffffffffffffffffffffffffffffffffffffff1673ffffffffffffffffffffffffffffffffffffffff16815260200190815260200160002060006101000a81548160ff0219169083151502179055508173ffffffffffffffffffffffffffffffffffffffff168373ffffffffffffffffffffffffffffffffffffffff167f17307eab39ab6107e8899845ad3d59bd9653f200f220920489ca2b5937696c3183604051611ee5919061323c565b60405180910390a3505050565b611efd8484846114e3565b611f0984848484612239565b611f48576040517f08c379a0000000000000000000000000000000000000000000000000000000008152600401611f3f90613279565b60405180910390fd5b50505050565b606060405180602001604052806000815250905090565b6060611f70826112d8565b611faf576040517f08c379a0000000000000000000000000000000000000000000000000000000008152600401611fa690613499565b60405180910390fd5b6000611fb9611f4e565b90506000815111611fd95760405180602001604052806000815250612004565b80611fe384611b12565b604051602001611ff4929190612fab565b6040516020818303038152906040525b915050919050565b505050565b505050565b6120ac8160405160240161202a9190613257565b6040516020818303038152906040527f41304fac000000000000000000000000000000000000000000000000000000007bffffffffffffffffffffffffffffffffffffffffffffffffffffffff19166020820180517bffffffffffffffffffffffffffffffffffffffffffffffffffffffff83818316178352505050506123d0565b50565b60606000825114156120d257604051806020016040528060008152509050612234565b600060405180606001604052806040815260200161478a604091399050600060036002855161210191906135f3565b61210b9190613649565b6004612117919061367a565b67ffffffffffffffff811115612156577f4e487b7100000000000000000000000000000000000000000000000000000000600052604160045260246000fd5b6040519080825280601f01601f1916602001820160405280156121885781602001600182028036833780820191505090505b509050600182016020820185865187015b808210156121f4576003820191508151603f8160121c168501518453600184019350603f81600c1c168501518453600184019350603f8160061c168501518453600184019350603f8116850151845360018401935050612199565b505060038651066001811461221057600281146122235761222b565b603d6001830353603d600283035361222b565b603d60018303535b50505080925050505b919050565b600061225a8473ffffffffffffffffffffffffffffffffffffffff166123f9565b156123c3578373ffffffffffffffffffffffffffffffffffffffff1663150b7a02612283611344565b8786866040518563ffffffff1660e01b81526004016122a594939291906131f0565b602060405180830381600087803b1580156122bf57600080fd5b505af19250505080156122f057506040513d601f19601f820116820180604052508101906122ed91906127c8565b60015b612373573d8060008114612320576040519150601f19603f3d011682016040523d82523d6000602084013e612325565b606091505b5060008151141561236b576040517f08c379a000000000000000000000000000000000000000000000000000000000815260040161236290613279565b60405180910390fd5b805181602001fd5b63150b7a0260e01b7bffffffffffffffffffffffffffffffffffffffffffffffffffffffff1916817bffffffffffffffffffffffffffffffffffffffffffffffffffffffff1916149150506123c8565b600190505b949350505050565b60008151905060006a636f6e736f6c652e6c6f679050602083016000808483855afa5050505050565b6000808273ffffffffffffffffffffffffffffffffffffffff163b119050919050565b828054612428906137be565b90600052602060002090601f01602090048101928261244a5760008555612491565b82601f1061246357805160ff1916838001178555612491565b82800160010185558215612491579182015b82811115612490578251825591602001919060010190612475565b5b50905061249e91906124a2565b5090565b5b808211156124bb5760008160009055506001016124a3565b5090565b60006124d26124cd84613539565b613514565b9050828152602081018484840111156124ea57600080fd5b6124f584828561377c565b509392505050565b600061251061250b8461356a565b613514565b90508281526020810184848401111561252857600080fd5b61253384828561377c565b509392505050565b60008135905061254a8161472d565b92915050565b60008135905061255f81614744565b92915050565b6000813590506125748161475b565b92915050565b6000815190506125898161475b565b92915050565b600082601f8301126125a057600080fd5b81356125b08482602086016124bf565b91505092915050565b600082601f8301126125ca57600080fd5b81356125da8482602086016124fd565b91505092915050565b6000813590506125f281614772565b92915050565b60006020828403121561260a57600080fd5b60006126188482850161253b565b91505092915050565b6000806040838503121561263457600080fd5b60006126428582860161253b565b92505060206126538582860161253b565b9150509250929050565b60008060006060848603121561267257600080fd5b60006126808682870161253b565b93505060206126918682870161253b565b92505060406126a2868287016125e3565b9150509250925092565b600080600080608085870312156126c257600080fd5b60006126d08782880161253b565b94505060206126e18782880161253b565b93505060406126f2878288016125e3565b925050606085013567ffffffffffffffff81111561270f57600080fd5b61271b8782880161258f565b91505092959194509250565b6000806040838503121561273a57600080fd5b60006127488582860161253b565b925050602061275985828601612550565b9150509250929050565b6000806040838503121561277657600080fd5b60006127848582860161253b565b9250506020612795858286016125e3565b9150509250929050565b6000602082840312156127b157600080fd5b60006127bf84828501612565565b91505092915050565b6000602082840312156127da57600080fd5b60006127e88482850161257a565b91505092915050565b60006020828403121561280357600080fd5b600082013567ffffffffffffffff81111561281d57600080fd5b612829848285016125b9565b91505092915050565b6000806000806080858703121561284857600080fd5b600085013567ffffffffffffffff81111561286257600080fd5b61286e878288016125b9565b945050602085013567ffffffffffffffff81111561288b57600080fd5b612897878288016125b9565b93505060406128a8878288016125e3565b92505060606128b9878288016125e3565b91505092959194509250565b6000602082840312156128d757600080fd5b60006128e5848285016125e3565b91505092915050565b6128f781613708565b82525050565b6129068161371a565b82525050565b6000612917826135b0565b61292181856135c6565b935061293181856020860161378b565b61293a81613957565b840191505092915050565b6000612950826135bb565b61295a81856135d7565b935061296a81856020860161378b565b61297381613957565b840191505092915050565b6000612989826135bb565b61299381856135e8565b93506129a381856020860161378b565b80840191505092915050565b600081546129bc816137be565b6129c681866135e8565b945060018216600081146129e157600181146129f257612a25565b60ff19831686528186019350612a25565b6129fb8561359b565b60005b83811015612a1d578154818901526001820191506020810190506129fe565b838801955050505b50505092915050565b6000612a3b6032836135d7565b9150612a4682613968565b604082019050919050565b6000612a5e6009836135d7565b9150612a69826139b7565b602082019050919050565b6000612a816026836135d7565b9150612a8c826139e0565b604082019050919050565b6000612aa46002836135e8565b9150612aaf82613a2f565b600282019050919050565b6000612ac76025836135d7565b9150612ad282613a58565b604082019050919050565b6000612aea601c836135d7565b9150612af582613aa7565b602082019050919050565b6000612b0d6016836135e8565b9150612b1882613ad0565b601682019050919050565b6000612b30602a836135e8565b9150612b3b82613af9565b602a82019050919050565b6000612b536001836135e8565b9150612b5e82613b48565b600182019050919050565b6000612b766024836135d7565b9150612b8182613b71565b604082019050919050565b6000612b996019836135d7565b9150612ba482613bc0565b602082019050919050565b6000612bbc6009836135e8565b9150612bc782613be9565b600982019050919050565b6000612bdf6013836135d7565b9150612bea82613c12565b602082019050919050565b6000612c026036836135e8565b9150612c0d82613c3b565b603682019050919050565b6000612c25602c836135d7565b9150612c3082613c8a565b604082019050919050565b6000612c49610421836135e8565b9150612c5482613cd9565b61042182019050919050565b6000612c6d6012836135e8565b9150612c7882614202565b601282019050919050565b6000612c906038836135d7565b9150612c9b8261422b565b604082019050919050565b6000612cb3602a836135d7565b9150612cbe8261427a565b604082019050919050565b6000612cd66029836135d7565b9150612ce1826142c9565b604082019050919050565b6000612cf9602e836135d7565b9150612d0482614318565b604082019050919050565b6000612d1c6020836135d7565b9150612d2782614367565b602082019050919050565b6000612d3f6031836135d7565b9150612d4a82614390565b604082019050919050565b6000612d62602c836135d7565b9150612d6d826143df565b604082019050919050565b6000612d856020836135d7565b9150612d908261442e565b602082019050919050565b6000612da86007836135e8565b9150612db382614457565b600782019050919050565b6000612dcb602f836135d7565b9150612dd682614480565b604082019050919050565b6000612dee6004836135e8565b9150612df9826144cf565b600482019050919050565b6000612e116001836135e8565b9150612e1c826144f8565b600182019050919050565b6000612e346021836135d7565b9150612e3f82614521565b604082019050919050565b6000612e57601d836135e8565b9150612e6282614570565b601d82019050919050565b6000612e7a6031836135d7565b9150612e8582614599565b604082019050919050565b6000612e9d6018836135e8565b9150612ea8826145e8565b601882019050919050565b6000612ec06002836135e8565b9150612ecb82614611565b600282019050919050565b6000612ee3600a836135e8565b9150612eee8261463a565b600a82019050919050565b6000612f066006836135e8565b9150612f1182614663565b600682019050919050565b6000612f296024836135e8565b9150612f348261468c565b602482019050919050565b6000612f4c601a836135e8565b9150612f57826146db565b601a82019050919050565b6000612f6f6003836135e8565b9150612f7a82614704565b600382019050919050565b612f8e81613772565b82525050565b6000612fa0828461297e565b915081905092915050565b6000612fb7828561297e565b9150612fc3828461297e565b91508190509392505050565b6000612fdb828561297e565b9150612fe782846129af565b9150612ff282612ef9565b91508190509392505050565b600061300a828661297e565b915061301582612e90565b9150613021828561297e565b915061302c82612f62565b9150613038828461297e565b915061304382612de1565b9150819050949350505050565b600061305c82856129af565b9150613068828461297e565b91508190509392505050565b600061307f82612b00565b915061308b828461297e565b915061309682612c3b565b915081905092915050565b60006130ac82612d9b565b9150819050919050565b60006130c182612e04565b91506130cc82612c60565b91506130d782612ed6565b91506130e3828461297e565b91506130ee82612a97565b91506130f982612b23565b915081905092915050565b600061310f82612e4a565b915061311b828461297e565b915081905092915050565b600061313182612f1c565b915061313d828861297e565b915061314882612b46565b9150613154828761297e565b915061315f82612baf565b915061316b828661297e565b915061317682612bf5565b9150613182828561297e565b915061318d82612eb3565b9150613199828461297e565b91506131a482612de1565b91508190509695505050505050565b60006131be82612f3f565b91506131ca828461297e565b915081905092915050565b60006020820190506131ea60008301846128ee565b92915050565b600060808201905061320560008301876128ee565b61321260208301866128ee565b61321f6040830185612f85565b8181036060830152613231818461290c565b905095945050505050565b600060208201905061325160008301846128fd565b92915050565b600060208201905081810360008301526132718184612945565b905092915050565b6000602082019050818103600083015261329281612a2e565b9050919050565b600060208201905081810360008301526132b281612a51565b9050919050565b600060208201905081810360008301526132d281612a74565b9050919050565b600060208201905081810360008301526132f281612aba565b9050919050565b6000602082019050818103600083015261331281612add565b9050919050565b6000602082019050818103600083015261333281612b69565b9050919050565b6000602082019050818103600083015261335281612b8c565b9050919050565b6000602082019050818103600083015261337281612bd2565b9050919050565b6000602082019050818103600083015261339281612c18565b9050919050565b600060208201905081810360008301526133b281612c83565b9050919050565b600060208201905081810360008301526133d281612ca6565b9050919050565b600060208201905081810360008301526133f281612cc9565b9050919050565b6000602082019050818103600083015261341281612cec565b9050919050565b6000602082019050818103600083015261343281612d0f565b9050919050565b6000602082019050818103600083015261345281612d32565b9050919050565b6000602082019050818103600083015261347281612d55565b9050919050565b6000602082019050818103600083015261349281612d78565b9050919050565b600060208201905081810360008301526134b281612dbe565b9050919050565b600060208201905081810360008301526134d281612e27565b9050919050565b600060208201905081810360008301526134f281612e6d565b9050919050565b600060208201905061350e6000830184612f85565b92915050565b600061351e61352f565b905061352a82826137f0565b919050565b6000604051905090565b600067ffffffffffffffff82111561355457613553613928565b5b61355d82613957565b9050602081019050919050565b600067ffffffffffffffff82111561358557613584613928565b5b61358e82613957565b9050602081019050919050565b60008190508160005260206000209050919050565b600081519050919050565b600081519050919050565b600082825260208201905092915050565b600082825260208201905092915050565b600081905092915050565b60006135fe82613772565b915061360983613772565b9250827fffffffffffffffffffffffffffffffffffffffffffffffffffffffffffffffff0382111561363e5761363d61389b565b5b828201905092915050565b600061365482613772565b915061365f83613772565b92508261366f5761366e6138ca565b5b828204905092915050565b600061368582613772565b915061369083613772565b9250817fffffffffffffffffffffffffffffffffffffffffffffffffffffffffffffffff04831182151516156136c9576136c861389b565b5b828202905092915050565b60006136df82613772565b91506136ea83613772565b9250828210156136fd576136fc61389b565b5b828203905092915050565b600061371382613752565b9050919050565b60008115159050919050565b60007fffffffff0000000000000000000000000000000000000000000000000000000082169050919050565b600073ffffffffffffffffffffffffffffffffffffffff82169050919050565b6000819050919050565b82818337600083830152505050565b60005b838110156137a957808201518184015260208101905061378e565b838111156137b8576000848401525b50505050565b600060028204905060018216806137d657607f821691505b602082108114156137ea576137e96138f9565b5b50919050565b6137f982613957565b810181811067ffffffffffffffff8211171561381857613817613928565b5b80604052505050565b600061382c82613772565b91507fffffffffffffffffffffffffffffffffffffffffffffffffffffffffffffffff82141561385f5761385e61389b565b5b600182019050919050565b600061387582613772565b915061388083613772565b9250826138905761388f6138ca565b5b828206905092915050565b7f4e487b7100000000000000000000000000000000000000000000000000000000600052601160045260246000fd5b7f4e487b7100000000000000000000000000000000000000000000000000000000600052601260045260246000fd5b7f4e487b7100000000000000000000000000000000000000000000000000000000600052602260045260246000fd5b7f4e487b7100000000000000000000000000000000000000000000000000000000600052604160045260246000fd5b6000601f19601f8301169050919050565b7f4552433732313a207472616e7366657220746f206e6f6e20455243373231526560008201527f63656976657220696d706c656d656e7465720000000000000000000000000000602082015250565b7f4e6f7420666f756e640000000000000000000000000000000000000000000000600082015250565b7f4f776e61626c653a206e6577206f776e657220697320746865207a65726f206160008201527f6464726573730000000000000000000000000000000000000000000000000000602082015250565b7f222c000000000000000000000000000000000000000000000000000000000000600082015250565b7f4552433732313a207472616e736665722066726f6d20696e636f72726563742060008201527f6f776e6572000000000000000000000000000000000000000000000000000000602082015250565b7f4552433732313a20746f6b656e20616c7265616479206d696e74656400000000600082015250565b7f3c7376672076696577426f783d27302030203130302000000000000000000000600082015250565b7f226465736372697074696f6e223a20224861707079204269727468646179204a60008201527f61636b202d205656227d00000000000000000000000000000000000000000000602082015250565b7f2c00000000000000000000000000000000000000000000000000000000000000600082015250565b7f4552433732313a207472616e7366657220746f20746865207a65726f2061646460008201527f7265737300000000000000000000000000000000000000000000000000000000602082015250565b7f4552433732313a20617070726f766520746f2063616c6c657200000000000000600082015250565b7f29272066696c6c3d270000000000000000000000000000000000000000000000600082015250565b7f4e465420686173206265656e2067696674656400000000000000000000000000600082015250565b7f272066696c6c2d72756c653d276576656e6f64642720636c69702d72756c653d60008201527f276576656e6f64642720617269612d6c6162656c3d2700000000000000000000602082015250565b7f4552433732313a206f70657261746f7220717565727920666f72206e6f6e657860008201527f697374656e7420746f6b656e0000000000000000000000000000000000000000602082015250565b7f272077696474683d273530302720786d6c6e733d27687474703a2f2f7777772e60008201527f77332e6f72672f323030302f737667273e3c7265637420783d27302720793d2760208201527f30272077696474683d273130302527206865696768743d27313030252720666960408201527f6c6c3d2723303030272f3e3c67207472616e73666f726d3d277363616c65283160608201527f29207472616e736c6174652834342e352c20343029272066696c6c3d2723666660808201527f66272066696c6c2d72756c653d276576656e6f64642720636c69702d72756c6560a08201527f3d276576656e6f64642720617269612d6c6162656c3d27484244273e3c67207460c08201527f72616e73666f726d3d277472616e736c617465283029273e3c7061746820643d60e08201527f274d30203048314c3120324832563048335632563356354832563348315635486101008201527f3056305a272f3e3c2f673e3c67207472616e73666f726d3d277472616e736c616101208201527f7465283429273e3c7061746820643d274d3120304830563548314832483356336101408201527f4832563248335630483248315a4d32203248315631483256325a4d32203456336101608201527f4831563448325a272f3e3c2f673e3c67207472616e73666f726d3d277472616e6101808201527f736c617465283829273e3c7061746820643d274d3020315634563548314832486101a08201527f335631483256304831483056315a4d32203456314c312031563448325a272f3e6101c08201527f3c2f673e3c2f673e3c67207472616e73666f726d3d277363616c6528312920746101e08201527f72616e736c6174652834322c20353029272066696c6c3d2723666666272066696102008201527f6c6c2d72756c653d276576656e6f64642720636c69702d72756c653d276576656102208201527f6e6f64642720617269612d6c6162656c3d274a41434b273e3c67207472616e736102408201527f666f726d3d277472616e736c617465283029273e3c67207472616e73666f726d6102608201527f3d277472616e736c617465283029273e3c7061746820643d274d3020304832486102808201527f335631563456354832483148305634563348315634483256314c30203156305a6102a08201527f272f3e3c2f673e3c67207472616e73666f726d3d277472616e736c61746528346102c08201527f29273e3c7061746820643d274d3020335635483156334c3220335635483356336102e08201527f5632563156304832483148305631563256335a4d31203248325631483156325a6103008201527f272f3e3c2f673e3c67207472616e73666f726d3d277472616e736c61746528386103208201527f29273e3c7061746820643d274d3020304831483356314c3120315634483356356103408201527f483148305634563156305a272f3e3c2f673e3c67207472616e73666f726d3d276103608201527f7472616e736c61746528313229273e3c7061746820643d274d312030483056326103808201527f56335635483156334832563548334c3320334832563248334c33203048324c326103a08201527f2032483156305a272f3e3c2f673e3c67207472616e73666f726d3d277472616e6103c08201527f736c61746528313629273e3c7061746820643d274d30203348314c31203048306103e08201527f56335a4d30203548314c312034483056355a272f3e3c2f673e3c2f673e3c2f676104008201527f3e0000000000000000000000000000000000000000000000000000000000000061042082015250565b7f226e616d65223a2022484244204a434b222c0000000000000000000000000000600082015250565b7f4552433732313a20617070726f76652063616c6c6572206973206e6f74206f7760008201527f6e6572206e6f7220617070726f76656420666f7220616c6c0000000000000000602082015250565b7f4552433732313a2062616c616e636520717565727920666f7220746865207a6560008201527f726f206164647265737300000000000000000000000000000000000000000000602082015250565b7f4552433732313a206f776e657220717565727920666f72206e6f6e657869737460008201527f656e7420746f6b656e0000000000000000000000000000000000000000000000602082015250565b7f45524337323155524953746f726167653a2055524920736574206f66206e6f6e60008201527f6578697374656e7420746f6b656e000000000000000000000000000000000000602082015250565b7f4552433732313a206d696e7420746f20746865207a65726f2061646472657373600082015250565b7f45524337323155524953746f726167653a2055524920717565727920666f722060008201527f6e6f6e6578697374656e7420746f6b656e000000000000000000000000000000602082015250565b7f4552433732313a20617070726f76656420717565727920666f72206e6f6e657860008201527f697374656e7420746f6b656e0000000000000000000000000000000000000000602082015250565b7f4f776e61626c653a2063616c6c6572206973206e6f7420746865206f776e6572600082015250565b7f44454641554c5400000000000000000000000000000000000000000000000000600082015250565b7f4552433732314d657461646174613a2055524920717565727920666f72206e6f60008201527f6e6578697374656e7420746f6b656e0000000000000000000000000000000000602082015250565b7f3c2f673e00000000000000000000000000000000000000000000000000000000600082015250565b7f7b00000000000000000000000000000000000000000000000000000000000000600082015250565b7f4552433732313a20617070726f76616c20746f2063757272656e74206f776e6560008201527f7200000000000000000000000000000000000000000000000000000000000000602082015250565b7f646174613a6170706c69636174696f6e2f6a736f6e3b6261736536342c000000600082015250565b7f4552433732313a207472616e736665722063616c6c6572206973206e6f74206f60008201527f776e6572206e6f7220617070726f766564000000000000000000000000000000602082015250565b7f3c67207472616e73666f726d3d277472616e736c617465280000000000000000600082015250565b7f273e000000000000000000000000000000000000000000000000000000000000600082015250565b7f22696d616765223a202200000000000000000000000000000000000000000000600082015250565b7f3c2f7376673e0000000000000000000000000000000000000000000000000000600082015250565b7f3c6720207472616e73666f726d3d277363616c6528302e3529207472616e736c60008201527f6174652800000000000000000000000000000000000000000000000000000000602082015250565b7f646174613a696d6167652f7376672b786d6c3b6261736536342c000000000000600082015250565b7f29273e0000000000000000000000000000000000000000000000000000000000600082015250565b61473681613708565b811461474157600080fd5b50565b61474d8161371a565b811461475857600080fd5b50565b61476481613726565b811461476f57600080fd5b50565b61477b81613772565b811461478657600080fd5b5056fe4142434445464748494a4b4c4d4e4f505152535455565758595a6162636465666768696a6b6c6d6e6f707172737475767778797a303132333435363738392b2fa2646970667358221220db129eac20cafeadda1c4bcacb5086cce47492d7a9bfb081107941cdc0f4eb9664736f6c634300080100333c7061746820643d274d302035483148324c32203448334c33203048324831483056355a4d3120344c3120314c3220314c32203448315a272f3e3c7061746820643d274d302032563148314c3120324c3020325a4d3220324c3120325633483056344c31203456334c32203356344c33203456334c32203356325a4d3220324c3320325631483256325a272f3e3c7061746820643d274d31203148324c32203448314c3120315a4d3120314830563448314c31203548324c32203448334c33203148324c32203048314c3120315a272f3e3c7061746820643d274d3120334830563048314c3120335a4d3220334831563548324c3220335a4d3220334c32203048334c33203348325a272f3e3c7061746820643d274d30203348314c312030483056335a4d30203548314c312034483056355a272f3e3c7061746820643d274d3120304830563156345635483148335634483156334832563248314c3120314c332031563048315a272f3e3c7061746820643d274d3220314830563048334c3320314c3320334c3220334c3120334c31203448334c33203548305634563356324c3220324c3220315a272f3e3c7061746820643d274d3020304831483356314c312031563448335635483148305634563156305a272f3e3c7061746820643d274d30203048314c3120324832563048335632563356354832563348315635483056305a272f3e3c7061746820643d274d33203548324c32203348314c3020335632563048314c3120324c3220324c32203048334c3320324c33203356355a272f3e3c7061746820643d274d302030483248335631563456354832483148305634563348315634483256314c30203156305a272f3e3c7061746820643d274d30203048314833563148315632483256334831483056305a4d32203348335634563548305634483256335a272f3e3c7061746820643d274d3120314c32203156324c3120324c3120315a4d312030483248334c3320314c3320324c332033563548324c32203348314c30203356325631563048315a272f3e3c7061746820643d274d3220314c3120314c3120324c32203256315a4d32203048334c3320314c3320324c3320334c3320344c33203548324831483056345633563256315630483148325a4d32203456334c3120334c31203448325a272f3e3c7061746820643d274d3020354831483248334c33203048324831483056355a4d3220344c3220314c3120314c31203448325a272f3e3c7061746820643d274d302030563148315635483256315630483148305a272f3e3c7061746820643d274d3320314c3320304832483056314c32203156324c30203256334c322033563448305635483248334c3320344c3320334c33203256315a272f3e3c7061746820643d274d3120324c312031483256324c3120325a4d3120354c312033483256354c3120355a4d31203556364830563548315a272f3e3c7061746820643d274d3320314c3320304832483056314c3220314c322035483356315a272f3e3c7265637420783d27312720793d2735272077696474683d273127206865696768743d273127207472616e73666f726d3d27726f74617465283138302031203529272f3e3c7061746820643d274d3120304830563256335635483156334832563548334c3320334832563248334c33203048324c322032483156305a272f3e3c7061746820643d274d32203148314c3120324c30203256334c3120334c3120344c3220344c3220334c33203356324c3220324c3220315a272f3e3c7061746820643d274d31203548324c3220344833563548345634483556334834563248355631483456304833563148324c32203048314c3120314830563248314c3120334830563448314c3120355a4d33203248324c322033483356325a272f3e3c7061746820643d274d3320314c33203048324831483056314c3120314c31203548324c3220314c3320315a272f3e3c7061746820643d274d312030483056345635483148335634483156305a272f3e3c7061746820643d274d3120354830563048314c3120314c32203156324c3120324c3120355a4d332032563348324c3220324c3320325a4d3320324c3320314c3420314c34203048354c3520354834563248335a272f3e3c7061746820643d274d322030483056314832563248315633483256324833563048325a4d32203448315635483256345a272f3e3c7061746820643d274d302031563456354831483248335634563248325634483156314c33203156304831483056315a272f3e3c7061746820643d274d3220314830563048334c3320314c3320324c3220324c3220315a4d3120334c3120324c3220324c32203348315a4d3120334c31203448334c3320354830563456334c3120335a272f3e3c7061746820643d274d30203156324c3120324c31203148305a4d30203356344c3120344c31203348305a272f3e3c7061746820643d274d3120344c3020344c3020354c3120354c3120345a4d3220334c3220344c3120344c3120334c3220335a4d3220324c3220334c3320334c3320324c3220325a4d3120314c3120324c3220324c3220314c3120315a4d3120314c3120304c3020304c3020314c3120315a272f3e3c7061746820643d274d3020335635483156334c3220335635483356335632563156304832483148305631563256335a4d31203248325631483156325a272f3e3c7061746820643d274d30203156324c332032563148305a4d30203356344c33203456334c3020335a272f3e3c7061746820643d274d31203548305630483148334c33203156324c3220324c3220314c31203156324c3220324c322033483156355a4d32203348334c33203548324c3220335a272f3e3c7061746820643d274d3120304830563548314832483356334832563248335630483248315a4d32203248315631483256325a4d32203456334831563448325a272f3e3c70617468207472616e73666f726d3d277472616e736c61746528302c2031292720643d274d31203448324c32203348314c3120345a4d3120344830563548314c3120345a272f3e3c7061746820643d274d302031563048314832483356314c3220315634483356354832483148305634483156314c3020315a272f3e3c7061746820643d274d3420304c3520304c35203548344c34203448335633483456305a204d3220334c32203248334c3320334c3220335a204d3220334c3220344c3120344c31203548304c3020304c3120304c31203348325a272f3e3c7061746820643d274d30203048315635483056305a204d31203148325633483156315a204d32203248335634483256325a204d33203048345635483356305a272f3e3c7061746820643d274d3120324830563048314c3120325a4d32203248314c3120334830563548314c31203348324c32203548334c33203348324c3220325a4d3220324c32203048334c33203248325a272f3e3c7061746820643d274d302031563456354831483248335631483256304831483056315a4d32203456314c312031563448325a272f3e3c7061746820643d274d30203548314c3120334c3320334c3320324c3320314c3320304831483056355a4d3220314c3120314c3120324c3220324c3220315a272f3e3c70617468207472616e73666f726d3d277472616e736c61746528302c202d31292720643d274d3120314c31203048324c32203148334c3320324c3120324c3120334c32203348334c3320344c332035563648324c32203748314c312036483056354c3220354c3220344c312034483056314c3120315a272f3e3c7061746820643d274d3020304831483356314c31203156324832563348315635483056335632563156305a272f3e3c7061746820643d274d32203148334c332030483256315a4d3120324c3120314832563248315a4d3120334c3120324830563348315a4d3220344c32203348314c31203448325a4d322034563548334c33203448325a272f3e3c7061746820643d274d30203456335632563048302e3939393939394c31203248324c3320324c3320334c3320344c33203548324831483056345a4d32203456334c3120334c31203448325a272f3e3c7061746820643d274d3120344830563048314c3120345a4d3220344831563548324c3220345a4d3220344c32203048334c33203448325a272f3e3c7061746820643d274d31203348305630483148334c3320314c3120314c3120324c32203248334c3320334c33203456354832483056344c3220344c3220334c3120335a272f3e3c7061746820643d274d31203548305634563048314c3120344c3220344c32203048334c3320345635483248315a272f3e",
  "linkReferences": {},
  "deployedLinkReferences": {}
}