{
  "_format": "hh-sol-artifact-1",
  "contractName": "Present",
  "sourceName": "contracts/Present.sol",
  "abi": [
    {
      "inputs": [],
      "stateMutability": "nonpayable",
      "type": "constructor"
    },
    {
      "anonymous": false,
      "inputs": [
        {
          "indexed": true,
          "internalType": "address",
          "name": "owner",
          "type": "address"
        },
        {
          "indexed": true,
          "internalType": "address",
          "name": "approved",
          "type": "address"
        },
        {
          "indexed": true,
          "internalType": "uint256",
          "name": "tokenId",
          "type": "uint256"
        }
      ],
      "name": "Approval",
      "type": "event"
    },
    {
      "anonymous": false,
      "inputs": [
        {
          "indexed": true,
          "internalType": "address",
          "name": "owner",
          "type": "address"
        },
        {
          "indexed": true,
          "internalType": "address",
          "name": "operator",
          "type": "address"
        },
        {
          "indexed": false,
          "internalType": "bool",
          "name": "approved",
          "type": "bool"
        }
      ],
      "name": "ApprovalForAll",
      "type": "event"
    },
    {
      "anonymous": false,
      "inputs": [
        {
          "indexed": true,
          "internalType": "address",
          "name": "from",
          "type": "address"
        },
        {
          "indexed": true,
          "internalType": "address",
          "name": "to",
          "type": "address"
        },
        {
          "indexed": true,
          "internalType": "uint256",
          "name": "tokenId",
          "type": "uint256"
        }
      ],
      "name": "Transfer",
      "type": "event"
    },
    {
      "inputs": [
        {
          "internalType": "address",
          "name": "to",
          "type": "address"
        },
        {
          "internalType": "uint256",
          "name": "tokenId",
          "type": "uint256"
        }
      ],
      "name": "approve",
      "outputs": [],
      "stateMutability": "nonpayable",
      "type": "function"
    },
    {
      "inputs": [
        {
          "internalType": "address",
          "name": "owner",
          "type": "address"
        }
      ],
      "name": "balanceOf",
      "outputs": [
        {
          "internalType": "uint256",
          "name": "",
          "type": "uint256"
        }
      ],
      "stateMutability": "view",
      "type": "function"
    },
    {
      "inputs": [
        {
          "internalType": "uint256",
          "name": "tokenId",
          "type": "uint256"
        }
      ],
      "name": "getApproved",
      "outputs": [
        {
          "internalType": "address",
          "name": "",
          "type": "address"
        }
      ],
      "stateMutability": "view",
      "type": "function"
    },
    {
      "inputs": [
        {
          "internalType": "address",
          "name": "owner",
          "type": "address"
        },
        {
          "internalType": "address",
          "name": "operator",
          "type": "address"
        }
      ],
      "name": "isApprovedForAll",
      "outputs": [
        {
          "internalType": "bool",
          "name": "",
          "type": "bool"
        }
      ],
      "stateMutability": "view",
      "type": "function"
    },
    {
      "inputs": [],
      "name": "name",
      "outputs": [
        {
          "internalType": "string",
          "name": "",
          "type": "string"
        }
      ],
      "stateMutability": "view",
      "type": "function"
    },
    {
      "inputs": [
        {
          "internalType": "uint256",
          "name": "tokenId",
          "type": "uint256"
        }
      ],
      "name": "ownerOf",
      "outputs": [
        {
          "internalType": "address",
          "name": "",
          "type": "address"
        }
      ],
      "stateMutability": "view",
      "type": "function"
    },
    {
      "inputs": [
        {
          "internalType": "address",
          "name": "from",
          "type": "address"
        },
        {
          "internalType": "address",
          "name": "to",
          "type": "address"
        },
        {
          "internalType": "uint256",
          "name": "tokenId",
          "type": "uint256"
        }
      ],
      "name": "safeTransferFrom",
      "outputs": [],
      "stateMutability": "nonpayable",
      "type": "function"
    },
    {
      "inputs": [
        {
          "internalType": "address",
          "name": "from",
          "type": "address"
        },
        {
          "internalType": "address",
          "name": "to",
          "type": "address"
        },
        {
          "internalType": "uint256",
          "name": "tokenId",
          "type": "uint256"
        },
        {
          "internalType": "bytes",
          "name": "_data",
          "type": "bytes"
        }
      ],
      "name": "safeTransferFrom",
      "outputs": [],
      "stateMutability": "nonpayable",
      "type": "function"
    },
    {
      "inputs": [
        {
          "internalType": "address",
          "name": "operator",
          "type": "address"
        },
        {
          "internalType": "bool",
          "name": "approved",
          "type": "bool"
        }
      ],
      "name": "setApprovalForAll",
      "outputs": [],
      "stateMutability": "nonpayable",
      "type": "function"
    },
    {
      "inputs": [
        {
          "internalType": "string",
          "name": "name",
          "type": "string"
        }
      ],
      "name": "signCard",
      "outputs": [
        {
          "internalType": "bool",
          "name": "",
          "type": "bool"
        }
      ],
      "stateMutability": "nonpayable",
      "type": "function"
    },
    {
      "inputs": [
        {
          "internalType": "bytes4",
          "name": "interfaceId",
          "type": "bytes4"
        }
      ],
      "name": "supportsInterface",
      "outputs": [
        {
          "internalType": "bool",
          "name": "",
          "type": "bool"
        }
      ],
      "stateMutability": "view",
      "type": "function"
    },
    {
      "inputs": [],
      "name": "symbol",
      "outputs": [
        {
          "internalType": "string",
          "name": "",
          "type": "string"
        }
      ],
      "stateMutability": "view",
      "type": "function"
    },
    {
      "inputs": [
        {
          "internalType": "uint256",
          "name": "tokenId",
          "type": "uint256"
        }
      ],
      "name": "tokenURI",
      "outputs": [
        {
          "internalType": "string",
          "name": "",
          "type": "string"
        }
      ],
      "stateMutability": "view",
      "type": "function"
    },
    {
      "inputs": [],
      "name": "totalSupply",
      "outputs": [
        {
          "internalType": "uint256",
          "name": "",
          "type": "uint256"
        }
      ],
      "stateMutability": "pure",
      "type": "function"
    },
    {
      "inputs": [
        {
          "internalType": "address",
          "name": "from",
          "type": "address"
        },
        {
          "internalType": "address",
          "name": "to",
          "type": "address"
        },
        {
          "internalType": "uint256",
          "name": "tokenId",
          "type": "uint256"
        }
      ],
      "name": "transferFrom",
      "outputs": [],
      "stateMutability": "nonpayable",
      "type": "function"
    },
    {
      "inputs": [
        {
          "internalType": "string",
          "name": "text",
          "type": "string"
        },
        {
          "internalType": "string",
          "name": "color",
          "type": "string"
        },
        {
          "internalType": "uint256",
          "name": "spacing",
          "type": "uint256"
        },
        {
          "internalType": "uint256",
          "name": "y",
          "type": "uint256"
        }
      ],
      "name": "write",
      "outputs": [
        {
          "internalType": "string",
          "name": "",
          "type": "string"
        }
      ],
      "stateMutability": "view",
      "type": "function"
    }
  ],
  "bytecode": "0x60806040526040518060200160405280600081525060089080519060200190630000002d929190630000229b565b5060466009556066600a55348015630000004657600080fd5b506040518060400160405280600781526020017f484244204a434b000000000000000000000000000000000000000000000000008152506040518060400160405280600381526020017f4842440000000000000000000000000000000000000000000000000000000000815250816000908051906020019063000000cd929190630000229b565b50806001908051906020019063000000e8929190630000229b565b5050506040518060800160405280604481526020016300008b776044913960066040516300000118906300003298565b90815260200160405180910390209080519060200190630000013d929190630000229b565b506040518060600160405280602181526020016300008e75602191396006604051630000016b906300003810565b908152602001604051809103902090805190602001906300000190929190630000229b565b506040518060800160405280604181526020016300008c5560419139600660405163000001be906300003793565b9081526020016040518091039020908051906020019063000001e3929190630000229b565b506040518060800160405280604381526020016300008e966043913960066040516300000211906300003360565b908152602001604051809103902090805190602001906300000236929190630000229b565b506040518060600160405280603b81526020016300008cf0603b9139600660405163000002649063000032fc565b908152602001604051809103902090805190602001906300000289929190630000229b565b506040518060600160405280603881526020016300008d5e60389139600660405163000002b7906300003842565b9081526020016040518091039020908051906020019063000002dc929190630000229b565b506040518060800160405280604f8152602001630000963e604f91396006604051630000030a9063000038d8565b90815260200160405180910390209080519060200190630000032f929190630000229b565b506040518060600160405280602781526020016300008f14602791396006604051630000035d90630000348c565b908152602001604051809103902090805190602001906300000382929190630000229b565b506040518060800160405280605f81526020016300008de0605f9139600660405163000003b09063000038f1565b9081526020016040518091039020908051906020019063000003d5929190630000229b565b506040518060800160405280604a81526020016300008d96604a91396006604051630000040390630000388d565b908152602001604051809103902090805190602001906300000428929190630000229b565b50604051806060016040528060408152602001630000925b604091396006604051630000045690630000327f565b90815260200160405180910390209080519060200190630000047b929190630000229b565b50604051806080016040528060438152602001630000931160439139600660405163000004a990630000332e565b9081526020016040518091039020908051906020019063000004ce929190630000229b565b506040518060600160405280602b81526020016300008c96602b9139600660405163000004fc906300003266565b908152602001604051809103902090805190602001906300000521929190630000229b565b5060405180606001604052806036815260200163000094c4603691396006604051630000054f906300003554565b908152602001604051809103902090805190602001906300000574929190630000229b565b506040518060600160405280603581526020016300008c2060359139600660405163000005a290630000345a565b9081526020016040518091039020908051906020019063000005c7929190630000229b565b506040518060600160405280602f815260200163000095b6602f9139600660405163000005f590630000390a565b90815260200160405180910390209080519060200190630000061a929190630000229b565b50604051806060016040528060338152602001630000913260339139600660405163000006489063000032ca565b90815260200160405180910390209080519060200190630000066d929190630000229b565b506040518060600160405280602f81526020016300008cc1602f91396006604051630000069b906300003379565b9081526020016040518091039020908051906020019063000006c0929190630000229b565b50604051806060016040528060358152602001630000939c60359139600660405163000006ee906300003680565b908152602001604051809103902090805190602001906300000713929190630000229b565b506040518060600160405280603381526020016300008d2b6033913960066040516300000741906300003699565b908152602001604051809103902090805190602001906300000766929190630000229b565b506040518060600160405280603b81526020016300008f7f603b9139600660405163000007949063000036b2565b9081526020016040518091039020908051906020019063000007b9929190630000229b565b50604051806060016040528060218152602001630000908660219139600660405163000007e790630000364e565b90815260200160405180910390209080519060200190630000080c929190630000229b565b5060405180608001604052806057815260200163000090a7605791396006604051630000083a906300003603565b90815260200160405180910390209080519060200190630000085f929190630000229b565b50604051806080016040528060438152602001630000942e604391396006604051630000088d9063000035d1565b9081526020016040518091039020908051906020019063000008b2929190630000229b565b506040518060600160405280603681526020016300008e3f60369139600660405163000008e09063000037f7565b908152602001604051809103902090805190602001906300000905929190630000229b565b5060405180608001604052806042815260200163000094fa60429139600660405163000009339063000035b8565b908152602001604051809103902090805190602001906300000958929190630000229b565b506040518060600160405280603a81526020016300008aea603a9139600660405163000009869063000039d2565b9081526020016040518091039020908051906020019063000009ab929190630000229b565b506040518060800160405280604a815260200163000092c7604a9139600660405163000009d990630000393c565b9081526020016040518091039020908051906020019063000009fe929190630000229b565b5060405180608001604052806047815260200163000096c86047913960066040516300000a2c906300003761565b908152602001604051809103902090805190602001906300000a51929190630000229b565b506040518060600160405280602f81526020016300009057602f913960066040516300000a7f906300003635565b908152602001604051809103902090805190602001906300000aa4929190630000229b565b50604051806060016040528060318152602001630000970f6031913960066040516300000ad29063000033c4565b908152602001604051809103902090805190602001906300000af7929190630000229b565b506040518060600160405280603b8152602001630000968d603b913960066040516300000b2590630000396e565b908152602001604051809103902090805190602001906300000b4a929190630000229b565b506040518060800160405280605d815260200163000093d1605d913960066040516300000b78906300003874565b908152602001604051809103902090805190602001906300000b9d929190630000229b565b5060405180608001604052806053815260200163000094716053913960066040516300000bcb9063000034be565b908152602001604051809103902090805190602001906300000bf0929190630000229b565b506040518060600160405280603b81526020016300008bbb603b913960066040516300000c1e9063000036e4565b908152602001604051809103902090805190602001906300000c43929190630000229b565b5060405180608001604052806053815260200163000091656053913960066040516300000c719063000035ea565b908152602001604051809103902090805190602001906300000c96929190630000229b565b5060066040516300000ca990630000327f565b908152602001604051809103902060066040516300000cc99063000033dd565b90815260200160405180910390209080546300000ce7906300003bf4565b6300000cf69291906300002337565b5060066040516300000d0990630000332e565b908152602001604051809103902060066040516300000d299063000037de565b90815260200160405180910390209080546300000d47906300003bf4565b6300000d569291906300002337565b5060066040516300000d69906300003266565b908152602001604051809103902060066040516300000d899063000032e3565b90815260200160405180910390209080546300000da7906300003bf4565b6300000db69291906300002337565b5060066040516300000dc9906300003554565b908152602001604051809103902060066040516300000de9906300003987565b90815260200160405180910390209080546300000e07906300003bf4565b6300000e169291906300002337565b5060066040516300000e2990630000345a565b908152602001604051809103902060066040516300000e49906300003748565b90815260200160405180910390209080546300000e67906300003bf4565b6300000e769291906300002337565b5060066040516300000e8990630000390a565b908152602001604051809103902060066040516300000ea990630000385b565b90815260200160405180910390209080546300000ec7906300003bf4565b6300000ed69291906300002337565b5060066040516300000ee99063000032ca565b908152602001604051809103902060066040516300000f09906300003315565b90815260200160405180910390209080546300000f27906300003bf4565b6300000f369291906300002337565b5060066040516300000f49906300003379565b908152602001604051809103902060066040516300000f6990630000372f565b90815260200160405180910390209080546300000f87906300003bf4565b6300000f969291906300002337565b5060066040516300000fa9906300003680565b908152602001604051809103902060066040516300000fc9906300003923565b90815260200160405180910390209080546300000fe7906300003bf4565b6300000ff69291906300002337565b5060066040516300001009906300003699565b9081526020016040518091039020600660405163000010299063000037c5565b90815260200160405180910390209080546300001047906300003bf4565b63000010569291906300002337565b50600660405163000010699063000036b2565b9081526020016040518091039020600660405163000010899063000039b9565b908152602001604051809103902090805463000010a7906300003bf4565b63000010b69291906300002337565b50600660405163000010c990630000364e565b9081526020016040518091039020600660405163000010e990630000353b565b90815260200160405180910390209080546300001107906300003bf4565b63000011169291906300002337565b5060066040516300001129906300003603565b9081526020016040518091039020600660405163000011499063000038bf565b90815260200160405180910390209080546300001167906300003bf4565b63000011769291906300002337565b50600660405163000011899063000035d1565b9081526020016040518091039020600660405163000011a9906300003473565b908152602001604051809103902090805463000011c7906300003bf4565b63000011d69291906300002337565b50600660405163000011e99063000037f7565b9081526020016040518091039020600660405163000012099063000034a5565b90815260200160405180910390209080546300001227906300003bf4565b63000012369291906300002337565b50600660405163000012499063000035b8565b908152602001604051809103902060066040516300001269906300003347565b90815260200160405180910390209080546300001287906300003bf4565b63000012969291906300002337565b50600660405163000012a99063000039d2565b9081526020016040518091039020600660405163000012c990630000340f565b908152602001604051809103902090805463000012e7906300003bf4565b63000012f69291906300002337565b506006604051630000130990630000393c565b908152602001604051809103902060066040516300001329906300003428565b90815260200160405180910390209080546300001347906300003bf4565b63000013569291906300002337565b5060066040516300001369906300003761565b9081526020016040518091039020600660405163000013899063000034f0565b908152602001604051809103902090805463000013a7906300003bf4565b63000013b69291906300002337565b50600660405163000013c9906300003635565b9081526020016040518091039020600660405163000013e9906300003829565b90815260200160405180910390209080546300001407906300003bf4565b63000014169291906300002337565b50600660405163000014299063000033c4565b9081526020016040518091039020600660405163000014499063000033ab565b90815260200160405180910390209080546300001467906300003bf4565b63000014769291906300002337565b506006604051630000148990630000396e565b9081526020016040518091039020600660405163000014a9906300003716565b908152602001604051809103902090805463000014c7906300003bf4565b63000014d69291906300002337565b50600660405163000014e9906300003874565b90815260200160405180910390206006604051630000150990630000324d565b90815260200160405180910390209080546300001527906300003bf4565b63000015369291906300002337565b50600660405163000015499063000034be565b90815260200160405180910390206006604051630000156990630000359f565b90815260200160405180910390209080546300001587906300003bf4565b63000015969291906300002337565b50600660405163000015a99063000036e4565b9081526020016040518091039020600660405163000015c990630000361c565b908152602001604051809103902090805463000015e7906300003bf4565b63000015f69291906300002337565b50600660405163000016099063000035ea565b908152602001604051809103902060066040516300001629906300003441565b90815260200160405180910390209080546300001647906300003bf4565b63000016569291906300002337565b506040518060800160405280605381526020016300008b2460539139600660405163000016849063000032b1565b9081526020016040518091039020908051906020019063000016a9929190630000229b565b506040518060600160405280602c8152602001630000929b602c9139600660405163000016d79063000039a0565b9081526020016040518091039020908051906020019063000016fc929190630000229b565b506040518060a001604052806075815260200163000091e6607591396006604051630000172a906300003667565b90815260200160405180910390209080519060200190630000174f929190630000229b565b5060405180608001604052806059815260200163000095e5605991396006604051630000177d906300003955565b9081526020016040518091039020908051906020019063000017a2929190630000229b565b50604051806080016040528060488152602001630000935460489139600660405163000017d09063000033f6565b9081526020016040518091039020908051906020019063000017f5929190630000229b565b506040518060800160405280604481526020016300008f3b604491396006604051630000182390630000356d565b908152602001604051809103902090805190602001906300001848929190630000229b565b506040518060600160405280602e815260200163000091b8602e9139600660405163000018769063000036cb565b90815260200160405180910390209080519060200190630000189b929190630000229b565b506040518060600160405280603b81526020016300008ed9603b9139600660405163000018c9906300003522565b9081526020016040518091039020908051906020019063000018ee929190630000229b565b506040518060600160405280602a81526020016300008bf6602a91396006604051630000191c906300003392565b908152602001604051809103902090805190602001906300001941929190630000229b565b5060405180606001604052806034815260200163000090fe603491396006604051630000196f9063000034d7565b908152602001604051809103902090805190602001906300001994929190630000229b565b506040518060600160405280603b81526020016300008fba603b9139600660405163000019c2906300003586565b9081526020016040518091039020908051906020019063000019e7929190630000229b565b506040518060400160405280601f81526020017f3c7061746820643d274d3020334c3020324c33203256334c3020335a272f3e0081525060066040516300001a309063000038a6565b908152602001604051809103902090805190602001906300001a55929190630000229b565b506040518060a00160405280607a8152602001630000953c607a913960066040516300001a839063000037ac565b908152602001604051809103902090805190602001906300001aa8929190630000229b565b506040518060a00160405280606281526020016300008ff56062913960066040516300001ad690630000377a565b908152602001604051809103902090805190602001906300001afb929190630000229b565b506040518060200160405280600081525060066040516300001b1e906300003509565b908152602001604051809103902090805190602001906300001b43929190630000229b565b50600360076040516300001b589063000036fd565b908152602001604051809103902081905550600160076040516300001b7e906300003509565b908152602001604051809103902081905550600160076040516300001ba490630000356d565b908152602001604051809103902081905550600160076040516300001bca9063000036cb565b908152602001604051809103902081905550600160076040516300001bf0906300003392565b908152602001604051809103902081905550600260076040516300001c169063000033f6565b908152602001604051809103902081905550600260076040516300001c3c906300003522565b908152602001604051809103902081905550600460076040516300001c629063000035d1565b908152602001604051809103902081905550600460076040516300001c88906300003473565b908152602001604051809103902081905550600560076040516300001cae90630000377a565b908152602001604051809103902081905550600560076040516300001cd4906300003603565b908152602001604051809103902081905550600560076040516300001cfa9063000038bf565b908152602001604051809103902081905550600560076040516300001d20906300003874565b908152602001604051809103902081905550600560076040516300001d4690630000324d565b9081526020016040518091039020819055506300001d81735a8064f8249d079f02bfb688f4aa86b6b2c6535960226300001d8860201b60201c565b63000049d9565b6300001dac8282604051806020016040528060008152506300001db060201b60201c565b5050565b6300001dc483836300001e2560201b60201c565b6300001ddb6000848484630000202d60201b60201c565b6300001e20576040517f08c379a00000000000000000000000000000000000000000000000000000000081526004016300001e17906300003a47565b60405180910390fd5b505050565b600073ffffffffffffffffffffffffffffffffffffffff168273ffffffffffffffffffffffffffffffffffffffff1614156300001e9b576040517f08c379a00000000000000000000000000000000000000000000000000000000081526004016300001e92906300003a8f565b60405180910390fd5b6300001eae8163000021fa60201b60201c565b156300001ef4576040517f08c379a00000000000000000000000000000000000000000000000000000000081526004016300001eeb906300003a6b565b60405180910390fd5b6300001f0a60008383630000226660201b60201c565b6001600360008473ffffffffffffffffffffffffffffffffffffffff1673ffffffffffffffffffffffffffffffffffffffff16815260200190815260200160002060008282546300001f5e91906300003aeb565b92505081905550816002600083815260200190815260200160002060006101000a81548173ffffffffffffffffffffffffffffffffffffffff021916908373ffffffffffffffffffffffffffffffffffffffff160217905550808273ffffffffffffffffffffffffffffffffffffffff16600073ffffffffffffffffffffffffffffffffffffffff167fddf252ad1be2c89b69c2b068fc378daa952ba7f163c4a11628f55a4df523b3ef60405160405180910390a4630000202960008383630000226b60201b60201c565b5050565b6000630000205e8473ffffffffffffffffffffffffffffffffffffffff16630000227060201b6300000f921760201c565b1563000021ed578373ffffffffffffffffffffffffffffffffffffffff1663150b7a026300002093630000229360201b60201c565b8786866040518563ffffffff1660e01b815260040163000020b9949392919063000039eb565b602060405180830381600087803b15801563000020d557600080fd5b505af1925050508015630000210c57506040513d601f19601f82011682018060405250810190630000210991906300002414565b60015b630000219b573d80600081146300002142576040519150601f19603f3d011682016040523d82523d6000602084013e6300002147565b606091505b506000815114156300002193576040517f08c379a0000000000000000000000000000000000000000000000000000000008152600401630000218a906300003a47565b60405180910390fd5b805181602001fd5b63150b7a0260e01b7bffffffffffffffffffffffffffffffffffffffffffffffffffffffff1916817bffffffffffffffffffffffffffffffffffffffffffffffffffffffff19161491505063000021f2565b600190505b949350505050565b60008073ffffffffffffffffffffffffffffffffffffffff166002600084815260200190815260200160002060009054906101000a900473ffffffffffffffffffffffffffffffffffffffff1673ffffffffffffffffffffffffffffffffffffffff1614159050919050565b505050565b505050565b6000808273ffffffffffffffffffffffffffffffffffffffff163b119050919050565b600033905090565b82805463000022ab906300003bf4565b90600052602060002090601f01602090048101928263000022d157600085556300002322565b82601f1063000022ee57805160ff19168380011785556300002322565b828001600101855582156300002322579182015b8281111563000023215782518255916020019190600101906300002302565b5b5090506300002333919063000023da565b5090565b8280546300002347906300003bf4565b90600052602060002090601f016020900481019282630000236d576000855563000023c5565b82601f106300002382578054855563000023c5565b8280016001018555821563000023c557600052602060002091601f016020900482015b8281111563000023c457825482559160010191906001019063000023a5565b5b50905063000023d6919063000023da565b5090565b5b8082111563000023f757600081600090555060010163000023db565b5090565b600081519050630000240e8163000049bc565b92915050565b600060208284031215630000242857600080fd5b6000630000243a8482850163000023fb565b91505092915050565b6300002450816300003b4f565b82525050565b60006300002465826300003ab3565b630000247381856300003abe565b935063000024878185602086016300003bbb565b6300002494816300003c8c565b840191505092915050565b600063000024b06001836300003ae0565b915063000024bf826300003c9d565b600182019050919050565b600063000024db6001836300003ae0565b915063000024ea826300003cc6565b600182019050919050565b600063000025066001836300003ae0565b91506300002515826300003cef565b600182019050919050565b600063000025316001836300003ae0565b91506300002540826300003d18565b600182019050919050565b6000630000255c6001836300003ae0565b9150630000256b826300003d41565b600182019050919050565b600063000025876001836300003ae0565b91506300002596826300003d6a565b600182019050919050565b600063000025b26001836300003ae0565b915063000025c1826300003d93565b600182019050919050565b600063000025dd6001836300003ae0565b915063000025ec826300003dbc565b600182019050919050565b600063000026086001836300003ae0565b91506300002617826300003de5565b600182019050919050565b600063000026336032836300003acf565b91506300002642826300003e0e565b604082019050919050565b6000630000265e6001836300003ae0565b9150630000266d826300003e5d565b600182019050919050565b600063000026896001836300003ae0565b91506300002698826300003e86565b600182019050919050565b600063000026b4601c836300003acf565b915063000026c3826300003eaf565b602082019050919050565b600063000026df6001836300003ae0565b915063000026ee826300003ed8565b600182019050919050565b6000630000270a6001836300003ae0565b91506300002719826300003f01565b600182019050919050565b600063000027356001836300003ae0565b91506300002744826300003f2a565b600182019050919050565b600063000027606001836300003ae0565b9150630000276f826300003f53565b600182019050919050565b6000630000278b6001836300003ae0565b9150630000279a826300003f7c565b600182019050919050565b600063000027b66001836300003ae0565b915063000027c5826300003fa5565b600182019050919050565b600063000027e16001836300003ae0565b915063000027f0826300003fce565b600182019050919050565b6000630000280c6001836300003ae0565b9150630000281b826300003ff7565b600182019050919050565b600063000028376001836300003ae0565b91506300002846826300004020565b600182019050919050565b600063000028626001836300003ae0565b91506300002871826300004049565b600182019050919050565b6000630000288d6001836300003ae0565b9150630000289c826300004072565b600182019050919050565b600063000028b86001836300003ae0565b915063000028c782630000409b565b600182019050919050565b600063000028e36001836300003ae0565b915063000028f28263000040c4565b600182019050919050565b6000630000290e6001836300003ae0565b9150630000291d8263000040ed565b600182019050919050565b600063000029396001836300003ae0565b91506300002948826300004116565b600182019050919050565b600063000029646001836300003ae0565b9150630000297382630000413f565b600182019050919050565b6000630000298f6001836300003ae0565b9150630000299e826300004168565b600182019050919050565b600063000029ba6001836300003ae0565b915063000029c9826300004191565b600182019050919050565b600063000029e56001836300003ae0565b915063000029f48263000041ba565b600182019050919050565b60006300002a106001836300003ae0565b91506300002a1f8263000041e3565b600182019050919050565b60006300002a3b6001836300003ae0565b91506300002a4a82630000420c565b600182019050919050565b60006300002a666001836300003ae0565b91506300002a75826300004235565b600182019050919050565b60006300002a916001836300003ae0565b91506300002aa082630000425e565b600182019050919050565b60006300002abc6001836300003ae0565b91506300002acb826300004287565b600182019050919050565b60006300002ae76001836300003ae0565b91506300002af68263000042b0565b600182019050919050565b60006300002b126001836300003ae0565b91506300002b218263000042d9565b600182019050919050565b60006300002b3d6001836300003ae0565b91506300002b4c826300004302565b600182019050919050565b60006300002b686001836300003ae0565b91506300002b7782630000432b565b600182019050919050565b60006300002b936001836300003ae0565b91506300002ba2826300004354565b600182019050919050565b60006300002bbe6001836300003ae0565b91506300002bcd82630000437d565b600182019050919050565b60006300002be96020836300003acf565b91506300002bf88263000043a6565b602082019050919050565b60006300002c146001836300003ae0565b91506300002c238263000043cf565b600182019050919050565b60006300002c3f6001836300003ae0565b91506300002c4e8263000043f8565b600182019050919050565b60006300002c6a6001836300003ae0565b91506300002c79826300004421565b600182019050919050565b60006300002c956001836300003ae0565b91506300002ca482630000444a565b600182019050919050565b60006300002cc06001836300003ae0565b91506300002ccf826300004473565b600182019050919050565b60006300002ceb6001836300003ae0565b91506300002cfa82630000449c565b600182019050919050565b60006300002d166001836300003ae0565b91506300002d258263000044c5565b600182019050919050565b60006300002d416007836300003ae0565b91506300002d508263000044ee565b600782019050919050565b60006300002d6c6001836300003ae0565b91506300002d7b826300004517565b600182019050919050565b60006300002d976001836300003ae0565b91506300002da6826300004540565b600182019050919050565b60006300002dc26001836300003ae0565b91506300002dd1826300004569565b600182019050919050565b60006300002ded6001836300003ae0565b91506300002dfc826300004592565b600182019050919050565b60006300002e186001836300003ae0565b91506300002e278263000045bb565b600182019050919050565b60006300002e436001836300003ae0565b91506300002e528263000045e4565b600182019050919050565b60006300002e6e6001836300003ae0565b91506300002e7d82630000460d565b600182019050919050565b60006300002e996001836300003ae0565b91506300002ea8826300004636565b600182019050919050565b60006300002ec46001836300003ae0565b91506300002ed382630000465f565b600182019050919050565b60006300002eef6001836300003ae0565b91506300002efe826300004688565b600182019050919050565b60006300002f1a6001836300003ae0565b91506300002f298263000046b1565b600182019050919050565b60006300002f456001836300003ae0565b91506300002f548263000046da565b600182019050919050565b60006300002f706001836300003ae0565b91506300002f7f826300004703565b600182019050919050565b60006300002f9b6001836300003ae0565b91506300002faa82630000472c565b600182019050919050565b60006300002fc66001836300003ae0565b91506300002fd5826300004755565b600182019050919050565b60006300002ff16001836300003ae0565b9150630000300082630000477e565b600182019050919050565b6000630000301c6001836300003ae0565b9150630000302b8263000047a7565b600182019050919050565b600063000030476001836300003ae0565b915063000030568263000047d0565b600182019050919050565b600063000030726001836300003ae0565b915063000030818263000047f9565b600182019050919050565b6000630000309d6001836300003ae0565b915063000030ac826300004822565b600182019050919050565b600063000030c86001836300003ae0565b915063000030d782630000484b565b600182019050919050565b600063000030f36001836300003ae0565b91506300003102826300004874565b600182019050919050565b6000630000311e6001836300003ae0565b9150630000312d82630000489d565b600182019050919050565b600063000031496001836300003ae0565b915063000031588263000048c6565b600182019050919050565b600063000031746001836300003ae0565b915063000031838263000048ef565b600182019050919050565b6000630000319f6001836300003ae0565b915063000031ae826300004918565b600182019050919050565b600063000031ca6001836300003ae0565b915063000031d9826300004941565b600182019050919050565b600063000031f56001836300003ae0565b9150630000320482630000496a565b600182019050919050565b600063000032206001836300003ae0565b9150630000322f826300004993565b600182019050919050565b6300003247816300003bb1565b82525050565b6000630000325c82630000249f565b9150819050919050565b600063000032758263000024ca565b9150819050919050565b6000630000328e8263000024f5565b9150819050919050565b600063000032a7826300002520565b9150819050919050565b600063000032c082630000254b565b9150819050919050565b600063000032d9826300002576565b9150819050919050565b600063000032f28263000025a1565b9150819050919050565b6000630000330b8263000025cc565b9150819050919050565b600063000033248263000025f7565b9150819050919050565b6000630000333d82630000264d565b9150819050919050565b60006300003356826300002678565b9150819050919050565b6000630000336f8263000026ce565b9150819050919050565b600063000033888263000026f9565b9150819050919050565b600063000033a1826300002724565b9150819050919050565b600063000033ba82630000274f565b9150819050919050565b600063000033d382630000277a565b9150819050919050565b600063000033ec8263000027a5565b9150819050919050565b600063000034058263000027d0565b9150819050919050565b6000630000341e8263000027fb565b9150819050919050565b60006300003437826300002826565b9150819050919050565b60006300003450826300002851565b9150819050919050565b6000630000346982630000287c565b9150819050919050565b600063000034828263000028a7565b9150819050919050565b6000630000349b8263000028d2565b9150819050919050565b600063000034b48263000028fd565b9150819050919050565b600063000034cd826300002928565b9150819050919050565b600063000034e6826300002953565b9150819050919050565b600063000034ff82630000297e565b9150819050919050565b600063000035188263000029a9565b9150819050919050565b600063000035318263000029d4565b9150819050919050565b6000630000354a8263000029ff565b9150819050919050565b60006300003563826300002a2a565b9150819050919050565b6000630000357c826300002a55565b9150819050919050565b60006300003595826300002a80565b9150819050919050565b600063000035ae826300002aab565b9150819050919050565b600063000035c7826300002ad6565b9150819050919050565b600063000035e0826300002b01565b9150819050919050565b600063000035f9826300002b2c565b9150819050919050565b60006300003612826300002b57565b9150819050919050565b6000630000362b826300002b82565b9150819050919050565b60006300003644826300002bad565b9150819050919050565b6000630000365d826300002c03565b9150819050919050565b60006300003676826300002c2e565b9150819050919050565b6000630000368f826300002c59565b9150819050919050565b600063000036a8826300002c84565b9150819050919050565b600063000036c1826300002caf565b9150819050919050565b600063000036da826300002cda565b9150819050919050565b600063000036f3826300002d05565b9150819050919050565b6000630000370c826300002d30565b9150819050919050565b60006300003725826300002d5b565b9150819050919050565b6000630000373e826300002d86565b9150819050919050565b60006300003757826300002db1565b9150819050919050565b60006300003770826300002ddc565b9150819050919050565b60006300003789826300002e07565b9150819050919050565b600063000037a2826300002e32565b9150819050919050565b600063000037bb826300002e5d565b9150819050919050565b600063000037d4826300002e88565b9150819050919050565b600063000037ed826300002eb3565b9150819050919050565b60006300003806826300002ede565b9150819050919050565b6000630000381f826300002f09565b9150819050919050565b60006300003838826300002f34565b9150819050919050565b60006300003851826300002f5f565b9150819050919050565b6000630000386a826300002f8a565b9150819050919050565b60006300003883826300002fb5565b9150819050919050565b6000630000389c826300002fe0565b9150819050919050565b600063000038b582630000300b565b9150819050919050565b600063000038ce826300003036565b9150819050919050565b600063000038e7826300003061565b9150819050919050565b6000630000390082630000308c565b9150819050919050565b600063000039198263000030b7565b9150819050919050565b600063000039328263000030e2565b9150819050919050565b6000630000394b82630000310d565b9150819050919050565b60006300003964826300003138565b9150819050919050565b6000630000397d826300003163565b9150819050919050565b6000630000399682630000318e565b9150819050919050565b600063000039af8263000031b9565b9150819050919050565b600063000039c88263000031e4565b9150819050919050565b600063000039e182630000320f565b9150819050919050565b60006080820190506300003a0460008301876300002443565b6300003a1560208301866300002443565b6300003a266040830185630000323a565b81810360608301526300003a3c81846300002456565b905095945050505050565b600060208201905081810360008301526300003a64816300002622565b9050919050565b600060208201905081810360008301526300003a888163000026a3565b9050919050565b600060208201905081810360008301526300003aac816300002bd8565b9050919050565b600081519050919050565b600082825260208201905092915050565b600082825260208201905092915050565b600081905092915050565b60006300003afa826300003bb1565b91506300003b09836300003bb1565b9250827fffffffffffffffffffffffffffffffffffffffffffffffffffffffffffffffff038211156300003b44576300003b436300003c2e565b5b828201905092915050565b60006300003b5e826300003b91565b9050919050565b60007fffffffff0000000000000000000000000000000000000000000000000000000082169050919050565b600073ffffffffffffffffffffffffffffffffffffffff82169050919050565b6000819050919050565b60005b838110156300003bdd5780820151818401526020810190506300003bbe565b838111156300003bee576000848401525b50505050565b600060028204905060018216806300003c0e57607f821691505b602082108114156300003c28576300003c276300003c5d565b5b50919050565b7f4e487b7100000000000000000000000000000000000000000000000000000000600052601160045260246000fd5b7f4e487b7100000000000000000000000000000000000000000000000000000000600052602260045260246000fd5b6000601f19601f8301169050919050565b7f7700000000000000000000000000000000000000000000000000000000000000600082015250565b7f4300000000000000000000000000000000000000000000000000000000000000600082015250565b7f4100000000000000000000000000000000000000000000000000000000000000600082015250565b7f3000000000000000000000000000000000000000000000000000000000000000600082015250565b7f2a00000000000000000000000000000000000000000000000000000000000000600082015250565b7f4700000000000000000000000000000000000000000000000000000000000000600082015250565b7f6300000000000000000000000000000000000000000000000000000000000000600082015250565b7f3400000000000000000000000000000000000000000000000000000000000000600082015250565b7f6700000000000000000000000000000000000000000000000000000000000000600082015250565b7f4552433732313a207472616e7366657220746f206e6f6e20455243373231526560008201527f63656976657220696d706c656d656e7465720000000000000000000000000000602082015250565b7f4200000000000000000000000000000000000000000000000000000000000000600082015250565b7f7000000000000000000000000000000000000000000000000000000000000000600082015250565b7f4552433732313a20746f6b656e20616c7265616479206d696e74656400000000600082015250565b7f3300000000000000000000000000000000000000000000000000000000000000600082015250565b7f4800000000000000000000000000000000000000000000000000000000000000600082015250565b7f2100000000000000000000000000000000000000000000000000000000000000600082015250565b7f7500000000000000000000000000000000000000000000000000000000000000600082015250565b7f5500000000000000000000000000000000000000000000000000000000000000600082015250565b7f6100000000000000000000000000000000000000000000000000000000000000600082015250565b7f2c00000000000000000000000000000000000000000000000000000000000000600082015250565b7f7100000000000000000000000000000000000000000000000000000000000000600082015250565b7f7200000000000000000000000000000000000000000000000000000000000000600082015250565b7f7a00000000000000000000000000000000000000000000000000000000000000600082015250565b7f4500000000000000000000000000000000000000000000000000000000000000600082015250565b7f6e00000000000000000000000000000000000000000000000000000000000000600082015250565b7f3700000000000000000000000000000000000000000000000000000000000000600082015250565b7f6f00000000000000000000000000000000000000000000000000000000000000600082015250565b7f5800000000000000000000000000000000000000000000000000000000000000600082015250565b7f3f00000000000000000000000000000000000000000000000000000000000000600082015250565b7f7300000000000000000000000000000000000000000000000000000000000000600082015250565b7f2000000000000000000000000000000000000000000000000000000000000000600082015250565b7f3b00000000000000000000000000000000000000000000000000000000000000600082015250565b7f6c00000000000000000000000000000000000000000000000000000000000000600082015250565b7f4400000000000000000000000000000000000000000000000000000000000000600082015250565b7f2e00000000000000000000000000000000000000000000000000000000000000600082015250565b7f2b00000000000000000000000000000000000000000000000000000000000000600082015250565b7f7800000000000000000000000000000000000000000000000000000000000000600082015250565b7f5000000000000000000000000000000000000000000000000000000000000000600082015250565b7f4e00000000000000000000000000000000000000000000000000000000000000600082015250565b7f5a00000000000000000000000000000000000000000000000000000000000000600082015250565b7f4d00000000000000000000000000000000000000000000000000000000000000600082015250565b7f7900000000000000000000000000000000000000000000000000000000000000600082015250565b7f5400000000000000000000000000000000000000000000000000000000000000600082015250565b7f4552433732313a206d696e7420746f20746865207a65726f2061646472657373600082015250565b7f4c00000000000000000000000000000000000000000000000000000000000000600082015250565b7f3c00000000000000000000000000000000000000000000000000000000000000600082015250565b7f4900000000000000000000000000000000000000000000000000000000000000600082015250565b7f4a00000000000000000000000000000000000000000000000000000000000000600082015250565b7f4b00000000000000000000000000000000000000000000000000000000000000600082015250565b7f3a00000000000000000000000000000000000000000000000000000000000000600082015250565b7f5900000000000000000000000000000000000000000000000000000000000000600082015250565b7f44454641554c5400000000000000000000000000000000000000000000000000600082015250565b7f7600000000000000000000000000000000000000000000000000000000000000600082015250565b7f6800000000000000000000000000000000000000000000000000000000000000600082015250565b7f6500000000000000000000000000000000000000000000000000000000000000600082015250565b7f5300000000000000000000000000000000000000000000000000000000000000600082015250565b7f2300000000000000000000000000000000000000000000000000000000000000600082015250565b7f3200000000000000000000000000000000000000000000000000000000000000600082015250565b7f2400000000000000000000000000000000000000000000000000000000000000600082015250565b7f6a00000000000000000000000000000000000000000000000000000000000000600082015250565b7f6200000000000000000000000000000000000000000000000000000000000000600082015250565b7f4f00000000000000000000000000000000000000000000000000000000000000600082015250565b7f3100000000000000000000000000000000000000000000000000000000000000600082015250565b7f7400000000000000000000000000000000000000000000000000000000000000600082015250565b7f3500000000000000000000000000000000000000000000000000000000000000600082015250565b7f6600000000000000000000000000000000000000000000000000000000000000600082015250565b7f5700000000000000000000000000000000000000000000000000000000000000600082015250565b7f3900000000000000000000000000000000000000000000000000000000000000600082015250565b7f2d00000000000000000000000000000000000000000000000000000000000000600082015250565b7f6d00000000000000000000000000000000000000000000000000000000000000600082015250565b7f3600000000000000000000000000000000000000000000000000000000000000600082015250565b7f3800000000000000000000000000000000000000000000000000000000000000600082015250565b7f4600000000000000000000000000000000000000000000000000000000000000600082015250565b7f6900000000000000000000000000000000000000000000000000000000000000600082015250565b7f5200000000000000000000000000000000000000000000000000000000000000600082015250565b7f3e00000000000000000000000000000000000000000000000000000000000000600082015250565b7f5600000000000000000000000000000000000000000000000000000000000000600082015250565b7f6400000000000000000000000000000000000000000000000000000000000000600082015250565b7f3d00000000000000000000000000000000000000000000000000000000000000600082015250565b7f6b00000000000000000000000000000000000000000000000000000000000000600082015250565b7f5100000000000000000000000000000000000000000000000000000000000000600082015250565b63000049c9816300003b65565b811463000049d657600080fd5b50565b6141008063000049ea6000396000f3fe608060405234801561001057600080fd5b50600436106101005760003560e01c80636352211e11610097578063a22cb46511610066578063a22cb465146102d3578063b88d4fde146102ef578063c87b56dd1461030b578063e985e9c51461033b57610100565b80636352211e14610225578063671639c11461025557806370a082311461028557806395d89b41146102b557610100565b806318160ddd116100d357806318160ddd1461019f57806323b872dd146101bd57806342842e0e146101d9578063432a43cc146101f557610100565b806301ffc9a71461010557806306fdde0314610135578063081812fc14610153578063095ea7b314610183575b600080fd5b61011f600480360381019061011a919061222d565b61036b565b60405161012c9190612c3d565b60405180910390f35b61013d61044d565b60405161014a9190612c58565b60405180910390f35b61016d60048036038101906101689190612353565b6104df565b60405161017a9190612bd6565b60405180910390f35b61019d600480360381019061019891906121f1565b610564565b005b6101a761067c565b6040516101b49190612e9a565b60405180910390f35b6101d760048036038101906101d291906120eb565b610685565b005b6101f360048036038101906101ee91906120eb565b6106e5565b005b61020f600480360381019061020a919061227f565b610705565b60405161021c9190612c3d565b60405180910390f35b61023f600480360381019061023a9190612353565b610953565b60405161024c9190612bd6565b60405180910390f35b61026f600480360381019061026a91906122c0565b610a05565b60405161027c9190612c58565b60405180910390f35b61029f600480360381019061029a9190612086565b610c25565b6040516102ac9190612e9a565b60405180910390f35b6102bd610cdd565b6040516102ca9190612c58565b60405180910390f35b6102ed60048036038101906102e891906121b5565b610d6f565b005b6103096004803603810190610304919061213a565b610d85565b005b61032560048036038101906103209190612353565b610de7565b6040516103329190612c58565b60405180910390f35b610355600480360381019061035091906120af565b610efe565b6040516103629190612c3d565b60405180910390f35b60007f80ac58cd000000000000000000000000000000000000000000000000000000007bffffffffffffffffffffffffffffffffffffffffffffffffffffffff1916827bffffffffffffffffffffffffffffffffffffffffffffffffffffffff1916148061043657507f5b5e139f000000000000000000000000000000000000000000000000000000007bffffffffffffffffffffffffffffffffffffffffffffffffffffffff1916827bffffffffffffffffffffffffffffffffffffffffffffffffffffffff1916145b80610446575061044582610fb5565b5b9050919050565b60606000805461045c9061315f565b80601f01602080910402602001604051908101604052809291908181526020018280546104889061315f565b80156104d55780601f106104aa576101008083540402835291602001916104d5565b820191906000526020600020905b8154815290600101906020018083116104b857829003601f168201915b5050505050905090565b60006104ea8261101f565b610529576040517f08c379a000000000000000000000000000000000000000000000000000000000815260040161052090612e1a565b60405180910390fd5b6004600083815260200190815260200160002060009054906101000a900473ffffffffffffffffffffffffffffffffffffffff169050919050565b600061056f82610953565b90508073ffffffffffffffffffffffffffffffffffffffff168373ffffffffffffffffffffffffffffffffffffffff1614156105e0576040517f08c379a00000000000000000000000000000000000000000000000000000000081526004016105d790612e3a565b60405180910390fd5b8073ffffffffffffffffffffffffffffffffffffffff166105ff61108b565b73ffffffffffffffffffffffffffffffffffffffff16148061062e575061062d8161062861108b565b610efe565b5b61066d576040517f08c379a000000000000000000000000000000000000000000000000000000000815260040161066490612d5a565b60405180910390fd5b6106778383611093565b505050565b60006001905090565b61069661069061108b565b8261114c565b6106d5576040517f08c379a00000000000000000000000000000000000000000000000000000000081526004016106cc90612e5a565b60405180910390fd5b6106e083838361122a565b505050565b61070083838360405180602001604052806000815250610d85565b505050565b600080829050600b60003373ffffffffffffffffffffffffffffffffffffffff1673ffffffffffffffffffffffffffffffffffffffff16815260200190815260200160002060009054906101000a900460ff1615610798576040517f08c379a000000000000000000000000000000000000000000000000000000000815260040161078f90612e7a565b60405180910390fd5b60008151116107dc576040517f08c379a00000000000000000000000000000000000000000000000000000000081526004016107d390612dba565b60405180910390fd5b600a815110610820576040517f08c379a000000000000000000000000000000000000000000000000000000000815260040161081790612cfa565b60405180910390fd5b6362f88150421115610867576040517f08c379a000000000000000000000000000000000000000000000000000000000815260040161085e90612d3a565b60405180910390fd5b61087083611491565b156108b0576040517f08c379a00000000000000000000000000000000000000000000000000000000081526004016108a790612dfa565b60405180910390fd5b60086108bb8461164b565b6040516020016108cc929190612a51565b604051602081830303815290604052600890805190602001906108f0929190611eaa565b506001600b60003373ffffffffffffffffffffffffffffffffffffffff1673ffffffffffffffffffffffffffffffffffffffff16815260200190815260200160002060006101000a81548160ff0219169083151502179055506001915050919050565b6000806002600084815260200190815260200160002060009054906101000a900473ffffffffffffffffffffffffffffffffffffffff169050600073ffffffffffffffffffffffffffffffffffffffff168173ffffffffffffffffffffffffffffffffffffffff1614156109fc576040517f08c379a00000000000000000000000000000000000000000000000000000000081526004016109f390612d9a565b60405180910390fd5b80915050919050565b606060008060405180602001604052806000815250905060005b8751811015610bbc576000610a3489836116d8565b90506000600682604051610a4891906129b9565b90815260200160405180910390208054610a619061315f565b80601f0160208091040260200160405190810160405280929190818152602001828054610a8d9061315f565b8015610ada5780601f10610aaf57610100808354040283529160200191610ada565b820191906000526020600020905b815481529060010190602001808311610abd57829003601f168201915b50505050509050600080600784604051610af491906129b9565b9081526020016040518091039020541415610b2b576007604051610b1790612aa2565b908152602001604051809103902054610b4b565b600783604051610b3b91906129b9565b9081526020016040518091039020545b90506000825111610b5e57505050610ba9565b84610b6887611809565b83604051602001610b7b939291906129ff565b6040516020818303038152906040529450888187610b999190612f94565b610ba39190612f94565b95505050505b8080610bb4906131c2565b915050610a1f565b506000600283610bcc9190612fea565b6064610bd89190613075565b90506000610be582611809565b610bee87611809565b898b86604051602001610c05959493929190612b27565b604051602081830303815290604052905080945050505050949350505050565b60008073ffffffffffffffffffffffffffffffffffffffff168273ffffffffffffffffffffffffffffffffffffffff161415610c96576040517f08c379a0000000000000000000000000000000000000000000000000000000008152600401610c8d90612d7a565b60405180910390fd5b600360008373ffffffffffffffffffffffffffffffffffffffff1673ffffffffffffffffffffffffffffffffffffffff168152602001908152602001600020549050919050565b606060018054610cec9061315f565b80601f0160208091040260200160405190810160405280929190818152602001828054610d189061315f565b8015610d655780601f10610d3a57610100808354040283529160200191610d65565b820191906000526020600020905b815481529060010190602001808311610d4857829003601f168201915b5050505050905090565b610d81610d7a61108b565b83836119b6565b5050565b610d96610d9061108b565b8361114c565b610dd5576040517f08c379a0000000000000000000000000000000000000000000000000000000008152600401610dcc90612e5a565b60405180910390fd5b610de184848484611b23565b50505050565b606060228214610e2c576040517f08c379a0000000000000000000000000000000000000000000000000000000008152600401610e2390612dda565b60405180910390fd5b6000610e39600a54611809565b604051602001610e499190612a75565b6040516020818303038152906040529050806008604051602001610e6e9291906129d0565b6040516020818303038152906040529050610e8881611b7f565b604051602001610e989190612bb4565b6040516020818303038152906040529050600081604051602001610ebc9190612ab7565b6040516020818303038152906040529050610ed681611b7f565b604051602001610ee69190612b05565b60405160208183030381529060405292505050919050565b6000600560008473ffffffffffffffffffffffffffffffffffffffff1673ffffffffffffffffffffffffffffffffffffffff16815260200190815260200160002060008373ffffffffffffffffffffffffffffffffffffffff1673ffffffffffffffffffffffffffffffffffffffff16815260200190815260200160002060009054906101000a900460ff16905092915050565b6000808273ffffffffffffffffffffffffffffffffffffffff163b119050919050565b60007f01ffc9a7000000000000000000000000000000000000000000000000000000007bffffffffffffffffffffffffffffffffffffffffffffffffffffffff1916827bffffffffffffffffffffffffffffffffffffffffffffffffffffffff1916149050919050565b60008073ffffffffffffffffffffffffffffffffffffffff166002600084815260200190815260200160002060009054906101000a900473ffffffffffffffffffffffffffffffffffffffff1673ffffffffffffffffffffffffffffffffffffffff1614159050919050565b600033905090565b816004600083815260200190815260200160002060006101000a81548173ffffffffffffffffffffffffffffffffffffffff021916908373ffffffffffffffffffffffffffffffffffffffff160217905550808273ffffffffffffffffffffffffffffffffffffffff1661110683610953565b73ffffffffffffffffffffffffffffffffffffffff167f8c5be1e5ebec7d5bd14f71427d1e84f3dd0314c0f7b2291e5b200ac8c7c3b92560405160405180910390a45050565b60006111578261101f565b611196576040517f08c379a000000000000000000000000000000000000000000000000000000000815260040161118d90612d1a565b60405180910390fd5b60006111a183610953565b90508073ffffffffffffffffffffffffffffffffffffffff168473ffffffffffffffffffffffffffffffffffffffff16148061121057508373ffffffffffffffffffffffffffffffffffffffff166111f8846104df565b73ffffffffffffffffffffffffffffffffffffffff16145b8061122157506112208185610efe565b5b91505092915050565b8273ffffffffffffffffffffffffffffffffffffffff1661124a82610953565b73ffffffffffffffffffffffffffffffffffffffff16146112a0576040517f08c379a000000000000000000000000000000000000000000000000000000000815260040161129790612c9a565b60405180910390fd5b600073ffffffffffffffffffffffffffffffffffffffff168273ffffffffffffffffffffffffffffffffffffffff161415611310576040517f08c379a000000000000000000000000000000000000000000000000000000000815260040161130790612cba565b60405180910390fd5b61131b838383611d09565b611326600082611093565b6001600360008573ffffffffffffffffffffffffffffffffffffffff1673ffffffffffffffffffffffffffffffffffffffff16815260200190815260200160002060008282546113769190613075565b925050819055506001600360008473ffffffffffffffffffffffffffffffffffffffff1673ffffffffffffffffffffffffffffffffffffffff16815260200190815260200160002060008282546113cd9190612f94565b92505081905550816002600083815260200190815260200160002060006101000a81548173ffffffffffffffffffffffffffffffffffffffff021916908373ffffffffffffffffffffffffffffffffffffffff160217905550808273ffffffffffffffffffffffffffffffffffffffff168473ffffffffffffffffffffffffffffffffffffffff167fddf252ad1be2c89b69c2b068fc378daa952ba7f163c4a11628f55a4df523b3ef60405160405180910390a461148c838383611d0e565b505050565b600080600090505b8251811015611640576000600167ffffffffffffffff8111156114e5577f4e487b7100000000000000000000000000000000000000000000000000000000600052604160045260246000fd5b6040519080825280601f01601f1916602001820160405280156115175781602001600182028036833780820191505090505b509050838281518110611553577f4e487b7100000000000000000000000000000000000000000000000000000000600052603260045260246000fd5b602001015160f81c60f81b81600081518110611598577f4e487b7100000000000000000000000000000000000000000000000000000000600052603260045260246000fd5b60200101907effffffffffffffffffffffffffffffffffffffffffffffffffffffffffffff1916908160001a905350600081600081518110611603577f4e487b7100000000000000000000000000000000000000000000000000000000600052603260045260246000fd5b602001015160f81c60f81b60f81c905060208160ff16141561162b5760019350505050611646565b50508080611638906131c2565b915050611499565b50600090505b919050565b60606005600960008282546116609190612f94565b925050819055506005600a600082825461167a9190612f94565b925050819055506116d1826040518060400160405280600481526020017f2339393900000000000000000000000000000000000000000000000000000000815250600160026009546116cc919061301b565b610a05565b9050919050565b60606000600167ffffffffffffffff81111561171d577f4e487b7100000000000000000000000000000000000000000000000000000000600052604160045260246000fd5b6040519080825280601f01601f19166020018201604052801561174f5781602001600182028036833780820191505090505b50905083838151811061178b577f4e487b7100000000000000000000000000000000000000000000000000000000600052603260045260246000fd5b602001015160f81c60f81b816000815181106117d0577f4e487b7100000000000000000000000000000000000000000000000000000000600052603260045260246000fd5b60200101907effffffffffffffffffffffffffffffffffffffffffffffffffffffffffffff1916908160001a9053508091505092915050565b60606000821415611851576040518060400160405280600181526020017f300000000000000000000000000000000000000000000000000000000000000081525090506119b1565b600082905060005b6000821461188357808061186c906131c2565b915050600a8261187c9190612fea565b9150611859565b60008167ffffffffffffffff8111156118c5577f4e487b7100000000000000000000000000000000000000000000000000000000600052604160045260246000fd5b6040519080825280601f01601f1916602001820160405280156118f75781602001600182028036833780820191505090505b5090505b600085146119aa576001826119109190613075565b9150600a8561191f919061320b565b603061192b9190612f94565b60f81b818381518110611967577f4e487b7100000000000000000000000000000000000000000000000000000000600052603260045260246000fd5b60200101907effffffffffffffffffffffffffffffffffffffffffffffffffffffffffffff1916908160001a905350600a856119a39190612fea565b94506118fb565b8093505050505b919050565b8173ffffffffffffffffffffffffffffffffffffffff168373ffffffffffffffffffffffffffffffffffffffff161415611a25576040517f08c379a0000000000000000000000000000000000000000000000000000000008152600401611a1c90612cda565b60405180910390fd5b80600560008573ffffffffffffffffffffffffffffffffffffffff1673ffffffffffffffffffffffffffffffffffffffff16815260200190815260200160002060008473ffffffffffffffffffffffffffffffffffffffff1673ffffffffffffffffffffffffffffffffffffffff16815260200190815260200160002060006101000a81548160ff0219169083151502179055508173ffffffffffffffffffffffffffffffffffffffff168373ffffffffffffffffffffffffffffffffffffffff167f17307eab39ab6107e8899845ad3d59bd9653f200f220920489ca2b5937696c3183604051611b169190612c3d565b60405180910390a3505050565b611b2e84848461122a565b611b3a84848484611d13565b611b79576040517f08c379a0000000000000000000000000000000000000000000000000000000008152600401611b7090612c7a565b60405180910390fd5b50505050565b6060600082511415611ba257604051806020016040528060008152509050611d04565b600060405180606001604052806040815260200161408b6040913990506000600360028551611bd19190612f94565b611bdb9190612fea565b6004611be7919061301b565b67ffffffffffffffff811115611c26577f4e487b7100000000000000000000000000000000000000000000000000000000600052604160045260246000fd5b6040519080825280601f01601f191660200182016040528015611c585781602001600182028036833780820191505090505b509050600182016020820185865187015b80821015611cc4576003820191508151603f8160121c168501518453600184019350603f81600c1c168501518453600184019350603f8160061c168501518453600184019350603f8116850151845360018401935050611c69565b5050600386510660018114611ce05760028114611cf357611cfb565b603d6001830353603d6002830353611cfb565b603d60018303535b50505080925050505b919050565b505050565b505050565b6000611d348473ffffffffffffffffffffffffffffffffffffffff16610f92565b15611e9d578373ffffffffffffffffffffffffffffffffffffffff1663150b7a02611d5d61108b565b8786866040518563ffffffff1660e01b8152600401611d7f9493929190612bf1565b602060405180830381600087803b158015611d9957600080fd5b505af1925050508015611dca57506040513d601f19601f82011682018060405250810190611dc79190612256565b60015b611e4d573d8060008114611dfa576040519150601f19603f3d011682016040523d82523d6000602084013e611dff565b606091505b50600081511415611e45576040517f08c379a0000000000000000000000000000000000000000000000000000000008152600401611e3c90612c7a565b60405180910390fd5b805181602001fd5b63150b7a0260e01b7bffffffffffffffffffffffffffffffffffffffffffffffffffffffff1916817bffffffffffffffffffffffffffffffffffffffffffffffffffffffff191614915050611ea2565b600190505b949350505050565b828054611eb69061315f565b90600052602060002090601f016020900481019282611ed85760008555611f1f565b82601f10611ef157805160ff1916838001178555611f1f565b82800160010185558215611f1f579182015b82811115611f1e578251825591602001919060010190611f03565b5b509050611f2c9190611f30565b5090565b5b80821115611f49576000816000905550600101611f31565b5090565b6000611f60611f5b84612eda565b612eb5565b905082815260208101848484011115611f7857600080fd5b611f8384828561311d565b509392505050565b6000611f9e611f9984612f0b565b612eb5565b905082815260208101848484011115611fb657600080fd5b611fc184828561311d565b509392505050565b600081359050611fd88161402e565b92915050565b600081359050611fed81614045565b92915050565b6000813590506120028161405c565b92915050565b6000815190506120178161405c565b92915050565b600082601f83011261202e57600080fd5b813561203e848260208601611f4d565b91505092915050565b600082601f83011261205857600080fd5b8135612068848260208601611f8b565b91505092915050565b60008135905061208081614073565b92915050565b60006020828403121561209857600080fd5b60006120a684828501611fc9565b91505092915050565b600080604083850312156120c257600080fd5b60006120d085828601611fc9565b92505060206120e185828601611fc9565b9150509250929050565b60008060006060848603121561210057600080fd5b600061210e86828701611fc9565b935050602061211f86828701611fc9565b925050604061213086828701612071565b9150509250925092565b6000806000806080858703121561215057600080fd5b600061215e87828801611fc9565b945050602061216f87828801611fc9565b935050604061218087828801612071565b925050606085013567ffffffffffffffff81111561219d57600080fd5b6121a98782880161201d565b91505092959194509250565b600080604083850312156121c857600080fd5b60006121d685828601611fc9565b92505060206121e785828601611fde565b9150509250929050565b6000806040838503121561220457600080fd5b600061221285828601611fc9565b925050602061222385828601612071565b9150509250929050565b60006020828403121561223f57600080fd5b600061224d84828501611ff3565b91505092915050565b60006020828403121561226857600080fd5b600061227684828501612008565b91505092915050565b60006020828403121561229157600080fd5b600082013567ffffffffffffffff8111156122ab57600080fd5b6122b784828501612047565b91505092915050565b600080600080608085870312156122d657600080fd5b600085013567ffffffffffffffff8111156122f057600080fd5b6122fc87828801612047565b945050602085013567ffffffffffffffff81111561231957600080fd5b61232587828801612047565b935050604061233687828801612071565b925050606061234787828801612071565b91505092959194509250565b60006020828403121561236557600080fd5b600061237384828501612071565b91505092915050565b612385816130a9565b82525050565b612394816130bb565b82525050565b60006123a582612f51565b6123af8185612f67565b93506123bf81856020860161312c565b6123c8816132f8565b840191505092915050565b60006123de82612f5c565b6123e88185612f78565b93506123f881856020860161312c565b612401816132f8565b840191505092915050565b600061241782612f5c565b6124218185612f89565b935061243181856020860161312c565b80840191505092915050565b6000815461244a8161315f565b6124548186612f89565b9450600182166000811461246f5760018114612480576124b3565b60ff198316865281860193506124b3565b61248985612f3c565b60005b838110156124ab5781548189015260018201915060208101905061248c565b838801955050505b50505092915050565b60006124c9603283612f78565b91506124d482613309565b604082019050919050565b60006124ec602583612f78565b91506124f782613358565b604082019050919050565b600061250f602a83612f89565b915061251a826133a7565b602a82019050919050565b6000612532601683612f89565b915061253d826133f6565b601682019050919050565b6000612555600183612f89565b91506125608261341f565b600182019050919050565b6000612578602483612f78565b915061258382613448565b604082019050919050565b600061259b601983612f78565b91506125a682613497565b602082019050919050565b60006125be600983612f89565b91506125c9826134c0565b600982019050919050565b60006125e1602783612f78565b91506125ec826134e9565b604082019050919050565b6000612604603683612f89565b915061260f82613538565b603682019050919050565b6000612627602c83612f78565b915061263282613587565b604082019050919050565b600061264a601283612f89565b9150612655826135d6565b601282019050919050565b600061266d601683612f78565b9150612678826135ff565b602082019050919050565b6000612690603883612f78565b915061269b82613628565b604082019050919050565b60006126b3602a83612f78565b91506126be82613677565b604082019050919050565b60006126d6602983612f78565b91506126e1826136c6565b604082019050919050565b60006126f9600c83612f78565b915061270482613715565b602082019050919050565b600061271c601983612f78565b91506127278261373e565b602082019050919050565b600061273f600283612f89565b915061274a82613767565b600282019050919050565b6000612762602183612f78565b915061276d82613790565b604082019050919050565b6000612785602c83612f78565b9150612790826137df565b604082019050919050565b60006127a8600783612f89565b91506127b38261382e565b600782019050919050565b60006127cb600483612f89565b91506127d682613857565b600482019050919050565b60006127ee600183612f89565b91506127f982613880565b600182019050919050565b6000612811602183612f78565b915061281c826138a9565b604082019050919050565b6000612834601d83612f89565b915061283f826138f8565b601d82019050919050565b6000612857603183612f78565b915061286282613921565b604082019050919050565b600061287a601883612f89565b915061288582613970565b601882019050919050565b600061289d601683612f78565b91506128a882613999565b602082019050919050565b60006128c0600283612f89565b91506128cb826139c2565b600282019050919050565b60006128e3600a83612f89565b91506128ee826139eb565b600a82019050919050565b6000612906600683612f89565b915061291182613a14565b600682019050919050565b6000612929602483612f89565b915061293482613a3d565b602482019050919050565b600061294c601a83612f89565b915061295782613a8c565b601a82019050919050565b600061297061045b83612f89565b915061297b82613ab5565b61045b82019050919050565b6000612994600383612f89565b915061299f82614005565b600382019050919050565b6129b381613113565b82525050565b60006129c5828461240c565b915081905092915050565b60006129dc828561240c565b91506129e8828461243d565b91506129f3826128f9565b91508190509392505050565b6000612a0b828661240c565b9150612a168261286d565b9150612a22828561240c565b9150612a2d82612987565b9150612a39828461240c565b9150612a44826127be565b9150819050949350505050565b6000612a5d828561243d565b9150612a69828461240c565b91508190509392505050565b6000612a8082612525565b9150612a8c828461240c565b9150612a9782612962565b915081905092915050565b6000612aad8261279b565b9150819050919050565b6000612ac2826127e1565b9150612acd8261263d565b9150612ad882612502565b9150612ae3826128d6565b9150612aef828461240c565b9150612afa82612732565b915081905092915050565b6000612b1082612827565b9150612b1c828461240c565b915081905092915050565b6000612b328261291c565b9150612b3e828861240c565b9150612b4982612548565b9150612b55828761240c565b9150612b60826125b1565b9150612b6c828661240c565b9150612b77826125f7565b9150612b83828561240c565b9150612b8e826128b3565b9150612b9a828461240c565b9150612ba5826127be565b91508190509695505050505050565b6000612bbf8261293f565b9150612bcb828461240c565b915081905092915050565b6000602082019050612beb600083018461237c565b92915050565b6000608082019050612c06600083018761237c565b612c13602083018661237c565b612c2060408301856129aa565b8181036060830152612c32818461239a565b905095945050505050565b6000602082019050612c52600083018461238b565b92915050565b60006020820190508181036000830152612c7281846123d3565b905092915050565b60006020820190508181036000830152612c93816124bc565b9050919050565b60006020820190508181036000830152612cb3816124df565b9050919050565b60006020820190508181036000830152612cd38161256b565b9050919050565b60006020820190508181036000830152612cf38161258e565b9050919050565b60006020820190508181036000830152612d13816125d4565b9050919050565b60006020820190508181036000830152612d338161261a565b9050919050565b60006020820190508181036000830152612d5381612660565b9050919050565b60006020820190508181036000830152612d7381612683565b9050919050565b60006020820190508181036000830152612d93816126a6565b9050919050565b60006020820190508181036000830152612db3816126c9565b9050919050565b60006020820190508181036000830152612dd3816126ec565b9050919050565b60006020820190508181036000830152612df38161270f565b9050919050565b60006020820190508181036000830152612e1381612755565b9050919050565b60006020820190508181036000830152612e3381612778565b9050919050565b60006020820190508181036000830152612e5381612804565b9050919050565b60006020820190508181036000830152612e738161284a565b9050919050565b60006020820190508181036000830152612e9381612890565b9050919050565b6000602082019050612eaf60008301846129aa565b92915050565b6000612ebf612ed0565b9050612ecb8282613191565b919050565b6000604051905090565b600067ffffffffffffffff821115612ef557612ef46132c9565b5b612efe826132f8565b9050602081019050919050565b600067ffffffffffffffff821115612f2657612f256132c9565b5b612f2f826132f8565b9050602081019050919050565b60008190508160005260206000209050919050565b600081519050919050565b600081519050919050565b600082825260208201905092915050565b600082825260208201905092915050565b600081905092915050565b6000612f9f82613113565b9150612faa83613113565b9250827fffffffffffffffffffffffffffffffffffffffffffffffffffffffffffffffff03821115612fdf57612fde61323c565b5b828201905092915050565b6000612ff582613113565b915061300083613113565b9250826130105761300f61326b565b5b828204905092915050565b600061302682613113565b915061303183613113565b9250817fffffffffffffffffffffffffffffffffffffffffffffffffffffffffffffffff048311821515161561306a5761306961323c565b5b828202905092915050565b600061308082613113565b915061308b83613113565b92508282101561309e5761309d61323c565b5b828203905092915050565b60006130b4826130f3565b9050919050565b60008115159050919050565b60007fffffffff0000000000000000000000000000000000000000000000000000000082169050919050565b600073ffffffffffffffffffffffffffffffffffffffff82169050919050565b6000819050919050565b82818337600083830152505050565b60005b8381101561314a57808201518184015260208101905061312f565b83811115613159576000848401525b50505050565b6000600282049050600182168061317757607f821691505b6020821081141561318b5761318a61329a565b5b50919050565b61319a826132f8565b810181811067ffffffffffffffff821117156131b9576131b86132c9565b5b80604052505050565b60006131cd82613113565b91507fffffffffffffffffffffffffffffffffffffffffffffffffffffffffffffffff821415613200576131ff61323c565b5b600182019050919050565b600061321682613113565b915061322183613113565b9250826132315761323061326b565b5b828206905092915050565b7f4e487b7100000000000000000000000000000000000000000000000000000000600052601160045260246000fd5b7f4e487b7100000000000000000000000000000000000000000000000000000000600052601260045260246000fd5b7f4e487b7100000000000000000000000000000000000000000000000000000000600052602260045260246000fd5b7f4e487b7100000000000000000000000000000000000000000000000000000000600052604160045260246000fd5b6000601f19601f8301169050919050565b7f4552433732313a207472616e7366657220746f206e6f6e20455243373231526560008201527f63656976657220696d706c656d656e7465720000000000000000000000000000602082015250565b7f4552433732313a207472616e736665722066726f6d20696e636f72726563742060008201527f6f776e6572000000000000000000000000000000000000000000000000000000602082015250565b7f226465736372697074696f6e223a20224861707079204269727468646179204a60008201527f61636b202d205656222c00000000000000000000000000000000000000000000602082015250565b7f3c7376672076696577426f783d27302030203130302000000000000000000000600082015250565b7f2c00000000000000000000000000000000000000000000000000000000000000600082015250565b7f4552433732313a207472616e7366657220746f20746865207a65726f2061646460008201527f7265737300000000000000000000000000000000000000000000000000000000602082015250565b7f4552433732313a20617070726f766520746f2063616c6c657200000000000000600082015250565b7f29272066696c6c3d270000000000000000000000000000000000000000000000600082015250565b7f5369676e6174757265206d757374206265203130206f72206c6573732063686160008201527f7261637465727300000000000000000000000000000000000000000000000000602082015250565b7f272066696c6c2d72756c653d276576656e6f64642720636c69702d72756c653d60008201527f276576656e6f64642720617269612d6c6162656c3d2700000000000000000000602082015250565b7f4552433732313a206f70657261746f7220717565727920666f72206e6f6e657860008201527f697374656e7420746f6b656e0000000000000000000000000000000000000000602082015250565b7f226e616d65223a2022484244204a434b222c0000000000000000000000000000600082015250565b7f4a61636b73206269727468646179206973206f76657200000000000000000000600082015250565b7f4552433732313a20617070726f76652063616c6c6572206973206e6f74206f7760008201527f6e6572206e6f7220617070726f76656420666f7220616c6c0000000000000000602082015250565b7f4552433732313a2062616c616e636520717565727920666f7220746865207a6560008201527f726f206164647265737300000000000000000000000000000000000000000000602082015250565b7f4552433732313a206f776e657220717565727920666f72206e6f6e657869737460008201527f656e7420746f6b656e0000000000000000000000000000000000000000000000602082015250565b7f4e6f207369676e61747572650000000000000000000000000000000000000000600082015250565b7f546869732069736e2774204a61636b7320626972746864617900000000000000600082015250565b7f227d000000000000000000000000000000000000000000000000000000000000600082015250565b7f5369676e617475726573206d75737420626520776974686f757420737061636560008201527f7300000000000000000000000000000000000000000000000000000000000000602082015250565b7f4552433732313a20617070726f76656420717565727920666f72206e6f6e657860008201527f697374656e7420746f6b656e0000000000000000000000000000000000000000602082015250565b7f44454641554c5400000000000000000000000000000000000000000000000000600082015250565b7f3c2f673e00000000000000000000000000000000000000000000000000000000600082015250565b7f7b00000000000000000000000000000000000000000000000000000000000000600082015250565b7f4552433732313a20617070726f76616c20746f2063757272656e74206f776e6560008201527f7200000000000000000000000000000000000000000000000000000000000000602082015250565b7f646174613a6170706c69636174696f6e2f6a736f6e3b6261736536342c000000600082015250565b7f4552433732313a207472616e736665722063616c6c6572206973206e6f74206f60008201527f776e6572206e6f7220617070726f766564000000000000000000000000000000602082015250565b7f3c67207472616e73666f726d3d277472616e736c617465280000000000000000600082015250565b7f596f752063616e206f6e6c79207369676e206f6e636500000000000000000000600082015250565b7f273e000000000000000000000000000000000000000000000000000000000000600082015250565b7f22696d616765223a202200000000000000000000000000000000000000000000600082015250565b7f3c2f7376673e0000000000000000000000000000000000000000000000000000600082015250565b7f3c6720207472616e73666f726d3d277363616c6528302e3529207472616e736c60008201527f6174652800000000000000000000000000000000000000000000000000000000602082015250565b7f646174613a696d6167652f7376672b786d6c3b6261736536342c000000000000600082015250565b7f272077696474683d273530302720786d6c6e733d27687474703a2f2f7777772e60008201527f77332e6f72672f323030302f737667273e3c7265637420783d27302720793d2760208201527f30272077696474683d273130302527206865696768743d27313030252720666960408201527f6c6c3d2723303030272f3e3c67207472616e73666f726d3d277363616c65283160608201527f29207472616e736c6174652834342e352c20343029272066696c6c3d2723666660808201527f66272066696c6c2d72756c653d276576656e6f64642720636c69702d72756c6560a08201527f3d276576656e6f64642720617269612d6c6162656c3d27484244273e3c67207460c08201527f72616e73666f726d3d277472616e736c617465283029273e3c7061746820643d60e08201527f274d30203048314c3120324832563048335632563356354832563348315635486101008201527f3056305a272f3e3c2f673e3c67207472616e73666f726d3d277472616e736c616101208201527f7465283429273e3c7061746820643d274d3120304830563548314832483356336101408201527f4832563248335630483248315a4d32203248315631483256325a4d32203456336101608201527f4831563448325a272f3e3c2f673e3c67207472616e73666f726d3d277472616e6101808201527f736c617465283829273e3c7061746820643d274d3020315634563548314832486101a08201527f335631483256304831483056315a4d32203456314c312031563448325a272f3e6101c08201527f3c2f673e3c2f673e3c67207472616e73666f726d3d277363616c6528312920746101e08201527f72616e736c6174652834322c20353029272066696c6c3d2723666666272066696102008201527f6c6c2d72756c653d276576656e6f64642720636c69702d72756c653d276576656102208201527f6e6f64642720617269612d6c6162656c3d274a41434b273e3c67207472616e736102408201527f666f726d3d277472616e736c617465283029273e3c67207472616e73666f726d6102608201527f3d277472616e736c617465283029273e3c7061746820643d274d3020304832486102808201527f335631563456354832483148305634563348315634483256314c30203156305a6102a08201527f272f3e3c2f673e3c67207472616e73666f726d3d277472616e736c61746528346102c08201527f29273e3c7061746820643d274d3020335635483156334c3220335635483356336102e08201527f5632563156304832483148305631563256335a4d31203248325631483156325a6103008201527f272f3e3c2f673e3c67207472616e73666f726d3d277472616e736c61746528386103208201527f29273e3c7061746820643d274d3020304831483356314c3120315634483356356103408201527f483148305634563156305a272f3e3c2f673e3c67207472616e73666f726d3d276103608201527f7472616e736c61746528313229273e3c7061746820643d274d312030483056326103808201527f56335635483156334832563548334c3320334832563248334c33203048324c326103a08201527f2032483156305a272f3e3c2f673e3c67207472616e73666f726d3d277472616e6103c08201527f736c61746528313629273e3c7061746820643d274d30203348314c31203048306103e08201527f56335a4d30203548314c312034483056355a272f3e3c2f673e3c2f673e3c2f676104008201527f3e3c7265637420783d2734312720793d273634272077696474683d27313927206104208201527f6865696768743d2731272066696c6c3d2723463946394639272f3e000000000061044082015250565b7f29273e0000000000000000000000000000000000000000000000000000000000600082015250565b614037816130a9565b811461404257600080fd5b50565b61404e816130bb565b811461405957600080fd5b50565b614065816130c7565b811461407057600080fd5b50565b61407c81613113565b811461408757600080fd5b5056fe4142434445464748494a4b4c4d4e4f505152535455565758595a6162636465666768696a6b6c6d6e6f707172737475767778797a303132333435363738392b2fa2646970667358221220850dc31a53d374e02f2d49957aff65f30e4ef63a962b54d1c8ecf7e0094dd86064736f6c634300080100333c7061746820643d274d302035483148324c32203448334c33203048324831483056355a4d3120344c3120314c3220314c32203448315a272f3e3c7061746820643d274d302032563148314c3120324c3020325a4d3220324c3120325633483056344c31203456334c32203356344c33203456334c32203356325a4d3220324c3320325631483256325a272f3e3c7061746820643d274d31203148324c32203448314c3120315a4d3120314830563448314c31203548324c32203448334c33203148324c32203048314c3120315a272f3e3c7061746820643d274d3120334830563048314c3120335a4d3220334831563548324c3220335a4d3220334c32203048334c33203348325a272f3e3c7061746820643d274d30203348314c312030483056335a4d30203548314c312034483056355a272f3e3c7061746820643d274d3120304830563156345635483148335634483156334832563248314c3120314c332031563048315a272f3e3c7061746820643d274d3220314830563048334c3320314c3320334c3220334c3120334c31203448334c33203548305634563356324c3220324c3220315a272f3e3c7061746820643d274d3020304831483356314c312031563448335635483148305634563156305a272f3e3c7061746820643d274d30203048314c3120324832563048335632563356354832563348315635483056305a272f3e3c7061746820643d274d33203548324c32203348314c3020335632563048314c3120324c3220324c32203048334c3320324c33203356355a272f3e3c7061746820643d274d302030483248335631563456354832483148305634563348315634483256314c30203156305a272f3e3c7061746820643d274d30203048314833563148315632483256334831483056305a4d32203348335634563548305634483256335a272f3e3c7061746820643d274d3120314c32203156324c3120324c3120315a4d312030483248334c3320314c3320324c332033563548324c32203348314c30203356325631563048315a272f3e3c7061746820643d274d3220314c3120314c3120324c32203256315a4d32203048334c3320314c3320324c3320334c3320344c33203548324831483056345633563256315630483148325a4d32203456334c3120334c31203448325a272f3e3c7061746820643d274d3020354831483248334c33203048324831483056355a4d3220344c3220314c3120314c31203448325a272f3e3c7061746820643d274d302030563148315635483256315630483148305a272f3e3c7061746820643d274d3320314c3320304832483056314c32203156324c30203256334c322033563448305635483248334c3320344c3320334c33203256315a272f3e3c7061746820643d274d3120324c312031483256324c3120325a4d3120354c312033483256354c3120355a4d31203556364830563548315a272f3e3c7061746820643d274d3320314c3320304832483056314c3220314c322035483356315a272f3e3c7265637420783d27312720793d2735272077696474683d273127206865696768743d273127207472616e73666f726d3d27726f74617465283138302031203529272f3e3c7061746820643d274d3120304830563256335635483156334832563548334c3320334832563248334c33203048324c322032483156305a272f3e3c7061746820643d274d32203148314c3120324c30203256334c3120334c3120344c3220344c3220334c33203356324c3220324c3220315a272f3e3c7061746820643d274d31203548324c3220344833563548345634483556334834563248355631483456304833563148324c32203048314c3120314830563248314c3120334830563448314c3120355a4d33203248324c322033483356325a272f3e3c7061746820643d274d3320314c33203048324831483056314c3120314c31203548324c3220314c3320315a272f3e3c7061746820643d274d312030483056345635483148335634483156305a272f3e3c7061746820643d274d3120354830563048314c3120314c32203156324c3120324c3120355a4d332032563348324c3220324c3320325a4d3320324c3320314c3420314c34203048354c3520354834563248335a272f3e3c7061746820643d274d322030483056314832563248315633483256324833563048325a4d32203448315635483256345a272f3e3c7061746820643d274d302031563456354831483248335634563248325634483156314c33203156304831483056315a272f3e3c7061746820643d274d3220314830563048334c3320314c3320324c3220324c3220315a4d3120334c3120324c3220324c32203348315a4d3120334c31203448334c3320354830563456334c3120335a272f3e3c7061746820643d274d30203156324c3120324c31203148305a4d30203356344c3120344c31203348305a272f3e3c7061746820643d274d3120344c3020344c3020354c3120354c3120345a4d3220334c3220344c3120344c3120334c3220335a4d3220324c3220334c3320334c3320324c3220325a4d3120314c3120324c3220324c3220314c3120315a4d3120314c3120304c3020304c3020314c3120315a272f3e3c7061746820643d274d3020335635483156334c3220335635483356335632563156304832483148305631563256335a4d31203248325631483156325a272f3e3c7061746820643d274d30203156324c332032563148305a4d30203356344c33203456334c3020335a272f3e3c7061746820643d274d31203548305630483148334c33203156324c3220324c3220314c31203156324c3220324c322033483156355a4d32203348334c33203548324c3220335a272f3e3c7061746820643d274d3120304830563548314832483356334832563248335630483248315a4d32203248315631483256325a4d32203456334831563448325a272f3e3c70617468207472616e73666f726d3d277472616e736c61746528302c2031292720643d274d31203448324c32203348314c3120345a4d3120344830563548314c3120345a272f3e3c7061746820643d274d302031563048314832483356314c3220315634483356354832483148305634483156314c3020315a272f3e3c7061746820643d274d3420304c3520304c35203548344c34203448335633483456305a204d3220334c32203248334c3320334c3220335a204d3220334c3220344c3120344c31203548304c3020304c3120304c31203348325a272f3e3c7061746820643d274d30203048315635483056305a204d31203148325633483156315a204d32203248335634483256325a204d33203048345635483356305a272f3e3c7061746820643d274d3120324830563048314c3120325a4d32203248314c3120334830563548314c31203348324c32203548334c33203348324c3220325a4d3220324c32203048334c33203248325a272f3e3c7061746820643d274d302031563456354831483248335631483256304831483056315a4d32203456314c312031563448325a272f3e3c7061746820643d274d30203548314c3120334c3320334c3320324c3320314c3320304831483056355a4d3220314c3120314c3120324c3220324c3220315a272f3e3c70617468207472616e73666f726d3d277472616e736c61746528302c202d31292720643d274d3120314c31203048324c32203148334c3320324c3120324c3120334c32203348334c3320344c332035563648324c32203748314c312036483056354c3220354c3220344c312034483056314c3120315a272f3e3c7061746820643d274d3020304831483356314c31203156324832563348315635483056335632563156305a272f3e3c7061746820643d274d32203148334c332030483256315a4d3120324c3120314832563248315a4d3120334c3120324830563348315a4d3220344c32203348314c31203448325a4d322034563548334c33203448325a272f3e3c7061746820643d274d30203456335632563048302e3939393939394c31203248324c3320324c3320334c3320344c33203548324831483056345a4d32203456334c3120334c31203448325a272f3e3c7061746820643d274d3120344830563048314c3120345a4d3220344831563548324c3220345a4d3220344c32203048334c33203448325a272f3e3c7061746820643d274d31203348305630483148334c3320314c3120314c3120324c32203248334c3320334c33203456354832483056344c3220344c3220334c3120335a272f3e3c7061746820643d274d31203548305634563048314c3120344c3220344c32203048334c3320345635483248315a272f3e",
  "linkReferences": {},
  "deployedLinkReferences": {}
}