{
  "_format": "hh-sol-artifact-1",
  "contractName": "Present",
  "sourceName": "contracts/Present.sol",
  "abi": [
    {
      "inputs": [],
      "stateMutability": "nonpayable",
      "type": "constructor"
    },
    {
      "anonymous": false,
      "inputs": [
        {
          "indexed": true,
          "internalType": "address",
          "name": "owner",
          "type": "address"
        },
        {
          "indexed": true,
          "internalType": "address",
          "name": "approved",
          "type": "address"
        },
        {
          "indexed": true,
          "internalType": "uint256",
          "name": "tokenId",
          "type": "uint256"
        }
      ],
      "name": "Approval",
      "type": "event"
    },
    {
      "anonymous": false,
      "inputs": [
        {
          "indexed": true,
          "internalType": "address",
          "name": "owner",
          "type": "address"
        },
        {
          "indexed": true,
          "internalType": "address",
          "name": "operator",
          "type": "address"
        },
        {
          "indexed": false,
          "internalType": "bool",
          "name": "approved",
          "type": "bool"
        }
      ],
      "name": "ApprovalForAll",
      "type": "event"
    },
    {
      "anonymous": false,
      "inputs": [
        {
          "indexed": true,
          "internalType": "address",
          "name": "previousOwner",
          "type": "address"
        },
        {
          "indexed": true,
          "internalType": "address",
          "name": "newOwner",
          "type": "address"
        }
      ],
      "name": "OwnershipTransferred",
      "type": "event"
    },
    {
      "anonymous": false,
      "inputs": [
        {
          "indexed": true,
          "internalType": "address",
          "name": "from",
          "type": "address"
        },
        {
          "indexed": true,
          "internalType": "address",
          "name": "to",
          "type": "address"
        },
        {
          "indexed": true,
          "internalType": "uint256",
          "name": "tokenId",
          "type": "uint256"
        }
      ],
      "name": "Transfer",
      "type": "event"
    },
    {
      "inputs": [
        {
          "internalType": "address",
          "name": "to",
          "type": "address"
        },
        {
          "internalType": "uint256",
          "name": "tokenId",
          "type": "uint256"
        }
      ],
      "name": "approve",
      "outputs": [],
      "stateMutability": "nonpayable",
      "type": "function"
    },
    {
      "inputs": [
        {
          "internalType": "address",
          "name": "owner",
          "type": "address"
        }
      ],
      "name": "balanceOf",
      "outputs": [
        {
          "internalType": "uint256",
          "name": "",
          "type": "uint256"
        }
      ],
      "stateMutability": "view",
      "type": "function"
    },
    {
      "inputs": [
        {
          "internalType": "uint256",
          "name": "tokenId",
          "type": "uint256"
        }
      ],
      "name": "getApproved",
      "outputs": [
        {
          "internalType": "address",
          "name": "",
          "type": "address"
        }
      ],
      "stateMutability": "view",
      "type": "function"
    },
    {
      "inputs": [
        {
          "internalType": "address",
          "name": "owner",
          "type": "address"
        },
        {
          "internalType": "address",
          "name": "operator",
          "type": "address"
        }
      ],
      "name": "isApprovedForAll",
      "outputs": [
        {
          "internalType": "bool",
          "name": "",
          "type": "bool"
        }
      ],
      "stateMutability": "view",
      "type": "function"
    },
    {
      "inputs": [
        {
          "internalType": "address",
          "name": "recipient",
          "type": "address"
        }
      ],
      "name": "mintNFT",
      "outputs": [
        {
          "internalType": "uint256",
          "name": "",
          "type": "uint256"
        }
      ],
      "stateMutability": "nonpayable",
      "type": "function"
    },
    {
      "inputs": [],
      "name": "name",
      "outputs": [
        {
          "internalType": "string",
          "name": "",
          "type": "string"
        }
      ],
      "stateMutability": "view",
      "type": "function"
    },
    {
      "inputs": [],
      "name": "owner",
      "outputs": [
        {
          "internalType": "address",
          "name": "",
          "type": "address"
        }
      ],
      "stateMutability": "view",
      "type": "function"
    },
    {
      "inputs": [
        {
          "internalType": "uint256",
          "name": "tokenId",
          "type": "uint256"
        }
      ],
      "name": "ownerOf",
      "outputs": [
        {
          "internalType": "address",
          "name": "",
          "type": "address"
        }
      ],
      "stateMutability": "view",
      "type": "function"
    },
    {
      "inputs": [],
      "name": "renounceOwnership",
      "outputs": [],
      "stateMutability": "nonpayable",
      "type": "function"
    },
    {
      "inputs": [
        {
          "internalType": "address",
          "name": "from",
          "type": "address"
        },
        {
          "internalType": "address",
          "name": "to",
          "type": "address"
        },
        {
          "internalType": "uint256",
          "name": "tokenId",
          "type": "uint256"
        }
      ],
      "name": "safeTransferFrom",
      "outputs": [],
      "stateMutability": "nonpayable",
      "type": "function"
    },
    {
      "inputs": [
        {
          "internalType": "address",
          "name": "from",
          "type": "address"
        },
        {
          "internalType": "address",
          "name": "to",
          "type": "address"
        },
        {
          "internalType": "uint256",
          "name": "tokenId",
          "type": "uint256"
        },
        {
          "internalType": "bytes",
          "name": "_data",
          "type": "bytes"
        }
      ],
      "name": "safeTransferFrom",
      "outputs": [],
      "stateMutability": "nonpayable",
      "type": "function"
    },
    {
      "inputs": [
        {
          "internalType": "address",
          "name": "operator",
          "type": "address"
        },
        {
          "internalType": "bool",
          "name": "approved",
          "type": "bool"
        }
      ],
      "name": "setApprovalForAll",
      "outputs": [],
      "stateMutability": "nonpayable",
      "type": "function"
    },
    {
      "inputs": [
        {
          "internalType": "string",
          "name": "name",
          "type": "string"
        }
      ],
      "name": "signCard",
      "outputs": [
        {
          "internalType": "bool",
          "name": "",
          "type": "bool"
        }
      ],
      "stateMutability": "nonpayable",
      "type": "function"
    },
    {
      "inputs": [
        {
          "internalType": "bytes4",
          "name": "interfaceId",
          "type": "bytes4"
        }
      ],
      "name": "supportsInterface",
      "outputs": [
        {
          "internalType": "bool",
          "name": "",
          "type": "bool"
        }
      ],
      "stateMutability": "view",
      "type": "function"
    },
    {
      "inputs": [],
      "name": "symbol",
      "outputs": [
        {
          "internalType": "string",
          "name": "",
          "type": "string"
        }
      ],
      "stateMutability": "view",
      "type": "function"
    },
    {
      "inputs": [
        {
          "internalType": "uint256",
          "name": "tokenId",
          "type": "uint256"
        }
      ],
      "name": "tokenURI",
      "outputs": [
        {
          "internalType": "string",
          "name": "",
          "type": "string"
        }
      ],
      "stateMutability": "view",
      "type": "function"
    },
    {
      "inputs": [
        {
          "internalType": "address",
          "name": "from",
          "type": "address"
        },
        {
          "internalType": "address",
          "name": "to",
          "type": "address"
        },
        {
          "internalType": "uint256",
          "name": "tokenId",
          "type": "uint256"
        }
      ],
      "name": "transferFrom",
      "outputs": [],
      "stateMutability": "nonpayable",
      "type": "function"
    },
    {
      "inputs": [
        {
          "internalType": "address",
          "name": "newOwner",
          "type": "address"
        }
      ],
      "name": "transferOwnership",
      "outputs": [],
      "stateMutability": "nonpayable",
      "type": "function"
    },
    {
      "inputs": [
        {
          "internalType": "string",
          "name": "text",
          "type": "string"
        },
        {
          "internalType": "string",
          "name": "color",
          "type": "string"
        },
        {
          "internalType": "uint256",
          "name": "spacing",
          "type": "uint256"
        },
        {
          "internalType": "uint256",
          "name": "y",
          "type": "uint256"
        }
      ],
      "name": "write",
      "outputs": [
        {
          "internalType": "string",
          "name": "",
          "type": "string"
        }
      ],
      "stateMutability": "view",
      "type": "function"
    }
  ],
  "bytecode": "0x60806040526000600b60006101000a81548160ff02191690831515021790555060405180602001604052806000815250600c90805190602001906200004692919062001348565b5060405180602001604052806000815250600d90805190602001906200006e92919062001348565b506014600e556037600f5560aa6010553480156200008b57600080fd5b506040518060400160405280600781526020017f484244204a434b000000000000000000000000000000000000000000000000008152506040518060400160405280600381526020017f4e4654000000000000000000000000000000000000000000000000000000000081525081600090805190602001906200011092919062001348565b5080600190805190602001906200012992919062001348565b5050506200014c620001406200127a60201b60201c565b6200128260201b60201c565b6040518060800160405280604481526020016200776a604491396008604051620001769062001c12565b908152602001604051809103902090805190602001906200019992919062001348565b5060405180606001604052806021815260200162007a68602191396008604051620001c49062001f65565b90815260200160405180910390209080519060200190620001e792919062001348565b5060405180608001604052806041815260200162007848604191396008604051620002129062001f20565b908152602001604051809103902090805190602001906200023592919062001348565b5060405180608001604052806043815260200162007a89604391396008604051620002609062001c85565b908152602001604051809103902090805190602001906200028392919062001348565b506040518060600160405280603b8152602001620078e3603b91396008604051620002ae9062001c57565b90815260200160405180910390209080519060200190620002d192919062001348565b5060405180606001604052806038815260200162007951603891396008604051620002fc9062001f7c565b908152602001604051809103902090805190602001906200031f92919062001348565b506040518060800160405280604f815260200162008231604f913960086040516200034a9062001fd8565b908152602001604051809103902090805190602001906200036d92919062001348565b5060405180606001604052806027815260200162007b07602791396008604051620003989062001d0f565b90815260200160405180910390209080519060200190620003bb92919062001348565b506040518060800160405280605f8152602001620079d3605f91396008604051620003e69062001fef565b908152602001604051809103902090805190602001906200040992919062001348565b506040518060800160405280604a815260200162007989604a91396008604051620004349062001faa565b908152602001604051809103902090805190602001906200045792919062001348565b5060405180606001604052806040815260200162007e4e604091396008604051620004829062001bfb565b90815260200160405180910390209080519060200190620004a592919062001348565b5060405180608001604052806043815260200162007f04604391396008604051620004d09062001c6e565b90815260200160405180910390209080519060200190620004f392919062001348565b506040518060600160405280602b815260200162007889602b913960086040516200051e9062001be4565b908152602001604051809103902090805190602001906200054192919062001348565b50604051806060016040528060368152602001620080b76036913960086040516200056c9062001d82565b908152602001604051809103902090805190602001906200058f92919062001348565b5060405180606001604052806035815260200162007813603591396008604051620005ba9062001cf8565b90815260200160405180910390209080519060200190620005dd92919062001348565b506040518060600160405280602f8152602001620081a9602f91396008604051620006089062002006565b908152602001604051809103902090805190602001906200062b92919062001348565b5060405180606001604052806033815260200162007d25603391396008604051620006569062001c40565b908152602001604051809103902090805190602001906200067992919062001348565b506040518060600160405280602f8152602001620078b4602f91396008604051620006a49062001c9c565b90815260200160405180910390209080519060200190620006c792919062001348565b5060405180606001604052806035815260200162007f8f603591396008604051620006f29062001e68565b908152602001604051809103902090805190602001906200071592919062001348565b506040518060600160405280603381526020016200791e603391396008604051620007409062001e7f565b908152602001604051809103902090805190602001906200076392919062001348565b506040518060600160405280603b815260200162007b72603b913960086040516200078e9062001e96565b90815260200160405180910390209080519060200190620007b192919062001348565b5060405180606001604052806021815260200162007c79602191396008604051620007dc9062001e3a565b90815260200160405180910390209080519060200190620007ff92919062001348565b5060405180608001604052806057815260200162007c9a6057913960086040516200082a9062001e0c565b908152602001604051809103902090805190602001906200084d92919062001348565b5060405180608001604052806043815260200162008021604391396008604051620008789062001dde565b908152602001604051809103902090805190602001906200089b92919062001348565b5060405180606001604052806036815260200162007a32603691396008604051620008c69062001f4e565b90815260200160405180910390209080519060200190620008e992919062001348565b50604051806080016040528060428152602001620080ed604291396008604051620009149062001dc7565b908152602001604051809103902090805190602001906200093792919062001348565b506040518060600160405280603a8152602001620076dd603a91396008604051620009629062002079565b908152602001604051809103902090805190602001906200098592919062001348565b506040518060800160405280604a815260200162007eba604a91396008604051620009b0906200201d565b90815260200160405180910390209080519060200190620009d392919062001348565b50604051806080016040528060478152602001620082bb604791396008604051620009fe9062001ef2565b9081526020016040518091039020908051906020019062000a2192919062001348565b506040518060600160405280602f815260200162007c4a602f9139600860405162000a4c9062001e23565b9081526020016040518091039020908051906020019062000a6f92919062001348565b506040518060600160405280603181526020016200830260319139600860405162000a9a9062001cca565b9081526020016040518091039020908051906020019062000abd92919062001348565b506040518060600160405280603b815260200162008280603b9139600860405162000ae8906200204b565b9081526020016040518091039020908051906020019062000b0b92919062001348565b506040518060800160405280605d815260200162007fc4605d9139600860405162000b369062001f93565b9081526020016040518091039020908051906020019062000b5992919062001348565b506040518060800160405280605381526020016200806460539139600860405162000b849062001d26565b9081526020016040518091039020908051906020019062000ba792919062001348565b506040518060600160405280603b8152602001620077ae603b9139600860405162000bd29062001ec4565b9081526020016040518091039020908051906020019062000bf592919062001348565b5060405180608001604052806053815260200162007d5860539139600860405162000c209062001df5565b9081526020016040518091039020908051906020019062000c4392919062001348565b506040518060800160405280605381526020016200771760539139600860405162000c6e9062001c29565b9081526020016040518091039020908051906020019062000c9192919062001348565b506040518060600160405280602c815260200162007e8e602c9139600860405162000cbc9062002062565b9081526020016040518091039020908051906020019062000cdf92919062001348565b506040518060a001604052806075815260200162007dd960759139600860405162000d0a9062001e51565b9081526020016040518091039020908051906020019062000d2d92919062001348565b50604051806080016040528060598152602001620081d860599139600860405162000d589062002034565b9081526020016040518091039020908051906020019062000d7b92919062001348565b5060405180608001604052806048815260200162007f4760489139600860405162000da69062001ce1565b9081526020016040518091039020908051906020019062000dc992919062001348565b5060405180608001604052806044815260200162007b2e60449139600860405162000df49062001d99565b9081526020016040518091039020908051906020019062000e1792919062001348565b506040518060600160405280602e815260200162007dab602e9139600860405162000e429062001ead565b9081526020016040518091039020908051906020019062000e6592919062001348565b506040518060600160405280603b815260200162007acc603b9139600860405162000e909062001d6b565b9081526020016040518091039020908051906020019062000eb392919062001348565b506040518060600160405280602a8152602001620077e9602a9139600860405162000ede9062001cb3565b9081526020016040518091039020908051906020019062000f0192919062001348565b5060405180606001604052806034815260200162007cf160349139600860405162000f2c9062001d3d565b9081526020016040518091039020908051906020019062000f4f92919062001348565b506040518060600160405280603b815260200162007bad603b9139600860405162000f7a9062001db0565b9081526020016040518091039020908051906020019062000f9d92919062001348565b506040518060400160405280601f81526020017f3c7061746820643d274d3020334c3020324c33203256334c3020335a272f3e00815250600860405162000fe49062001fc1565b908152602001604051809103902090805190602001906200100792919062001348565b506040518060a00160405280607a81526020016200812f607a91396008604051620010329062001f37565b908152602001604051809103902090805190602001906200105592919062001348565b506040518060a001604052806062815260200162007be8606291396008604051620010809062001f09565b90815260200160405180910390209080519060200190620010a392919062001348565b50604051806020016040528060008152506008604051620010c49062001d54565b90815260200160405180910390209080519060200190620010e792919062001348565b5060036009604051620010fa9062001edb565b908152602001604051809103902081905550600160096040516200111e9062001d54565b90815260200160405180910390208190555060016009604051620011429062001d99565b90815260200160405180910390208190555060016009604051620011669062001ead565b908152602001604051809103902081905550600160096040516200118a9062001cb3565b90815260200160405180910390208190555060026009604051620011ae9062001ce1565b90815260200160405180910390208190555060026009604051620011d29062001d6b565b90815260200160405180910390208190555060046009604051620011f69062001dde565b908152602001604051809103902081905550600560096040516200121a9062001f09565b908152602001604051809103902081905550600560096040516200123e9062001e0c565b90815260200160405180910390208190555060056009604051620012629062001f93565b90815260200160405180910390208190555062002954565b600033905090565b6000600760009054906101000a900473ffffffffffffffffffffffffffffffffffffffff16905081600760006101000a81548173ffffffffffffffffffffffffffffffffffffffff021916908373ffffffffffffffffffffffffffffffffffffffff1602179055508173ffffffffffffffffffffffffffffffffffffffff168173ffffffffffffffffffffffffffffffffffffffff167f8be0079c531659141344cd1fd0a4f28419497f9722a3daafe3b4186f6b6457e060405160405180910390a35050565b82805462001356906200209b565b90600052602060002090601f0160209004810192826200137a5760008555620013c6565b82601f106200139557805160ff1916838001178555620013c6565b82800160010185558215620013c6579182015b82811115620013c5578251825591602001919060010190620013a8565b5b509050620013d59190620013d9565b5090565b5b80821115620013f4576000816000905550600101620013da565b5090565b60006200140760018362002090565b9150620014148262002100565b600182019050919050565b60006200142e60018362002090565b91506200143b8262002129565b600182019050919050565b60006200145560018362002090565b9150620014628262002152565b600182019050919050565b60006200147c60018362002090565b915062001489826200217b565b600182019050919050565b6000620014a360018362002090565b9150620014b082620021a4565b600182019050919050565b6000620014ca60018362002090565b9150620014d782620021cd565b600182019050919050565b6000620014f160018362002090565b9150620014fe82620021f6565b600182019050919050565b60006200151860018362002090565b915062001525826200221f565b600182019050919050565b60006200153f60018362002090565b91506200154c8262002248565b600182019050919050565b60006200156660018362002090565b9150620015738262002271565b600182019050919050565b60006200158d60018362002090565b91506200159a826200229a565b600182019050919050565b6000620015b460018362002090565b9150620015c182620022c3565b600182019050919050565b6000620015db60018362002090565b9150620015e882620022ec565b600182019050919050565b60006200160260018362002090565b91506200160f8262002315565b600182019050919050565b60006200162960018362002090565b915062001636826200233e565b600182019050919050565b60006200165060018362002090565b91506200165d8262002367565b600182019050919050565b60006200167760018362002090565b9150620016848262002390565b600182019050919050565b60006200169e60018362002090565b9150620016ab82620023b9565b600182019050919050565b6000620016c560018362002090565b9150620016d282620023e2565b600182019050919050565b6000620016ec60018362002090565b9150620016f9826200240b565b600182019050919050565b60006200171360018362002090565b9150620017208262002434565b600182019050919050565b60006200173a60018362002090565b915062001747826200245d565b600182019050919050565b60006200176160018362002090565b91506200176e8262002486565b600182019050919050565b60006200178860018362002090565b91506200179582620024af565b600182019050919050565b6000620017af60018362002090565b9150620017bc82620024d8565b600182019050919050565b6000620017d660018362002090565b9150620017e38262002501565b600182019050919050565b6000620017fd60018362002090565b91506200180a826200252a565b600182019050919050565b60006200182460018362002090565b9150620018318262002553565b600182019050919050565b60006200184b60018362002090565b915062001858826200257c565b600182019050919050565b60006200187260018362002090565b91506200187f82620025a5565b600182019050919050565b60006200189960018362002090565b9150620018a682620025ce565b600182019050919050565b6000620018c060018362002090565b9150620018cd82620025f7565b600182019050919050565b6000620018e760018362002090565b9150620018f48262002620565b600182019050919050565b60006200190e60078362002090565b91506200191b8262002649565b600782019050919050565b60006200193560018362002090565b9150620019428262002672565b600182019050919050565b60006200195c60018362002090565b915062001969826200269b565b600182019050919050565b60006200198360018362002090565b91506200199082620026c4565b600182019050919050565b6000620019aa60018362002090565b9150620019b782620026ed565b600182019050919050565b6000620019d160018362002090565b9150620019de8262002716565b600182019050919050565b6000620019f860018362002090565b915062001a05826200273f565b600182019050919050565b600062001a1f60018362002090565b915062001a2c8262002768565b600182019050919050565b600062001a4660018362002090565b915062001a538262002791565b600182019050919050565b600062001a6d60018362002090565b915062001a7a82620027ba565b600182019050919050565b600062001a9460018362002090565b915062001aa182620027e3565b600182019050919050565b600062001abb60018362002090565b915062001ac8826200280c565b600182019050919050565b600062001ae260018362002090565b915062001aef8262002835565b600182019050919050565b600062001b0960018362002090565b915062001b16826200285e565b600182019050919050565b600062001b3060018362002090565b915062001b3d8262002887565b600182019050919050565b600062001b5760018362002090565b915062001b6482620028b0565b600182019050919050565b600062001b7e60018362002090565b915062001b8b82620028d9565b600182019050919050565b600062001ba560018362002090565b915062001bb28262002902565b600182019050919050565b600062001bcc60018362002090565b915062001bd9826200292b565b600182019050919050565b600062001bf182620013f8565b9150819050919050565b600062001c08826200141f565b9150819050919050565b600062001c1f8262001446565b9150819050919050565b600062001c36826200146d565b9150819050919050565b600062001c4d8262001494565b9150819050919050565b600062001c6482620014bb565b9150819050919050565b600062001c7b82620014e2565b9150819050919050565b600062001c928262001509565b9150819050919050565b600062001ca98262001530565b9150819050919050565b600062001cc08262001557565b9150819050919050565b600062001cd7826200157e565b9150819050919050565b600062001cee82620015a5565b9150819050919050565b600062001d0582620015cc565b9150819050919050565b600062001d1c82620015f3565b9150819050919050565b600062001d33826200161a565b9150819050919050565b600062001d4a8262001641565b9150819050919050565b600062001d618262001668565b9150819050919050565b600062001d78826200168f565b9150819050919050565b600062001d8f82620016b6565b9150819050919050565b600062001da682620016dd565b9150819050919050565b600062001dbd8262001704565b9150819050919050565b600062001dd4826200172b565b9150819050919050565b600062001deb8262001752565b9150819050919050565b600062001e028262001779565b9150819050919050565b600062001e1982620017a0565b9150819050919050565b600062001e3082620017c7565b9150819050919050565b600062001e4782620017ee565b9150819050919050565b600062001e5e8262001815565b9150819050919050565b600062001e75826200183c565b9150819050919050565b600062001e8c8262001863565b9150819050919050565b600062001ea3826200188a565b9150819050919050565b600062001eba82620018b1565b9150819050919050565b600062001ed182620018d8565b9150819050919050565b600062001ee882620018ff565b9150819050919050565b600062001eff8262001926565b9150819050919050565b600062001f16826200194d565b9150819050919050565b600062001f2d8262001974565b9150819050919050565b600062001f44826200199b565b9150819050919050565b600062001f5b82620019c2565b9150819050919050565b600062001f7282620019e9565b9150819050919050565b600062001f898262001a10565b9150819050919050565b600062001fa08262001a37565b9150819050919050565b600062001fb78262001a5e565b9150819050919050565b600062001fce8262001a85565b9150819050919050565b600062001fe58262001aac565b9150819050919050565b600062001ffc8262001ad3565b9150819050919050565b6000620020138262001afa565b9150819050919050565b60006200202a8262001b21565b9150819050919050565b6000620020418262001b48565b9150819050919050565b6000620020588262001b6f565b9150819050919050565b60006200206f8262001b96565b9150819050919050565b6000620020868262001bbd565b9150819050919050565b600081905092915050565b60006002820490506001821680620020b457607f821691505b60208210811415620020cb57620020ca620020d1565b5b50919050565b7f4e487b7100000000000000000000000000000000000000000000000000000000600052602260045260246000fd5b7f4300000000000000000000000000000000000000000000000000000000000000600082015250565b7f4100000000000000000000000000000000000000000000000000000000000000600082015250565b7f3000000000000000000000000000000000000000000000000000000000000000600082015250565b7f2a00000000000000000000000000000000000000000000000000000000000000600082015250565b7f4700000000000000000000000000000000000000000000000000000000000000600082015250565b7f3400000000000000000000000000000000000000000000000000000000000000600082015250565b7f4200000000000000000000000000000000000000000000000000000000000000600082015250565b7f3300000000000000000000000000000000000000000000000000000000000000600082015250565b7f4800000000000000000000000000000000000000000000000000000000000000600082015250565b7f2100000000000000000000000000000000000000000000000000000000000000600082015250565b7f5500000000000000000000000000000000000000000000000000000000000000600082015250565b7f2c00000000000000000000000000000000000000000000000000000000000000600082015250565b7f4500000000000000000000000000000000000000000000000000000000000000600082015250565b7f3700000000000000000000000000000000000000000000000000000000000000600082015250565b7f5800000000000000000000000000000000000000000000000000000000000000600082015250565b7f3f00000000000000000000000000000000000000000000000000000000000000600082015250565b7f2000000000000000000000000000000000000000000000000000000000000000600082015250565b7f3b00000000000000000000000000000000000000000000000000000000000000600082015250565b7f4400000000000000000000000000000000000000000000000000000000000000600082015250565b7f2e00000000000000000000000000000000000000000000000000000000000000600082015250565b7f2b00000000000000000000000000000000000000000000000000000000000000600082015250565b7f5000000000000000000000000000000000000000000000000000000000000000600082015250565b7f4e00000000000000000000000000000000000000000000000000000000000000600082015250565b7f5a00000000000000000000000000000000000000000000000000000000000000600082015250565b7f4d00000000000000000000000000000000000000000000000000000000000000600082015250565b7f5400000000000000000000000000000000000000000000000000000000000000600082015250565b7f4c00000000000000000000000000000000000000000000000000000000000000600082015250565b7f3c00000000000000000000000000000000000000000000000000000000000000600082015250565b7f4900000000000000000000000000000000000000000000000000000000000000600082015250565b7f4a00000000000000000000000000000000000000000000000000000000000000600082015250565b7f4b00000000000000000000000000000000000000000000000000000000000000600082015250565b7f3a00000000000000000000000000000000000000000000000000000000000000600082015250565b7f5900000000000000000000000000000000000000000000000000000000000000600082015250565b7f44454641554c5400000000000000000000000000000000000000000000000000600082015250565b7f5300000000000000000000000000000000000000000000000000000000000000600082015250565b7f2300000000000000000000000000000000000000000000000000000000000000600082015250565b7f3200000000000000000000000000000000000000000000000000000000000000600082015250565b7f2400000000000000000000000000000000000000000000000000000000000000600082015250565b7f4f00000000000000000000000000000000000000000000000000000000000000600082015250565b7f3100000000000000000000000000000000000000000000000000000000000000600082015250565b7f3500000000000000000000000000000000000000000000000000000000000000600082015250565b7f5700000000000000000000000000000000000000000000000000000000000000600082015250565b7f3900000000000000000000000000000000000000000000000000000000000000600082015250565b7f2d00000000000000000000000000000000000000000000000000000000000000600082015250565b7f3600000000000000000000000000000000000000000000000000000000000000600082015250565b7f3800000000000000000000000000000000000000000000000000000000000000600082015250565b7f4600000000000000000000000000000000000000000000000000000000000000600082015250565b7f5200000000000000000000000000000000000000000000000000000000000000600082015250565b7f3e00000000000000000000000000000000000000000000000000000000000000600082015250565b7f5600000000000000000000000000000000000000000000000000000000000000600082015250565b7f3d00000000000000000000000000000000000000000000000000000000000000600082015250565b7f5100000000000000000000000000000000000000000000000000000000000000600082015250565b614d7980620029646000396000f3fe608060405234801561001057600080fd5b50600436106101215760003560e01c8063671639c1116100ad578063a22cb46511610071578063a22cb4651461032e578063b88d4fde1461034a578063c87b56dd14610366578063e985e9c514610396578063f2fde38b146103c657610121565b8063671639c11461028857806370a08231146102b8578063715018a6146102e85780638da5cb5b146102f257806395d89b411461031057610121565b806323b872dd116100f457806323b872dd146101c057806342842e0e146101dc578063432a43cc146101f857806354ba0f27146102285780636352211e1461025857610121565b806301ffc9a71461012657806306fdde0314610156578063081812fc14610174578063095ea7b3146101a4575b600080fd5b610140600480360381019061013b9190612b28565b6103e2565b60405161014d9190613651565b60405180910390f35b61015e6104c4565b60405161016b919061366c565b60405180910390f35b61018e60048036038101906101899190612c4e565b610556565b60405161019b91906135ea565b60405180910390f35b6101be60048036038101906101b99190612aec565b6105db565b005b6101da60048036038101906101d591906129e6565b6106f3565b005b6101f660048036038101906101f191906129e6565b610753565b005b610212600480360381019061020d9190612b7a565b610773565b60405161021f9190613651565b60405180910390f35b610242600480360381019061023d9190612981565b6109bc565b60405161024f919061398e565b60405180910390f35b610272600480360381019061026d9190612c4e565b610ad9565b60405161027f91906135ea565b60405180910390f35b6102a2600480360381019061029d9190612bbb565b610b8b565b6040516102af919061366c565b60405180910390f35b6102d260048036038101906102cd9190612981565b610dab565b6040516102df919061398e565b60405180910390f35b6102f0610e63565b005b6102fa610eeb565b60405161030791906135ea565b60405180910390f35b610318610f15565b604051610325919061366c565b60405180910390f35b61034860048036038101906103439190612ab0565b610fa7565b005b610364600480360381019061035f9190612a35565b610fbd565b005b610380600480360381019061037b9190612c4e565b61101f565b60405161038d919061366c565b60405180910390f35b6103b060048036038101906103ab91906129aa565b611171565b6040516103bd9190613651565b60405180910390f35b6103e060048036038101906103db9190612981565b611205565b005b60007f80ac58cd000000000000000000000000000000000000000000000000000000007bffffffffffffffffffffffffffffffffffffffffffffffffffffffff1916827bffffffffffffffffffffffffffffffffffffffffffffffffffffffff191614806104ad57507f5b5e139f000000000000000000000000000000000000000000000000000000007bffffffffffffffffffffffffffffffffffffffffffffffffffffffff1916827bffffffffffffffffffffffffffffffffffffffffffffffffffffffff1916145b806104bd57506104bc826112fd565b5b9050919050565b6060600080546104d390613c94565b80601f01602080910402602001604051908101604052809291908181526020018280546104ff90613c94565b801561054c5780601f106105215761010080835404028352916020019161054c565b820191906000526020600020905b81548152906001019060200180831161052f57829003601f168201915b5050505050905090565b600061056182611367565b6105a0576040517f08c379a00000000000000000000000000000000000000000000000000000000081526004016105979061388e565b60405180910390fd5b6004600083815260200190815260200160002060009054906101000a900473ffffffffffffffffffffffffffffffffffffffff169050919050565b60006105e682610ad9565b90508073ffffffffffffffffffffffffffffffffffffffff168373ffffffffffffffffffffffffffffffffffffffff161415610657576040517f08c379a000000000000000000000000000000000000000000000000000000000815260040161064e9061390e565b60405180910390fd5b8073ffffffffffffffffffffffffffffffffffffffff166106766113d3565b73ffffffffffffffffffffffffffffffffffffffff1614806106a557506106a48161069f6113d3565b611171565b5b6106e4576040517f08c379a00000000000000000000000000000000000000000000000000000000081526004016106db906137ce565b60405180910390fd5b6106ee83836113db565b505050565b6107046106fe6113d3565b82611494565b610743576040517f08c379a000000000000000000000000000000000000000000000000000000000815260040161073a9061396e565b60405180910390fd5b61074e838383611572565b505050565b61076e83838360405180602001604052806000815250610fbd565b505050565b6000601160003373ffffffffffffffffffffffffffffffffffffffff1673ffffffffffffffffffffffffffffffffffffffff16815260200190815260200160002060009054906101000a900460ff1615610802576040517f08c379a00000000000000000000000000000000000000000000000000000000081526004016107f99061392e565b60405180910390fd5b6000825111610846576040517f08c379a000000000000000000000000000000000000000000000000000000000815260040161083d906137ae565b60405180910390fd5b600a82511061088a576040517f08c379a0000000000000000000000000000000000000000000000000000000008152600401610881906138ee565b60405180910390fd5b6362f881504211156108d1576040517f08c379a00000000000000000000000000000000000000000000000000000000081526004016108c89061394e565b60405180910390fd5b6108da826117d9565b1561091a576040517f08c379a00000000000000000000000000000000000000000000000000000000081526004016109119061368e565b60405180910390fd5b600d61092583611993565b604051602001610936929190613465565b604051602081830303815290604052600d908051906020019061095a9291906127a5565b506001601160003373ffffffffffffffffffffffffffffffffffffffff1673ffffffffffffffffffffffffffffffffffffffff16815260200190815260200160002060006101000a81548160ff02191690831515021790555060019050919050565b60006109c66113d3565b73ffffffffffffffffffffffffffffffffffffffff166109e4610eeb565b73ffffffffffffffffffffffffffffffffffffffff1614610a3a576040517f08c379a0000000000000000000000000000000000000000000000000000000008152600401610a31906138ae565b60405180910390fd5b600b60009054906101000a900460ff16610a99576000610a58611a20565b90506001600b60006101000a81548160ff021916908315150217905550600060229050610a858482611af2565b610a8f8183611ccc565b8092505050610ad4565b6040517f08c379a0000000000000000000000000000000000000000000000000000000008152600401610acb906136ce565b60405180910390fd5b919050565b6000806002600084815260200190815260200160002060009054906101000a900473ffffffffffffffffffffffffffffffffffffffff169050600073ffffffffffffffffffffffffffffffffffffffff168173ffffffffffffffffffffffffffffffffffffffff161415610b82576040517f08c379a0000000000000000000000000000000000000000000000000000000008152600401610b799061380e565b60405180910390fd5b80915050919050565b606060008060405180602001604052806000815250905060005b8751811015610d42576000610bba8983611d40565b90506000600882604051610bce91906133a9565b90815260200160405180910390208054610be790613c94565b80601f0160208091040260200160405190810160405280929190818152602001828054610c1390613c94565b8015610c605780601f10610c3557610100808354040283529160200191610c60565b820191906000526020600020905b815481529060010190602001808311610c4357829003601f168201915b50505050509050600080600984604051610c7a91906133a9565b9081526020016040518091039020541415610cb1576009604051610c9d906134b6565b908152602001604051809103902054610cd1565b600983604051610cc191906133a9565b9081526020016040518091039020545b90506000825111610ce457505050610d2f565b84610cee87611f5d565b83604051602001610d0193929190613413565b6040516020818303038152906040529450888187610d1f9190613a88565b610d299190613a88565b95505050505b8080610d3a90613cf7565b915050610ba5565b506000600283610d529190613ade565b6064610d5e9190613b69565b90506000610d6b82611f5d565b610d7487611f5d565b898b86604051602001610d8b95949392919061353b565b604051602081830303815290604052905080945050505050949350505050565b60008073ffffffffffffffffffffffffffffffffffffffff168273ffffffffffffffffffffffffffffffffffffffff161415610e1c576040517f08c379a0000000000000000000000000000000000000000000000000000000008152600401610e13906137ee565b60405180910390fd5b600360008373ffffffffffffffffffffffffffffffffffffffff1673ffffffffffffffffffffffffffffffffffffffff168152602001908152602001600020549050919050565b610e6b6113d3565b73ffffffffffffffffffffffffffffffffffffffff16610e89610eeb565b73ffffffffffffffffffffffffffffffffffffffff1614610edf576040517f08c379a0000000000000000000000000000000000000000000000000000000008152600401610ed6906138ae565b60405180910390fd5b610ee9600061210a565b565b6000600760009054906101000a900473ffffffffffffffffffffffffffffffffffffffff16905090565b606060018054610f2490613c94565b80601f0160208091040260200160405190810160405280929190818152602001828054610f5090613c94565b8015610f9d5780601f10610f7257610100808354040283529160200191610f9d565b820191906000526020600020905b815481529060010190602001808311610f8057829003601f168201915b5050505050905090565b610fb9610fb26113d3565b83836121d0565b5050565b610fce610fc86113d3565b83611494565b61100d576040517f08c379a00000000000000000000000000000000000000000000000000000000081526004016110049061396e565b60405180910390fd5b6110198484848461233d565b50505050565b606061102a82611367565b611069576040517f08c379a00000000000000000000000000000000000000000000000000000000081526004016110609061386e565b60405180910390fd5b600060066000848152602001908152602001600020805461108990613c94565b80601f01602080910402602001604051908101604052809291908181526020018280546110b590613c94565b80156111025780601f106110d757610100808354040283529160200191611102565b820191906000526020600020905b8154815290600101906020018083116110e557829003601f168201915b505050505090506000611113612399565b905060008151141561112957819250505061116c565b60008251111561115e5780826040516020016111469291906133c0565b6040516020818303038152906040529250505061116c565b611167846123b0565b925050505b919050565b6000600560008473ffffffffffffffffffffffffffffffffffffffff1673ffffffffffffffffffffffffffffffffffffffff16815260200190815260200160002060008373ffffffffffffffffffffffffffffffffffffffff1673ffffffffffffffffffffffffffffffffffffffff16815260200190815260200160002060009054906101000a900460ff16905092915050565b61120d6113d3565b73ffffffffffffffffffffffffffffffffffffffff1661122b610eeb565b73ffffffffffffffffffffffffffffffffffffffff1614611281576040517f08c379a0000000000000000000000000000000000000000000000000000000008152600401611278906138ae565b60405180910390fd5b600073ffffffffffffffffffffffffffffffffffffffff168173ffffffffffffffffffffffffffffffffffffffff1614156112f1576040517f08c379a00000000000000000000000000000000000000000000000000000000081526004016112e8906136ee565b60405180910390fd5b6112fa8161210a565b50565b60007f01ffc9a7000000000000000000000000000000000000000000000000000000007bffffffffffffffffffffffffffffffffffffffffffffffffffffffff1916827bffffffffffffffffffffffffffffffffffffffffffffffffffffffff1916149050919050565b60008073ffffffffffffffffffffffffffffffffffffffff166002600084815260200190815260200160002060009054906101000a900473ffffffffffffffffffffffffffffffffffffffff1673ffffffffffffffffffffffffffffffffffffffff1614159050919050565b600033905090565b816004600083815260200190815260200160002060006101000a81548173ffffffffffffffffffffffffffffffffffffffff021916908373ffffffffffffffffffffffffffffffffffffffff160217905550808273ffffffffffffffffffffffffffffffffffffffff1661144e83610ad9565b73ffffffffffffffffffffffffffffffffffffffff167f8c5be1e5ebec7d5bd14f71427d1e84f3dd0314c0f7b2291e5b200ac8c7c3b92560405160405180910390a45050565b600061149f82611367565b6114de576040517f08c379a00000000000000000000000000000000000000000000000000000000081526004016114d59061378e565b60405180910390fd5b60006114e983610ad9565b90508073ffffffffffffffffffffffffffffffffffffffff168473ffffffffffffffffffffffffffffffffffffffff16148061155857508373ffffffffffffffffffffffffffffffffffffffff1661154084610556565b73ffffffffffffffffffffffffffffffffffffffff16145b8061156957506115688185611171565b5b91505092915050565b8273ffffffffffffffffffffffffffffffffffffffff1661159282610ad9565b73ffffffffffffffffffffffffffffffffffffffff16146115e8576040517f08c379a00000000000000000000000000000000000000000000000000000000081526004016115df9061370e565b60405180910390fd5b600073ffffffffffffffffffffffffffffffffffffffff168273ffffffffffffffffffffffffffffffffffffffff161415611658576040517f08c379a000000000000000000000000000000000000000000000000000000000815260040161164f9061374e565b60405180910390fd5b611663838383612457565b61166e6000826113db565b6001600360008573ffffffffffffffffffffffffffffffffffffffff1673ffffffffffffffffffffffffffffffffffffffff16815260200190815260200160002060008282546116be9190613b69565b925050819055506001600360008473ffffffffffffffffffffffffffffffffffffffff1673ffffffffffffffffffffffffffffffffffffffff16815260200190815260200160002060008282546117159190613a88565b92505081905550816002600083815260200190815260200160002060006101000a81548173ffffffffffffffffffffffffffffffffffffffff021916908373ffffffffffffffffffffffffffffffffffffffff160217905550808273ffffffffffffffffffffffffffffffffffffffff168473ffffffffffffffffffffffffffffffffffffffff167fddf252ad1be2c89b69c2b068fc378daa952ba7f163c4a11628f55a4df523b3ef60405160405180910390a46117d483838361245c565b505050565b600080600090505b8251811015611988576000600167ffffffffffffffff81111561182d577f4e487b7100000000000000000000000000000000000000000000000000000000600052604160045260246000fd5b6040519080825280601f01601f19166020018201604052801561185f5781602001600182028036833780820191505090505b50905083828151811061189b577f4e487b7100000000000000000000000000000000000000000000000000000000600052603260045260246000fd5b602001015160f81c60f81b816000815181106118e0577f4e487b7100000000000000000000000000000000000000000000000000000000600052603260045260246000fd5b60200101907effffffffffffffffffffffffffffffffffffffffffffffffffffffffffffff1916908160001a90535060008160008151811061194b577f4e487b7100000000000000000000000000000000000000000000000000000000600052603260045260246000fd5b602001015160f81c60f81b60f81c905060208160ff161415611973576001935050505061198e565b5050808061198090613cf7565b9150506117e1565b50600090505b919050565b60606005600f60008282546119a89190613a88565b92505081905550600a601060008282546119c29190613a88565b92505081905550611a19826040518060400160405280600481526020017f233939390000000000000000000000000000000000000000000000000000000081525060016002600f54611a149190613b0f565b610b8b565b9050919050565b60606000611a2f601054611f5d565b604051602001611a3f9190613489565b604051602081830303815290604052905080600d604051602001611a649291906133e4565b6040516020818303038152906040529050611a7e81612461565b604051602001611a8e91906135c8565b6040516020818303038152906040529050600081604051602001611ab291906134cb565b6040516020818303038152906040529050611acc81612461565b604051602001611adc9190613519565b6040516020818303038152906040529250505090565b600073ffffffffffffffffffffffffffffffffffffffff168273ffffffffffffffffffffffffffffffffffffffff161415611b62576040517f08c379a0000000000000000000000000000000000000000000000000000000008152600401611b599061384e565b60405180910390fd5b611b6b81611367565b15611bab576040517f08c379a0000000000000000000000000000000000000000000000000000000008152600401611ba29061372e565b60405180910390fd5b611bb760008383612457565b6001600360008473ffffffffffffffffffffffffffffffffffffffff1673ffffffffffffffffffffffffffffffffffffffff1681526020019081526020016000206000828254611c079190613a88565b92505081905550816002600083815260200190815260200160002060006101000a81548173ffffffffffffffffffffffffffffffffffffffff021916908373ffffffffffffffffffffffffffffffffffffffff160217905550808273ffffffffffffffffffffffffffffffffffffffff16600073ffffffffffffffffffffffffffffffffffffffff167fddf252ad1be2c89b69c2b068fc378daa952ba7f163c4a11628f55a4df523b3ef60405160405180910390a4611cc86000838361245c565b5050565b611cd582611367565b611d14576040517f08c379a0000000000000000000000000000000000000000000000000000000008152600401611d0b9061382e565b60405180910390fd5b80600660008481526020019081526020016000209080519060200190611d3b9291906127a5565b505050565b60606000600167ffffffffffffffff811115611d85577f4e487b7100000000000000000000000000000000000000000000000000000000600052604160045260246000fd5b6040519080825280601f01601f191660200182016040528015611db75781602001600182028036833780820191505090505b509050838381518110611df3577f4e487b7100000000000000000000000000000000000000000000000000000000600052603260045260246000fd5b602001015160f81c60f81b81600081518110611e38577f4e487b7100000000000000000000000000000000000000000000000000000000600052603260045260246000fd5b60200101907effffffffffffffffffffffffffffffffffffffffffffffffffffffffffffff1916908160001a905350600081600081518110611ea3577f4e487b7100000000000000000000000000000000000000000000000000000000600052603260045260246000fd5b602001015160f81c60f81b60f81c905060618160ff1610158015611ecb5750607a8160ff1611155b611ed8578060f81b611ee9565b602081611ee59190613b9d565b60f81b5b82600081518110611f23577f4e487b7100000000000000000000000000000000000000000000000000000000600052603260045260246000fd5b60200101907effffffffffffffffffffffffffffffffffffffffffffffffffffffffffffff1916908160001a905350819250505092915050565b60606000821415611fa5576040518060400160405280600181526020017f30000000000000000000000000000000000000000000000000000000000000008152509050612105565b600082905060005b60008214611fd7578080611fc090613cf7565b915050600a82611fd09190613ade565b9150611fad565b60008167ffffffffffffffff811115612019577f4e487b7100000000000000000000000000000000000000000000000000000000600052604160045260246000fd5b6040519080825280601f01601f19166020018201604052801561204b5781602001600182028036833780820191505090505b5090505b600085146120fe576001826120649190613b69565b9150600a856120739190613d40565b603061207f9190613a88565b60f81b8183815181106120bb577f4e487b7100000000000000000000000000000000000000000000000000000000600052603260045260246000fd5b60200101907effffffffffffffffffffffffffffffffffffffffffffffffffffffffffffff1916908160001a905350600a856120f79190613ade565b945061204f565b8093505050505b919050565b6000600760009054906101000a900473ffffffffffffffffffffffffffffffffffffffff16905081600760006101000a81548173ffffffffffffffffffffffffffffffffffffffff021916908373ffffffffffffffffffffffffffffffffffffffff1602179055508173ffffffffffffffffffffffffffffffffffffffff168173ffffffffffffffffffffffffffffffffffffffff167f8be0079c531659141344cd1fd0a4f28419497f9722a3daafe3b4186f6b6457e060405160405180910390a35050565b8173ffffffffffffffffffffffffffffffffffffffff168373ffffffffffffffffffffffffffffffffffffffff16141561223f576040517f08c379a00000000000000000000000000000000000000000000000000000000081526004016122369061376e565b60405180910390fd5b80600560008573ffffffffffffffffffffffffffffffffffffffff1673ffffffffffffffffffffffffffffffffffffffff16815260200190815260200160002060008473ffffffffffffffffffffffffffffffffffffffff1673ffffffffffffffffffffffffffffffffffffffff16815260200190815260200160002060006101000a81548160ff0219169083151502179055508173ffffffffffffffffffffffffffffffffffffffff168373ffffffffffffffffffffffffffffffffffffffff167f17307eab39ab6107e8899845ad3d59bd9653f200f220920489ca2b5937696c31836040516123309190613651565b60405180910390a3505050565b612348848484611572565b612354848484846125eb565b612393576040517f08c379a000000000000000000000000000000000000000000000000000000000815260040161238a906136ae565b60405180910390fd5b50505050565b606060405180602001604052806000815250905090565b60606123bb82611367565b6123fa576040517f08c379a00000000000000000000000000000000000000000000000000000000081526004016123f1906138ce565b60405180910390fd5b6000612404612399565b90506000815111612424576040518060200160405280600081525061244f565b8061242e84611f5d565b60405160200161243f9291906133c0565b6040516020818303038152906040525b915050919050565b505050565b505050565b6060600082511415612484576040518060200160405280600081525090506125e6565b6000604051806060016040528060408152602001614d0460409139905060006003600285516124b39190613a88565b6124bd9190613ade565b60046124c99190613b0f565b67ffffffffffffffff811115612508577f4e487b7100000000000000000000000000000000000000000000000000000000600052604160045260246000fd5b6040519080825280601f01601f19166020018201604052801561253a5781602001600182028036833780820191505090505b509050600182016020820185865187015b808210156125a6576003820191508151603f8160121c168501518453600184019350603f81600c1c168501518453600184019350603f8160061c168501518453600184019350603f811685015184536001840193505061254b565b50506003865106600181146125c257600281146125d5576125dd565b603d6001830353603d60028303536125dd565b603d60018303535b50505080925050505b919050565b600061260c8473ffffffffffffffffffffffffffffffffffffffff16612782565b15612775578373ffffffffffffffffffffffffffffffffffffffff1663150b7a026126356113d3565b8786866040518563ffffffff1660e01b81526004016126579493929190613605565b602060405180830381600087803b15801561267157600080fd5b505af19250505080156126a257506040513d601f19601f8201168201806040525081019061269f9190612b51565b60015b612725573d80600081146126d2576040519150601f19603f3d011682016040523d82523d6000602084013e6126d7565b606091505b5060008151141561271d576040517f08c379a0000000000000000000000000000000000000000000000000000000008152600401612714906136ae565b60405180910390fd5b805181602001fd5b63150b7a0260e01b7bffffffffffffffffffffffffffffffffffffffffffffffffffffffff1916817bffffffffffffffffffffffffffffffffffffffffffffffffffffffff19161491505061277a565b600190505b949350505050565b6000808273ffffffffffffffffffffffffffffffffffffffff163b119050919050565b8280546127b190613c94565b90600052602060002090601f0160209004810192826127d3576000855561281a565b82601f106127ec57805160ff191683800117855561281a565b8280016001018555821561281a579182015b828111156128195782518255916020019190600101906127fe565b5b509050612827919061282b565b5090565b5b8082111561284457600081600090555060010161282c565b5090565b600061285b612856846139ce565b6139a9565b90508281526020810184848401111561287357600080fd5b61287e848285613c52565b509392505050565b6000612899612894846139ff565b6139a9565b9050828152602081018484840111156128b157600080fd5b6128bc848285613c52565b509392505050565b6000813590506128d381614ca7565b92915050565b6000813590506128e881614cbe565b92915050565b6000813590506128fd81614cd5565b92915050565b60008151905061291281614cd5565b92915050565b600082601f83011261292957600080fd5b8135612939848260208601612848565b91505092915050565b600082601f83011261295357600080fd5b8135612963848260208601612886565b91505092915050565b60008135905061297b81614cec565b92915050565b60006020828403121561299357600080fd5b60006129a1848285016128c4565b91505092915050565b600080604083850312156129bd57600080fd5b60006129cb858286016128c4565b92505060206129dc858286016128c4565b9150509250929050565b6000806000606084860312156129fb57600080fd5b6000612a09868287016128c4565b9350506020612a1a868287016128c4565b9250506040612a2b8682870161296c565b9150509250925092565b60008060008060808587031215612a4b57600080fd5b6000612a59878288016128c4565b9450506020612a6a878288016128c4565b9350506040612a7b8782880161296c565b925050606085013567ffffffffffffffff811115612a9857600080fd5b612aa487828801612918565b91505092959194509250565b60008060408385031215612ac357600080fd5b6000612ad1858286016128c4565b9250506020612ae2858286016128d9565b9150509250929050565b60008060408385031215612aff57600080fd5b6000612b0d858286016128c4565b9250506020612b1e8582860161296c565b9150509250929050565b600060208284031215612b3a57600080fd5b6000612b48848285016128ee565b91505092915050565b600060208284031215612b6357600080fd5b6000612b7184828501612903565b91505092915050565b600060208284031215612b8c57600080fd5b600082013567ffffffffffffffff811115612ba657600080fd5b612bb284828501612942565b91505092915050565b60008060008060808587031215612bd157600080fd5b600085013567ffffffffffffffff811115612beb57600080fd5b612bf787828801612942565b945050602085013567ffffffffffffffff811115612c1457600080fd5b612c2087828801612942565b9350506040612c318782880161296c565b9250506060612c428782880161296c565b91505092959194509250565b600060208284031215612c6057600080fd5b6000612c6e8482850161296c565b91505092915050565b612c8081613bd1565b82525050565b612c8f81613be3565b82525050565b6000612ca082613a45565b612caa8185613a5b565b9350612cba818560208601613c61565b612cc381613e2d565b840191505092915050565b6000612cd982613a50565b612ce38185613a6c565b9350612cf3818560208601613c61565b612cfc81613e2d565b840191505092915050565b6000612d1282613a50565b612d1c8185613a7d565b9350612d2c818560208601613c61565b80840191505092915050565b60008154612d4581613c94565b612d4f8186613a7d565b94506001821660008114612d6a5760018114612d7b57612dae565b60ff19831686528186019350612dae565b612d8485613a30565b60005b83811015612da657815481890152600182019150602081019050612d87565b838801955050505b50505092915050565b6000612dc4600983613a6c565b9150612dcf82613e3e565b602082019050919050565b6000612de7603283613a6c565b9150612df282613e67565b604082019050919050565b6000612e0a600983613a6c565b9150612e1582613eb6565b602082019050919050565b6000612e2d602683613a6c565b9150612e3882613edf565b604082019050919050565b6000612e50600283613a7d565b9150612e5b82613f2e565b600282019050919050565b6000612e73602583613a6c565b9150612e7e82613f57565b604082019050919050565b6000612e96601c83613a6c565b9150612ea182613fa6565b602082019050919050565b6000612eb9601683613a7d565b9150612ec482613fcf565b601682019050919050565b6000612edc602a83613a7d565b9150612ee782613ff8565b602a82019050919050565b6000612eff600183613a7d565b9150612f0a82614047565b600182019050919050565b6000612f22602483613a6c565b9150612f2d82614070565b604082019050919050565b6000612f45601983613a6c565b9150612f50826140bf565b602082019050919050565b6000612f68600983613a7d565b9150612f73826140e8565b600982019050919050565b6000612f8b603683613a7d565b9150612f9682614111565b603682019050919050565b6000612fae602c83613a6c565b9150612fb982614160565b604082019050919050565b6000612fd261042183613a7d565b9150612fdd826141af565b61042182019050919050565b6000612ff6601283613a7d565b9150613001826146d8565b601282019050919050565b6000613019600b83613a6c565b915061302482614701565b602082019050919050565b600061303c603883613a6c565b91506130478261472a565b604082019050919050565b600061305f602a83613a6c565b915061306a82614779565b604082019050919050565b6000613082602983613a6c565b915061308d826147c8565b604082019050919050565b60006130a5602e83613a6c565b91506130b082614817565b604082019050919050565b60006130c8602083613a6c565b91506130d382614866565b602082019050919050565b60006130eb603183613a6c565b91506130f68261488f565b604082019050919050565b600061310e602c83613a6c565b9150613119826148de565b604082019050919050565b6000613131602083613a6c565b915061313c8261492d565b602082019050919050565b6000613154600783613a7d565b915061315f82614956565b600782019050919050565b6000613177602f83613a6c565b91506131828261497f565b604082019050919050565b600061319a600483613a7d565b91506131a5826149ce565b600482019050919050565b60006131bd600183613a7d565b91506131c8826149f7565b600182019050919050565b60006131e0600c83613a6c565b91506131eb82614a20565b602082019050919050565b6000613203602183613a6c565b915061320e82614a49565b604082019050919050565b6000613226600f83613a6c565b915061323182614a98565b602082019050919050565b6000613249601d83613a7d565b915061325482614ac1565b601d82019050919050565b600061326c601783613a6c565b915061327782614aea565b602082019050919050565b600061328f603183613a6c565b915061329a82614b13565b604082019050919050565b60006132b2601883613a7d565b91506132bd82614b62565b601882019050919050565b60006132d5600283613a7d565b91506132e082614b8b565b600282019050919050565b60006132f8600a83613a7d565b915061330382614bb4565b600a82019050919050565b600061331b600683613a7d565b915061332682614bdd565b600682019050919050565b600061333e602483613a7d565b915061334982614c06565b602482019050919050565b6000613361601a83613a7d565b915061336c82614c55565b601a82019050919050565b6000613384600383613a7d565b915061338f82614c7e565b600382019050919050565b6133a381613c3b565b82525050565b60006133b58284612d07565b915081905092915050565b60006133cc8285612d07565b91506133d88284612d07565b91508190509392505050565b60006133f08285612d07565b91506133fc8284612d38565b91506134078261330e565b91508190509392505050565b600061341f8286612d07565b915061342a826132a5565b91506134368285612d07565b915061344182613377565b915061344d8284612d07565b91506134588261318d565b9150819050949350505050565b60006134718285612d38565b915061347d8284612d07565b91508190509392505050565b600061349482612eac565b91506134a08284612d07565b91506134ab82612fc4565b915081905092915050565b60006134c182613147565b9150819050919050565b60006134d6826131b0565b91506134e182612fe9565b91506134ec826132eb565b91506134f88284612d07565b915061350382612e43565b915061350e82612ecf565b915081905092915050565b60006135248261323c565b91506135308284612d07565b915081905092915050565b600061354682613331565b91506135528288612d07565b915061355d82612ef2565b91506135698287612d07565b915061357482612f5b565b91506135808286612d07565b915061358b82612f7e565b91506135978285612d07565b91506135a2826132c8565b91506135ae8284612d07565b91506135b98261318d565b91508190509695505050505050565b60006135d382613354565b91506135df8284612d07565b915081905092915050565b60006020820190506135ff6000830184612c77565b92915050565b600060808201905061361a6000830187612c77565b6136276020830186612c77565b613634604083018561339a565b81810360608301526136468184612c95565b905095945050505050565b60006020820190506136666000830184612c86565b92915050565b600060208201905081810360008301526136868184612cce565b905092915050565b600060208201905081810360008301526136a781612db7565b9050919050565b600060208201905081810360008301526136c781612dda565b9050919050565b600060208201905081810360008301526136e781612dfd565b9050919050565b6000602082019050818103600083015261370781612e20565b9050919050565b6000602082019050818103600083015261372781612e66565b9050919050565b6000602082019050818103600083015261374781612e89565b9050919050565b6000602082019050818103600083015261376781612f15565b9050919050565b6000602082019050818103600083015261378781612f38565b9050919050565b600060208201905081810360008301526137a781612fa1565b9050919050565b600060208201905081810360008301526137c78161300c565b9050919050565b600060208201905081810360008301526137e78161302f565b9050919050565b6000602082019050818103600083015261380781613052565b9050919050565b6000602082019050818103600083015261382781613075565b9050919050565b6000602082019050818103600083015261384781613098565b9050919050565b60006020820190508181036000830152613867816130bb565b9050919050565b60006020820190508181036000830152613887816130de565b9050919050565b600060208201905081810360008301526138a781613101565b9050919050565b600060208201905081810360008301526138c781613124565b9050919050565b600060208201905081810360008301526138e78161316a565b9050919050565b60006020820190508181036000830152613907816131d3565b9050919050565b60006020820190508181036000830152613927816131f6565b9050919050565b6000602082019050818103600083015261394781613219565b9050919050565b600060208201905081810360008301526139678161325f565b9050919050565b6000602082019050818103600083015261398781613282565b9050919050565b60006020820190506139a3600083018461339a565b92915050565b60006139b36139c4565b90506139bf8282613cc6565b919050565b6000604051905090565b600067ffffffffffffffff8211156139e9576139e8613dfe565b5b6139f282613e2d565b9050602081019050919050565b600067ffffffffffffffff821115613a1a57613a19613dfe565b5b613a2382613e2d565b9050602081019050919050565b60008190508160005260206000209050919050565b600081519050919050565b600081519050919050565b600082825260208201905092915050565b600082825260208201905092915050565b600081905092915050565b6000613a9382613c3b565b9150613a9e83613c3b565b9250827fffffffffffffffffffffffffffffffffffffffffffffffffffffffffffffffff03821115613ad357613ad2613d71565b5b828201905092915050565b6000613ae982613c3b565b9150613af483613c3b565b925082613b0457613b03613da0565b5b828204905092915050565b6000613b1a82613c3b565b9150613b2583613c3b565b9250817fffffffffffffffffffffffffffffffffffffffffffffffffffffffffffffffff0483118215151615613b5e57613b5d613d71565b5b828202905092915050565b6000613b7482613c3b565b9150613b7f83613c3b565b925082821015613b9257613b91613d71565b5b828203905092915050565b6000613ba882613c45565b9150613bb383613c45565b925082821015613bc657613bc5613d71565b5b828203905092915050565b6000613bdc82613c1b565b9050919050565b60008115159050919050565b60007fffffffff0000000000000000000000000000000000000000000000000000000082169050919050565b600073ffffffffffffffffffffffffffffffffffffffff82169050919050565b6000819050919050565b600060ff82169050919050565b82818337600083830152505050565b60005b83811015613c7f578082015181840152602081019050613c64565b83811115613c8e576000848401525b50505050565b60006002820490506001821680613cac57607f821691505b60208210811415613cc057613cbf613dcf565b5b50919050565b613ccf82613e2d565b810181811067ffffffffffffffff82111715613cee57613ced613dfe565b5b80604052505050565b6000613d0282613c3b565b91507fffffffffffffffffffffffffffffffffffffffffffffffffffffffffffffffff821415613d3557613d34613d71565b5b600182019050919050565b6000613d4b82613c3b565b9150613d5683613c3b565b925082613d6657613d65613da0565b5b828206905092915050565b7f4e487b7100000000000000000000000000000000000000000000000000000000600052601160045260246000fd5b7f4e487b7100000000000000000000000000000000000000000000000000000000600052601260045260246000fd5b7f4e487b7100000000000000000000000000000000000000000000000000000000600052602260045260246000fd5b7f4e487b7100000000000000000000000000000000000000000000000000000000600052604160045260246000fd5b6000601f19601f8301169050919050565b7f4e6f207370616365730000000000000000000000000000000000000000000000600082015250565b7f4552433732313a207472616e7366657220746f206e6f6e20455243373231526560008201527f63656976657220696d706c656d656e7465720000000000000000000000000000602082015250565b7f4e6f7420666f756e640000000000000000000000000000000000000000000000600082015250565b7f4f776e61626c653a206e6577206f776e657220697320746865207a65726f206160008201527f6464726573730000000000000000000000000000000000000000000000000000602082015250565b7f222c000000000000000000000000000000000000000000000000000000000000600082015250565b7f4552433732313a207472616e736665722066726f6d20696e636f72726563742060008201527f6f776e6572000000000000000000000000000000000000000000000000000000602082015250565b7f4552433732313a20746f6b656e20616c7265616479206d696e74656400000000600082015250565b7f3c7376672076696577426f783d27302030203130302000000000000000000000600082015250565b7f226465736372697074696f6e223a20224861707079204269727468646179204a60008201527f61636b202d205656227d00000000000000000000000000000000000000000000602082015250565b7f2c00000000000000000000000000000000000000000000000000000000000000600082015250565b7f4552433732313a207472616e7366657220746f20746865207a65726f2061646460008201527f7265737300000000000000000000000000000000000000000000000000000000602082015250565b7f4552433732313a20617070726f766520746f2063616c6c657200000000000000600082015250565b7f29272066696c6c3d270000000000000000000000000000000000000000000000600082015250565b7f272066696c6c2d72756c653d276576656e6f64642720636c69702d72756c653d60008201527f276576656e6f64642720617269612d6c6162656c3d2700000000000000000000602082015250565b7f4552433732313a206f70657261746f7220717565727920666f72206e6f6e657860008201527f697374656e7420746f6b656e0000000000000000000000000000000000000000602082015250565b7f272077696474683d273530302720786d6c6e733d27687474703a2f2f7777772e60008201527f77332e6f72672f323030302f737667273e3c7265637420783d27302720793d2760208201527f30272077696474683d273130302527206865696768743d27313030252720666960408201527f6c6c3d2723303030272f3e3c67207472616e73666f726d3d277363616c65283160608201527f29207472616e736c6174652834342e352c20343029272066696c6c3d2723666660808201527f66272066696c6c2d72756c653d276576656e6f64642720636c69702d72756c6560a08201527f3d276576656e6f64642720617269612d6c6162656c3d27484244273e3c67207460c08201527f72616e73666f726d3d277472616e736c617465283029273e3c7061746820643d60e08201527f274d30203048314c3120324832563048335632563356354832563348315635486101008201527f3056305a272f3e3c2f673e3c67207472616e73666f726d3d277472616e736c616101208201527f7465283429273e3c7061746820643d274d3120304830563548314832483356336101408201527f4832563248335630483248315a4d32203248315631483256325a4d32203456336101608201527f4831563448325a272f3e3c2f673e3c67207472616e73666f726d3d277472616e6101808201527f736c617465283829273e3c7061746820643d274d3020315634563548314832486101a08201527f335631483256304831483056315a4d32203456314c312031563448325a272f3e6101c08201527f3c2f673e3c2f673e3c67207472616e73666f726d3d277363616c6528312920746101e08201527f72616e736c6174652834322c20353029272066696c6c3d2723666666272066696102008201527f6c6c2d72756c653d276576656e6f64642720636c69702d72756c653d276576656102208201527f6e6f64642720617269612d6c6162656c3d274a41434b273e3c67207472616e736102408201527f666f726d3d277472616e736c617465283029273e3c67207472616e73666f726d6102608201527f3d277472616e736c617465283029273e3c7061746820643d274d3020304832486102808201527f335631563456354832483148305634563348315634483256314c30203156305a6102a08201527f272f3e3c2f673e3c67207472616e73666f726d3d277472616e736c61746528346102c08201527f29273e3c7061746820643d274d3020335635483156334c3220335635483356336102e08201527f5632563156304832483148305631563256335a4d31203248325631483156325a6103008201527f272f3e3c2f673e3c67207472616e73666f726d3d277472616e736c61746528386103208201527f29273e3c7061746820643d274d3020304831483356314c3120315634483356356103408201527f483148305634563156305a272f3e3c2f673e3c67207472616e73666f726d3d276103608201527f7472616e736c61746528313229273e3c7061746820643d274d312030483056326103808201527f56335635483156334832563548334c3320334832563248334c33203048324c326103a08201527f2032483156305a272f3e3c2f673e3c67207472616e73666f726d3d277472616e6103c08201527f736c61746528313629273e3c7061746820643d274d30203348314c31203048306103e08201527f56335a4d30203548314c312034483056355a272f3e3c2f673e3c2f673e3c2f676104008201527f3e0000000000000000000000000000000000000000000000000000000000000061042082015250565b7f226e616d65223a2022484244204a434b222c0000000000000000000000000000600082015250565b7f4d696e2063686172732031000000000000000000000000000000000000000000600082015250565b7f4552433732313a20617070726f76652063616c6c6572206973206e6f74206f7760008201527f6e6572206e6f7220617070726f76656420666f7220616c6c0000000000000000602082015250565b7f4552433732313a2062616c616e636520717565727920666f7220746865207a6560008201527f726f206164647265737300000000000000000000000000000000000000000000602082015250565b7f4552433732313a206f776e657220717565727920666f72206e6f6e657869737460008201527f656e7420746f6b656e0000000000000000000000000000000000000000000000602082015250565b7f45524337323155524953746f726167653a2055524920736574206f66206e6f6e60008201527f6578697374656e7420746f6b656e000000000000000000000000000000000000602082015250565b7f4552433732313a206d696e7420746f20746865207a65726f2061646472657373600082015250565b7f45524337323155524953746f726167653a2055524920717565727920666f722060008201527f6e6f6e6578697374656e7420746f6b656e000000000000000000000000000000602082015250565b7f4552433732313a20617070726f76656420717565727920666f72206e6f6e657860008201527f697374656e7420746f6b656e0000000000000000000000000000000000000000602082015250565b7f4f776e61626c653a2063616c6c6572206973206e6f7420746865206f776e6572600082015250565b7f44454641554c5400000000000000000000000000000000000000000000000000600082015250565b7f4552433732314d657461646174613a2055524920717565727920666f72206e6f60008201527f6e6578697374656e7420746f6b656e0000000000000000000000000000000000602082015250565b7f3c2f673e00000000000000000000000000000000000000000000000000000000600082015250565b7f7b00000000000000000000000000000000000000000000000000000000000000600082015250565b7f4d61782063686172732031300000000000000000000000000000000000000000600082015250565b7f4552433732313a20617070726f76616c20746f2063757272656e74206f776e6560008201527f7200000000000000000000000000000000000000000000000000000000000000602082015250565b7f4f6e652d7369676e2f506572736f6e0000000000000000000000000000000000600082015250565b7f646174613a6170706c69636174696f6e2f6a736f6e3b6261736536342c000000600082015250565b7f4a61636b2773204269727468646179206973206f766572000000000000000000600082015250565b7f4552433732313a207472616e736665722063616c6c6572206973206e6f74206f60008201527f776e6572206e6f7220617070726f766564000000000000000000000000000000602082015250565b7f3c67207472616e73666f726d3d277472616e736c617465280000000000000000600082015250565b7f273e000000000000000000000000000000000000000000000000000000000000600082015250565b7f22696d616765223a202200000000000000000000000000000000000000000000600082015250565b7f3c2f7376673e0000000000000000000000000000000000000000000000000000600082015250565b7f3c6720207472616e73666f726d3d277363616c6528302e3529207472616e736c60008201527f6174652800000000000000000000000000000000000000000000000000000000602082015250565b7f646174613a696d6167652f7376672b786d6c3b6261736536342c000000000000600082015250565b7f29273e0000000000000000000000000000000000000000000000000000000000600082015250565b614cb081613bd1565b8114614cbb57600080fd5b50565b614cc781613be3565b8114614cd257600080fd5b50565b614cde81613bef565b8114614ce957600080fd5b50565b614cf581613c3b565b8114614d0057600080fd5b5056fe4142434445464748494a4b4c4d4e4f505152535455565758595a6162636465666768696a6b6c6d6e6f707172737475767778797a303132333435363738392b2fa2646970667358221220efc159eaebaf6ed3a056b4506c0739f22623fd30212fc29ed021a47b6354f33764736f6c634300080100333c7061746820643d274d302035483148324c32203448334c33203048324831483056355a4d3120344c3120314c3220314c32203448315a272f3e3c7061746820643d274d302032563148314c3120324c3020325a4d3220324c3120325633483056344c31203456334c32203356344c33203456334c32203356325a4d3220324c3320325631483256325a272f3e3c7061746820643d274d31203148324c32203448314c3120315a4d3120314830563448314c31203548324c32203448334c33203148324c32203048314c3120315a272f3e3c7061746820643d274d3120334830563048314c3120335a4d3220334831563548324c3220335a4d3220334c32203048334c33203348325a272f3e3c7061746820643d274d30203348314c312030483056335a4d30203548314c312034483056355a272f3e3c7061746820643d274d3120304830563156345635483148335634483156334832563248314c3120314c332031563048315a272f3e3c7061746820643d274d3220314830563048334c3320314c3320334c3220334c3120334c31203448334c33203548305634563356324c3220324c3220315a272f3e3c7061746820643d274d3020304831483356314c312031563448335635483148305634563156305a272f3e3c7061746820643d274d30203048314c3120324832563048335632563356354832563348315635483056305a272f3e3c7061746820643d274d33203548324c32203348314c3020335632563048314c3120324c3220324c32203048334c3320324c33203356355a272f3e3c7061746820643d274d302030483248335631563456354832483148305634563348315634483256314c30203156305a272f3e3c7061746820643d274d30203048314833563148315632483256334831483056305a4d32203348335634563548305634483256335a272f3e3c7061746820643d274d3120314c32203156324c3120324c3120315a4d312030483248334c3320314c3320324c332033563548324c32203348314c30203356325631563048315a272f3e3c7061746820643d274d3220314c3120314c3120324c32203256315a4d32203048334c3320314c3320324c3320334c3320344c33203548324831483056345633563256315630483148325a4d32203456334c3120334c31203448325a272f3e3c7061746820643d274d3020354831483248334c33203048324831483056355a4d3220344c3220314c3120314c31203448325a272f3e3c7061746820643d274d302030563148315635483256315630483148305a272f3e3c7061746820643d274d3320314c3320304832483056314c32203156324c30203256334c322033563448305635483248334c3320344c3320334c33203256315a272f3e3c7061746820643d274d3120324c312031483256324c3120325a4d3120354c312033483256354c3120355a4d31203556364830563548315a272f3e3c7061746820643d274d3320314c3320304832483056314c3220314c322035483356315a272f3e3c7265637420783d27312720793d2735272077696474683d273127206865696768743d273127207472616e73666f726d3d27726f74617465283138302031203529272f3e3c7061746820643d274d3120304830563256335635483156334832563548334c3320334832563248334c33203048324c322032483156305a272f3e3c7061746820643d274d32203148314c3120324c30203256334c3120334c3120344c3220344c3220334c33203356324c3220324c3220315a272f3e3c7061746820643d274d31203548324c3220344833563548345634483556334834563248355631483456304833563148324c32203048314c3120314830563248314c3120334830563448314c3120355a4d33203248324c322033483356325a272f3e3c7061746820643d274d3320314c33203048324831483056314c3120314c31203548324c3220314c3320315a272f3e3c7061746820643d274d312030483056345635483148335634483156305a272f3e3c7061746820643d274d3120354830563048314c3120314c32203156324c3120324c3120355a4d332032563348324c3220324c3320325a4d3320324c3320314c3420314c34203048354c3520354834563248335a272f3e3c7061746820643d274d322030483056314832563248315633483256324833563048325a4d32203448315635483256345a272f3e3c7061746820643d274d302031563456354831483248335634563248325634483156314c33203156304831483056315a272f3e3c7061746820643d274d3220314830563048334c3320314c3320324c3220324c3220315a4d3120334c3120324c3220324c32203348315a4d3120334c31203448334c3320354830563456334c3120335a272f3e3c7061746820643d274d30203156324c3120324c31203148305a4d30203356344c3120344c31203348305a272f3e3c7061746820643d274d3120344c3020344c3020354c3120354c3120345a4d3220334c3220344c3120344c3120334c3220335a4d3220324c3220334c3320334c3320324c3220325a4d3120314c3120324c3220324c3220314c3120315a4d3120314c3120304c3020304c3020314c3120315a272f3e3c7061746820643d274d3020335635483156334c3220335635483356335632563156304832483148305631563256335a4d31203248325631483156325a272f3e3c7061746820643d274d30203156324c332032563148305a4d30203356344c33203456334c3020335a272f3e3c7061746820643d274d31203548305630483148334c33203156324c3220324c3220314c31203156324c3220324c322033483156355a4d32203348334c33203548324c3220335a272f3e3c7061746820643d274d3120304830563548314832483356334832563248335630483248315a4d32203248315631483256325a4d32203456334831563448325a272f3e3c70617468207472616e73666f726d3d277472616e736c61746528302c2031292720643d274d31203448324c32203348314c3120345a4d3120344830563548314c3120345a272f3e3c7061746820643d274d302031563048314832483356314c3220315634483356354832483148305634483156314c3020315a272f3e3c7061746820643d274d3420304c3520304c35203548344c34203448335633483456305a204d3220334c32203248334c3320334c3220335a204d3220334c3220344c3120344c31203548304c3020304c3120304c31203348325a272f3e3c7061746820643d274d30203048315635483056305a204d31203148325633483156315a204d32203248335634483256325a204d33203048345635483356305a272f3e3c7061746820643d274d3120324830563048314c3120325a4d32203248314c3120334830563548314c31203348324c32203548334c33203348324c3220325a4d3220324c32203048334c33203248325a272f3e3c7061746820643d274d302031563456354831483248335631483256304831483056315a4d32203456314c312031563448325a272f3e3c7061746820643d274d30203548314c3120334c3320334c3320324c3320314c3320304831483056355a4d3220314c3120314c3120324c3220324c3220315a272f3e3c70617468207472616e73666f726d3d277472616e736c61746528302c202d31292720643d274d3120314c31203048324c32203148334c3320324c3120324c3120334c32203348334c3320344c332035563648324c32203748314c312036483056354c3220354c3220344c312034483056314c3120315a272f3e3c7061746820643d274d3020304831483356314c31203156324832563348315635483056335632563156305a272f3e3c7061746820643d274d32203148334c332030483256315a4d3120324c3120314832563248315a4d3120334c3120324830563348315a4d3220344c32203348314c31203448325a4d322034563548334c33203448325a272f3e3c7061746820643d274d30203456335632563048302e3939393939394c31203248324c3320324c3320334c3320344c33203548324831483056345a4d32203456334c3120334c31203448325a272f3e3c7061746820643d274d3120344830563048314c3120345a4d3220344831563548324c3220345a4d3220344c32203048334c33203448325a272f3e3c7061746820643d274d31203348305630483148334c3320314c3120314c3120324c32203248334c3320334c33203456354832483056344c3220344c3220334c3120335a272f3e3c7061746820643d274d31203548305634563048314c3120344c3220344c32203048334c3320345635483248315a272f3e",
  "linkReferences": {},
  "deployedLinkReferences": {}
}