{
  "_format": "hh-sol-artifact-1",
  "contractName": "Present",
  "sourceName": "contracts/Present.sol",
  "abi": [
    {
      "inputs": [],
      "stateMutability": "nonpayable",
      "type": "constructor"
    },
    {
      "anonymous": false,
      "inputs": [
        {
          "indexed": true,
          "internalType": "address",
          "name": "owner",
          "type": "address"
        },
        {
          "indexed": true,
          "internalType": "address",
          "name": "approved",
          "type": "address"
        },
        {
          "indexed": true,
          "internalType": "uint256",
          "name": "tokenId",
          "type": "uint256"
        }
      ],
      "name": "Approval",
      "type": "event"
    },
    {
      "anonymous": false,
      "inputs": [
        {
          "indexed": true,
          "internalType": "address",
          "name": "owner",
          "type": "address"
        },
        {
          "indexed": true,
          "internalType": "address",
          "name": "operator",
          "type": "address"
        },
        {
          "indexed": false,
          "internalType": "bool",
          "name": "approved",
          "type": "bool"
        }
      ],
      "name": "ApprovalForAll",
      "type": "event"
    },
    {
      "anonymous": false,
      "inputs": [
        {
          "indexed": true,
          "internalType": "address",
          "name": "from",
          "type": "address"
        },
        {
          "indexed": true,
          "internalType": "address",
          "name": "to",
          "type": "address"
        },
        {
          "indexed": true,
          "internalType": "uint256",
          "name": "tokenId",
          "type": "uint256"
        }
      ],
      "name": "Transfer",
      "type": "event"
    },
    {
      "inputs": [
        {
          "internalType": "address",
          "name": "to",
          "type": "address"
        },
        {
          "internalType": "uint256",
          "name": "tokenId",
          "type": "uint256"
        }
      ],
      "name": "approve",
      "outputs": [],
      "stateMutability": "nonpayable",
      "type": "function"
    },
    {
      "inputs": [
        {
          "internalType": "address",
          "name": "owner",
          "type": "address"
        }
      ],
      "name": "balanceOf",
      "outputs": [
        {
          "internalType": "uint256",
          "name": "",
          "type": "uint256"
        }
      ],
      "stateMutability": "view",
      "type": "function"
    },
    {
      "inputs": [
        {
          "internalType": "uint256",
          "name": "tokenId",
          "type": "uint256"
        }
      ],
      "name": "getApproved",
      "outputs": [
        {
          "internalType": "address",
          "name": "",
          "type": "address"
        }
      ],
      "stateMutability": "view",
      "type": "function"
    },
    {
      "inputs": [
        {
          "internalType": "address",
          "name": "owner",
          "type": "address"
        },
        {
          "internalType": "address",
          "name": "operator",
          "type": "address"
        }
      ],
      "name": "isApprovedForAll",
      "outputs": [
        {
          "internalType": "bool",
          "name": "",
          "type": "bool"
        }
      ],
      "stateMutability": "view",
      "type": "function"
    },
    {
      "inputs": [],
      "name": "name",
      "outputs": [
        {
          "internalType": "string",
          "name": "",
          "type": "string"
        }
      ],
      "stateMutability": "view",
      "type": "function"
    },
    {
      "inputs": [
        {
          "internalType": "uint256",
          "name": "tokenId",
          "type": "uint256"
        }
      ],
      "name": "ownerOf",
      "outputs": [
        {
          "internalType": "address",
          "name": "",
          "type": "address"
        }
      ],
      "stateMutability": "view",
      "type": "function"
    },
    {
      "inputs": [
        {
          "internalType": "address",
          "name": "from",
          "type": "address"
        },
        {
          "internalType": "address",
          "name": "to",
          "type": "address"
        },
        {
          "internalType": "uint256",
          "name": "tokenId",
          "type": "uint256"
        }
      ],
      "name": "safeTransferFrom",
      "outputs": [],
      "stateMutability": "nonpayable",
      "type": "function"
    },
    {
      "inputs": [
        {
          "internalType": "address",
          "name": "from",
          "type": "address"
        },
        {
          "internalType": "address",
          "name": "to",
          "type": "address"
        },
        {
          "internalType": "uint256",
          "name": "tokenId",
          "type": "uint256"
        },
        {
          "internalType": "bytes",
          "name": "_data",
          "type": "bytes"
        }
      ],
      "name": "safeTransferFrom",
      "outputs": [],
      "stateMutability": "nonpayable",
      "type": "function"
    },
    {
      "inputs": [
        {
          "internalType": "address",
          "name": "operator",
          "type": "address"
        },
        {
          "internalType": "bool",
          "name": "approved",
          "type": "bool"
        }
      ],
      "name": "setApprovalForAll",
      "outputs": [],
      "stateMutability": "nonpayable",
      "type": "function"
    },
    {
      "inputs": [
        {
          "internalType": "bytes4",
          "name": "interfaceId",
          "type": "bytes4"
        }
      ],
      "name": "supportsInterface",
      "outputs": [
        {
          "internalType": "bool",
          "name": "",
          "type": "bool"
        }
      ],
      "stateMutability": "view",
      "type": "function"
    },
    {
      "inputs": [],
      "name": "symbol",
      "outputs": [
        {
          "internalType": "string",
          "name": "",
          "type": "string"
        }
      ],
      "stateMutability": "view",
      "type": "function"
    },
    {
      "inputs": [
        {
          "internalType": "uint256",
          "name": "tokenId",
          "type": "uint256"
        }
      ],
      "name": "tokenURI",
      "outputs": [
        {
          "internalType": "string",
          "name": "",
          "type": "string"
        }
      ],
      "stateMutability": "view",
      "type": "function"
    },
    {
      "inputs": [],
      "name": "totalSupply",
      "outputs": [
        {
          "internalType": "uint256",
          "name": "",
          "type": "uint256"
        }
      ],
      "stateMutability": "pure",
      "type": "function"
    },
    {
      "inputs": [
        {
          "internalType": "address",
          "name": "from",
          "type": "address"
        },
        {
          "internalType": "address",
          "name": "to",
          "type": "address"
        },
        {
          "internalType": "uint256",
          "name": "tokenId",
          "type": "uint256"
        }
      ],
      "name": "transferFrom",
      "outputs": [],
      "stateMutability": "nonpayable",
      "type": "function"
    },
    {
      "inputs": [
        {
          "internalType": "string",
          "name": "text",
          "type": "string"
        },
        {
          "internalType": "string",
          "name": "color",
          "type": "string"
        },
        {
          "internalType": "uint256",
          "name": "spacing",
          "type": "uint256"
        },
        {
          "internalType": "uint256",
          "name": "y",
          "type": "uint256"
        }
      ],
      "name": "write",
      "outputs": [
        {
          "internalType": "string",
          "name": "",
          "type": "string"
        }
      ],
      "stateMutability": "view",
      "type": "function"
    }
  ],
  "bytecode": "0x60806040523480156200001157600080fd5b506040518060400160405280600581526020017f436c6f636b0000000000000000000000000000000000000000000000000000008152506040518060400160405280600481526020017f434c434b0000000000000000000000000000000000000000000000000000000081525081600090805190602001906200009692919062002038565b508060019080519060200190620000af92919062002038565b50505060405180608001604052806044815260200162007aef604491396006604051620000dc9062002ec2565b90815260200160405180910390209080519060200190620000ff92919062002038565b5060405180606001604052806021815260200162007ded6021913960066040516200012a90620033ca565b908152602001604051809103902090805190602001906200014d92919062002038565b5060405180608001604052806041815260200162007bcd604191396006604051620001789062003357565b908152602001604051809103902090805190602001906200019b92919062002038565b5060405180608001604052806043815260200162007e0e604391396006604051620001c69062002f7a565b90815260200160405180910390209080519060200190620001e992919062002038565b506040518060600160405280603b815260200162007c68603b91396006604051620002149062002f1e565b908152602001604051809103902090805190602001906200023792919062002038565b5060405180606001604052806038815260200162007cd66038913960066040516200026290620033f8565b908152602001604051809103902090805190602001906200028592919062002038565b506040518060800160405280604f8152602001620085b6604f91396006604051620002b09062003482565b90815260200160405180910390209080519060200190620002d392919062002038565b5060405180606001604052806027815260200162007e8c602791396006604051620002fe906200308e565b908152602001604051809103902090805190602001906200032192919062002038565b506040518060800160405280605f815260200162007d58605f913960066040516200034c9062003499565b908152602001604051809103902090805190602001906200036f92919062002038565b506040518060800160405280604a815260200162007d0e604a913960066040516200039a906200343d565b90815260200160405180910390209080519060200190620003bd92919062002038565b50604051806060016040528060408152602001620081d3604091396006604051620003e89062002eab565b908152602001604051809103902090805190602001906200040b92919062002038565b5060405180608001604052806043815260200162008289604391396006604051620004369062002f4c565b908152602001604051809103902090805190602001906200045992919062002038565b506040518060600160405280602b815260200162007c0e602b91396006604051620004849062002e94565b90815260200160405180910390209080519060200190620004a792919062002038565b506040518060600160405280603681526020016200843c603691396006604051620004d29062003146565b90815260200160405180910390209080519060200190620004f592919062002038565b5060405180606001604052806035815260200162007b98603591396006604051620005209062003060565b908152602001604051809103902090805190602001906200054392919062002038565b506040518060600160405280602f81526020016200852e602f913960066040516200056e90620034b0565b908152602001604051809103902090805190602001906200059192919062002038565b50604051806060016040528060338152602001620080aa603391396006604051620005bc9062002ef0565b90815260200160405180910390209080519060200190620005df92919062002038565b506040518060600160405280602f815260200162007c39602f913960066040516200060a9062002f91565b908152602001604051809103902090805190602001906200062d92919062002038565b506040518060600160405280603581526020016200831460359139600660405162000658906200325a565b908152602001604051809103902090805190602001906200067b92919062002038565b5060405180606001604052806033815260200162007ca3603391396006604051620006a69062003271565b90815260200160405180910390209080519060200190620006c992919062002038565b506040518060600160405280603b815260200162007ef7603b91396006604051620006f49062003288565b908152602001604051809103902090805190602001906200071792919062002038565b5060405180606001604052806021815260200162007ffe60219139600660405162000742906200322c565b908152602001604051809103902090805190602001906200076592919062002038565b506040518060800160405280605781526020016200801f6057913960066040516200079090620031e7565b90815260200160405180910390209080519060200190620007b392919062002038565b50604051806080016040528060438152602001620083a6604391396006604051620007de90620031b9565b908152602001604051809103902090805190602001906200080192919062002038565b5060405180606001604052806036815260200162007db76036913960066040516200082c90620033b3565b908152602001604051809103902090805190602001906200084f92919062002038565b50604051806080016040528060428152602001620084726042913960066040516200087a90620031a2565b908152602001604051809103902090805190602001906200089d92919062002038565b506040518060600160405280603a815260200162007a62603a91396006604051620008c89062003568565b90815260200160405180910390209080519060200190620008eb92919062002038565b506040518060800160405280604a81526020016200823f604a913960066040516200091690620034de565b908152602001604051809103902090805190602001906200093992919062002038565b5060405180608001604052806047815260200162008640604791396006604051620009649062003329565b908152602001604051809103902090805190602001906200098792919062002038565b506040518060600160405280602f815260200162007fcf602f91396006604051620009b29062003215565b90815260200160405180910390209080519060200190620009d592919062002038565b506040518060600160405280603181526020016200868760319139600660405162000a009062002fd6565b9081526020016040518091039020908051906020019062000a2392919062002038565b506040518060600160405280603b815260200162008605603b9139600660405162000a4e906200350c565b9081526020016040518091039020908051906020019062000a7192919062002038565b506040518060800160405280605d815260200162008349605d9139600660405162000a9c9062003426565b9081526020016040518091039020908051906020019062000abf92919062002038565b50604051806080016040528060538152602001620083e960539139600660405162000aea90620030bc565b9081526020016040518091039020908051906020019062000b0d92919062002038565b506040518060600160405280603b815260200162007b33603b9139600660405162000b3890620032b6565b9081526020016040518091039020908051906020019062000b5b92919062002038565b50604051806080016040528060538152602001620080dd60539139600660405162000b8690620031d0565b9081526020016040518091039020908051906020019062000ba992919062002038565b50600660405162000bba9062002eab565b9081526020016040518091039020600660405162000bd89062002fed565b908152602001604051809103902090805462000bf4906200376e565b62000c01929190620020c9565b50600660405162000c129062002f4c565b9081526020016040518091039020600660405162000c30906200339c565b908152602001604051809103902090805462000c4c906200376e565b62000c59929190620020c9565b50600660405162000c6a9062002e94565b9081526020016040518091039020600660405162000c889062002f07565b908152602001604051809103902090805462000ca4906200376e565b62000cb1929190620020c9565b50600660405162000cc29062003146565b9081526020016040518091039020600660405162000ce09062003523565b908152602001604051809103902090805462000cfc906200376e565b62000d09929190620020c9565b50600660405162000d1a9062003060565b9081526020016040518091039020600660405162000d389062003312565b908152602001604051809103902090805462000d54906200376e565b62000d61929190620020c9565b50600660405162000d7290620034b0565b9081526020016040518091039020600660405162000d90906200340f565b908152602001604051809103902090805462000dac906200376e565b62000db9929190620020c9565b50600660405162000dca9062002ef0565b9081526020016040518091039020600660405162000de89062002f35565b908152602001604051809103902090805462000e04906200376e565b62000e11929190620020c9565b50600660405162000e229062002f91565b9081526020016040518091039020600660405162000e4090620032fb565b908152602001604051809103902090805462000e5c906200376e565b62000e69929190620020c9565b50600660405162000e7a906200325a565b9081526020016040518091039020600660405162000e9890620034c7565b908152602001604051809103902090805462000eb4906200376e565b62000ec1929190620020c9565b50600660405162000ed29062003271565b9081526020016040518091039020600660405162000ef09062003385565b908152602001604051809103902090805462000f0c906200376e565b62000f19929190620020c9565b50600660405162000f2a9062003288565b9081526020016040518091039020600660405162000f489062003551565b908152602001604051809103902090805462000f64906200376e565b62000f71929190620020c9565b50600660405162000f82906200322c565b9081526020016040518091039020600660405162000fa0906200312f565b908152602001604051809103902090805462000fbc906200376e565b62000fc9929190620020c9565b50600660405162000fda90620031e7565b9081526020016040518091039020600660405162000ff8906200346b565b908152602001604051809103902090805462001014906200376e565b62001021929190620020c9565b5060066040516200103290620031b9565b90815260200160405180910390206006604051620010509062003077565b90815260200160405180910390209080546200106c906200376e565b62001079929190620020c9565b5060066040516200108a90620033b3565b90815260200160405180910390206006604051620010a890620030a5565b9081526020016040518091039020908054620010c4906200376e565b620010d1929190620020c9565b506006604051620010e290620031a2565b90815260200160405180910390206006604051620011009062002f63565b90815260200160405180910390209080546200111c906200376e565b62001129929190620020c9565b5060066040516200113a9062003568565b9081526020016040518091039020600660405162001158906200301b565b908152602001604051809103902090805462001174906200376e565b62001181929190620020c9565b5060066040516200119290620034de565b90815260200160405180910390206006604051620011b09062003032565b9081526020016040518091039020908054620011cc906200376e565b620011d9929190620020c9565b506006604051620011ea9062003329565b908152602001604051809103902060066040516200120890620030ea565b908152602001604051809103902090805462001224906200376e565b62001231929190620020c9565b506006604051620012429062003215565b908152602001604051809103902060066040516200126090620033e1565b90815260200160405180910390209080546200127c906200376e565b62001289929190620020c9565b5060066040516200129a9062002fd6565b90815260200160405180910390206006604051620012b89062002fbf565b9081526020016040518091039020908054620012d4906200376e565b620012e1929190620020c9565b506006604051620012f2906200350c565b908152602001604051809103902060066040516200131090620032e4565b90815260200160405180910390209080546200132c906200376e565b62001339929190620020c9565b5060066040516200134a9062003426565b90815260200160405180910390206006604051620013689062002e7d565b908152602001604051809103902090805462001384906200376e565b62001391929190620020c9565b506006604051620013a290620030bc565b90815260200160405180910390206006604051620013c0906200318b565b9081526020016040518091039020908054620013dc906200376e565b620013e9929190620020c9565b506006604051620013fa90620032b6565b908152602001604051809103902060066040516200141890620031fe565b908152602001604051809103902090805462001434906200376e565b62001441929190620020c9565b5060066040516200145290620031d0565b90815260200160405180910390206006604051620014709062003049565b90815260200160405180910390209080546200148c906200376e565b62001499929190620020c9565b5060405180608001604052806053815260200162007a9c605391396006604051620014c49062002ed9565b90815260200160405180910390209080519060200190620014e792919062002038565b506040518060600160405280602c815260200162008213602c9139600660405162001512906200353a565b908152602001604051809103902090805190602001906200153592919062002038565b506040518060a00160405280607581526020016200815e607591396006604051620015609062003243565b908152602001604051809103902090805190602001906200158392919062002038565b506040518060800160405280605981526020016200855d605991396006604051620015ae90620034f5565b90815260200160405180910390209080519060200190620015d192919062002038565b50604051806080016040528060488152602001620082cc604891396006604051620015fc9062003004565b908152602001604051809103902090805190602001906200161f92919062002038565b5060405180608001604052806044815260200162007eb36044913960066040516200164a906200315d565b908152602001604051809103902090805190602001906200166d92919062002038565b506040518060600160405280602e815260200162008130602e9139600660405162001698906200329f565b90815260200160405180910390209080519060200190620016bb92919062002038565b506040518060600160405280603b815260200162007e51603b91396006604051620016e69062003118565b908152602001604051809103902090805190602001906200170992919062002038565b506040518060600160405280602a815260200162007b6e602a91396006604051620017349062002fa8565b908152602001604051809103902090805190602001906200175792919062002038565b50604051806060016040528060348152602001620080766034913960066040516200178290620030d3565b90815260200160405180910390209080519060200190620017a592919062002038565b506040518060600160405280603b815260200162007f32603b91396006604051620017d09062003174565b90815260200160405180910390209080519060200190620017f392919062002038565b506040518060400160405280601f81526020017f3c7061746820643d274d3020334c3020324c33203256334c3020335a272f3e0081525060066040516200183a9062003454565b908152602001604051809103902090805190602001906200185d92919062002038565b506040518060a00160405280607a8152602001620084b4607a9139600660405162001888906200336e565b90815260200160405180910390209080519060200190620018ab92919062002038565b506040518060a001604052806062815260200162007f6d606291396006604051620018d69062003340565b90815260200160405180910390209080519060200190620018f992919062002038565b506040518060200160405280600081525060066040516200191a9062003101565b908152602001604051809103902090805190602001906200193d92919062002038565b50600360076040516200195090620032cd565b90815260200160405180910390208190555060016007604051620019749062003101565b9081526020016040518091039020819055506001600760405162001998906200315d565b90815260200160405180910390208190555060016007604051620019bc906200329f565b90815260200160405180910390208190555060016007604051620019e09062002fa8565b9081526020016040518091039020819055506002600760405162001a049062003004565b9081526020016040518091039020819055506002600760405162001a289062003118565b9081526020016040518091039020819055506004600760405162001a4c90620031b9565b9081526020016040518091039020819055506004600760405162001a709062003077565b9081526020016040518091039020819055506005600760405162001a949062003340565b9081526020016040518091039020819055506005600760405162001ab890620031e7565b9081526020016040518091039020819055506005600760405162001adc906200346b565b9081526020016040518091039020819055506005600760405162001b009062003426565b9081526020016040518091039020819055506005600760405162001b249062002e7d565b90815260200160405180910390208190555062001b4933600162001b4f60201b60201c565b6200454c565b62001b7182826040518060200160405280600081525062001b7560201b60201c565b5050565b62001b87838362001be360201b60201c565b62001b9c600084848462001ddd60201b60201c565b62001bde576040517f08c379a000000000000000000000000000000000000000000000000000000000815260040162001bd590620035d3565b60405180910390fd5b505050565b600073ffffffffffffffffffffffffffffffffffffffff168273ffffffffffffffffffffffffffffffffffffffff16141562001c56576040517f08c379a000000000000000000000000000000000000000000000000000000000815260040162001c4d9062003617565b60405180910390fd5b62001c678162001f9760201b60201c565b1562001caa576040517f08c379a000000000000000000000000000000000000000000000000000000000815260040162001ca190620035f5565b60405180910390fd5b62001cbe600083836200200360201b60201c565b6001600360008473ffffffffffffffffffffffffffffffffffffffff1673ffffffffffffffffffffffffffffffffffffffff168152602001908152602001600020600082825462001d10919062003671565b92505081905550816002600083815260200190815260200160002060006101000a81548173ffffffffffffffffffffffffffffffffffffffff021916908373ffffffffffffffffffffffffffffffffffffffff160217905550808273ffffffffffffffffffffffffffffffffffffffff16600073ffffffffffffffffffffffffffffffffffffffff167fddf252ad1be2c89b69c2b068fc378daa952ba7f163c4a11628f55a4df523b3ef60405160405180910390a462001dd9600083836200200860201b60201c565b5050565b600062001e0b8473ffffffffffffffffffffffffffffffffffffffff166200200d60201b62000cac1760201c565b1562001f8a578373ffffffffffffffffffffffffffffffffffffffff1663150b7a0262001e3d6200203060201b60201c565b8786866040518563ffffffff1660e01b815260040162001e6194939291906200357f565b602060405180830381600087803b15801562001e7c57600080fd5b505af192505050801562001eb057506040513d601f19601f8201168201806040525081019062001ead919062002197565b60015b62001f39573d806000811462001ee3576040519150601f19603f3d011682016040523d82523d6000602084013e62001ee8565b606091505b5060008151141562001f31576040517f08c379a000000000000000000000000000000000000000000000000000000000815260040162001f2890620035d3565b60405180910390fd5b805181602001fd5b63150b7a0260e01b7bffffffffffffffffffffffffffffffffffffffffffffffffffffffff1916817bffffffffffffffffffffffffffffffffffffffffffffffffffffffff19161491505062001f8f565b600190505b949350505050565b60008073ffffffffffffffffffffffffffffffffffffffff166002600084815260200190815260200160002060009054906101000a900473ffffffffffffffffffffffffffffffffffffffff1673ffffffffffffffffffffffffffffffffffffffff1614159050919050565b505050565b505050565b6000808273ffffffffffffffffffffffffffffffffffffffff163b119050919050565b600033905090565b82805462002046906200376e565b90600052602060002090601f0160209004810192826200206a5760008555620020b6565b82601f106200208557805160ff1916838001178555620020b6565b82800160010185558215620020b6579182015b82811115620020b557825182559160200191906001019062002098565b5b509050620020c5919062002161565b5090565b828054620020d7906200376e565b90600052602060002090601f016020900481019282620020fb57600085556200214e565b82601f106200210e57805485556200214e565b828001600101855582156200214e57600052602060002091601f016020900482015b828111156200214d57825482559160010191906001019062002130565b5b5090506200215d919062002161565b5090565b5b808211156200217c57600081600090555060010162002162565b5090565b600081519050620021918162004532565b92915050565b600060208284031215620021aa57600080fd5b6000620021ba8482850162002180565b91505092915050565b620021ce81620036ce565b82525050565b6000620021e18262003639565b620021ed818562003644565b9350620021ff81856020860162003738565b6200220a8162003802565b840191505092915050565b60006200222460018362003666565b9150620022318262003813565b600182019050919050565b60006200224b60018362003666565b915062002258826200383c565b600182019050919050565b60006200227260018362003666565b91506200227f8262003865565b600182019050919050565b60006200229960018362003666565b9150620022a6826200388e565b600182019050919050565b6000620022c060018362003666565b9150620022cd82620038b7565b600182019050919050565b6000620022e760018362003666565b9150620022f482620038e0565b600182019050919050565b60006200230e60018362003666565b91506200231b8262003909565b600182019050919050565b60006200233560018362003666565b9150620023428262003932565b600182019050919050565b60006200235c60018362003666565b915062002369826200395b565b600182019050919050565b60006200238360328362003655565b9150620023908262003984565b604082019050919050565b6000620023aa60018362003666565b9150620023b782620039d3565b600182019050919050565b6000620023d160018362003666565b9150620023de82620039fc565b600182019050919050565b6000620023f8601c8362003655565b9150620024058262003a25565b602082019050919050565b60006200241f60018362003666565b91506200242c8262003a4e565b600182019050919050565b60006200244660018362003666565b9150620024538262003a77565b600182019050919050565b60006200246d60018362003666565b91506200247a8262003aa0565b600182019050919050565b60006200249460018362003666565b9150620024a18262003ac9565b600182019050919050565b6000620024bb60018362003666565b9150620024c88262003af2565b600182019050919050565b6000620024e260018362003666565b9150620024ef8262003b1b565b600182019050919050565b60006200250960018362003666565b9150620025168262003b44565b600182019050919050565b60006200253060018362003666565b91506200253d8262003b6d565b600182019050919050565b60006200255760018362003666565b9150620025648262003b96565b600182019050919050565b60006200257e60018362003666565b91506200258b8262003bbf565b600182019050919050565b6000620025a560018362003666565b9150620025b28262003be8565b600182019050919050565b6000620025cc60018362003666565b9150620025d98262003c11565b600182019050919050565b6000620025f360018362003666565b9150620026008262003c3a565b600182019050919050565b60006200261a60018362003666565b9150620026278262003c63565b600182019050919050565b60006200264160018362003666565b91506200264e8262003c8c565b600182019050919050565b60006200266860018362003666565b9150620026758262003cb5565b600182019050919050565b60006200268f60018362003666565b91506200269c8262003cde565b600182019050919050565b6000620026b660018362003666565b9150620026c38262003d07565b600182019050919050565b6000620026dd60018362003666565b9150620026ea8262003d30565b600182019050919050565b60006200270460018362003666565b9150620027118262003d59565b600182019050919050565b60006200272b60018362003666565b9150620027388262003d82565b600182019050919050565b60006200275260018362003666565b91506200275f8262003dab565b600182019050919050565b60006200277960018362003666565b9150620027868262003dd4565b600182019050919050565b6000620027a060018362003666565b9150620027ad8262003dfd565b600182019050919050565b6000620027c760018362003666565b9150620027d48262003e26565b600182019050919050565b6000620027ee60018362003666565b9150620027fb8262003e4f565b600182019050919050565b60006200281560018362003666565b9150620028228262003e78565b600182019050919050565b60006200283c60018362003666565b9150620028498262003ea1565b600182019050919050565b60006200286360018362003666565b9150620028708262003eca565b600182019050919050565b60006200288a60018362003666565b9150620028978262003ef3565b600182019050919050565b6000620028b160208362003655565b9150620028be8262003f1c565b602082019050919050565b6000620028d860018362003666565b9150620028e58262003f45565b600182019050919050565b6000620028ff60018362003666565b91506200290c8262003f6e565b600182019050919050565b60006200292660018362003666565b9150620029338262003f97565b600182019050919050565b60006200294d60018362003666565b91506200295a8262003fc0565b600182019050919050565b60006200297460018362003666565b9150620029818262003fe9565b600182019050919050565b60006200299b60018362003666565b9150620029a88262004012565b600182019050919050565b6000620029c260018362003666565b9150620029cf826200403b565b600182019050919050565b6000620029e960078362003666565b9150620029f68262004064565b600782019050919050565b600062002a1060018362003666565b915062002a1d826200408d565b600182019050919050565b600062002a3760018362003666565b915062002a4482620040b6565b600182019050919050565b600062002a5e60018362003666565b915062002a6b82620040df565b600182019050919050565b600062002a8560018362003666565b915062002a928262004108565b600182019050919050565b600062002aac60018362003666565b915062002ab98262004131565b600182019050919050565b600062002ad360018362003666565b915062002ae0826200415a565b600182019050919050565b600062002afa60018362003666565b915062002b078262004183565b600182019050919050565b600062002b2160018362003666565b915062002b2e82620041ac565b600182019050919050565b600062002b4860018362003666565b915062002b5582620041d5565b600182019050919050565b600062002b6f60018362003666565b915062002b7c82620041fe565b600182019050919050565b600062002b9660018362003666565b915062002ba38262004227565b600182019050919050565b600062002bbd60018362003666565b915062002bca8262004250565b600182019050919050565b600062002be460018362003666565b915062002bf18262004279565b600182019050919050565b600062002c0b60018362003666565b915062002c1882620042a2565b600182019050919050565b600062002c3260018362003666565b915062002c3f82620042cb565b600182019050919050565b600062002c5960018362003666565b915062002c6682620042f4565b600182019050919050565b600062002c8060018362003666565b915062002c8d826200431d565b600182019050919050565b600062002ca760018362003666565b915062002cb48262004346565b600182019050919050565b600062002cce60018362003666565b915062002cdb826200436f565b600182019050919050565b600062002cf560018362003666565b915062002d028262004398565b600182019050919050565b600062002d1c60018362003666565b915062002d2982620043c1565b600182019050919050565b600062002d4360018362003666565b915062002d5082620043ea565b600182019050919050565b600062002d6a60018362003666565b915062002d778262004413565b600182019050919050565b600062002d9160018362003666565b915062002d9e826200443c565b600182019050919050565b600062002db860018362003666565b915062002dc58262004465565b600182019050919050565b600062002ddf60018362003666565b915062002dec826200448e565b600182019050919050565b600062002e0660018362003666565b915062002e1382620044b7565b600182019050919050565b600062002e2d60018362003666565b915062002e3a82620044e0565b600182019050919050565b600062002e5460018362003666565b915062002e618262004509565b600182019050919050565b62002e77816200372e565b82525050565b600062002e8a8262002215565b9150819050919050565b600062002ea1826200223c565b9150819050919050565b600062002eb88262002263565b9150819050919050565b600062002ecf826200228a565b9150819050919050565b600062002ee682620022b1565b9150819050919050565b600062002efd82620022d8565b9150819050919050565b600062002f1482620022ff565b9150819050919050565b600062002f2b8262002326565b9150819050919050565b600062002f42826200234d565b9150819050919050565b600062002f59826200239b565b9150819050919050565b600062002f7082620023c2565b9150819050919050565b600062002f878262002410565b9150819050919050565b600062002f9e8262002437565b9150819050919050565b600062002fb5826200245e565b9150819050919050565b600062002fcc8262002485565b9150819050919050565b600062002fe382620024ac565b9150819050919050565b600062002ffa82620024d3565b9150819050919050565b60006200301182620024fa565b9150819050919050565b6000620030288262002521565b9150819050919050565b60006200303f8262002548565b9150819050919050565b600062003056826200256f565b9150819050919050565b60006200306d8262002596565b9150819050919050565b60006200308482620025bd565b9150819050919050565b60006200309b82620025e4565b9150819050919050565b6000620030b2826200260b565b9150819050919050565b6000620030c98262002632565b9150819050919050565b6000620030e08262002659565b9150819050919050565b6000620030f78262002680565b9150819050919050565b60006200310e82620026a7565b9150819050919050565b60006200312582620026ce565b9150819050919050565b60006200313c82620026f5565b9150819050919050565b600062003153826200271c565b9150819050919050565b60006200316a8262002743565b9150819050919050565b600062003181826200276a565b9150819050919050565b6000620031988262002791565b9150819050919050565b6000620031af82620027b8565b9150819050919050565b6000620031c682620027df565b9150819050919050565b6000620031dd8262002806565b9150819050919050565b6000620031f4826200282d565b9150819050919050565b60006200320b8262002854565b9150819050919050565b600062003222826200287b565b9150819050919050565b60006200323982620028c9565b9150819050919050565b60006200325082620028f0565b9150819050919050565b6000620032678262002917565b9150819050919050565b60006200327e826200293e565b9150819050919050565b6000620032958262002965565b9150819050919050565b6000620032ac826200298c565b9150819050919050565b6000620032c382620029b3565b9150819050919050565b6000620032da82620029da565b9150819050919050565b6000620032f18262002a01565b9150819050919050565b6000620033088262002a28565b9150819050919050565b60006200331f8262002a4f565b9150819050919050565b6000620033368262002a76565b9150819050919050565b60006200334d8262002a9d565b9150819050919050565b6000620033648262002ac4565b9150819050919050565b60006200337b8262002aeb565b9150819050919050565b6000620033928262002b12565b9150819050919050565b6000620033a98262002b39565b9150819050919050565b6000620033c08262002b60565b9150819050919050565b6000620033d78262002b87565b9150819050919050565b6000620033ee8262002bae565b9150819050919050565b6000620034058262002bd5565b9150819050919050565b60006200341c8262002bfc565b9150819050919050565b6000620034338262002c23565b9150819050919050565b60006200344a8262002c4a565b9150819050919050565b6000620034618262002c71565b9150819050919050565b6000620034788262002c98565b9150819050919050565b60006200348f8262002cbf565b9150819050919050565b6000620034a68262002ce6565b9150819050919050565b6000620034bd8262002d0d565b9150819050919050565b6000620034d48262002d34565b9150819050919050565b6000620034eb8262002d5b565b9150819050919050565b6000620035028262002d82565b9150819050919050565b6000620035198262002da9565b9150819050919050565b6000620035308262002dd0565b9150819050919050565b6000620035478262002df7565b9150819050919050565b60006200355e8262002e1e565b9150819050919050565b6000620035758262002e45565b9150819050919050565b6000608082019050620035966000830187620021c3565b620035a56020830186620021c3565b620035b4604083018562002e6c565b8181036060830152620035c88184620021d4565b905095945050505050565b60006020820190508181036000830152620035ee8162002374565b9050919050565b600060208201905081810360008301526200361081620023e9565b9050919050565b600060208201905081810360008301526200363281620028a2565b9050919050565b600081519050919050565b600082825260208201905092915050565b600082825260208201905092915050565b600081905092915050565b60006200367e826200372e565b91506200368b836200372e565b9250827fffffffffffffffffffffffffffffffffffffffffffffffffffffffffffffffff03821115620036c357620036c2620037a4565b5b828201905092915050565b6000620036db826200370e565b9050919050565b60007fffffffff0000000000000000000000000000000000000000000000000000000082169050919050565b600073ffffffffffffffffffffffffffffffffffffffff82169050919050565b6000819050919050565b60005b83811015620037585780820151818401526020810190506200373b565b8381111562003768576000848401525b50505050565b600060028204905060018216806200378757607f821691505b602082108114156200379e576200379d620037d3565b5b50919050565b7f4e487b7100000000000000000000000000000000000000000000000000000000600052601160045260246000fd5b7f4e487b7100000000000000000000000000000000000000000000000000000000600052602260045260246000fd5b6000601f19601f8301169050919050565b7f7700000000000000000000000000000000000000000000000000000000000000600082015250565b7f4300000000000000000000000000000000000000000000000000000000000000600082015250565b7f4100000000000000000000000000000000000000000000000000000000000000600082015250565b7f3000000000000000000000000000000000000000000000000000000000000000600082015250565b7f2a00000000000000000000000000000000000000000000000000000000000000600082015250565b7f4700000000000000000000000000000000000000000000000000000000000000600082015250565b7f6300000000000000000000000000000000000000000000000000000000000000600082015250565b7f3400000000000000000000000000000000000000000000000000000000000000600082015250565b7f6700000000000000000000000000000000000000000000000000000000000000600082015250565b7f4552433732313a207472616e7366657220746f206e6f6e20455243373231526560008201527f63656976657220696d706c656d656e7465720000000000000000000000000000602082015250565b7f4200000000000000000000000000000000000000000000000000000000000000600082015250565b7f7000000000000000000000000000000000000000000000000000000000000000600082015250565b7f4552433732313a20746f6b656e20616c7265616479206d696e74656400000000600082015250565b7f3300000000000000000000000000000000000000000000000000000000000000600082015250565b7f4800000000000000000000000000000000000000000000000000000000000000600082015250565b7f2100000000000000000000000000000000000000000000000000000000000000600082015250565b7f7500000000000000000000000000000000000000000000000000000000000000600082015250565b7f5500000000000000000000000000000000000000000000000000000000000000600082015250565b7f6100000000000000000000000000000000000000000000000000000000000000600082015250565b7f2c00000000000000000000000000000000000000000000000000000000000000600082015250565b7f7100000000000000000000000000000000000000000000000000000000000000600082015250565b7f7200000000000000000000000000000000000000000000000000000000000000600082015250565b7f7a00000000000000000000000000000000000000000000000000000000000000600082015250565b7f4500000000000000000000000000000000000000000000000000000000000000600082015250565b7f6e00000000000000000000000000000000000000000000000000000000000000600082015250565b7f3700000000000000000000000000000000000000000000000000000000000000600082015250565b7f6f00000000000000000000000000000000000000000000000000000000000000600082015250565b7f5800000000000000000000000000000000000000000000000000000000000000600082015250565b7f3f00000000000000000000000000000000000000000000000000000000000000600082015250565b7f7300000000000000000000000000000000000000000000000000000000000000600082015250565b7f2000000000000000000000000000000000000000000000000000000000000000600082015250565b7f3b00000000000000000000000000000000000000000000000000000000000000600082015250565b7f6c00000000000000000000000000000000000000000000000000000000000000600082015250565b7f4400000000000000000000000000000000000000000000000000000000000000600082015250565b7f2e00000000000000000000000000000000000000000000000000000000000000600082015250565b7f2b00000000000000000000000000000000000000000000000000000000000000600082015250565b7f7800000000000000000000000000000000000000000000000000000000000000600082015250565b7f5000000000000000000000000000000000000000000000000000000000000000600082015250565b7f4e00000000000000000000000000000000000000000000000000000000000000600082015250565b7f5a00000000000000000000000000000000000000000000000000000000000000600082015250565b7f4d00000000000000000000000000000000000000000000000000000000000000600082015250565b7f7900000000000000000000000000000000000000000000000000000000000000600082015250565b7f5400000000000000000000000000000000000000000000000000000000000000600082015250565b7f4552433732313a206d696e7420746f20746865207a65726f2061646472657373600082015250565b7f4c00000000000000000000000000000000000000000000000000000000000000600082015250565b7f3c00000000000000000000000000000000000000000000000000000000000000600082015250565b7f4900000000000000000000000000000000000000000000000000000000000000600082015250565b7f4a00000000000000000000000000000000000000000000000000000000000000600082015250565b7f4b00000000000000000000000000000000000000000000000000000000000000600082015250565b7f3a00000000000000000000000000000000000000000000000000000000000000600082015250565b7f5900000000000000000000000000000000000000000000000000000000000000600082015250565b7f44454641554c5400000000000000000000000000000000000000000000000000600082015250565b7f7600000000000000000000000000000000000000000000000000000000000000600082015250565b7f6800000000000000000000000000000000000000000000000000000000000000600082015250565b7f6500000000000000000000000000000000000000000000000000000000000000600082015250565b7f5300000000000000000000000000000000000000000000000000000000000000600082015250565b7f2300000000000000000000000000000000000000000000000000000000000000600082015250565b7f3200000000000000000000000000000000000000000000000000000000000000600082015250565b7f2400000000000000000000000000000000000000000000000000000000000000600082015250565b7f6a00000000000000000000000000000000000000000000000000000000000000600082015250565b7f6200000000000000000000000000000000000000000000000000000000000000600082015250565b7f4f00000000000000000000000000000000000000000000000000000000000000600082015250565b7f3100000000000000000000000000000000000000000000000000000000000000600082015250565b7f7400000000000000000000000000000000000000000000000000000000000000600082015250565b7f3500000000000000000000000000000000000000000000000000000000000000600082015250565b7f6600000000000000000000000000000000000000000000000000000000000000600082015250565b7f5700000000000000000000000000000000000000000000000000000000000000600082015250565b7f3900000000000000000000000000000000000000000000000000000000000000600082015250565b7f2d00000000000000000000000000000000000000000000000000000000000000600082015250565b7f6d00000000000000000000000000000000000000000000000000000000000000600082015250565b7f3600000000000000000000000000000000000000000000000000000000000000600082015250565b7f3800000000000000000000000000000000000000000000000000000000000000600082015250565b7f4600000000000000000000000000000000000000000000000000000000000000600082015250565b7f6900000000000000000000000000000000000000000000000000000000000000600082015250565b7f5200000000000000000000000000000000000000000000000000000000000000600082015250565b7f3e00000000000000000000000000000000000000000000000000000000000000600082015250565b7f5600000000000000000000000000000000000000000000000000000000000000600082015250565b7f6400000000000000000000000000000000000000000000000000000000000000600082015250565b7f3d00000000000000000000000000000000000000000000000000000000000000600082015250565b7f6b00000000000000000000000000000000000000000000000000000000000000600082015250565b7f5100000000000000000000000000000000000000000000000000000000000000600082015250565b6200453d81620036e2565b81146200454957600080fd5b50565b613506806200455c6000396000f3fe608060405234801561001057600080fd5b50600436106100f55760003560e01c80636352211e11610097578063a22cb46511610066578063a22cb46514610298578063b88d4fde146102b4578063c87b56dd146102d0578063e985e9c514610300576100f5565b80636352211e146101ea578063671639c11461021a57806370a082311461024a57806395d89b411461027a576100f5565b8063095ea7b3116100d3578063095ea7b31461017857806318160ddd1461019457806323b872dd146101b257806342842e0e146101ce576100f5565b806301ffc9a7146100fa57806306fdde031461012a578063081812fc14610148575b600080fd5b610114600480360381019061010f9190611c5d565b610330565b60405161012191906123ce565b60405180910390f35b610132610412565b60405161013f91906123e9565b60405180910390f35b610162600480360381019061015d9190611d42565b6104a4565b60405161016f9190612367565b60405180910390f35b610192600480360381019061018d9190611c21565b610529565b005b61019c610641565b6040516101a9919061258b565b60405180910390f35b6101cc60048036038101906101c79190611b1b565b61064a565b005b6101e860048036038101906101e39190611b1b565b6106aa565b005b61020460048036038101906101ff9190611d42565b6106ca565b6040516102119190612367565b60405180910390f35b610234600480360381019061022f9190611caf565b61077c565b60405161024191906123e9565b60405180910390f35b610264600480360381019061025f9190611ab6565b61099c565b604051610271919061258b565b60405180910390f35b610282610a54565b60405161028f91906123e9565b60405180910390f35b6102b260048036038101906102ad9190611be5565b610ae6565b005b6102ce60048036038101906102c99190611b6a565b610afc565b005b6102ea60048036038101906102e59190611d42565b610b5e565b6040516102f791906123e9565b60405180910390f35b61031a60048036038101906103159190611adf565b610c18565b60405161032791906123ce565b60405180910390f35b60007f80ac58cd000000000000000000000000000000000000000000000000000000007bffffffffffffffffffffffffffffffffffffffffffffffffffffffff1916827bffffffffffffffffffffffffffffffffffffffffffffffffffffffff191614806103fb57507f5b5e139f000000000000000000000000000000000000000000000000000000007bffffffffffffffffffffffffffffffffffffffffffffffffffffffff1916827bffffffffffffffffffffffffffffffffffffffffffffffffffffffff1916145b8061040b575061040a82610ccf565b5b9050919050565b6060600080546104219061283b565b80601f016020809104026020016040519081016040528092919081815260200182805461044d9061283b565b801561049a5780601f1061046f5761010080835404028352916020019161049a565b820191906000526020600020905b81548152906001019060200180831161047d57829003601f168201915b5050505050905090565b60006104af82610d39565b6104ee576040517f08c379a00000000000000000000000000000000000000000000000000000000081526004016104e59061252b565b60405180910390fd5b6004600083815260200190815260200160002060009054906101000a900473ffffffffffffffffffffffffffffffffffffffff169050919050565b6000610534826106ca565b90508073ffffffffffffffffffffffffffffffffffffffff168373ffffffffffffffffffffffffffffffffffffffff1614156105a5576040517f08c379a000000000000000000000000000000000000000000000000000000000815260040161059c9061254b565b60405180910390fd5b8073ffffffffffffffffffffffffffffffffffffffff166105c4610da5565b73ffffffffffffffffffffffffffffffffffffffff1614806105f357506105f2816105ed610da5565b610c18565b5b610632576040517f08c379a0000000000000000000000000000000000000000000000000000000008152600401610629906124ab565b60405180910390fd5b61063c8383610dad565b505050565b60006001905090565b61065b610655610da5565b82610e66565b61069a576040517f08c379a00000000000000000000000000000000000000000000000000000000081526004016106919061256b565b60405180910390fd5b6106a5838383610f44565b505050565b6106c583838360405180602001604052806000815250610afc565b505050565b6000806002600084815260200190815260200160002060009054906101000a900473ffffffffffffffffffffffffffffffffffffffff169050600073ffffffffffffffffffffffffffffffffffffffff168173ffffffffffffffffffffffffffffffffffffffff161415610773576040517f08c379a000000000000000000000000000000000000000000000000000000000815260040161076a906124eb565b60405180910390fd5b80915050919050565b606060008060405180602001604052806000815250905060005b87518110156109335760006107ab89836111ab565b905060006006826040516107bf91906121ec565b908152602001604051809103902080546107d89061283b565b80601f01602080910402602001604051908101604052809291908181526020018280546108049061283b565b80156108515780601f1061082657610100808354040283529160200191610851565b820191906000526020600020905b81548152906001019060200180831161083457829003601f168201915b5050505050905060008060078460405161086b91906121ec565b90815260200160405180910390205414156108a257600760405161088e90612255565b9081526020016040518091039020546108c2565b6007836040516108b291906121ec565b9081526020016040518091039020545b905060008251116108d557505050610920565b846108df876112dc565b836040516020016108f293929190612203565b60405160208183030381529060405294508881876109109190612670565b61091a9190612670565b95505050505b808061092b9061289e565b915050610796565b50600060028361094391906126c6565b606461094f9190612751565b9050600061095c826112dc565b610965876112dc565b898b8660405160200161097c9594939291906122da565b604051602081830303815290604052905080945050505050949350505050565b60008073ffffffffffffffffffffffffffffffffffffffff168273ffffffffffffffffffffffffffffffffffffffff161415610a0d576040517f08c379a0000000000000000000000000000000000000000000000000000000008152600401610a04906124cb565b60405180910390fd5b600360008373ffffffffffffffffffffffffffffffffffffffff1673ffffffffffffffffffffffffffffffffffffffff168152602001908152602001600020549050919050565b606060018054610a639061283b565b80601f0160208091040260200160405190810160405280929190818152602001828054610a8f9061283b565b8015610adc5780601f10610ab157610100808354040283529160200191610adc565b820191906000526020600020905b815481529060010190602001808311610abf57829003601f168201915b5050505050905090565b610af8610af1610da5565b8383611489565b5050565b610b0d610b07610da5565b83610e66565b610b4c576040517f08c379a0000000000000000000000000000000000000000000000000000000008152600401610b439061256b565b60405180910390fd5b610b58848484846115f6565b50505050565b606060018214610ba3576040517f08c379a0000000000000000000000000000000000000000000000000000000008152600401610b9a9061250b565b60405180910390fd5b600060405180610440016040528061040e81526020016130c361040e91399050600081604051602001610bd6919061226a565b6040516020818303038152906040529050610bf081611652565b604051602001610c0091906122b8565b60405160208183030381529060405292505050919050565b6000600560008473ffffffffffffffffffffffffffffffffffffffff1673ffffffffffffffffffffffffffffffffffffffff16815260200190815260200160002060008373ffffffffffffffffffffffffffffffffffffffff1673ffffffffffffffffffffffffffffffffffffffff16815260200190815260200160002060009054906101000a900460ff16905092915050565b6000808273ffffffffffffffffffffffffffffffffffffffff163b119050919050565b60007f01ffc9a7000000000000000000000000000000000000000000000000000000007bffffffffffffffffffffffffffffffffffffffffffffffffffffffff1916827bffffffffffffffffffffffffffffffffffffffffffffffffffffffff1916149050919050565b60008073ffffffffffffffffffffffffffffffffffffffff166002600084815260200190815260200160002060009054906101000a900473ffffffffffffffffffffffffffffffffffffffff1673ffffffffffffffffffffffffffffffffffffffff1614159050919050565b600033905090565b816004600083815260200190815260200160002060006101000a81548173ffffffffffffffffffffffffffffffffffffffff021916908373ffffffffffffffffffffffffffffffffffffffff160217905550808273ffffffffffffffffffffffffffffffffffffffff16610e20836106ca565b73ffffffffffffffffffffffffffffffffffffffff167f8c5be1e5ebec7d5bd14f71427d1e84f3dd0314c0f7b2291e5b200ac8c7c3b92560405160405180910390a45050565b6000610e7182610d39565b610eb0576040517f08c379a0000000000000000000000000000000000000000000000000000000008152600401610ea79061248b565b60405180910390fd5b6000610ebb836106ca565b90508073ffffffffffffffffffffffffffffffffffffffff168473ffffffffffffffffffffffffffffffffffffffff161480610f2a57508373ffffffffffffffffffffffffffffffffffffffff16610f12846104a4565b73ffffffffffffffffffffffffffffffffffffffff16145b80610f3b5750610f3a8185610c18565b5b91505092915050565b8273ffffffffffffffffffffffffffffffffffffffff16610f64826106ca565b73ffffffffffffffffffffffffffffffffffffffff1614610fba576040517f08c379a0000000000000000000000000000000000000000000000000000000008152600401610fb19061242b565b60405180910390fd5b600073ffffffffffffffffffffffffffffffffffffffff168273ffffffffffffffffffffffffffffffffffffffff16141561102a576040517f08c379a00000000000000000000000000000000000000000000000000000000081526004016110219061244b565b60405180910390fd5b6110358383836117dc565b611040600082610dad565b6001600360008573ffffffffffffffffffffffffffffffffffffffff1673ffffffffffffffffffffffffffffffffffffffff16815260200190815260200160002060008282546110909190612751565b925050819055506001600360008473ffffffffffffffffffffffffffffffffffffffff1673ffffffffffffffffffffffffffffffffffffffff16815260200190815260200160002060008282546110e79190612670565b92505081905550816002600083815260200190815260200160002060006101000a81548173ffffffffffffffffffffffffffffffffffffffff021916908373ffffffffffffffffffffffffffffffffffffffff160217905550808273ffffffffffffffffffffffffffffffffffffffff168473ffffffffffffffffffffffffffffffffffffffff167fddf252ad1be2c89b69c2b068fc378daa952ba7f163c4a11628f55a4df523b3ef60405160405180910390a46111a68383836117e1565b505050565b60606000600167ffffffffffffffff8111156111f0577f4e487b7100000000000000000000000000000000000000000000000000000000600052604160045260246000fd5b6040519080825280601f01601f1916602001820160405280156112225781602001600182028036833780820191505090505b50905083838151811061125e577f4e487b7100000000000000000000000000000000000000000000000000000000600052603260045260246000fd5b602001015160f81c60f81b816000815181106112a3577f4e487b7100000000000000000000000000000000000000000000000000000000600052603260045260246000fd5b60200101907effffffffffffffffffffffffffffffffffffffffffffffffffffffffffffff1916908160001a9053508091505092915050565b60606000821415611324576040518060400160405280600181526020017f30000000000000000000000000000000000000000000000000000000000000008152509050611484565b600082905060005b6000821461135657808061133f9061289e565b915050600a8261134f91906126c6565b915061132c565b60008167ffffffffffffffff811115611398577f4e487b7100000000000000000000000000000000000000000000000000000000600052604160045260246000fd5b6040519080825280601f01601f1916602001820160405280156113ca5781602001600182028036833780820191505090505b5090505b6000851461147d576001826113e39190612751565b9150600a856113f291906128e7565b60306113fe9190612670565b60f81b81838151811061143a577f4e487b7100000000000000000000000000000000000000000000000000000000600052603260045260246000fd5b60200101907effffffffffffffffffffffffffffffffffffffffffffffffffffffffffffff1916908160001a905350600a8561147691906126c6565b94506113ce565b8093505050505b919050565b8173ffffffffffffffffffffffffffffffffffffffff168373ffffffffffffffffffffffffffffffffffffffff1614156114f8576040517f08c379a00000000000000000000000000000000000000000000000000000000081526004016114ef9061246b565b60405180910390fd5b80600560008573ffffffffffffffffffffffffffffffffffffffff1673ffffffffffffffffffffffffffffffffffffffff16815260200190815260200160002060008473ffffffffffffffffffffffffffffffffffffffff1673ffffffffffffffffffffffffffffffffffffffff16815260200190815260200160002060006101000a81548160ff0219169083151502179055508173ffffffffffffffffffffffffffffffffffffffff168373ffffffffffffffffffffffffffffffffffffffff167f17307eab39ab6107e8899845ad3d59bd9653f200f220920489ca2b5937696c31836040516115e991906123ce565b60405180910390a3505050565b611601848484610f44565b61160d848484846117e6565b61164c576040517f08c379a00000000000000000000000000000000000000000000000000000000081526004016116439061240b565b60405180910390fd5b50505050565b6060600082511415611675576040518060200160405280600081525090506117d7565b600060405180606001604052806040815260200161308360409139905060006003600285516116a49190612670565b6116ae91906126c6565b60046116ba91906126f7565b67ffffffffffffffff8111156116f9577f4e487b7100000000000000000000000000000000000000000000000000000000600052604160045260246000fd5b6040519080825280601f01601f19166020018201604052801561172b5781602001600182028036833780820191505090505b509050600182016020820185865187015b80821015611797576003820191508151603f8160121c168501518453600184019350603f81600c1c168501518453600184019350603f8160061c168501518453600184019350603f811685015184536001840193505061173c565b50506003865106600181146117b357600281146117c6576117ce565b603d6001830353603d60028303536117ce565b603d60018303535b50505080925050505b919050565b505050565b505050565b60006118078473ffffffffffffffffffffffffffffffffffffffff16610cac565b15611970578373ffffffffffffffffffffffffffffffffffffffff1663150b7a02611830610da5565b8786866040518563ffffffff1660e01b81526004016118529493929190612382565b602060405180830381600087803b15801561186c57600080fd5b505af192505050801561189d57506040513d601f19601f8201168201806040525081019061189a9190611c86565b60015b611920573d80600081146118cd576040519150601f19603f3d011682016040523d82523d6000602084013e6118d2565b606091505b50600081511415611918576040517f08c379a000000000000000000000000000000000000000000000000000000000815260040161190f9061240b565b60405180910390fd5b805181602001fd5b63150b7a0260e01b7bffffffffffffffffffffffffffffffffffffffffffffffffffffffff1916817bffffffffffffffffffffffffffffffffffffffffffffffffffffffff191614915050611975565b600190505b949350505050565b600061199061198b846125cb565b6125a6565b9050828152602081018484840111156119a857600080fd5b6119b38482856127f9565b509392505050565b60006119ce6119c9846125fc565b6125a6565b9050828152602081018484840111156119e657600080fd5b6119f18482856127f9565b509392505050565b600081359050611a0881613026565b92915050565b600081359050611a1d8161303d565b92915050565b600081359050611a3281613054565b92915050565b600081519050611a4781613054565b92915050565b600082601f830112611a5e57600080fd5b8135611a6e84826020860161197d565b91505092915050565b600082601f830112611a8857600080fd5b8135611a988482602086016119bb565b91505092915050565b600081359050611ab08161306b565b92915050565b600060208284031215611ac857600080fd5b6000611ad6848285016119f9565b91505092915050565b60008060408385031215611af257600080fd5b6000611b00858286016119f9565b9250506020611b11858286016119f9565b9150509250929050565b600080600060608486031215611b3057600080fd5b6000611b3e868287016119f9565b9350506020611b4f868287016119f9565b9250506040611b6086828701611aa1565b9150509250925092565b60008060008060808587031215611b8057600080fd5b6000611b8e878288016119f9565b9450506020611b9f878288016119f9565b9350506040611bb087828801611aa1565b925050606085013567ffffffffffffffff811115611bcd57600080fd5b611bd987828801611a4d565b91505092959194509250565b60008060408385031215611bf857600080fd5b6000611c06858286016119f9565b9250506020611c1785828601611a0e565b9150509250929050565b60008060408385031215611c3457600080fd5b6000611c42858286016119f9565b9250506020611c5385828601611aa1565b9150509250929050565b600060208284031215611c6f57600080fd5b6000611c7d84828501611a23565b91505092915050565b600060208284031215611c9857600080fd5b6000611ca684828501611a38565b91505092915050565b60008060008060808587031215611cc557600080fd5b600085013567ffffffffffffffff811115611cdf57600080fd5b611ceb87828801611a77565b945050602085013567ffffffffffffffff811115611d0857600080fd5b611d1487828801611a77565b9350506040611d2587828801611aa1565b9250506060611d3687828801611aa1565b91505092959194509250565b600060208284031215611d5457600080fd5b6000611d6284828501611aa1565b91505092915050565b611d7481612785565b82525050565b611d8381612797565b82525050565b6000611d948261262d565b611d9e8185612643565b9350611dae818560208601612808565b611db7816129d4565b840191505092915050565b6000611dcd82612638565b611dd78185612654565b9350611de7818560208601612808565b611df0816129d4565b840191505092915050565b6000611e0682612638565b611e108185612665565b9350611e20818560208601612808565b80840191505092915050565b6000611e39603283612654565b9150611e44826129e5565b604082019050919050565b6000611e5c602583612654565b9150611e6782612a34565b604082019050919050565b6000611e7f602a83612665565b9150611e8a82612a83565b602a82019050919050565b6000611ea2600183612665565b9150611ead82612ad2565b600182019050919050565b6000611ec5602483612654565b9150611ed082612afb565b604082019050919050565b6000611ee8601983612654565b9150611ef382612b4a565b602082019050919050565b6000611f0b600983612665565b9150611f1682612b73565b600982019050919050565b6000611f2e603683612665565b9150611f3982612b9c565b603682019050919050565b6000611f51602c83612654565b9150611f5c82612beb565b604082019050919050565b6000611f74601283612665565b9150611f7f82612c3a565b601282019050919050565b6000611f97603883612654565b9150611fa282612c63565b604082019050919050565b6000611fba602a83612654565b9150611fc582612cb2565b604082019050919050565b6000611fdd602983612654565b9150611fe882612d01565b604082019050919050565b6000612000600283612665565b915061200b82612d50565b600282019050919050565b6000612023600383612654565b915061202e82612d79565b602082019050919050565b6000612046602c83612654565b915061205182612da2565b604082019050919050565b6000612069600783612665565b915061207482612df1565b600782019050919050565b600061208c600483612665565b915061209782612e1a565b600482019050919050565b60006120af600183612665565b91506120ba82612e43565b600182019050919050565b60006120d2602183612654565b91506120dd82612e6c565b604082019050919050565b60006120f5601283612665565b915061210082612ebb565b601282019050919050565b6000612118601d83612665565b915061212382612ee4565b601d82019050919050565b600061213b603183612654565b915061214682612f0d565b604082019050919050565b600061215e601883612665565b915061216982612f5c565b601882019050919050565b6000612181600283612665565b915061218c82612f85565b600282019050919050565b60006121a4602483612665565b91506121af82612fae565b602482019050919050565b60006121c7600383612665565b91506121d282612ffd565b600382019050919050565b6121e6816127ef565b82525050565b60006121f88284611dfb565b915081905092915050565b600061220f8286611dfb565b915061221a82612151565b91506122268285611dfb565b9150612231826121ba565b915061223d8284611dfb565b91506122488261207f565b9150819050949350505050565b60006122608261205c565b9150819050919050565b6000612275826120a2565b915061228082611f67565b915061228b82611e72565b9150612296826120e8565b91506122a28284611dfb565b91506122ad82611ff3565b915081905092915050565b60006122c38261210b565b91506122cf8284611dfb565b915081905092915050565b60006122e582612197565b91506122f18288611dfb565b91506122fc82611e95565b91506123088287611dfb565b915061231382611efe565b915061231f8286611dfb565b915061232a82611f21565b91506123368285611dfb565b915061234182612174565b915061234d8284611dfb565b91506123588261207f565b91508190509695505050505050565b600060208201905061237c6000830184611d6b565b92915050565b60006080820190506123976000830187611d6b565b6123a46020830186611d6b565b6123b160408301856121dd565b81810360608301526123c38184611d89565b905095945050505050565b60006020820190506123e36000830184611d7a565b92915050565b600060208201905081810360008301526124038184611dc2565b905092915050565b6000602082019050818103600083015261242481611e2c565b9050919050565b6000602082019050818103600083015261244481611e4f565b9050919050565b6000602082019050818103600083015261246481611eb8565b9050919050565b6000602082019050818103600083015261248481611edb565b9050919050565b600060208201905081810360008301526124a481611f44565b9050919050565b600060208201905081810360008301526124c481611f8a565b9050919050565b600060208201905081810360008301526124e481611fad565b9050919050565b6000602082019050818103600083015261250481611fd0565b9050919050565b6000602082019050818103600083015261252481612016565b9050919050565b6000602082019050818103600083015261254481612039565b9050919050565b60006020820190508181036000830152612564816120c5565b9050919050565b600060208201905081810360008301526125848161212e565b9050919050565b60006020820190506125a060008301846121dd565b92915050565b60006125b06125c1565b90506125bc828261286d565b919050565b6000604051905090565b600067ffffffffffffffff8211156125e6576125e56129a5565b5b6125ef826129d4565b9050602081019050919050565b600067ffffffffffffffff821115612617576126166129a5565b5b612620826129d4565b9050602081019050919050565b600081519050919050565b600081519050919050565b600082825260208201905092915050565b600082825260208201905092915050565b600081905092915050565b600061267b826127ef565b9150612686836127ef565b9250827fffffffffffffffffffffffffffffffffffffffffffffffffffffffffffffffff038211156126bb576126ba612918565b5b828201905092915050565b60006126d1826127ef565b91506126dc836127ef565b9250826126ec576126eb612947565b5b828204905092915050565b6000612702826127ef565b915061270d836127ef565b9250817fffffffffffffffffffffffffffffffffffffffffffffffffffffffffffffffff048311821515161561274657612745612918565b5b828202905092915050565b600061275c826127ef565b9150612767836127ef565b92508282101561277a57612779612918565b5b828203905092915050565b6000612790826127cf565b9050919050565b60008115159050919050565b60007fffffffff0000000000000000000000000000000000000000000000000000000082169050919050565b600073ffffffffffffffffffffffffffffffffffffffff82169050919050565b6000819050919050565b82818337600083830152505050565b60005b8381101561282657808201518184015260208101905061280b565b83811115612835576000848401525b50505050565b6000600282049050600182168061285357607f821691505b6020821081141561286757612866612976565b5b50919050565b612876826129d4565b810181811067ffffffffffffffff82111715612895576128946129a5565b5b80604052505050565b60006128a9826127ef565b91507fffffffffffffffffffffffffffffffffffffffffffffffffffffffffffffffff8214156128dc576128db612918565b5b600182019050919050565b60006128f2826127ef565b91506128fd836127ef565b92508261290d5761290c612947565b5b828206905092915050565b7f4e487b7100000000000000000000000000000000000000000000000000000000600052601160045260246000fd5b7f4e487b7100000000000000000000000000000000000000000000000000000000600052601260045260246000fd5b7f4e487b7100000000000000000000000000000000000000000000000000000000600052602260045260246000fd5b7f4e487b7100000000000000000000000000000000000000000000000000000000600052604160045260246000fd5b6000601f19601f8301169050919050565b7f4552433732313a207472616e7366657220746f206e6f6e20455243373231526560008201527f63656976657220696d706c656d656e7465720000000000000000000000000000602082015250565b7f4552433732313a207472616e736665722066726f6d20696e636f72726563742060008201527f6f776e6572000000000000000000000000000000000000000000000000000000602082015250565b7f226465736372697074696f6e223a20224861707079204269727468646179204a60008201527f61636b202d205656222c00000000000000000000000000000000000000000000602082015250565b7f2c00000000000000000000000000000000000000000000000000000000000000600082015250565b7f4552433732313a207472616e7366657220746f20746865207a65726f2061646460008201527f7265737300000000000000000000000000000000000000000000000000000000602082015250565b7f4552433732313a20617070726f766520746f2063616c6c657200000000000000600082015250565b7f29272066696c6c3d270000000000000000000000000000000000000000000000600082015250565b7f272066696c6c2d72756c653d276576656e6f64642720636c69702d72756c653d60008201527f276576656e6f64642720617269612d6c6162656c3d2700000000000000000000602082015250565b7f4552433732313a206f70657261746f7220717565727920666f72206e6f6e657860008201527f697374656e7420746f6b656e0000000000000000000000000000000000000000602082015250565b7f226e616d65223a2022484244204a434b222c0000000000000000000000000000600082015250565b7f4552433732313a20617070726f76652063616c6c6572206973206e6f74206f7760008201527f6e6572206e6f7220617070726f76656420666f7220616c6c0000000000000000602082015250565b7f4552433732313a2062616c616e636520717565727920666f7220746865207a6560008201527f726f206164647265737300000000000000000000000000000000000000000000602082015250565b7f4552433732313a206f776e657220717565727920666f72206e6f6e657869737460008201527f656e7420746f6b656e0000000000000000000000000000000000000000000000602082015250565b7f227d000000000000000000000000000000000000000000000000000000000000600082015250565b7f4e61680000000000000000000000000000000000000000000000000000000000600082015250565b7f4552433732313a20617070726f76656420717565727920666f72206e6f6e657860008201527f697374656e7420746f6b656e0000000000000000000000000000000000000000602082015250565b7f44454641554c5400000000000000000000000000000000000000000000000000600082015250565b7f3c2f673e00000000000000000000000000000000000000000000000000000000600082015250565b7f7b00000000000000000000000000000000000000000000000000000000000000600082015250565b7f4552433732313a20617070726f76616c20746f2063757272656e74206f776e6560008201527f7200000000000000000000000000000000000000000000000000000000000000602082015250565b7f22616e696d6174696f6e5f75726c223a20220000000000000000000000000000600082015250565b7f646174613a6170706c69636174696f6e2f6a736f6e3b6261736536342c000000600082015250565b7f4552433732313a207472616e736665722063616c6c6572206973206e6f74206f60008201527f776e6572206e6f7220617070726f766564000000000000000000000000000000602082015250565b7f3c67207472616e73666f726d3d277472616e736c617465280000000000000000600082015250565b7f273e000000000000000000000000000000000000000000000000000000000000600082015250565b7f3c6720207472616e73666f726d3d277363616c6528302e3529207472616e736c60008201527f6174652800000000000000000000000000000000000000000000000000000000602082015250565b7f29273e0000000000000000000000000000000000000000000000000000000000600082015250565b61302f81612785565b811461303a57600080fd5b50565b61304681612797565b811461305157600080fd5b50565b61305d816127a3565b811461306857600080fd5b50565b613074816127ef565b811461307f57600080fd5b5056fe4142434445464748494a4b4c4d4e4f505152535455565758595a6162636465666768696a6b6c6d6e6f707172737475767778797a303132333435363738392b2f646174613a746578742f68746d6c3b6261736536342c5043464554304e5557564246494768306257772b44516f38614852746244344e436a787a64486c735a54344e43694e6a6232353059576c755a5849676577304b494342336157523061446f674e4441776348673744516f674947686c6157646f64446f674e4441776348673744516f674948427663326c30615739754f6942795a57786864476c325a54734e43694167596d466a61326479623356755a446f6765575673624739334f77304b6651304b4932467561573168644755676577304b494342336157523061446f674e5442776544734e43694167614756705a3268304f6941314d4842344f77304b4943427762334e7064476c76626a6f6759574a7a623278316447553744516f6749474a685932746e636d3931626d5174593239736233493649484a6c5a44734e436e304e436a7776633352356247552b44516f38596d396b6554344e4367304b5048412b50474a316448527662694276626d4e7361574e7250534a7465553176646d556f4b53492b5132787059327367545755384c324a3164485276626a34384c33412b4941304b44516f385a476c3249476c6b494430695932397564474670626d5679496a344e4369416750475270646942705a434139496d46756157316864475569506a77765a476c325067304b5043396b6158592b44516f4e436a787a59334a706348512b4451706d6457356a64476c766269427465553176646d556f4b53423744516f674947786c644342705a434139494735316247773744516f6749474e76626e4e30494756735a5730675053426b62324e31625756756443356e5a585246624756745a573530516e6c4a5a43676959573570625746305a5349704f7941674941304b494342735a5851676347397a494430674d44734e436941675932786c59584a4a626e526c636e5a68624368705a436b3744516f6749476c6b4944306763325630535735305a584a325957776f5a6e4a6862575573494455704f77304b4943426d6457356a64476c766269426d636d46745a5367704948734e43694167494342705a69416f6347397a4944303949444d314d436b676577304b49434167494341675932786c59584a4a626e526c636e5a68624368705a436b3744516f67494341676653426c62484e6c4948734e436941674943416749484276637973724f79414e4369416749434167494756735a573075633352356247557564473977494430676347397a49437367496e4234496a736744516f67494341674943426c624756744c6e4e306557786c4c6d786c5a6e51675053427762334d674b794169634867694f79414e436941674943423944516f674948304e436e304e436a777663324e79615842305067304b44516f384c324a765a486b2b44516f384c3268306257772b44516f3da2646970667358221220c6c459e62db4a28db0bbff11f9a2f6ea7e2168ac5b64fcf0342f5844a351f09164736f6c634300080100333c7061746820643d274d302035483148324c32203448334c33203048324831483056355a4d3120344c3120314c3220314c32203448315a272f3e3c7061746820643d274d302032563148314c3120324c3020325a4d3220324c3120325633483056344c31203456334c32203356344c33203456334c32203356325a4d3220324c3320325631483256325a272f3e3c7061746820643d274d31203148324c32203448314c3120315a4d3120314830563448314c31203548324c32203448334c33203148324c32203048314c3120315a272f3e3c7061746820643d274d3120334830563048314c3120335a4d3220334831563548324c3220335a4d3220334c32203048334c33203348325a272f3e3c7061746820643d274d30203348314c312030483056335a4d30203548314c312034483056355a272f3e3c7061746820643d274d3120304830563156345635483148335634483156334832563248314c3120314c332031563048315a272f3e3c7061746820643d274d3220314830563048334c3320314c3320334c3220334c3120334c31203448334c33203548305634563356324c3220324c3220315a272f3e3c7061746820643d274d3020304831483356314c312031563448335635483148305634563156305a272f3e3c7061746820643d274d30203048314c3120324832563048335632563356354832563348315635483056305a272f3e3c7061746820643d274d33203548324c32203348314c3020335632563048314c3120324c3220324c32203048334c3320324c33203356355a272f3e3c7061746820643d274d302030483248335631563456354832483148305634563348315634483256314c30203156305a272f3e3c7061746820643d274d30203048314833563148315632483256334831483056305a4d32203348335634563548305634483256335a272f3e3c7061746820643d274d3120314c32203156324c3120324c3120315a4d312030483248334c3320314c3320324c332033563548324c32203348314c30203356325631563048315a272f3e3c7061746820643d274d3220314c3120314c3120324c32203256315a4d32203048334c3320314c3320324c3320334c3320344c33203548324831483056345633563256315630483148325a4d32203456334c3120334c31203448325a272f3e3c7061746820643d274d3020354831483248334c33203048324831483056355a4d3220344c3220314c3120314c31203448325a272f3e3c7061746820643d274d302030563148315635483256315630483148305a272f3e3c7061746820643d274d3320314c3320304832483056314c32203156324c30203256334c322033563448305635483248334c3320344c3320334c33203256315a272f3e3c7061746820643d274d3120324c312031483256324c3120325a4d3120354c312033483256354c3120355a4d31203556364830563548315a272f3e3c7061746820643d274d3320314c3320304832483056314c3220314c322035483356315a272f3e3c7265637420783d27312720793d2735272077696474683d273127206865696768743d273127207472616e73666f726d3d27726f74617465283138302031203529272f3e3c7061746820643d274d3120304830563256335635483156334832563548334c3320334832563248334c33203048324c322032483156305a272f3e3c7061746820643d274d32203148314c3120324c30203256334c3120334c3120344c3220344c3220334c33203356324c3220324c3220315a272f3e3c7061746820643d274d31203548324c3220344833563548345634483556334834563248355631483456304833563148324c32203048314c3120314830563248314c3120334830563448314c3120355a4d33203248324c322033483356325a272f3e3c7061746820643d274d3320314c33203048324831483056314c3120314c31203548324c3220314c3320315a272f3e3c7061746820643d274d312030483056345635483148335634483156305a272f3e3c7061746820643d274d3120354830563048314c3120314c32203156324c3120324c3120355a4d332032563348324c3220324c3320325a4d3320324c3320314c3420314c34203048354c3520354834563248335a272f3e3c7061746820643d274d322030483056314832563248315633483256324833563048325a4d32203448315635483256345a272f3e3c7061746820643d274d302031563456354831483248335634563248325634483156314c33203156304831483056315a272f3e3c7061746820643d274d3220314830563048334c3320314c3320324c3220324c3220315a4d3120334c3120324c3220324c32203348315a4d3120334c31203448334c3320354830563456334c3120335a272f3e3c7061746820643d274d30203156324c3120324c31203148305a4d30203356344c3120344c31203348305a272f3e3c7061746820643d274d3120344c3020344c3020354c3120354c3120345a4d3220334c3220344c3120344c3120334c3220335a4d3220324c3220334c3320334c3320324c3220325a4d3120314c3120324c3220324c3220314c3120315a4d3120314c3120304c3020304c3020314c3120315a272f3e3c7061746820643d274d3020335635483156334c3220335635483356335632563156304832483148305631563256335a4d31203248325631483156325a272f3e3c7061746820643d274d30203156324c332032563148305a4d30203356344c33203456334c3020335a272f3e3c7061746820643d274d31203548305630483148334c33203156324c3220324c3220314c31203156324c3220324c322033483156355a4d32203348334c33203548324c3220335a272f3e3c7061746820643d274d3120304830563548314832483356334832563248335630483248315a4d32203248315631483256325a4d32203456334831563448325a272f3e3c70617468207472616e73666f726d3d277472616e736c61746528302c2031292720643d274d31203448324c32203348314c3120345a4d3120344830563548314c3120345a272f3e3c7061746820643d274d302031563048314832483356314c3220315634483356354832483148305634483156314c3020315a272f3e3c7061746820643d274d3420304c3520304c35203548344c34203448335633483456305a204d3220334c32203248334c3320334c3220335a204d3220334c3220344c3120344c31203548304c3020304c3120304c31203348325a272f3e3c7061746820643d274d30203048315635483056305a204d31203148325633483156315a204d32203248335634483256325a204d33203048345635483356305a272f3e3c7061746820643d274d3120324830563048314c3120325a4d32203248314c3120334830563548314c31203348324c32203548334c33203348324c3220325a4d3220324c32203048334c33203248325a272f3e3c7061746820643d274d302031563456354831483248335631483256304831483056315a4d32203456314c312031563448325a272f3e3c7061746820643d274d30203548314c3120334c3320334c3320324c3320314c3320304831483056355a4d3220314c3120314c3120324c3220324c3220315a272f3e3c70617468207472616e73666f726d3d277472616e736c61746528302c202d31292720643d274d3120314c31203048324c32203148334c3320324c3120324c3120334c32203348334c3320344c332035563648324c32203748314c312036483056354c3220354c3220344c312034483056314c3120315a272f3e3c7061746820643d274d3020304831483356314c31203156324832563348315635483056335632563156305a272f3e3c7061746820643d274d32203148334c332030483256315a4d3120324c3120314832563248315a4d3120334c3120324830563348315a4d3220344c32203348314c31203448325a4d322034563548334c33203448325a272f3e3c7061746820643d274d30203456335632563048302e3939393939394c31203248324c3320324c3320334c3320344c33203548324831483056345a4d32203456334c3120334c31203448325a272f3e3c7061746820643d274d3120344830563048314c3120345a4d3220344831563548324c3220345a4d3220344c32203048334c33203448325a272f3e3c7061746820643d274d31203348305630483148334c3320314c3120314c3120324c32203248334c3320334c33203456354832483056344c3220344c3220334c3120335a272f3e3c7061746820643d274d31203548305634563048314c3120344c3220344c32203048334c3320345635483248315a272f3e",
  "linkReferences": {},
  "deployedLinkReferences": {}
}