{
  "_format": "hh-sol-artifact-1",
  "contractName": "Present",
  "sourceName": "contracts/Present.sol",
  "abi": [
    {
      "inputs": [],
      "stateMutability": "nonpayable",
      "type": "constructor"
    },
    {
      "anonymous": false,
      "inputs": [
        {
          "indexed": true,
          "internalType": "address",
          "name": "owner",
          "type": "address"
        },
        {
          "indexed": true,
          "internalType": "address",
          "name": "approved",
          "type": "address"
        },
        {
          "indexed": true,
          "internalType": "uint256",
          "name": "tokenId",
          "type": "uint256"
        }
      ],
      "name": "Approval",
      "type": "event"
    },
    {
      "anonymous": false,
      "inputs": [
        {
          "indexed": true,
          "internalType": "address",
          "name": "owner",
          "type": "address"
        },
        {
          "indexed": true,
          "internalType": "address",
          "name": "operator",
          "type": "address"
        },
        {
          "indexed": false,
          "internalType": "bool",
          "name": "approved",
          "type": "bool"
        }
      ],
      "name": "ApprovalForAll",
      "type": "event"
    },
    {
      "anonymous": false,
      "inputs": [
        {
          "indexed": true,
          "internalType": "address",
          "name": "previousOwner",
          "type": "address"
        },
        {
          "indexed": true,
          "internalType": "address",
          "name": "newOwner",
          "type": "address"
        }
      ],
      "name": "OwnershipTransferred",
      "type": "event"
    },
    {
      "anonymous": false,
      "inputs": [
        {
          "indexed": true,
          "internalType": "address",
          "name": "from",
          "type": "address"
        },
        {
          "indexed": true,
          "internalType": "address",
          "name": "to",
          "type": "address"
        },
        {
          "indexed": true,
          "internalType": "uint256",
          "name": "tokenId",
          "type": "uint256"
        }
      ],
      "name": "Transfer",
      "type": "event"
    },
    {
      "inputs": [
        {
          "internalType": "string",
          "name": "",
          "type": "string"
        }
      ],
      "name": "LETTERS",
      "outputs": [
        {
          "internalType": "string",
          "name": "",
          "type": "string"
        }
      ],
      "stateMutability": "view",
      "type": "function"
    },
    {
      "inputs": [
        {
          "internalType": "string",
          "name": "",
          "type": "string"
        }
      ],
      "name": "LETTER_WIDTHS",
      "outputs": [
        {
          "internalType": "uint256",
          "name": "",
          "type": "uint256"
        }
      ],
      "stateMutability": "view",
      "type": "function"
    },
    {
      "inputs": [
        {
          "internalType": "address",
          "name": "to",
          "type": "address"
        },
        {
          "internalType": "uint256",
          "name": "tokenId",
          "type": "uint256"
        }
      ],
      "name": "approve",
      "outputs": [],
      "stateMutability": "nonpayable",
      "type": "function"
    },
    {
      "inputs": [
        {
          "internalType": "address",
          "name": "owner",
          "type": "address"
        }
      ],
      "name": "balanceOf",
      "outputs": [
        {
          "internalType": "uint256",
          "name": "",
          "type": "uint256"
        }
      ],
      "stateMutability": "view",
      "type": "function"
    },
    {
      "inputs": [
        {
          "internalType": "uint256",
          "name": "tokenId",
          "type": "uint256"
        }
      ],
      "name": "getApproved",
      "outputs": [
        {
          "internalType": "address",
          "name": "",
          "type": "address"
        }
      ],
      "stateMutability": "view",
      "type": "function"
    },
    {
      "inputs": [
        {
          "internalType": "address",
          "name": "owner",
          "type": "address"
        },
        {
          "internalType": "address",
          "name": "operator",
          "type": "address"
        }
      ],
      "name": "isApprovedForAll",
      "outputs": [
        {
          "internalType": "bool",
          "name": "",
          "type": "bool"
        }
      ],
      "stateMutability": "view",
      "type": "function"
    },
    {
      "inputs": [
        {
          "internalType": "address",
          "name": "recipient",
          "type": "address"
        }
      ],
      "name": "mintNFT",
      "outputs": [
        {
          "internalType": "uint256",
          "name": "",
          "type": "uint256"
        }
      ],
      "stateMutability": "nonpayable",
      "type": "function"
    },
    {
      "inputs": [],
      "name": "name",
      "outputs": [
        {
          "internalType": "string",
          "name": "",
          "type": "string"
        }
      ],
      "stateMutability": "view",
      "type": "function"
    },
    {
      "inputs": [],
      "name": "owner",
      "outputs": [
        {
          "internalType": "address",
          "name": "",
          "type": "address"
        }
      ],
      "stateMutability": "view",
      "type": "function"
    },
    {
      "inputs": [
        {
          "internalType": "uint256",
          "name": "tokenId",
          "type": "uint256"
        }
      ],
      "name": "ownerOf",
      "outputs": [
        {
          "internalType": "address",
          "name": "",
          "type": "address"
        }
      ],
      "stateMutability": "view",
      "type": "function"
    },
    {
      "inputs": [],
      "name": "renounceOwnership",
      "outputs": [],
      "stateMutability": "nonpayable",
      "type": "function"
    },
    {
      "inputs": [
        {
          "internalType": "address",
          "name": "from",
          "type": "address"
        },
        {
          "internalType": "address",
          "name": "to",
          "type": "address"
        },
        {
          "internalType": "uint256",
          "name": "tokenId",
          "type": "uint256"
        }
      ],
      "name": "safeTransferFrom",
      "outputs": [],
      "stateMutability": "nonpayable",
      "type": "function"
    },
    {
      "inputs": [
        {
          "internalType": "address",
          "name": "from",
          "type": "address"
        },
        {
          "internalType": "address",
          "name": "to",
          "type": "address"
        },
        {
          "internalType": "uint256",
          "name": "tokenId",
          "type": "uint256"
        },
        {
          "internalType": "bytes",
          "name": "_data",
          "type": "bytes"
        }
      ],
      "name": "safeTransferFrom",
      "outputs": [],
      "stateMutability": "nonpayable",
      "type": "function"
    },
    {
      "inputs": [
        {
          "internalType": "address",
          "name": "operator",
          "type": "address"
        },
        {
          "internalType": "bool",
          "name": "approved",
          "type": "bool"
        }
      ],
      "name": "setApprovalForAll",
      "outputs": [],
      "stateMutability": "nonpayable",
      "type": "function"
    },
    {
      "inputs": [
        {
          "internalType": "string",
          "name": "name",
          "type": "string"
        }
      ],
      "name": "signCard",
      "outputs": [
        {
          "internalType": "bool",
          "name": "",
          "type": "bool"
        }
      ],
      "stateMutability": "nonpayable",
      "type": "function"
    },
    {
      "inputs": [],
      "name": "signers",
      "outputs": [
        {
          "internalType": "string",
          "name": "",
          "type": "string"
        }
      ],
      "stateMutability": "view",
      "type": "function"
    },
    {
      "inputs": [
        {
          "internalType": "bytes4",
          "name": "interfaceId",
          "type": "bytes4"
        }
      ],
      "name": "supportsInterface",
      "outputs": [
        {
          "internalType": "bool",
          "name": "",
          "type": "bool"
        }
      ],
      "stateMutability": "view",
      "type": "function"
    },
    {
      "inputs": [],
      "name": "symbol",
      "outputs": [
        {
          "internalType": "string",
          "name": "",
          "type": "string"
        }
      ],
      "stateMutability": "view",
      "type": "function"
    },
    {
      "inputs": [
        {
          "internalType": "uint256",
          "name": "tokenId",
          "type": "uint256"
        }
      ],
      "name": "tokenURI",
      "outputs": [
        {
          "internalType": "string",
          "name": "",
          "type": "string"
        }
      ],
      "stateMutability": "view",
      "type": "function"
    },
    {
      "inputs": [
        {
          "internalType": "address",
          "name": "from",
          "type": "address"
        },
        {
          "internalType": "address",
          "name": "to",
          "type": "address"
        },
        {
          "internalType": "uint256",
          "name": "tokenId",
          "type": "uint256"
        }
      ],
      "name": "transferFrom",
      "outputs": [],
      "stateMutability": "nonpayable",
      "type": "function"
    },
    {
      "inputs": [
        {
          "internalType": "address",
          "name": "newOwner",
          "type": "address"
        }
      ],
      "name": "transferOwnership",
      "outputs": [],
      "stateMutability": "nonpayable",
      "type": "function"
    },
    {
      "inputs": [
        {
          "internalType": "string",
          "name": "text",
          "type": "string"
        },
        {
          "internalType": "string",
          "name": "color",
          "type": "string"
        },
        {
          "internalType": "uint256",
          "name": "spacing",
          "type": "uint256"
        },
        {
          "internalType": "uint256",
          "name": "y",
          "type": "uint256"
        }
      ],
      "name": "write",
      "outputs": [
        {
          "internalType": "string",
          "name": "",
          "type": "string"
        }
      ],
      "stateMutability": "view",
      "type": "function"
    }
  ],
  "bytecode": "0x608060405260405180602001604052806000815250600b90805190602001906200002b92919062001362565b5060405180610460016040528061043a815260200162006f3861043a9139600c90805190602001906200006092919062001362565b5060405180602001604052806000815250600d90805190602001906200008892919062001362565b506014600e556037600f556064601055348015620000a557600080fd5b506040518060400160405280601381526020017f4861707079204269727468646179204a61636b000000000000000000000000008152506040518060400160405280600381526020017f4e4654000000000000000000000000000000000000000000000000000000000081525081600090805190602001906200012a92919062001362565b5080600190805190602001906200014392919062001362565b505050620001666200015a6200129460201b60201c565b6200129c60201b60201c565b60405180608001604052806044815260200162006dee604491396008604051620001909062001c2c565b90815260200160405180910390209080519060200190620001b392919062001362565b5060405180606001604052806021815260200162007526602191396008604051620001de9062001f7f565b908152602001604051809103902090805190602001906200020192919062001362565b5060405180608001604052806041815260200162006ecc6041913960086040516200022c9062001f3a565b908152602001604051809103902090805190602001906200024f92919062001362565b50604051806080016040528060438152602001620075476043913960086040516200027a9062001c9f565b908152602001604051809103902090805190602001906200029d92919062001362565b506040518060600160405280603b8152602001620073a1603b91396008604051620002c89062001c71565b90815260200160405180910390209080519060200190620002eb92919062001362565b506040518060600160405280603881526020016200740f603891396008604051620003169062001f96565b908152602001604051809103902090805190602001906200033992919062001362565b506040518060800160405280604f815260200162007cef604f91396008604051620003649062001ff2565b908152602001604051809103902090805190602001906200038792919062001362565b50604051806060016040528060278152602001620075c5602791396008604051620003b29062001d29565b90815260200160405180910390209080519060200190620003d592919062001362565b506040518060800160405280605f815260200162007491605f91396008604051620004009062002009565b908152602001604051809103902090805190602001906200042392919062001362565b506040518060800160405280604a815260200162007447604a913960086040516200044e9062001fc4565b908152602001604051809103902090805190602001906200047192919062001362565b506040518060600160405280604081526020016200790c6040913960086040516200049c9062001c15565b90815260200160405180910390209080519060200190620004bf92919062001362565b50604051806080016040528060438152602001620079c2604391396008604051620004ea9062001c88565b908152602001604051809103902090805190602001906200050d92919062001362565b506040518060600160405280602b815260200162006f0d602b91396008604051620005389062001bfe565b908152602001604051809103902090805190602001906200055b92919062001362565b5060405180606001604052806036815260200162007b75603691396008604051620005869062001d9c565b90815260200160405180910390209080519060200190620005a992919062001362565b5060405180606001604052806035815260200162006e97603591396008604051620005d49062001d12565b90815260200160405180910390209080519060200190620005f792919062001362565b506040518060600160405280602f815260200162007c67602f91396008604051620006229062002020565b908152602001604051809103902090805190602001906200064592919062001362565b50604051806060016040528060338152602001620077e3603391396008604051620006709062001c5a565b908152602001604051809103902090805190602001906200069392919062001362565b506040518060600160405280602f815260200162007372602f91396008604051620006be9062001cb6565b90815260200160405180910390209080519060200190620006e192919062001362565b5060405180606001604052806035815260200162007a4d6035913960086040516200070c9062001e82565b908152602001604051809103902090805190602001906200072f92919062001362565b50604051806060016040528060338152602001620073dc6033913960086040516200075a9062001e99565b908152602001604051809103902090805190602001906200077d92919062001362565b506040518060600160405280603b815260200162007630603b91396008604051620007a89062001eb0565b90815260200160405180910390209080519060200190620007cb92919062001362565b5060405180606001604052806021815260200162007737602191396008604051620007f69062001e54565b908152602001604051809103902090805190602001906200081992919062001362565b5060405180608001604052806057815260200162007758605791396008604051620008449062001e26565b908152602001604051809103902090805190602001906200086792919062001362565b5060405180608001604052806043815260200162007adf604391396008604051620008929062001df8565b90815260200160405180910390209080519060200190620008b592919062001362565b50604051806060016040528060368152602001620074f0603691396008604051620008e09062001f68565b908152602001604051809103902090805190602001906200090392919062001362565b5060405180608001604052806042815260200162007bab6042913960086040516200092e9062001de1565b908152602001604051809103902090805190602001906200095192919062001362565b506040518060600160405280603a815260200162006d61603a913960086040516200097c9062002093565b908152602001604051809103902090805190602001906200099f92919062001362565b506040518060800160405280604a815260200162007978604a91396008604051620009ca9062002037565b90815260200160405180910390209080519060200190620009ed92919062001362565b5060405180608001604052806047815260200162007d7960479139600860405162000a189062001f0c565b9081526020016040518091039020908051906020019062000a3b92919062001362565b506040518060600160405280602f815260200162007708602f9139600860405162000a669062001e3d565b9081526020016040518091039020908051906020019062000a8992919062001362565b5060405180606001604052806031815260200162007dc060319139600860405162000ab49062001ce4565b9081526020016040518091039020908051906020019062000ad792919062001362565b506040518060600160405280603b815260200162007d3e603b9139600860405162000b029062002065565b9081526020016040518091039020908051906020019062000b2592919062001362565b506040518060800160405280605d815260200162007a82605d9139600860405162000b509062001fad565b9081526020016040518091039020908051906020019062000b7392919062001362565b5060405180608001604052806053815260200162007b2260539139600860405162000b9e9062001d40565b9081526020016040518091039020908051906020019062000bc192919062001362565b506040518060600160405280603b815260200162006e32603b9139600860405162000bec9062001ede565b9081526020016040518091039020908051906020019062000c0f92919062001362565b506040518060800160405280605381526020016200781660539139600860405162000c3a9062001e0f565b9081526020016040518091039020908051906020019062000c5d92919062001362565b5060405180608001604052806053815260200162006d9b60539139600860405162000c889062001c43565b9081526020016040518091039020908051906020019062000cab92919062001362565b506040518060600160405280602c81526020016200794c602c9139600860405162000cd6906200207c565b9081526020016040518091039020908051906020019062000cf992919062001362565b506040518060a00160405280607581526020016200789760759139600860405162000d249062001e6b565b9081526020016040518091039020908051906020019062000d4792919062001362565b5060405180608001604052806059815260200162007c9660599139600860405162000d72906200204e565b9081526020016040518091039020908051906020019062000d9592919062001362565b5060405180608001604052806048815260200162007a0560489139600860405162000dc09062001cfb565b9081526020016040518091039020908051906020019062000de392919062001362565b50604051806080016040528060448152602001620075ec60449139600860405162000e0e9062001db3565b9081526020016040518091039020908051906020019062000e3192919062001362565b506040518060600160405280602e815260200162007869602e9139600860405162000e5c9062001ec7565b9081526020016040518091039020908051906020019062000e7f92919062001362565b506040518060600160405280603b81526020016200758a603b9139600860405162000eaa9062001d85565b9081526020016040518091039020908051906020019062000ecd92919062001362565b506040518060600160405280602a815260200162006e6d602a9139600860405162000ef89062001ccd565b9081526020016040518091039020908051906020019062000f1b92919062001362565b50604051806060016040528060348152602001620077af60349139600860405162000f469062001d57565b9081526020016040518091039020908051906020019062000f6992919062001362565b506040518060600160405280603b81526020016200766b603b9139600860405162000f949062001dca565b9081526020016040518091039020908051906020019062000fb792919062001362565b506040518060400160405280601f81526020017f3c7061746820643d274d3020334c3020324c33203256334c3020335a272f3e00815250600860405162000ffe9062001fdb565b908152602001604051809103902090805190602001906200102192919062001362565b506040518060a00160405280607a815260200162007bed607a913960086040516200104c9062001f51565b908152602001604051809103902090805190602001906200106f92919062001362565b506040518060a0016040528060628152602001620076a66062913960086040516200109a9062001f23565b90815260200160405180910390209080519060200190620010bd92919062001362565b50604051806020016040528060008152506008604051620010de9062001d6e565b908152602001604051809103902090805190602001906200110192919062001362565b5060036009604051620011149062001ef5565b90815260200160405180910390208190555060016009604051620011389062001d6e565b908152602001604051809103902081905550600160096040516200115c9062001db3565b90815260200160405180910390208190555060016009604051620011809062001ec7565b90815260200160405180910390208190555060016009604051620011a49062001ccd565b90815260200160405180910390208190555060026009604051620011c89062001cfb565b90815260200160405180910390208190555060026009604051620011ec9062001d85565b90815260200160405180910390208190555060046009604051620012109062001df8565b90815260200160405180910390208190555060056009604051620012349062001f23565b90815260200160405180910390208190555060056009604051620012589062001e26565b908152602001604051809103902081905550600560096040516200127c9062001fad565b9081526020016040518091039020819055506200296e565b600033905090565b6000600760009054906101000a900473ffffffffffffffffffffffffffffffffffffffff16905081600760006101000a81548173ffffffffffffffffffffffffffffffffffffffff021916908373ffffffffffffffffffffffffffffffffffffffff1602179055508173ffffffffffffffffffffffffffffffffffffffff168173ffffffffffffffffffffffffffffffffffffffff167f8be0079c531659141344cd1fd0a4f28419497f9722a3daafe3b4186f6b6457e060405160405180910390a35050565b8280546200137090620020b5565b90600052602060002090601f016020900481019282620013945760008555620013e0565b82601f10620013af57805160ff1916838001178555620013e0565b82800160010185558215620013e0579182015b82811115620013df578251825591602001919060010190620013c2565b5b509050620013ef9190620013f3565b5090565b5b808211156200140e576000816000905550600101620013f4565b5090565b600062001421600183620020aa565b91506200142e826200211a565b600182019050919050565b600062001448600183620020aa565b9150620014558262002143565b600182019050919050565b60006200146f600183620020aa565b91506200147c826200216c565b600182019050919050565b600062001496600183620020aa565b9150620014a38262002195565b600182019050919050565b6000620014bd600183620020aa565b9150620014ca82620021be565b600182019050919050565b6000620014e4600183620020aa565b9150620014f182620021e7565b600182019050919050565b60006200150b600183620020aa565b9150620015188262002210565b600182019050919050565b600062001532600183620020aa565b91506200153f8262002239565b600182019050919050565b600062001559600183620020aa565b9150620015668262002262565b600182019050919050565b600062001580600183620020aa565b91506200158d826200228b565b600182019050919050565b6000620015a7600183620020aa565b9150620015b482620022b4565b600182019050919050565b6000620015ce600183620020aa565b9150620015db82620022dd565b600182019050919050565b6000620015f5600183620020aa565b9150620016028262002306565b600182019050919050565b60006200161c600183620020aa565b915062001629826200232f565b600182019050919050565b600062001643600183620020aa565b9150620016508262002358565b600182019050919050565b60006200166a600183620020aa565b9150620016778262002381565b600182019050919050565b600062001691600183620020aa565b91506200169e82620023aa565b600182019050919050565b6000620016b8600183620020aa565b9150620016c582620023d3565b600182019050919050565b6000620016df600183620020aa565b9150620016ec82620023fc565b600182019050919050565b600062001706600183620020aa565b9150620017138262002425565b600182019050919050565b60006200172d600183620020aa565b91506200173a826200244e565b600182019050919050565b600062001754600183620020aa565b9150620017618262002477565b600182019050919050565b60006200177b600183620020aa565b91506200178882620024a0565b600182019050919050565b6000620017a2600183620020aa565b9150620017af82620024c9565b600182019050919050565b6000620017c9600183620020aa565b9150620017d682620024f2565b600182019050919050565b6000620017f0600183620020aa565b9150620017fd826200251b565b600182019050919050565b600062001817600183620020aa565b9150620018248262002544565b600182019050919050565b60006200183e600183620020aa565b91506200184b826200256d565b600182019050919050565b600062001865600183620020aa565b9150620018728262002596565b600182019050919050565b60006200188c600183620020aa565b91506200189982620025bf565b600182019050919050565b6000620018b3600183620020aa565b9150620018c082620025e8565b600182019050919050565b6000620018da600183620020aa565b9150620018e78262002611565b600182019050919050565b600062001901600183620020aa565b91506200190e826200263a565b600182019050919050565b600062001928600783620020aa565b9150620019358262002663565b600782019050919050565b60006200194f600183620020aa565b91506200195c826200268c565b600182019050919050565b600062001976600183620020aa565b91506200198382620026b5565b600182019050919050565b60006200199d600183620020aa565b9150620019aa82620026de565b600182019050919050565b6000620019c4600183620020aa565b9150620019d18262002707565b600182019050919050565b6000620019eb600183620020aa565b9150620019f88262002730565b600182019050919050565b600062001a12600183620020aa565b915062001a1f8262002759565b600182019050919050565b600062001a39600183620020aa565b915062001a468262002782565b600182019050919050565b600062001a60600183620020aa565b915062001a6d82620027ab565b600182019050919050565b600062001a87600183620020aa565b915062001a9482620027d4565b600182019050919050565b600062001aae600183620020aa565b915062001abb82620027fd565b600182019050919050565b600062001ad5600183620020aa565b915062001ae28262002826565b600182019050919050565b600062001afc600183620020aa565b915062001b09826200284f565b600182019050919050565b600062001b23600183620020aa565b915062001b308262002878565b600182019050919050565b600062001b4a600183620020aa565b915062001b5782620028a1565b600182019050919050565b600062001b71600183620020aa565b915062001b7e82620028ca565b600182019050919050565b600062001b98600183620020aa565b915062001ba582620028f3565b600182019050919050565b600062001bbf600183620020aa565b915062001bcc826200291c565b600182019050919050565b600062001be6600183620020aa565b915062001bf38262002945565b600182019050919050565b600062001c0b8262001412565b9150819050919050565b600062001c228262001439565b9150819050919050565b600062001c398262001460565b9150819050919050565b600062001c508262001487565b9150819050919050565b600062001c6782620014ae565b9150819050919050565b600062001c7e82620014d5565b9150819050919050565b600062001c9582620014fc565b9150819050919050565b600062001cac8262001523565b9150819050919050565b600062001cc3826200154a565b9150819050919050565b600062001cda8262001571565b9150819050919050565b600062001cf18262001598565b9150819050919050565b600062001d0882620015bf565b9150819050919050565b600062001d1f82620015e6565b9150819050919050565b600062001d36826200160d565b9150819050919050565b600062001d4d8262001634565b9150819050919050565b600062001d64826200165b565b9150819050919050565b600062001d7b8262001682565b9150819050919050565b600062001d9282620016a9565b9150819050919050565b600062001da982620016d0565b9150819050919050565b600062001dc082620016f7565b9150819050919050565b600062001dd7826200171e565b9150819050919050565b600062001dee8262001745565b9150819050919050565b600062001e05826200176c565b9150819050919050565b600062001e1c8262001793565b9150819050919050565b600062001e3382620017ba565b9150819050919050565b600062001e4a82620017e1565b9150819050919050565b600062001e618262001808565b9150819050919050565b600062001e78826200182f565b9150819050919050565b600062001e8f8262001856565b9150819050919050565b600062001ea6826200187d565b9150819050919050565b600062001ebd82620018a4565b9150819050919050565b600062001ed482620018cb565b9150819050919050565b600062001eeb82620018f2565b9150819050919050565b600062001f028262001919565b9150819050919050565b600062001f198262001940565b9150819050919050565b600062001f308262001967565b9150819050919050565b600062001f47826200198e565b9150819050919050565b600062001f5e82620019b5565b9150819050919050565b600062001f7582620019dc565b9150819050919050565b600062001f8c8262001a03565b9150819050919050565b600062001fa38262001a2a565b9150819050919050565b600062001fba8262001a51565b9150819050919050565b600062001fd18262001a78565b9150819050919050565b600062001fe88262001a9f565b9150819050919050565b600062001fff8262001ac6565b9150819050919050565b6000620020168262001aed565b9150819050919050565b60006200202d8262001b14565b9150819050919050565b6000620020448262001b3b565b9150819050919050565b60006200205b8262001b62565b9150819050919050565b6000620020728262001b89565b9150819050919050565b6000620020898262001bb0565b9150819050919050565b6000620020a08262001bd7565b9150819050919050565b600081905092915050565b60006002820490506001821680620020ce57607f821691505b60208210811415620020e557620020e4620020eb565b5b50919050565b7f4e487b7100000000000000000000000000000000000000000000000000000000600052602260045260246000fd5b7f4300000000000000000000000000000000000000000000000000000000000000600082015250565b7f4100000000000000000000000000000000000000000000000000000000000000600082015250565b7f3000000000000000000000000000000000000000000000000000000000000000600082015250565b7f2a00000000000000000000000000000000000000000000000000000000000000600082015250565b7f4700000000000000000000000000000000000000000000000000000000000000600082015250565b7f3400000000000000000000000000000000000000000000000000000000000000600082015250565b7f4200000000000000000000000000000000000000000000000000000000000000600082015250565b7f3300000000000000000000000000000000000000000000000000000000000000600082015250565b7f4800000000000000000000000000000000000000000000000000000000000000600082015250565b7f2100000000000000000000000000000000000000000000000000000000000000600082015250565b7f5500000000000000000000000000000000000000000000000000000000000000600082015250565b7f2c00000000000000000000000000000000000000000000000000000000000000600082015250565b7f4500000000000000000000000000000000000000000000000000000000000000600082015250565b7f3700000000000000000000000000000000000000000000000000000000000000600082015250565b7f5800000000000000000000000000000000000000000000000000000000000000600082015250565b7f3f00000000000000000000000000000000000000000000000000000000000000600082015250565b7f2000000000000000000000000000000000000000000000000000000000000000600082015250565b7f3b00000000000000000000000000000000000000000000000000000000000000600082015250565b7f4400000000000000000000000000000000000000000000000000000000000000600082015250565b7f2e00000000000000000000000000000000000000000000000000000000000000600082015250565b7f2b00000000000000000000000000000000000000000000000000000000000000600082015250565b7f5000000000000000000000000000000000000000000000000000000000000000600082015250565b7f4e00000000000000000000000000000000000000000000000000000000000000600082015250565b7f5a00000000000000000000000000000000000000000000000000000000000000600082015250565b7f4d00000000000000000000000000000000000000000000000000000000000000600082015250565b7f5400000000000000000000000000000000000000000000000000000000000000600082015250565b7f4c00000000000000000000000000000000000000000000000000000000000000600082015250565b7f3c00000000000000000000000000000000000000000000000000000000000000600082015250565b7f4900000000000000000000000000000000000000000000000000000000000000600082015250565b7f4a00000000000000000000000000000000000000000000000000000000000000600082015250565b7f4b00000000000000000000000000000000000000000000000000000000000000600082015250565b7f3a00000000000000000000000000000000000000000000000000000000000000600082015250565b7f5900000000000000000000000000000000000000000000000000000000000000600082015250565b7f44454641554c5400000000000000000000000000000000000000000000000000600082015250565b7f5300000000000000000000000000000000000000000000000000000000000000600082015250565b7f2300000000000000000000000000000000000000000000000000000000000000600082015250565b7f3200000000000000000000000000000000000000000000000000000000000000600082015250565b7f2400000000000000000000000000000000000000000000000000000000000000600082015250565b7f4f00000000000000000000000000000000000000000000000000000000000000600082015250565b7f3100000000000000000000000000000000000000000000000000000000000000600082015250565b7f3500000000000000000000000000000000000000000000000000000000000000600082015250565b7f5700000000000000000000000000000000000000000000000000000000000000600082015250565b7f3900000000000000000000000000000000000000000000000000000000000000600082015250565b7f2d00000000000000000000000000000000000000000000000000000000000000600082015250565b7f3600000000000000000000000000000000000000000000000000000000000000600082015250565b7f3800000000000000000000000000000000000000000000000000000000000000600082015250565b7f4600000000000000000000000000000000000000000000000000000000000000600082015250565b7f5200000000000000000000000000000000000000000000000000000000000000600082015250565b7f3e00000000000000000000000000000000000000000000000000000000000000600082015250565b7f5600000000000000000000000000000000000000000000000000000000000000600082015250565b7f3d00000000000000000000000000000000000000000000000000000000000000600082015250565b7f5100000000000000000000000000000000000000000000000000000000000000600082015250565b6143e3806200297e6000396000f3fe608060405234801561001057600080fd5b50600436106101425760003560e01c806370a08231116100b8578063a22cb4651161007c578063a22cb4651461039d578063b88d4fde146103b9578063c87b56dd146103d5578063e985e9c514610405578063ed9a67e114610435578063f2fde38b1461046557610142565b806370a08231146102f7578063715018a6146103275780638da5cb5b146103315780638f8ab73b1461034f57806395d89b411461037f57610142565b806342842e0e1161010a57806342842e0e146101fd578063432a43cc1461021957806346f0975a1461024957806354ba0f27146102675780636352211e14610297578063671639c1146102c757610142565b806301ffc9a71461014757806306fdde0314610177578063081812fc14610195578063095ea7b3146101c557806323b872dd146101e1575b600080fd5b610161600480360381019061015c91906129e9565b610481565b60405161016e91906133e1565b60405180910390f35b61017f610563565b60405161018c91906133fc565b60405180910390f35b6101af60048036038101906101aa9190612b0f565b6105f5565b6040516101bc919061337a565b60405180910390f35b6101df60048036038101906101da91906129ad565b61067a565b005b6101fb60048036038101906101f691906128a7565b610792565b005b610217600480360381019061021291906128a7565b6107f2565b005b610233600480360381019061022e9190612a3b565b610812565b60405161024091906133e1565b60405180910390f35b61025161085e565b60405161025e91906133fc565b60405180910390f35b610281600480360381019061027c9190612842565b6108ec565b60405161028e919061367e565b60405180910390f35b6102b160048036038101906102ac9190612b0f565b6109fe565b6040516102be919061337a565b60405180910390f35b6102e160048036038101906102dc9190612a7c565b610ab0565b6040516102ee91906133fc565b60405180910390f35b610311600480360381019061030c9190612842565b610dee565b60405161031e919061367e565b60405180910390f35b61032f610ea6565b005b610339610f2e565b604051610346919061337a565b60405180910390f35b61036960048036038101906103649190612a3b565b610f58565b60405161037691906133fc565b60405180910390f35b61038761100e565b60405161039491906133fc565b60405180910390f35b6103b760048036038101906103b29190612971565b6110a0565b005b6103d360048036038101906103ce91906128f6565b6110b6565b005b6103ef60048036038101906103ea9190612b0f565b611118565b6040516103fc91906133fc565b60405180910390f35b61041f600480360381019061041a919061286b565b61126a565b60405161042c91906133e1565b60405180910390f35b61044f600480360381019061044a9190612a3b565b6112fe565b60405161045c919061367e565b60405180910390f35b61047f600480360381019061047a9190612842565b61132c565b005b60007f80ac58cd000000000000000000000000000000000000000000000000000000007bffffffffffffffffffffffffffffffffffffffffffffffffffffffff1916827bffffffffffffffffffffffffffffffffffffffffffffffffffffffff1916148061054c57507f5b5e139f000000000000000000000000000000000000000000000000000000007bffffffffffffffffffffffffffffffffffffffffffffffffffffffff1916827bffffffffffffffffffffffffffffffffffffffffffffffffffffffff1916145b8061055c575061055b82611424565b5b9050919050565b60606000805461057290613943565b80601f016020809104026020016040519081016040528092919081815260200182805461059e90613943565b80156105eb5780601f106105c0576101008083540402835291602001916105eb565b820191906000526020600020905b8154815290600101906020018083116105ce57829003601f168201915b5050505050905090565b60006106008261148e565b61063f576040517f08c379a0000000000000000000000000000000000000000000000000000000008152600401610636906135de565b60405180910390fd5b6004600083815260200190815260200160002060009054906101000a900473ffffffffffffffffffffffffffffffffffffffff169050919050565b6000610685826109fe565b90508073ffffffffffffffffffffffffffffffffffffffff168373ffffffffffffffffffffffffffffffffffffffff1614156106f6576040517f08c379a00000000000000000000000000000000000000000000000000000000081526004016106ed9061363e565b60405180910390fd5b8073ffffffffffffffffffffffffffffffffffffffff166107156114fa565b73ffffffffffffffffffffffffffffffffffffffff16148061074457506107438161073e6114fa565b61126a565b5b610783576040517f08c379a000000000000000000000000000000000000000000000000000000000815260040161077a9061351e565b60405180910390fd5b61078d8383611502565b505050565b6107a361079d6114fa565b826115bb565b6107e2576040517f08c379a00000000000000000000000000000000000000000000000000000000081526004016107d99061365e565b60405180910390fd5b6107ed838383611699565b505050565b61080d838383604051806020016040528060008152506110b6565b505050565b6000600c61081f83611900565b604051602001610830929190613200565b604051602081830303815290604052600c9080519060200190610854929190612666565b5060019050919050565b600d805461086b90613943565b80601f016020809104026020016040519081016040528092919081815260200182805461089790613943565b80156108e45780601f106108b9576101008083540402835291602001916108e4565b820191906000526020600020905b8154815290600101906020018083116108c757829003601f168201915b505050505081565b60006108f66114fa565b73ffffffffffffffffffffffffffffffffffffffff16610914610f2e565b73ffffffffffffffffffffffffffffffffffffffff161461096a576040517f08c379a0000000000000000000000000000000000000000000000000000000008152600401610961906135fe565b60405180910390fd5b6001610976600a61198d565b10156109be57600061098661199b565b9050610992600a611af8565b600061099e600a61198d565b90506109aa8482611b0e565b6109b48183611ce8565b80925050506109f9565b6040517f08c379a00000000000000000000000000000000000000000000000000000000081526004016109f09061343e565b60405180910390fd5b919050565b6000806002600084815260200190815260200160002060009054906101000a900473ffffffffffffffffffffffffffffffffffffffff169050600073ffffffffffffffffffffffffffffffffffffffff168173ffffffffffffffffffffffffffffffffffffffff161415610aa7576040517f08c379a0000000000000000000000000000000000000000000000000000000008152600401610a9e9061355e565b60405180910390fd5b80915050919050565b606060008060405180602001604052806000815250905060005b8751811015610d85576000600167ffffffffffffffff811115610b16577f4e487b7100000000000000000000000000000000000000000000000000000000600052604160045260246000fd5b6040519080825280601f01601f191660200182016040528015610b485781602001600182028036833780820191505090505b509050888281518110610b84577f4e487b7100000000000000000000000000000000000000000000000000000000600052603260045260246000fd5b602001015160f81c60f81b81600081518110610bc9577f4e487b7100000000000000000000000000000000000000000000000000000000600052603260045260246000fd5b60200101907effffffffffffffffffffffffffffffffffffffffffffffffffffffffffffff1916908160001a90535060008190506000600882604051610c0f9190613173565b90815260200160405180910390208054610c2890613943565b80601f0160208091040260200160405190810160405280929190818152602001828054610c5490613943565b8015610ca15780601f10610c7657610100808354040283529160200191610ca1565b820191906000526020600020905b815481529060010190602001808311610c8457829003601f168201915b50505050509050600080600984604051610cbb9190613173565b9081526020016040518091039020541415610cf2576009604051610cde90613246565b908152602001604051809103902054610d12565b600983604051610d029190613173565b9081526020016040518091039020545b90506000825111610d265750505050610d72565b85610d3088611d5c565b83604051602001610d43939291906131ae565b6040516020818303038152906040529550898188610d619190613778565b610d6b9190613778565b9650505050505b8080610d7d906139a6565b915050610aca565b506000600283610d9591906137ce565b6064610da19190613859565b90506000610dae82611d5c565b610db787611d5c565b898b86604051602001610dce9594939291906132cb565b604051602081830303815290604052905080945050505050949350505050565b60008073ffffffffffffffffffffffffffffffffffffffff168273ffffffffffffffffffffffffffffffffffffffff161415610e5f576040517f08c379a0000000000000000000000000000000000000000000000000000000008152600401610e569061353e565b60405180910390fd5b600360008373ffffffffffffffffffffffffffffffffffffffff1673ffffffffffffffffffffffffffffffffffffffff168152602001908152602001600020549050919050565b610eae6114fa565b73ffffffffffffffffffffffffffffffffffffffff16610ecc610f2e565b73ffffffffffffffffffffffffffffffffffffffff1614610f22576040517f08c379a0000000000000000000000000000000000000000000000000000000008152600401610f19906135fe565b60405180910390fd5b610f2c6000611f09565b565b6000600760009054906101000a900473ffffffffffffffffffffffffffffffffffffffff16905090565b6008818051602081018201805184825260208301602085012081835280955050505050506000915090508054610f8d90613943565b80601f0160208091040260200160405190810160405280929190818152602001828054610fb990613943565b80156110065780601f10610fdb57610100808354040283529160200191611006565b820191906000526020600020905b815481529060010190602001808311610fe957829003601f168201915b505050505081565b60606001805461101d90613943565b80601f016020809104026020016040519081016040528092919081815260200182805461104990613943565b80156110965780601f1061106b57610100808354040283529160200191611096565b820191906000526020600020905b81548152906001019060200180831161107957829003601f168201915b5050505050905090565b6110b26110ab6114fa565b8383611fcf565b5050565b6110c76110c16114fa565b836115bb565b611106576040517f08c379a00000000000000000000000000000000000000000000000000000000081526004016110fd9061365e565b60405180910390fd5b6111128484848461213c565b50505050565b60606111238261148e565b611162576040517f08c379a0000000000000000000000000000000000000000000000000000000008152600401611159906135be565b60405180910390fd5b600060066000848152602001908152602001600020805461118290613943565b80601f01602080910402602001604051908101604052809291908181526020018280546111ae90613943565b80156111fb5780601f106111d0576101008083540402835291602001916111fb565b820191906000526020600020905b8154815290600101906020018083116111de57829003601f168201915b50505050509050600061120c612198565b9050600081511415611222578192505050611265565b60008251111561125757808260405160200161123f92919061318a565b60405160208183030381529060405292505050611265565b611260846121af565b925050505b919050565b6000600560008473ffffffffffffffffffffffffffffffffffffffff1673ffffffffffffffffffffffffffffffffffffffff16815260200190815260200160002060008373ffffffffffffffffffffffffffffffffffffffff1673ffffffffffffffffffffffffffffffffffffffff16815260200190815260200160002060009054906101000a900460ff16905092915050565b6009818051602081018201805184825260208301602085012081835280955050505050506000915090505481565b6113346114fa565b73ffffffffffffffffffffffffffffffffffffffff16611352610f2e565b73ffffffffffffffffffffffffffffffffffffffff16146113a8576040517f08c379a000000000000000000000000000000000000000000000000000000000815260040161139f906135fe565b60405180910390fd5b600073ffffffffffffffffffffffffffffffffffffffff168173ffffffffffffffffffffffffffffffffffffffff161415611418576040517f08c379a000000000000000000000000000000000000000000000000000000000815260040161140f9061345e565b60405180910390fd5b61142181611f09565b50565b60007f01ffc9a7000000000000000000000000000000000000000000000000000000007bffffffffffffffffffffffffffffffffffffffffffffffffffffffff1916827bffffffffffffffffffffffffffffffffffffffffffffffffffffffff1916149050919050565b60008073ffffffffffffffffffffffffffffffffffffffff166002600084815260200190815260200160002060009054906101000a900473ffffffffffffffffffffffffffffffffffffffff1673ffffffffffffffffffffffffffffffffffffffff1614159050919050565b600033905090565b816004600083815260200190815260200160002060006101000a81548173ffffffffffffffffffffffffffffffffffffffff021916908373ffffffffffffffffffffffffffffffffffffffff160217905550808273ffffffffffffffffffffffffffffffffffffffff16611575836109fe565b73ffffffffffffffffffffffffffffffffffffffff167f8c5be1e5ebec7d5bd14f71427d1e84f3dd0314c0f7b2291e5b200ac8c7c3b92560405160405180910390a45050565b60006115c68261148e565b611605576040517f08c379a00000000000000000000000000000000000000000000000000000000081526004016115fc906134fe565b60405180910390fd5b6000611610836109fe565b90508073ffffffffffffffffffffffffffffffffffffffff168473ffffffffffffffffffffffffffffffffffffffff16148061167f57508373ffffffffffffffffffffffffffffffffffffffff16611667846105f5565b73ffffffffffffffffffffffffffffffffffffffff16145b80611690575061168f818561126a565b5b91505092915050565b8273ffffffffffffffffffffffffffffffffffffffff166116b9826109fe565b73ffffffffffffffffffffffffffffffffffffffff161461170f576040517f08c379a00000000000000000000000000000000000000000000000000000000081526004016117069061347e565b60405180910390fd5b600073ffffffffffffffffffffffffffffffffffffffff168273ffffffffffffffffffffffffffffffffffffffff16141561177f576040517f08c379a0000000000000000000000000000000000000000000000000000000008152600401611776906134be565b60405180910390fd5b61178a838383612256565b611795600082611502565b6001600360008573ffffffffffffffffffffffffffffffffffffffff1673ffffffffffffffffffffffffffffffffffffffff16815260200190815260200160002060008282546117e59190613859565b925050819055506001600360008473ffffffffffffffffffffffffffffffffffffffff1673ffffffffffffffffffffffffffffffffffffffff168152602001908152602001600020600082825461183c9190613778565b92505081905550816002600083815260200190815260200160002060006101000a81548173ffffffffffffffffffffffffffffffffffffffff021916908373ffffffffffffffffffffffffffffffffffffffff160217905550808273ffffffffffffffffffffffffffffffffffffffff168473ffffffffffffffffffffffffffffffffffffffff167fddf252ad1be2c89b69c2b068fc378daa952ba7f163c4a11628f55a4df523b3ef60405160405180910390a46118fb83838361225b565b505050565b60606005600f60008282546119159190613778565b92505081905550600a6010600082825461192f9190613778565b92505081905550611986826040518060400160405280600481526020017f233333330000000000000000000000000000000000000000000000000000000081525060016002600f5461198191906137ff565b610ab0565b9050919050565b600081600001549050919050565b6060600c6040516020016119af9190613224565b604051602081830303815290604052600c90805190602001906119d3929190612666565b50611a67600c80546119e490613943565b80601f0160208091040260200160405190810160405280929190818152602001828054611a1090613943565b8015611a5d5780601f10611a3257610100808354040283529160200191611a5d565b820191906000526020600020905b815481529060010190602001808311611a4057829003601f168201915b5050505050612260565b604051602001611a779190613358565b604051602081830303815290604052600c9080519060200190611a9b929190612666565b506000600c604051602001611ab0919061325b565b6040516020818303038152906040529050611aca816123ea565b611ad381612260565b604051602001611ae391906132a9565b60405160208183030381529060405291505090565b6001816000016000828254019250508190555050565b600073ffffffffffffffffffffffffffffffffffffffff168273ffffffffffffffffffffffffffffffffffffffff161415611b7e576040517f08c379a0000000000000000000000000000000000000000000000000000000008152600401611b759061359e565b60405180910390fd5b611b878161148e565b15611bc7576040517f08c379a0000000000000000000000000000000000000000000000000000000008152600401611bbe9061349e565b60405180910390fd5b611bd360008383612256565b6001600360008473ffffffffffffffffffffffffffffffffffffffff1673ffffffffffffffffffffffffffffffffffffffff1681526020019081526020016000206000828254611c239190613778565b92505081905550816002600083815260200190815260200160002060006101000a81548173ffffffffffffffffffffffffffffffffffffffff021916908373ffffffffffffffffffffffffffffffffffffffff160217905550808273ffffffffffffffffffffffffffffffffffffffff16600073ffffffffffffffffffffffffffffffffffffffff167fddf252ad1be2c89b69c2b068fc378daa952ba7f163c4a11628f55a4df523b3ef60405160405180910390a4611ce46000838361225b565b5050565b611cf18261148e565b611d30576040517f08c379a0000000000000000000000000000000000000000000000000000000008152600401611d279061357e565b60405180910390fd5b80600660008481526020019081526020016000209080519060200190611d57929190612666565b505050565b60606000821415611da4576040518060400160405280600181526020017f30000000000000000000000000000000000000000000000000000000000000008152509050611f04565b600082905060005b60008214611dd6578080611dbf906139a6565b915050600a82611dcf91906137ce565b9150611dac565b60008167ffffffffffffffff811115611e18577f4e487b7100000000000000000000000000000000000000000000000000000000600052604160045260246000fd5b6040519080825280601f01601f191660200182016040528015611e4a5781602001600182028036833780820191505090505b5090505b60008514611efd57600182611e639190613859565b9150600a85611e7291906139ef565b6030611e7e9190613778565b60f81b818381518110611eba577f4e487b7100000000000000000000000000000000000000000000000000000000600052603260045260246000fd5b60200101907effffffffffffffffffffffffffffffffffffffffffffffffffffffffffffff1916908160001a905350600a85611ef691906137ce565b9450611e4e565b8093505050505b919050565b6000600760009054906101000a900473ffffffffffffffffffffffffffffffffffffffff16905081600760006101000a81548173ffffffffffffffffffffffffffffffffffffffff021916908373ffffffffffffffffffffffffffffffffffffffff1602179055508173ffffffffffffffffffffffffffffffffffffffff168173ffffffffffffffffffffffffffffffffffffffff167f8be0079c531659141344cd1fd0a4f28419497f9722a3daafe3b4186f6b6457e060405160405180910390a35050565b8173ffffffffffffffffffffffffffffffffffffffff168373ffffffffffffffffffffffffffffffffffffffff16141561203e576040517f08c379a0000000000000000000000000000000000000000000000000000000008152600401612035906134de565b60405180910390fd5b80600560008573ffffffffffffffffffffffffffffffffffffffff1673ffffffffffffffffffffffffffffffffffffffff16815260200190815260200160002060008473ffffffffffffffffffffffffffffffffffffffff1673ffffffffffffffffffffffffffffffffffffffff16815260200190815260200160002060006101000a81548160ff0219169083151502179055508173ffffffffffffffffffffffffffffffffffffffff168373ffffffffffffffffffffffffffffffffffffffff167f17307eab39ab6107e8899845ad3d59bd9653f200f220920489ca2b5937696c318360405161212f91906133e1565b60405180910390a3505050565b612147848484611699565b61215384848484612483565b612192576040517f08c379a00000000000000000000000000000000000000000000000000000000081526004016121899061341e565b60405180910390fd5b50505050565b606060405180602001604052806000815250905090565b60606121ba8261148e565b6121f9576040517f08c379a00000000000000000000000000000000000000000000000000000000081526004016121f09061361e565b60405180910390fd5b6000612203612198565b90506000815111612223576040518060200160405280600081525061224e565b8061222d84611d5c565b60405160200161223e92919061318a565b6040516020818303038152906040525b915050919050565b505050565b505050565b6060600082511415612283576040518060200160405280600081525090506123e5565b600060405180606001604052806040815260200161436e60409139905060006003600285516122b29190613778565b6122bc91906137ce565b60046122c891906137ff565b67ffffffffffffffff811115612307577f4e487b7100000000000000000000000000000000000000000000000000000000600052604160045260246000fd5b6040519080825280601f01601f1916602001820160405280156123395781602001600182028036833780820191505090505b509050600182016020820185865187015b808210156123a5576003820191508151603f8160121c168501518453600184019350603f81600c1c168501518453600184019350603f8160061c168501518453600184019350603f811685015184536001840193505061234a565b50506003865106600181146123c157600281146123d4576123dc565b603d6001830353603d60028303536123dc565b603d60018303535b50505080925050505b919050565b612480816040516024016123fe91906133fc565b6040516020818303038152906040527f41304fac000000000000000000000000000000000000000000000000000000007bffffffffffffffffffffffffffffffffffffffffffffffffffffffff19166020820180517bffffffffffffffffffffffffffffffffffffffffffffffffffffffff838183161783525050505061261a565b50565b60006124a48473ffffffffffffffffffffffffffffffffffffffff16612643565b1561260d578373ffffffffffffffffffffffffffffffffffffffff1663150b7a026124cd6114fa565b8786866040518563ffffffff1660e01b81526004016124ef9493929190613395565b602060405180830381600087803b15801561250957600080fd5b505af192505050801561253a57506040513d601f19601f820116820180604052508101906125379190612a12565b60015b6125bd573d806000811461256a576040519150601f19603f3d011682016040523d82523d6000602084013e61256f565b606091505b506000815114156125b5576040517f08c379a00000000000000000000000000000000000000000000000000000000081526004016125ac9061341e565b60405180910390fd5b805181602001fd5b63150b7a0260e01b7bffffffffffffffffffffffffffffffffffffffffffffffffffffffff1916817bffffffffffffffffffffffffffffffffffffffffffffffffffffffff191614915050612612565b600190505b949350505050565b60008151905060006a636f6e736f6c652e6c6f679050602083016000808483855afa5050505050565b6000808273ffffffffffffffffffffffffffffffffffffffff163b119050919050565b82805461267290613943565b90600052602060002090601f01602090048101928261269457600085556126db565b82601f106126ad57805160ff19168380011785556126db565b828001600101855582156126db579182015b828111156126da5782518255916020019190600101906126bf565b5b5090506126e891906126ec565b5090565b5b808211156127055760008160009055506001016126ed565b5090565b600061271c612717846136be565b613699565b90508281526020810184848401111561273457600080fd5b61273f848285613901565b509392505050565b600061275a612755846136ef565b613699565b90508281526020810184848401111561277257600080fd5b61277d848285613901565b509392505050565b60008135905061279481614311565b92915050565b6000813590506127a981614328565b92915050565b6000813590506127be8161433f565b92915050565b6000815190506127d38161433f565b92915050565b600082601f8301126127ea57600080fd5b81356127fa848260208601612709565b91505092915050565b600082601f83011261281457600080fd5b8135612824848260208601612747565b91505092915050565b60008135905061283c81614356565b92915050565b60006020828403121561285457600080fd5b600061286284828501612785565b91505092915050565b6000806040838503121561287e57600080fd5b600061288c85828601612785565b925050602061289d85828601612785565b9150509250929050565b6000806000606084860312156128bc57600080fd5b60006128ca86828701612785565b93505060206128db86828701612785565b92505060406128ec8682870161282d565b9150509250925092565b6000806000806080858703121561290c57600080fd5b600061291a87828801612785565b945050602061292b87828801612785565b935050604061293c8782880161282d565b925050606085013567ffffffffffffffff81111561295957600080fd5b612965878288016127d9565b91505092959194509250565b6000806040838503121561298457600080fd5b600061299285828601612785565b92505060206129a38582860161279a565b9150509250929050565b600080604083850312156129c057600080fd5b60006129ce85828601612785565b92505060206129df8582860161282d565b9150509250929050565b6000602082840312156129fb57600080fd5b6000612a09848285016127af565b91505092915050565b600060208284031215612a2457600080fd5b6000612a32848285016127c4565b91505092915050565b600060208284031215612a4d57600080fd5b600082013567ffffffffffffffff811115612a6757600080fd5b612a7384828501612803565b91505092915050565b60008060008060808587031215612a9257600080fd5b600085013567ffffffffffffffff811115612aac57600080fd5b612ab887828801612803565b945050602085013567ffffffffffffffff811115612ad557600080fd5b612ae187828801612803565b9350506040612af28782880161282d565b9250506060612b038782880161282d565b91505092959194509250565b600060208284031215612b2157600080fd5b6000612b2f8482850161282d565b91505092915050565b612b418161388d565b82525050565b612b508161389f565b82525050565b6000612b6182613735565b612b6b818561374b565b9350612b7b818560208601613910565b612b8481613adc565b840191505092915050565b6000612b9a82613740565b612ba4818561375c565b9350612bb4818560208601613910565b612bbd81613adc565b840191505092915050565b6000612bd382613740565b612bdd818561376d565b9350612bed818560208601613910565b80840191505092915050565b60008154612c0681613943565b612c10818661376d565b94506001821660008114612c2b5760018114612c3c57612c6f565b60ff19831686528186019350612c6f565b612c4585613720565b60005b83811015612c6757815481890152600182019150602081019050612c48565b838801955050505b50505092915050565b6000612c8560328361375c565b9150612c9082613aed565b604082019050919050565b6000612ca860098361375c565b9150612cb382613b3c565b602082019050919050565b6000612ccb60268361375c565b9150612cd682613b65565b604082019050919050565b6000612cee60028361376d565b9150612cf982613bb4565b600282019050919050565b6000612d1160258361375c565b9150612d1c82613bdd565b604082019050919050565b6000612d34601c8361375c565b9150612d3f82613c2c565b602082019050919050565b6000612d5760018361376d565b9150612d6282613c55565b600182019050919050565b6000612d7a60248361375c565b9150612d8582613c7e565b604082019050919050565b6000612d9d60198361375c565b9150612da882613ccd565b602082019050919050565b6000612dc060098361376d565b9150612dcb82613cf6565b600982019050919050565b6000612de360368361376d565b9150612dee82613d1f565b603682019050919050565b6000612e06602c8361375c565b9150612e1182613d6e565b604082019050919050565b6000612e29601e8361376d565b9150612e3482613dbd565b601e82019050919050565b6000612e4c60388361375c565b9150612e5782613de6565b604082019050919050565b6000612e6f602a8361375c565b9150612e7a82613e35565b604082019050919050565b6000612e9260298361375c565b9150612e9d82613e84565b604082019050919050565b6000612eb5602e8361375c565b9150612ec082613ed3565b604082019050919050565b6000612ed860208361375c565b9150612ee382613f22565b602082019050919050565b6000612efb60318361375c565b9150612f0682613f4b565b604082019050919050565b6000612f1e602c8361375c565b9150612f2982613f9a565b604082019050919050565b6000612f4160208361375c565b9150612f4c82613fe9565b602082019050919050565b6000612f6460078361376d565b9150612f6f82614012565b600782019050919050565b6000612f87602f8361375c565b9150612f928261403b565b604082019050919050565b6000612faa60048361376d565b9150612fb58261408a565b600482019050919050565b6000612fcd60018361376d565b9150612fd8826140b3565b600182019050919050565b6000612ff060218361375c565b9150612ffb826140dc565b604082019050919050565b6000613013601d8361376d565b915061301e8261412b565b601d82019050919050565b600061303660318361375c565b915061304182614154565b604082019050919050565b600061305960188361376d565b9150613064826141a3565b601882019050919050565b600061307c60028361376d565b9150613087826141cc565b600282019050919050565b600061309f600a8361376d565b91506130aa826141f5565b600a82019050919050565b60006130c260198361376d565b91506130cd8261421e565b601982019050919050565b60006130e560068361376d565b91506130f082614247565b600682019050919050565b600061310860248361376d565b915061311382614270565b602482019050919050565b600061312b601a8361376d565b9150613136826142bf565b601a82019050919050565b600061314e60038361376d565b9150613159826142e8565b600382019050919050565b61316d816138f7565b82525050565b600061317f8284612bc8565b915081905092915050565b60006131968285612bc8565b91506131a28284612bc8565b91508190509392505050565b60006131ba8286612bc8565b91506131c58261304c565b91506131d18285612bc8565b91506131dc82613141565b91506131e88284612bc8565b91506131f382612f9d565b9150819050949350505050565b600061320c8285612bf9565b91506132188284612bc8565b91508190509392505050565b60006132308284612bf9565b915061323b826130d8565b915081905092915050565b600061325182612f57565b9150819050919050565b600061326682612fc0565b915061327182612e1c565b915061327c82613092565b91506132888284612bf9565b915061329382612ce1565b915061329e826130b5565b915081905092915050565b60006132b482613006565b91506132c08284612bc8565b915081905092915050565b60006132d6826130fb565b91506132e28288612bc8565b91506132ed82612d4a565b91506132f98287612bc8565b915061330482612db3565b91506133108286612bc8565b915061331b82612dd6565b91506133278285612bc8565b91506133328261306f565b915061333e8284612bc8565b915061334982612f9d565b91508190509695505050505050565b60006133638261311e565b915061336f8284612bc8565b915081905092915050565b600060208201905061338f6000830184612b38565b92915050565b60006080820190506133aa6000830187612b38565b6133b76020830186612b38565b6133c46040830185613164565b81810360608301526133d68184612b56565b905095945050505050565b60006020820190506133f66000830184612b47565b92915050565b600060208201905081810360008301526134168184612b8f565b905092915050565b6000602082019050818103600083015261343781612c78565b9050919050565b6000602082019050818103600083015261345781612c9b565b9050919050565b6000602082019050818103600083015261347781612cbe565b9050919050565b6000602082019050818103600083015261349781612d04565b9050919050565b600060208201905081810360008301526134b781612d27565b9050919050565b600060208201905081810360008301526134d781612d6d565b9050919050565b600060208201905081810360008301526134f781612d90565b9050919050565b6000602082019050818103600083015261351781612df9565b9050919050565b6000602082019050818103600083015261353781612e3f565b9050919050565b6000602082019050818103600083015261355781612e62565b9050919050565b6000602082019050818103600083015261357781612e85565b9050919050565b6000602082019050818103600083015261359781612ea8565b9050919050565b600060208201905081810360008301526135b781612ecb565b9050919050565b600060208201905081810360008301526135d781612eee565b9050919050565b600060208201905081810360008301526135f781612f11565b9050919050565b6000602082019050818103600083015261361781612f34565b9050919050565b6000602082019050818103600083015261363781612f7a565b9050919050565b6000602082019050818103600083015261365781612fe3565b9050919050565b6000602082019050818103600083015261367781613029565b9050919050565b60006020820190506136936000830184613164565b92915050565b60006136a36136b4565b90506136af8282613975565b919050565b6000604051905090565b600067ffffffffffffffff8211156136d9576136d8613aad565b5b6136e282613adc565b9050602081019050919050565b600067ffffffffffffffff82111561370a57613709613aad565b5b61371382613adc565b9050602081019050919050565b60008190508160005260206000209050919050565b600081519050919050565b600081519050919050565b600082825260208201905092915050565b600082825260208201905092915050565b600081905092915050565b6000613783826138f7565b915061378e836138f7565b9250827fffffffffffffffffffffffffffffffffffffffffffffffffffffffffffffffff038211156137c3576137c2613a20565b5b828201905092915050565b60006137d9826138f7565b91506137e4836138f7565b9250826137f4576137f3613a4f565b5b828204905092915050565b600061380a826138f7565b9150613815836138f7565b9250817fffffffffffffffffffffffffffffffffffffffffffffffffffffffffffffffff048311821515161561384e5761384d613a20565b5b828202905092915050565b6000613864826138f7565b915061386f836138f7565b92508282101561388257613881613a20565b5b828203905092915050565b6000613898826138d7565b9050919050565b60008115159050919050565b60007fffffffff0000000000000000000000000000000000000000000000000000000082169050919050565b600073ffffffffffffffffffffffffffffffffffffffff82169050919050565b6000819050919050565b82818337600083830152505050565b60005b8381101561392e578082015181840152602081019050613913565b8381111561393d576000848401525b50505050565b6000600282049050600182168061395b57607f821691505b6020821081141561396f5761396e613a7e565b5b50919050565b61397e82613adc565b810181811067ffffffffffffffff8211171561399d5761399c613aad565b5b80604052505050565b60006139b1826138f7565b91507fffffffffffffffffffffffffffffffffffffffffffffffffffffffffffffffff8214156139e4576139e3613a20565b5b600182019050919050565b60006139fa826138f7565b9150613a05836138f7565b925082613a1557613a14613a4f565b5b828206905092915050565b7f4e487b7100000000000000000000000000000000000000000000000000000000600052601160045260246000fd5b7f4e487b7100000000000000000000000000000000000000000000000000000000600052601260045260246000fd5b7f4e487b7100000000000000000000000000000000000000000000000000000000600052602260045260246000fd5b7f4e487b7100000000000000000000000000000000000000000000000000000000600052604160045260246000fd5b6000601f19601f8301169050919050565b7f4552433732313a207472616e7366657220746f206e6f6e20455243373231526560008201527f63656976657220696d706c656d656e7465720000000000000000000000000000602082015250565b7f4e6f7420666f756e640000000000000000000000000000000000000000000000600082015250565b7f4f776e61626c653a206e6577206f776e657220697320746865207a65726f206160008201527f6464726573730000000000000000000000000000000000000000000000000000602082015250565b7f222c000000000000000000000000000000000000000000000000000000000000600082015250565b7f4552433732313a207472616e736665722066726f6d20696e636f72726563742060008201527f6f776e6572000000000000000000000000000000000000000000000000000000602082015250565b7f4552433732313a20746f6b656e20616c7265616479206d696e74656400000000600082015250565b7f2c00000000000000000000000000000000000000000000000000000000000000600082015250565b7f4552433732313a207472616e7366657220746f20746865207a65726f2061646460008201527f7265737300000000000000000000000000000000000000000000000000000000602082015250565b7f4552433732313a20617070726f766520746f2063616c6c657200000000000000600082015250565b7f29272066696c6c3d270000000000000000000000000000000000000000000000600082015250565b7f272066696c6c2d72756c653d276576656e6f64642720636c69702d72756c653d60008201527f276576656e6f64642720617269612d6c6162656c3d2700000000000000000000602082015250565b7f4552433732313a206f70657261746f7220717565727920666f72206e6f6e657860008201527f697374656e7420746f6b656e0000000000000000000000000000000000000000602082015250565b7f226e616d65223a20224861707079204269727468646179204a61636b222c0000600082015250565b7f4552433732313a20617070726f76652063616c6c6572206973206e6f74206f7760008201527f6e6572206e6f7220617070726f76656420666f7220616c6c0000000000000000602082015250565b7f4552433732313a2062616c616e636520717565727920666f7220746865207a6560008201527f726f206164647265737300000000000000000000000000000000000000000000602082015250565b7f4552433732313a206f776e657220717565727920666f72206e6f6e657869737460008201527f656e7420746f6b656e0000000000000000000000000000000000000000000000602082015250565b7f45524337323155524953746f726167653a2055524920736574206f66206e6f6e60008201527f6578697374656e7420746f6b656e000000000000000000000000000000000000602082015250565b7f4552433732313a206d696e7420746f20746865207a65726f2061646472657373600082015250565b7f45524337323155524953746f726167653a2055524920717565727920666f722060008201527f6e6f6e6578697374656e7420746f6b656e000000000000000000000000000000602082015250565b7f4552433732313a20617070726f76656420717565727920666f72206e6f6e657860008201527f697374656e7420746f6b656e0000000000000000000000000000000000000000602082015250565b7f4f776e61626c653a2063616c6c6572206973206e6f7420746865206f776e6572600082015250565b7f44454641554c5400000000000000000000000000000000000000000000000000600082015250565b7f4552433732314d657461646174613a2055524920717565727920666f72206e6f60008201527f6e6578697374656e7420746f6b656e0000000000000000000000000000000000602082015250565b7f3c2f673e00000000000000000000000000000000000000000000000000000000600082015250565b7f7b00000000000000000000000000000000000000000000000000000000000000600082015250565b7f4552433732313a20617070726f76616c20746f2063757272656e74206f776e6560008201527f7200000000000000000000000000000000000000000000000000000000000000602082015250565b7f646174613a6170706c69636174696f6e2f6a736f6e3b6261736536342c000000600082015250565b7f4552433732313a207472616e736665722063616c6c6572206973206e6f74206f60008201527f776e6572206e6f7220617070726f766564000000000000000000000000000000602082015250565b7f3c67207472616e73666f726d3d277472616e736c617465280000000000000000600082015250565b7f273e000000000000000000000000000000000000000000000000000000000000600082015250565b7f22696d616765223a202200000000000000000000000000000000000000000000600082015250565b7f226465736372697074696f6e223a202254657374696e67227d00000000000000600082015250565b7f3c2f7376673e0000000000000000000000000000000000000000000000000000600082015250565b7f3c6720207472616e73666f726d3d277363616c6528302e3529207472616e736c60008201527f6174652800000000000000000000000000000000000000000000000000000000602082015250565b7f646174613a696d6167652f7376672b786d6c3b6261736536342c000000000000600082015250565b7f29273e0000000000000000000000000000000000000000000000000000000000600082015250565b61431a8161388d565b811461432557600080fd5b50565b6143318161389f565b811461433c57600080fd5b50565b614348816138ab565b811461435357600080fd5b50565b61435f816138f7565b811461436a57600080fd5b5056fe4142434445464748494a4b4c4d4e4f505152535455565758595a6162636465666768696a6b6c6d6e6f707172737475767778797a303132333435363738392b2fa2646970667358221220b61e194e27ac0664fff256f14b564283c6a38cb2c018676bdaf696ef38eca7f064736f6c634300080100333c7061746820643d274d302035483148324c32203448334c33203048324831483056355a4d3120344c3120314c3220314c32203448315a272f3e3c7061746820643d274d302032563148314c3120324c3020325a4d3220324c3120325633483056344c31203456334c32203356344c33203456334c32203356325a4d3220324c3320325631483256325a272f3e3c7061746820643d274d31203148324c32203448314c3120315a4d3120314830563448314c31203548324c32203448334c33203148324c32203048314c3120315a272f3e3c7061746820643d274d3120334830563048314c3120335a4d3220334831563548324c3220335a4d3220334c32203048334c33203348325a272f3e3c7061746820643d274d30203348314c312030483056335a4d30203548314c312034483056355a272f3e3c7061746820643d274d3120304830563156345635483148335634483156334832563248314c3120314c332031563048315a272f3e3c7061746820643d274d3220314830563048334c3320314c3320334c3220334c3120334c31203448334c33203548305634563356324c3220324c3220315a272f3e3c7061746820643d274d3020304831483356314c312031563448335635483148305634563156305a272f3e3c7376672076696577426f783d273020302031303020313730272077696474683d273530302720786d6c6e733d27687474703a2f2f7777772e77332e6f72672f323030302f737667273e3c7265637420783d27302720793d2730272077696474683d273130302527206865696768743d2731303025272066696c6c3d2723303030272f3e3c67207472616e73666f726d3d277363616c65283129207472616e736c6174652834342e352c20343029272066696c6c3d2723666666272066696c6c2d72756c653d276576656e6f64642720636c69702d72756c653d276576656e6f64642720617269612d6c6162656c3d27484244273e3c67207472616e73666f726d3d277472616e736c617465283029273e3c7061746820643d274d30203048314c3120324832563048335632563356354832563348315635483056305a272f3e3c2f673e3c67207472616e73666f726d3d277472616e736c617465283429273e3c7061746820643d274d3120304830563548314832483356334832563248335630483248315a4d32203248315631483256325a4d32203456334831563448325a272f3e3c2f673e3c67207472616e73666f726d3d277472616e736c617465283829273e3c7061746820643d274d302031563456354831483248335631483256304831483056315a4d32203456314c312031563448325a272f3e3c2f673e3c2f673e3c67207472616e73666f726d3d277363616c65283129207472616e736c6174652834322c20353029272066696c6c3d2723666666272066696c6c2d72756c653d276576656e6f64642720636c69702d72756c653d276576656e6f64642720617269612d6c6162656c3d274a41434b273e3c67207472616e73666f726d3d277472616e736c617465283029273e3c67207472616e73666f726d3d277472616e736c617465283029273e3c7061746820643d274d302030483248335631563456354832483148305634563348315634483256314c30203156305a272f3e3c2f673e3c67207472616e73666f726d3d277472616e736c617465283429273e3c7061746820643d274d3020335635483156334c3220335635483356335632563156304832483148305631563256335a4d31203248325631483156325a272f3e3c2f673e3c67207472616e73666f726d3d277472616e736c617465283829273e3c7061746820643d274d3020304831483356314c312031563448335635483148305634563156305a272f3e3c2f673e3c67207472616e73666f726d3d277472616e736c61746528313229273e3c7061746820643d274d3120304830563256335635483156334832563548334c3320334832563248334c33203048324c322032483156305a272f3e3c2f673e3c67207472616e73666f726d3d277472616e736c61746528313629273e3c7061746820643d274d30203348314c312030483056335a4d30203548314c312034483056355a272f3e3c2f673e3c2f673e3c2f673e3c7061746820643d274d30203048314c3120324832563048335632563356354832563348315635483056305a272f3e3c7061746820643d274d33203548324c32203348314c3020335632563048314c3120324c3220324c32203048334c3320324c33203356355a272f3e3c7061746820643d274d302030483248335631563456354832483148305634563348315634483256314c30203156305a272f3e3c7061746820643d274d30203048314833563148315632483256334831483056305a4d32203348335634563548305634483256335a272f3e3c7061746820643d274d3120314c32203156324c3120324c3120315a4d312030483248334c3320314c3320324c332033563548324c32203348314c30203356325631563048315a272f3e3c7061746820643d274d3220314c3120314c3120324c32203256315a4d32203048334c3320314c3320324c3320334c3320344c33203548324831483056345633563256315630483148325a4d32203456334c3120334c31203448325a272f3e3c7061746820643d274d3020354831483248334c33203048324831483056355a4d3220344c3220314c3120314c31203448325a272f3e3c7061746820643d274d302030563148315635483256315630483148305a272f3e3c7061746820643d274d3320314c3320304832483056314c32203156324c30203256334c322033563448305635483248334c3320344c3320334c33203256315a272f3e3c7061746820643d274d3120324c312031483256324c3120325a4d3120354c312033483256354c3120355a4d31203556364830563548315a272f3e3c7061746820643d274d3320314c3320304832483056314c3220314c322035483356315a272f3e3c7265637420783d27312720793d2735272077696474683d273127206865696768743d273127207472616e73666f726d3d27726f74617465283138302031203529272f3e3c7061746820643d274d3120304830563256335635483156334832563548334c3320334832563248334c33203048324c322032483156305a272f3e3c7061746820643d274d32203148314c3120324c30203256334c3120334c3120344c3220344c3220334c33203356324c3220324c3220315a272f3e3c7061746820643d274d31203548324c3220344833563548345634483556334834563248355631483456304833563148324c32203048314c3120314830563248314c3120334830563448314c3120355a4d33203248324c322033483356325a272f3e3c7061746820643d274d3320314c33203048324831483056314c3120314c31203548324c3220314c3320315a272f3e3c7061746820643d274d312030483056345635483148335634483156305a272f3e3c7061746820643d274d3120354830563048314c3120314c32203156324c3120324c3120355a4d332032563348324c3220324c3320325a4d3320324c3320314c3420314c34203048354c3520354834563248335a272f3e3c7061746820643d274d322030483056314832563248315633483256324833563048325a4d32203448315635483256345a272f3e3c7061746820643d274d302031563456354831483248335634563248325634483156314c33203156304831483056315a272f3e3c7061746820643d274d3220314830563048334c3320314c3320324c3220324c3220315a4d3120334c3120324c3220324c32203348315a4d3120334c31203448334c3320354830563456334c3120335a272f3e3c7061746820643d274d30203156324c3120324c31203148305a4d30203356344c3120344c31203348305a272f3e3c7061746820643d274d3120344c3020344c3020354c3120354c3120345a4d3220334c3220344c3120344c3120334c3220335a4d3220324c3220334c3320334c3320324c3220325a4d3120314c3120324c3220324c3220314c3120315a4d3120314c3120304c3020304c3020314c3120315a272f3e3c7061746820643d274d3020335635483156334c3220335635483356335632563156304832483148305631563256335a4d31203248325631483156325a272f3e3c7061746820643d274d30203156324c332032563148305a4d30203356344c33203456334c3020335a272f3e3c7061746820643d274d31203548305630483148334c33203156324c3220324c3220314c31203156324c3220324c322033483156355a4d32203348334c33203548324c3220335a272f3e3c7061746820643d274d3120304830563548314832483356334832563248335630483248315a4d32203248315631483256325a4d32203456334831563448325a272f3e3c70617468207472616e73666f726d3d277472616e736c61746528302c2031292720643d274d31203448324c32203348314c3120345a4d3120344830563548314c3120345a272f3e3c7061746820643d274d302031563048314832483356314c3220315634483356354832483148305634483156314c3020315a272f3e3c7061746820643d274d3420304c3520304c35203548344c34203448335633483456305a204d3220334c32203248334c3320334c3220335a204d3220334c3220344c3120344c31203548304c3020304c3120304c31203348325a272f3e3c7061746820643d274d30203048315635483056305a204d31203148325633483156315a204d32203248335634483256325a204d33203048345635483356305a272f3e3c7061746820643d274d3120324830563048314c3120325a4d32203248314c3120334830563548314c31203348324c32203548334c33203348324c3220325a4d3220324c32203048334c33203248325a272f3e3c7061746820643d274d302031563456354831483248335631483256304831483056315a4d32203456314c312031563448325a272f3e3c7061746820643d274d30203548314c3120334c3320334c3320324c3320314c3320304831483056355a4d3220314c3120314c3120324c3220324c3220315a272f3e3c70617468207472616e73666f726d3d277472616e736c61746528302c202d31292720643d274d3120314c31203048324c32203148334c3320324c3120324c3120334c32203348334c3320344c332035563648324c32203748314c312036483056354c3220354c3220344c312034483056314c3120315a272f3e3c7061746820643d274d3020304831483356314c31203156324832563348315635483056335632563156305a272f3e3c7061746820643d274d32203148334c332030483256315a4d3120324c3120314832563248315a4d3120334c3120324830563348315a4d3220344c32203348314c31203448325a4d322034563548334c33203448325a272f3e3c7061746820643d274d30203456335632563048302e3939393939394c31203248324c3320324c3320334c3320344c33203548324831483056345a4d32203456334c3120334c31203448325a272f3e3c7061746820643d274d3120344830563048314c3120345a4d3220344831563548324c3220345a4d3220344c32203048334c33203448325a272f3e3c7061746820643d274d31203348305630483148334c3320314c3120314c3120324c32203248334c3320334c33203456354832483056344c3220344c3220334c3120335a272f3e3c7061746820643d274d31203548305634563048314c3120344c3220344c32203048334c3320345635483248315a272f3e",
  "linkReferences": {},
  "deployedLinkReferences": {}
}