{
  "_format": "hh-sol-artifact-1",
  "contractName": "Present",
  "sourceName": "contracts/Present.sol",
  "abi": [
    {
      "inputs": [],
      "stateMutability": "nonpayable",
      "type": "constructor"
    },
    {
      "anonymous": false,
      "inputs": [
        {
          "indexed": true,
          "internalType": "address",
          "name": "owner",
          "type": "address"
        },
        {
          "indexed": true,
          "internalType": "address",
          "name": "approved",
          "type": "address"
        },
        {
          "indexed": true,
          "internalType": "uint256",
          "name": "tokenId",
          "type": "uint256"
        }
      ],
      "name": "Approval",
      "type": "event"
    },
    {
      "anonymous": false,
      "inputs": [
        {
          "indexed": true,
          "internalType": "address",
          "name": "owner",
          "type": "address"
        },
        {
          "indexed": true,
          "internalType": "address",
          "name": "operator",
          "type": "address"
        },
        {
          "indexed": false,
          "internalType": "bool",
          "name": "approved",
          "type": "bool"
        }
      ],
      "name": "ApprovalForAll",
      "type": "event"
    },
    {
      "anonymous": false,
      "inputs": [
        {
          "indexed": true,
          "internalType": "address",
          "name": "from",
          "type": "address"
        },
        {
          "indexed": true,
          "internalType": "address",
          "name": "to",
          "type": "address"
        },
        {
          "indexed": true,
          "internalType": "uint256",
          "name": "tokenId",
          "type": "uint256"
        }
      ],
      "name": "Transfer",
      "type": "event"
    },
    {
      "inputs": [
        {
          "internalType": "address",
          "name": "to",
          "type": "address"
        },
        {
          "internalType": "uint256",
          "name": "tokenId",
          "type": "uint256"
        }
      ],
      "name": "approve",
      "outputs": [],
      "stateMutability": "nonpayable",
      "type": "function"
    },
    {
      "inputs": [
        {
          "internalType": "address",
          "name": "owner",
          "type": "address"
        }
      ],
      "name": "balanceOf",
      "outputs": [
        {
          "internalType": "uint256",
          "name": "",
          "type": "uint256"
        }
      ],
      "stateMutability": "view",
      "type": "function"
    },
    {
      "inputs": [
        {
          "internalType": "uint256",
          "name": "tokenId",
          "type": "uint256"
        }
      ],
      "name": "getApproved",
      "outputs": [
        {
          "internalType": "address",
          "name": "",
          "type": "address"
        }
      ],
      "stateMutability": "view",
      "type": "function"
    },
    {
      "inputs": [
        {
          "internalType": "address",
          "name": "owner",
          "type": "address"
        },
        {
          "internalType": "address",
          "name": "operator",
          "type": "address"
        }
      ],
      "name": "isApprovedForAll",
      "outputs": [
        {
          "internalType": "bool",
          "name": "",
          "type": "bool"
        }
      ],
      "stateMutability": "view",
      "type": "function"
    },
    {
      "inputs": [],
      "name": "name",
      "outputs": [
        {
          "internalType": "string",
          "name": "",
          "type": "string"
        }
      ],
      "stateMutability": "view",
      "type": "function"
    },
    {
      "inputs": [
        {
          "internalType": "uint256",
          "name": "tokenId",
          "type": "uint256"
        }
      ],
      "name": "ownerOf",
      "outputs": [
        {
          "internalType": "address",
          "name": "",
          "type": "address"
        }
      ],
      "stateMutability": "view",
      "type": "function"
    },
    {
      "inputs": [
        {
          "internalType": "address",
          "name": "from",
          "type": "address"
        },
        {
          "internalType": "address",
          "name": "to",
          "type": "address"
        },
        {
          "internalType": "uint256",
          "name": "tokenId",
          "type": "uint256"
        }
      ],
      "name": "safeTransferFrom",
      "outputs": [],
      "stateMutability": "nonpayable",
      "type": "function"
    },
    {
      "inputs": [
        {
          "internalType": "address",
          "name": "from",
          "type": "address"
        },
        {
          "internalType": "address",
          "name": "to",
          "type": "address"
        },
        {
          "internalType": "uint256",
          "name": "tokenId",
          "type": "uint256"
        },
        {
          "internalType": "bytes",
          "name": "_data",
          "type": "bytes"
        }
      ],
      "name": "safeTransferFrom",
      "outputs": [],
      "stateMutability": "nonpayable",
      "type": "function"
    },
    {
      "inputs": [
        {
          "internalType": "address",
          "name": "operator",
          "type": "address"
        },
        {
          "internalType": "bool",
          "name": "approved",
          "type": "bool"
        }
      ],
      "name": "setApprovalForAll",
      "outputs": [],
      "stateMutability": "nonpayable",
      "type": "function"
    },
    {
      "inputs": [
        {
          "internalType": "string",
          "name": "name",
          "type": "string"
        }
      ],
      "name": "signCard",
      "outputs": [
        {
          "internalType": "bool",
          "name": "",
          "type": "bool"
        }
      ],
      "stateMutability": "nonpayable",
      "type": "function"
    },
    {
      "inputs": [
        {
          "internalType": "bytes4",
          "name": "interfaceId",
          "type": "bytes4"
        }
      ],
      "name": "supportsInterface",
      "outputs": [
        {
          "internalType": "bool",
          "name": "",
          "type": "bool"
        }
      ],
      "stateMutability": "view",
      "type": "function"
    },
    {
      "inputs": [],
      "name": "symbol",
      "outputs": [
        {
          "internalType": "string",
          "name": "",
          "type": "string"
        }
      ],
      "stateMutability": "view",
      "type": "function"
    },
    {
      "inputs": [
        {
          "internalType": "uint256",
          "name": "tokenId",
          "type": "uint256"
        }
      ],
      "name": "tokenURI",
      "outputs": [
        {
          "internalType": "string",
          "name": "",
          "type": "string"
        }
      ],
      "stateMutability": "view",
      "type": "function"
    },
    {
      "inputs": [],
      "name": "totalSupply",
      "outputs": [
        {
          "internalType": "uint256",
          "name": "",
          "type": "uint256"
        }
      ],
      "stateMutability": "pure",
      "type": "function"
    },
    {
      "inputs": [
        {
          "internalType": "address",
          "name": "from",
          "type": "address"
        },
        {
          "internalType": "address",
          "name": "to",
          "type": "address"
        },
        {
          "internalType": "uint256",
          "name": "tokenId",
          "type": "uint256"
        }
      ],
      "name": "transferFrom",
      "outputs": [],
      "stateMutability": "nonpayable",
      "type": "function"
    },
    {
      "inputs": [
        {
          "internalType": "string",
          "name": "text",
          "type": "string"
        },
        {
          "internalType": "string",
          "name": "color",
          "type": "string"
        },
        {
          "internalType": "uint256",
          "name": "spacing",
          "type": "uint256"
        },
        {
          "internalType": "uint256",
          "name": "y",
          "type": "uint256"
        }
      ],
      "name": "write",
      "outputs": [
        {
          "internalType": "string",
          "name": "",
          "type": "string"
        }
      ],
      "stateMutability": "view",
      "type": "function"
    }
  ],
  "bytecode": "0x60a06040819052600060808190526200001b9160089162001e0c565b5060466009556066600a553480156200003357600080fd5b506040805180820182526007815266484244204a434b60c81b60208083019182528351808501909452600384526212109160ea1b9084015281519192916200007e9160009162001e0c565b5080516200009490600190602084019062001e0c565b50505060405180608001604052806044815260200162004ee8604491396006604051620000c19062001f8e565b90815260200160405180910390209080519060200190620000e492919062001e0c565b50604051806060016040528060218152602001620051e66021913960066040516200010f906200226c565b908152602001604051809103902090805190602001906200013292919062001e0c565b5060405180608001604052806041815260200162004fc66041913960066040516200015d906200222b565b908152602001604051809103902090805190602001906200018092919062001e0c565b5060405180608001604052806043815260200162005207604391396006604051620001ab9062001ff6565b90815260200160405180910390209080519060200190620001ce92919062001e0c565b506040518060600160405280603b815260200162005061603b91396006604051620001f99062001fc2565b908152602001604051809103902090805190602001906200021c92919062001e0c565b50604051806060016040528060388152602001620050cf603891396006604051620002479062002286565b908152602001604051809103902090805190602001906200026a92919062001e0c565b506040518060800160405280604f8152602001620059af604f913960066040516200029590620022d4565b90815260200160405180910390209080519060200190620002b892919062001e0c565b5060405180606001604052806027815260200162005285602791396006604051620002e39062002092565b908152602001604051809103902090805190602001906200030692919062001e0c565b506040518060800160405280605f815260200162005151605f913960066040516200033190620022e1565b908152602001604051809103902090805190602001906200035492919062001e0c565b506040518060800160405280604a815260200162005107604a913960066040516200037f90620022ad565b90815260200160405180910390209080519060200190620003a292919062001e0c565b50604051806060016040528060408152602001620055cc604091396006604051620003cd9062001f81565b90815260200160405180910390209080519060200190620003f092919062001e0c565b50604051806080016040528060438152602001620056826043913960066040516200041b9062001fdc565b908152602001604051809103902090805190602001906200043e92919062001e0c565b506040518060600160405280602b815260200162005007602b91396006604051620004699062001f74565b908152602001604051809103902090805190602001906200048c92919062001e0c565b5060405180606001604052806036815260200162005835603691396006604051620004b790620020fa565b90815260200160405180910390209080519060200190620004da92919062001e0c565b5060405180606001604052806035815260200162004f91603591396006604051620005059062002078565b908152602001604051809103902090805190602001906200052892919062001e0c565b506040518060600160405280602f815260200162005927602f913960066040516200055390620022ee565b908152602001604051809103902090805190602001906200057692919062001e0c565b50604051806060016040528060338152602001620054a3603391396006604051620005a19062001fa8565b90815260200160405180910390209080519060200190620005c492919062001e0c565b506040518060600160405280602f815260200162005032602f91396006604051620005ef9062002003565b908152602001604051809103902090805190602001906200061292919062001e0c565b506040518060600160405280603581526020016200570d6035913960066040516200063d9062002196565b908152602001604051809103902090805190602001906200066092919062001e0c565b506040518060600160405280603381526020016200509c6033913960066040516200068b90620021a3565b90815260200160405180910390209080519060200190620006ae92919062001e0c565b506040518060600160405280603b8152602001620052f0603b91396006604051620006d990620021b0565b90815260200160405180910390209080519060200190620006fc92919062001e0c565b50604051806060016040528060218152602001620053f760219139600660405162000727906200217c565b908152602001604051809103902090805190602001906200074a92919062001e0c565b5060405180608001604052806057815260200162005418605791396006604051620007759062002155565b908152602001604051809103902090805190602001906200079892919062001e0c565b506040518060800160405280604381526020016200579f604391396006604051620007c3906200213b565b90815260200160405180910390209080519060200190620007e692919062001e0c565b50604051806060016040528060368152602001620051b060369139600660405162000811906200225f565b908152602001604051809103902090805190602001906200083492919062001e0c565b506040518060800160405280604281526020016200586b6042913960066040516200085f906200212e565b908152602001604051809103902090805190602001906200088292919062001e0c565b506040518060600160405280603a815260200162004e5b603a91396006604051620008ad9062002356565b90815260200160405180910390209080519060200190620008d092919062001e0c565b506040518060800160405280604a815260200162005638604a91396006604051620008fb9062002308565b908152602001604051809103902090805190602001906200091e92919062001e0c565b5060405180608001604052806047815260200162005a39604791396006604051620009499062002211565b908152602001604051809103902090805190602001906200096c92919062001e0c565b506040518060600160405280602f8152602001620053c8602f9139600660405162000997906200216f565b90815260200160405180910390209080519060200190620009ba92919062001e0c565b5060405180606001604052806031815260200162005a80603191396006604051620009e5906200202a565b9081526020016040518091039020908051906020019062000a0892919062001e0c565b506040518060600160405280603b8152602001620059fe603b9139600660405162000a339062002322565b9081526020016040518091039020908051906020019062000a5692919062001e0c565b506040518060800160405280605d815260200162005742605d9139600660405162000a8190620022a0565b9081526020016040518091039020908051906020019062000aa492919062001e0c565b50604051806080016040528060538152602001620057e260539139600660405162000acf90620020ac565b9081526020016040518091039020908051906020019062000af292919062001e0c565b506040518060600160405280603b815260200162004f2c603b9139600660405162000b1d90620021ca565b9081526020016040518091039020908051906020019062000b4092919062001e0c565b50604051806080016040528060538152602001620054d660539139600660405162000b6b9062002148565b9081526020016040518091039020908051906020019062000b8e92919062001e0c565b50600660405162000b9f9062001f81565b9081526020016040518091039020600660405162000bbd9062002037565b908152602001604051809103902090805462000bd990620024bf565b62000be692919062001e9b565b50600660405162000bf79062001fdc565b9081526020016040518091039020600660405162000c159062002252565b908152602001604051809103902090805462000c3190620024bf565b62000c3e92919062001e9b565b50600660405162000c4f9062001f74565b9081526020016040518091039020600660405162000c6d9062001fb5565b908152602001604051809103902090805462000c8990620024bf565b62000c9692919062001e9b565b50600660405162000ca790620020fa565b9081526020016040518091039020600660405162000cc5906200232f565b908152602001604051809103902090805462000ce190620024bf565b62000cee92919062001e9b565b50600660405162000cff9062002078565b9081526020016040518091039020600660405162000d1d9062002204565b908152602001604051809103902090805462000d3990620024bf565b62000d4692919062001e9b565b50600660405162000d5790620022ee565b9081526020016040518091039020600660405162000d759062002293565b908152602001604051809103902090805462000d9190620024bf565b62000d9e92919062001e9b565b50600660405162000daf9062001fa8565b9081526020016040518091039020600660405162000dcd9062001fcf565b908152602001604051809103902090805462000de990620024bf565b62000df692919062001e9b565b50600660405162000e079062002003565b9081526020016040518091039020600660405162000e2590620021f7565b908152602001604051809103902090805462000e4190620024bf565b62000e4e92919062001e9b565b50600660405162000e5f9062002196565b9081526020016040518091039020600660405162000e7d90620022fb565b908152602001604051809103902090805462000e9990620024bf565b62000ea692919062001e9b565b50600660405162000eb790620021a3565b9081526020016040518091039020600660405162000ed59062002245565b908152602001604051809103902090805462000ef190620024bf565b62000efe92919062001e9b565b50600660405162000f0f90620021b0565b9081526020016040518091039020600660405162000f2d9062002349565b908152602001604051809103902090805462000f4990620024bf565b62000f5692919062001e9b565b50600660405162000f67906200217c565b9081526020016040518091039020600660405162000f8590620020ed565b908152602001604051809103902090805462000fa190620024bf565b62000fae92919062001e9b565b50600660405162000fbf9062002155565b9081526020016040518091039020600660405162000fdd90620022c7565b908152602001604051809103902090805462000ff990620024bf565b6200100692919062001e9b565b50600660405162001017906200213b565b90815260200160405180910390206006604051620010359062002085565b90815260200160405180910390209080546200105190620024bf565b6200105e92919062001e9b565b5060066040516200106f906200225f565b908152602001604051809103902060066040516200108d906200209f565b9081526020016040518091039020908054620010a990620024bf565b620010b692919062001e9b565b506006604051620010c7906200212e565b90815260200160405180910390206006604051620010e59062001fe9565b90815260200160405180910390209080546200110190620024bf565b6200110e92919062001e9b565b5060066040516200111f9062002356565b908152602001604051809103902060066040516200113d9062002051565b90815260200160405180910390209080546200115990620024bf565b6200116692919062001e9b565b506006604051620011779062002308565b9081526020016040518091039020600660405162001195906200205e565b9081526020016040518091039020908054620011b190620024bf565b620011be92919062001e9b565b506006604051620011cf9062002211565b90815260200160405180910390206006604051620011ed90620020c6565b90815260200160405180910390209080546200120990620024bf565b6200121692919062001e9b565b50600660405162001227906200216f565b90815260200160405180910390206006604051620012459062002279565b90815260200160405180910390209080546200126190620024bf565b6200126e92919062001e9b565b5060066040516200127f906200202a565b908152602001604051809103902060066040516200129d906200201d565b9081526020016040518091039020908054620012b990620024bf565b620012c692919062001e9b565b506006604051620012d79062002322565b90815260200160405180910390206006604051620012f590620021ea565b90815260200160405180910390209080546200131190620024bf565b6200131e92919062001e9b565b5060066040516200132f90620022a0565b908152602001604051809103902060066040516200134d9062001f67565b90815260200160405180910390209080546200136990620024bf565b6200137692919062001e9b565b5060066040516200138790620020ac565b90815260200160405180910390206006604051620013a59062002121565b9081526020016040518091039020908054620013c190620024bf565b620013ce92919062001e9b565b506006604051620013df90620021ca565b90815260200160405180910390206006604051620013fd9062002162565b90815260200160405180910390209080546200141990620024bf565b6200142692919062001e9b565b506006604051620014379062002148565b9081526020016040518091039020600660405162001455906200206b565b90815260200160405180910390209080546200147190620024bf565b6200147e92919062001e9b565b5060405180608001604052806053815260200162004e95605391396006604051620014a99062001f9b565b90815260200160405180910390209080519060200190620014cc92919062001e0c565b506040518060600160405280602c81526020016200560c602c91396006604051620014f7906200233c565b908152602001604051809103902090805190602001906200151a92919062001e0c565b506040518060a001604052806075815260200162005557607591396006604051620015459062002189565b908152602001604051809103902090805190602001906200156892919062001e0c565b5060405180608001604052806059815260200162005956605991396006604051620015939062002315565b90815260200160405180910390209080519060200190620015b692919062001e0c565b50604051806080016040528060488152602001620056c5604891396006604051620015e19062002044565b908152602001604051809103902090805190602001906200160492919062001e0c565b50604051806080016040528060448152602001620052ac6044913960066040516200162f9062002107565b908152602001604051809103902090805190602001906200165292919062001e0c565b506040518060600160405280602e815260200162005529602e913960066040516200167d90620021bd565b90815260200160405180910390209080519060200190620016a092919062001e0c565b506040518060600160405280603b81526020016200524a603b91396006604051620016cb90620020e0565b90815260200160405180910390209080519060200190620016ee92919062001e0c565b506040518060600160405280602a815260200162004f67602a91396006604051620017199062002010565b908152602001604051809103902090805190602001906200173c92919062001e0c565b506040518060600160405280603481526020016200546f6034913960066040516200176790620020b9565b908152602001604051809103902090805190602001906200178a92919062001e0c565b506040518060600160405280603b81526020016200532b603b91396006604051620017b59062002114565b90815260200160405180910390209080519060200190620017d892919062001e0c565b506040518060400160405280601f81526020017f3c7061746820643d274d3020334c3020324c33203256334c3020335a272f3e0081525060066040516200181f90620022ba565b908152602001604051809103902090805190602001906200184292919062001e0c565b506040518060a00160405280607a8152602001620058ad607a913960066040516200186d9062002238565b908152602001604051809103902090805190602001906200189092919062001e0c565b506040518060a001604052806062815260200162005366606291396006604051620018bb906200221e565b90815260200160405180910390209080519060200190620018de92919062001e0c565b50604051806020016040528060008152506006604051620018ff90620020d3565b908152602001604051809103902090805190602001906200192292919062001e0c565b50600360076040516200193590620021d7565b908152602001604051809103902081905550600160076040516200195990620020d3565b908152602001604051809103902081905550600160076040516200197d9062002107565b90815260200160405180910390208190555060016007604051620019a190620021bd565b90815260200160405180910390208190555060016007604051620019c59062002010565b90815260200160405180910390208190555060026007604051620019e99062002044565b9081526020016040518091039020819055506002600760405162001a0d90620020e0565b9081526020016040518091039020819055506004600760405162001a31906200213b565b9081526020016040518091039020819055506004600760405162001a559062002085565b9081526020016040518091039020819055506005600760405162001a79906200221e565b9081526020016040518091039020819055506005600760405162001a9d9062002155565b9081526020016040518091039020819055506005600760405162001ac190620022c7565b9081526020016040518091039020819055506005600760405162001ae590620022a0565b9081526020016040518091039020819055506005600760405162001b099062001f67565b9081526040519081900360200190205562001b3a73d1295fcbaf56bf1a6dff3e1df7e437f987f6feca602262001b40565b620024fc565b62001b6282826040518060200160405280600081525062001b6660201b60201c565b5050565b62001b72838362001bae565b62001b81600084848462001ca3565b62001ba95760405162461bcd60e51b815260040162001ba090620023dc565b60405180910390fd5b505050565b6001600160a01b03821662001bd75760405162461bcd60e51b815260040162001ba09062002465565b62001be28162001ddc565b1562001c025760405162461bcd60e51b815260040162001ba0906200242e565b62001c106000838362001ba9565b6001600160a01b038216600090815260036020526040812080546001929062001c3b9084906200249a565b909155505060008181526002602052604080822080546001600160a01b0319166001600160a01b03861690811790915590518392907fddf252ad1be2c89b69c2b068fc378daa952ba7f163c4a11628f55a4df523b3ef908290a462001b626000838362001ba9565b600062001cc4846001600160a01b031662001df960201b620009d41760201c565b1562001dd0576001600160a01b03841663150b7a0262001ce362001e08565b8786866040518563ffffffff1660e01b815260040162001d07949392919062002363565b602060405180830381600087803b15801562001d2257600080fd5b505af192505050801562001d55575060408051601f3d908101601f1916820190925262001d529181019062001f36565b60015b62001db5573d80801562001d86576040519150601f19603f3d011682016040523d82523d6000602084013e62001d8b565b606091505b50805162001dad5760405162461bcd60e51b815260040162001ba090620023dc565b805181602001fd5b6001600160e01b031916630a85bd0160e11b14905062001dd4565b5060015b949350505050565b6000908152600260205260409020546001600160a01b0316151590565b6001600160a01b03163b151590565b3390565b82805462001e1a90620024bf565b90600052602060002090601f01602090048101928262001e3e576000855562001e89565b82601f1062001e5957805160ff191683800117855562001e89565b8280016001018555821562001e89579182015b8281111562001e8957825182559160200191906001019062001e6c565b5062001e9792915062001f1f565b5090565b82805462001ea990620024bf565b90600052602060002090601f01602090048101928262001ecd576000855562001e89565b82601f1062001ee0578054855562001e89565b8280016001018555821562001e8957600052602060002091601f016020900482015b8281111562001e8957825482559160010191906001019062001f02565b5b8082111562001e97576000815560010162001f20565b60006020828403121562001f48578081fd5b81516001600160e01b03198116811462001f60578182fd5b9392505050565b607760f81b815260010190565b604360f81b815260010190565b604160f81b815260010190565b600360fc1b815260010190565b601560f91b815260010190565b604760f81b815260010190565b606360f81b815260010190565b600d60fa1b815260010190565b606760f81b815260010190565b602160f91b815260010190565b600760fc1b815260010190565b603360f81b815260010190565b600960fb1b815260010190565b602160f81b815260010190565b607560f81b815260010190565b605560f81b815260010190565b606160f81b815260010190565b600b60fa1b815260010190565b607160f81b815260010190565b603960f91b815260010190565b603d60f91b815260010190565b604560f81b815260010190565b603760f91b815260010190565b603760f81b815260010190565b606f60f81b815260010190565b600b60fb1b815260010190565b603f60f81b815260010190565b607360f81b815260010190565b600160fd1b815260010190565b603b60f81b815260010190565b601b60fa1b815260010190565b601160fa1b815260010190565b601760f91b815260010190565b602b60f81b815260010190565b600f60fb1b815260010190565b600560fc1b815260010190565b602760f91b815260010190565b602d60f91b815260010190565b604d60f81b815260010190565b607960f81b815260010190565b601560fa1b815260010190565b601360fa1b815260010190565b600f60fa1b815260010190565b604960f81b815260010190565b602560f91b815260010190565b604b60f81b815260010190565b601d60f91b815260010190565b605960f81b815260010190565b661111519055531560ca1b815260070190565b603b60f91b815260010190565b600d60fb1b815260010190565b606560f81b815260010190565b605360f81b815260010190565b602360f81b815260010190565b601960f91b815260010190565b600960fa1b815260010190565b603560f91b815260010190565b603160f91b815260010190565b604f60f81b815260010190565b603160f81b815260010190565b601d60fa1b815260010190565b603560f81b815260010190565b603360f91b815260010190565b605760f81b815260010190565b603960f81b815260010190565b602d60f81b815260010190565b606d60f81b815260010190565b601b60f91b815260010190565b600760fb1b815260010190565b602360f91b815260010190565b606960f81b815260010190565b602960f91b815260010190565b601f60f91b815260010190565b602b60f91b815260010190565b601960fa1b815260010190565b603d60f81b815260010190565b606b60f81b815260010190565b605160f81b815260010190565b600060018060a01b0380871683526020818716818501528560408501526080606085015284519150816080850152825b82811015620023b15785810182015185820160a00152810162002393565b82811115620023c3578360a084870101525b5050601f01601f19169190910160a00195945050505050565b60208082526032908201527f4552433732313a207472616e7366657220746f206e6f6e20455243373231526560408201527131b2b4bb32b91034b6b83632b6b2b73a32b960711b606082015260800190565b6020808252601c908201527f4552433732313a20746f6b656e20616c7265616479206d696e74656400000000604082015260600190565b6020808252818101527f4552433732313a206d696e7420746f20746865207a65726f2061646472657373604082015260600190565b60008219821115620024ba57634e487b7160e01b81526011600452602481fd5b500190565b600281046001821680620024d457607f821691505b60208210811415620024f657634e487b7160e01b600052602260045260246000fd5b50919050565b61294f806200250c6000396000f3fe608060405234801561001057600080fd5b50600436106101005760003560e01c80636352211e11610097578063a22cb46511610066578063a22cb46514610207578063b88d4fde1461021a578063c87b56dd1461022d578063e985e9c51461024057610100565b80636352211e146101c6578063671639c1146101d957806370a08231146101ec57806395d89b41146101ff57610100565b806318160ddd116100d357806318160ddd1461017857806323b872dd1461018d57806342842e0e146101a0578063432a43cc146101b357610100565b806301ffc9a71461010557806306fdde031461012e578063081812fc14610143578063095ea7b314610163575b600080fd5b6101186101133660046115bf565b610253565b6040516101259190612206565b60405180910390f35b6101366102cd565b6040516101259190612211565b61015661015136600461169b565b61035f565b60405161012591906121b6565b610176610171366004611596565b6103ab565b005b610180610443565b6040516101259190612771565b61017661019b3660046114a8565b610448565b6101766101ae3660046114a8565b610480565b6101186101c13660046115f7565b61049b565b6101566101d436600461169b565b6105bf565b6101366101e736600461162a565b6105f4565b6101806101fa36600461145c565b61080a565b61013661084e565b61017661021536600461155c565b61085d565b6101766102283660046114e3565b610873565b61013661023b36600461169b565b6108b2565b61011861024e366004611476565b6109a6565b60006001600160e01b031982167f80ac58cd0000000000000000000000000000000000000000000000000000000014806102b657506001600160e01b031982167f5b5e139f00000000000000000000000000000000000000000000000000000000145b806102c557506102c5826109e3565b90505b919050565b6060600080546102dc90612814565b80601f016020809104026020016040519081016040528092919081815260200182805461030890612814565b80156103555780601f1061032a57610100808354040283529160200191610355565b820191906000526020600020905b81548152906001019060200180831161033857829003601f168201915b5050505050905090565b600061036a82610a15565b61038f5760405162461bcd60e51b815260040161038690612634565b60405180910390fd5b506000908152600460205260409020546001600160a01b031690565b60006103b6826105bf565b9050806001600160a01b0316836001600160a01b031614156103ea5760405162461bcd60e51b815260040161038690612680565b806001600160a01b03166103fc610a32565b6001600160a01b0316148061041857506104188161024e610a32565b6104345760405162461bcd60e51b815260040161038690612452565b61043e8383610a36565b505050565b600190565b610459610453610a32565b82610ab1565b6104755760405162461bcd60e51b8152600401610386906126dd565b61043e838383610b2e565b61043e83838360405180602001604052806000815250610873565b336000908152600b6020526040812054829060ff16156104cd5760405162461bcd60e51b81526004016103869061273a565b60008151116104ee5760405162461bcd60e51b815260040161038690612569565b600a81511061050f5760405162461bcd60e51b815260040161038690612372565b6362f881504211156105335760405162461bcd60e51b81526004016103869061241b565b61053c83610c6e565b156105595760405162461bcd60e51b8152600401610386906125d7565b600861056484610d5f565b6040516020016105759291906118dd565b60405160208183030381529060405260089080519060200190610599929190611310565b5050336000908152600b60205260409020805460ff191660019081179091559050919050565b6000818152600260205260408120546001600160a01b0316806102c55760405162461bcd60e51b81526004016103869061250c565b60408051602081019091526000808252606091815b87518110156107a557600061061e8983610de0565b9050600060068260405161063291906117cc565b9081526020016040518091039020805461064b90612814565b80601f016020809104026020016040519081016040528092919081815260200182805461067790612814565b80156106c45780601f10610699576101008083540402835291602001916106c4565b820191906000526020600020905b8154815290600101906020018083116106a757829003601f168201915b5050505050905060006007836040516106dd91906117cc565b9081526020016040518091039020546000141561071657600760405161070290611e96565b908152602001604051809103902054610736565b60078360405161072691906117cc565b9081526020016040518091039020545b9050600082511161074957505050610793565b8461075387610e6f565b8360405160200161076693929190611835565b60408051601f198184030181529190529450886107838288612786565b61078d9190612786565b95505050505b8061079d8161284f565b915050610609565b5060006107b360028461279e565b6107be9060646127d1565b905060006107cb82610e6f565b6107d487610e6f565b898b866040516020016107eb959493929190612008565b60408051601f198184030181529190529450505050505b949350505050565b60006001600160a01b0382166108325760405162461bcd60e51b8152600401610386906124af565b506001600160a01b031660009081526003602052604090205490565b6060600180546102dc90612814565b61086f610868610a32565b8383610fa6565b5050565b61088461087e610a32565b83610ab1565b6108a05760405162461bcd60e51b8152600401610386906126dd565b6108ac84848484611049565b50505050565b6060816022146108d45760405162461bcd60e51b8152600401610386906125a0565b60006108e1600a54610e6f565b6040516020016108f19190611902565b60405160208183030381529060405290508060086040516020016109169291906117e8565b60405160208183030381529060405290506109308161107c565b6040516020016109409190612171565b60405160208183030381529060405290506000816040516020016109649190611ebf565b604051602081830303815290604052905061097e8161107c565b60405160200161098e9190611fc3565b60405160208183030381529060405292505050919050565b6001600160a01b03918216600090815260056020908152604080832093909416825291909152205460ff1690565b6001600160a01b03163b151590565b6001600160e01b031981167f01ffc9a70000000000000000000000000000000000000000000000000000000014919050565b6000908152600260205260409020546001600160a01b0316151590565b3390565b6000818152600460205260409020805473ffffffffffffffffffffffffffffffffffffffff19166001600160a01b0384169081179091558190610a78826105bf565b6001600160a01b03167f8c5be1e5ebec7d5bd14f71427d1e84f3dd0314c0f7b2291e5b200ac8c7c3b92560405160405180910390a45050565b6000610abc82610a15565b610ad85760405162461bcd60e51b8152600401610386906123cf565b6000610ae3836105bf565b9050806001600160a01b0316846001600160a01b03161480610b1e5750836001600160a01b0316610b138461035f565b6001600160a01b0316145b80610802575061080281856109a6565b826001600160a01b0316610b41826105bf565b6001600160a01b031614610b675760405162461bcd60e51b815260040161038690612281565b6001600160a01b038216610b8d5760405162461bcd60e51b8152600401610386906122de565b610b9883838361043e565b610ba3600082610a36565b6001600160a01b0383166000908152600360205260408120805460019290610bcc9084906127d1565b90915550506001600160a01b0382166000908152600360205260408120805460019290610bfa908490612786565b9091555050600081815260026020526040808220805473ffffffffffffffffffffffffffffffffffffffff19166001600160a01b0386811691821790925591518493918716917fddf252ad1be2c89b69c2b068fc378daa952ba7f163c4a11628f55a4df523b3ef91a461043e83838361043e565b6000805b8251811015610d5657604080516001808252818301909252600091602082018180368337019050509050838281518110610cbc57634e487b7160e01b600052603260045260246000fd5b602001015160f81c60f81b81600081518110610ce857634e487b7160e01b600052603260045260246000fd5b60200101906001600160f81b031916908160001a905350600081600081518110610d2257634e487b7160e01b600052603260045260246000fd5b0160209081015160f81c9150811415610d4157600193505050506102c8565b50508080610d4e9061284f565b915050610c72565b50600092915050565b6060600560096000828254610d749190612786565b925050819055506005600a6000828254610d8e9190612786565b925050819055506102c5826040518060400160405280600481526020017f2339393900000000000000000000000000000000000000000000000000000000815250600160095460026101e791906127b2565b60408051600180825281830190925260609160009190602082018180368337019050509050838381518110610e2557634e487b7160e01b600052603260045260246000fd5b602001015160f81c60f81b81600081518110610e5157634e487b7160e01b600052603260045260246000fd5b60200101906001600160f81b031916908160001a9053509392505050565b606081610eb0575060408051808201909152600181527f300000000000000000000000000000000000000000000000000000000000000060208201526102c8565b8160005b8115610eda5780610ec48161284f565b9150610ed39050600a8361279e565b9150610eb4565b60008167ffffffffffffffff811115610f0357634e487b7160e01b600052604160045260246000fd5b6040519080825280601f01601f191660200182016040528015610f2d576020820181803683370190505b5090505b841561080257610f426001836127d1565b9150610f4f600a8661286a565b610f5a906030612786565b60f81b818381518110610f7d57634e487b7160e01b600052603260045260246000fd5b60200101906001600160f81b031916908160001a905350610f9f600a8661279e565b9450610f31565b816001600160a01b0316836001600160a01b03161415610fd85760405162461bcd60e51b81526004016103869061233b565b6001600160a01b0383811660008181526005602090815260408083209487168084529490915290819020805460ff1916851515179055517f17307eab39ab6107e8899845ad3d59bd9653f200f220920489ca2b5937696c319061103c908590612206565b60405180910390a3505050565b611054848484610b2e565b611060848484846111df565b6108ac5760405162461bcd60e51b815260040161038690612224565b606081516000141561109d57506040805160208101909152600081526102c8565b60006040518060600160405280604081526020016128da60409139905060006003845160026110cc9190612786565b6110d6919061279e565b6110e19060046127b2565b67ffffffffffffffff81111561110757634e487b7160e01b600052604160045260246000fd5b6040519080825280601f01601f191660200182016040528015611131576020820181803683370190505b509050600182016020820185865187015b8082101561119d576003820191508151603f8160121c168501518453600184019350603f81600c1c168501518453600184019350603f8160061c168501518453600184019350603f8116850151845350600183019250611142565b50506003865106600181146111b957600281146111cc576111d4565b603d6001830353603d60028303536111d4565b603d60018303535b509195945050505050565b60006111f3846001600160a01b03166109d4565b1561130857836001600160a01b031663150b7a0261120f610a32565b8786866040518563ffffffff1660e01b815260040161123194939291906121ca565b602060405180830381600087803b15801561124b57600080fd5b505af192505050801561127b575060408051601f3d908101601f19168201909252611278918101906115db565b60015b6112d5573d8080156112a9576040519150601f19603f3d011682016040523d82523d6000602084013e6112ae565b606091505b5080516112cd5760405162461bcd60e51b815260040161038690612224565b805181602001fd5b6001600160e01b0319167f150b7a0200000000000000000000000000000000000000000000000000000000149050610802565b506001610802565b82805461131c90612814565b90600052602060002090601f01602090048101928261133e5760008555611384565b82601f1061135757805160ff1916838001178555611384565b82800160010185558215611384579182015b82811115611384578251825591602001919060010190611369565b50611390929150611394565b5090565b5b808211156113905760008155600101611395565b600067ffffffffffffffff808411156113c4576113c46128aa565b604051601f8501601f19908116603f011681019082821181831017156113ec576113ec6128aa565b8160405280935085815286868601111561140557600080fd5b858560208301376000602087830101525050509392505050565b80356001600160a01b03811681146102c857600080fd5b600082601f830112611446578081fd5b611455838335602085016113a9565b9392505050565b60006020828403121561146d578081fd5b6114558261141f565b60008060408385031215611488578081fd5b6114918361141f565b915061149f6020840161141f565b90509250929050565b6000806000606084860312156114bc578081fd5b6114c58461141f565b92506114d36020850161141f565b9150604084013590509250925092565b600080600080608085870312156114f8578081fd5b6115018561141f565b935061150f6020860161141f565b925060408501359150606085013567ffffffffffffffff811115611531578182fd5b8501601f81018713611541578182fd5b611550878235602084016113a9565b91505092959194509250565b6000806040838503121561156e578182fd5b6115778361141f565b91506020830135801515811461158b578182fd5b809150509250929050565b600080604083850312156115a8578182fd5b6115b18361141f565b946020939093013593505050565b6000602082840312156115d0578081fd5b8135611455816128c0565b6000602082840312156115ec578081fd5b8151611455816128c0565b600060208284031215611608578081fd5b813567ffffffffffffffff81111561161e578182fd5b61080284828501611436565b6000806000806080858703121561163f578384fd5b843567ffffffffffffffff80821115611656578586fd5b61166288838901611436565b95506020870135915080821115611677578485fd5b5061168487828801611436565b949794965050505060408301359260600135919050565b6000602082840312156116ac578081fd5b5035919050565b600081518084526116cb8160208601602086016127e8565b601f01601f19169290920160200192915050565b600081516116f18185602086016127e8565b9290920192915050565b80546000906002810460018083168061171557607f831692505b602080841082141561173557634e487b7160e01b86526022600452602486fd5b818015611749576001811461175a57611787565b60ff19861689528489019650611787565b6117638861277a565b60005b8681101561177f5781548b820152908501908301611766565b505084890196505b50505050505092915050565b631e17b39f60e11b815260040190565b7f273e000000000000000000000000000000000000000000000000000000000000815260020190565b600082516117de8184602087016127e8565b9190910192915050565b600083516117fa8184602088016127e8565b611806818401856116fb565b7f3c2f7376673e0000000000000000000000000000000000000000000000000000815260060195945050505050565b600084516118478184602089016127e8565b7f3c67207472616e73666f726d3d277472616e736c61746528000000000000000090830190815284516118818160188401602089016127e8565b7f29273e00000000000000000000000000000000000000000000000000000000006018929091019182015283516118bf81601b8401602088016127e8565b631e17b39f60e11b601b9290910191820152601f0195945050505050565b60006118e982856116fb565b83516118f98183602088016127e8565b01949350505050565b60007f3c7376672076696577426f783d273020302031303020000000000000000000008252825161193a8160168501602087016127e8565b7f272077696474683d273530302720786d6c6e733d27687474703a2f2f7777772e60169390910192830152507f77332e6f72672f323030302f737667273e3c7265637420783d27302720793d2760368201527f30272077696474683d273130302527206865696768743d27313030252720666960568201527f6c6c3d2723303030272f3e3c67207472616e73666f726d3d277363616c65283160768201527f29207472616e736c6174652834342e352c20343029272066696c6c3d2723666660968201527f66272066696c6c2d72756c653d276576656e6f64642720636c69702d72756c6560b68201527f3d276576656e6f64642720617269612d6c6162656c3d27484244273e3c67207460d68201527f72616e73666f726d3d277472616e736c617465283029273e3c7061746820643d60f68201527f274d30203048314c3120324832563048335632563356354832563348315635486101168201527f3056305a272f3e3c2f673e3c67207472616e73666f726d3d277472616e736c616101368201527f7465283429273e3c7061746820643d274d3120304830563548314832483356336101568201527f4832563248335630483248315a4d32203248315631483256325a4d32203456336101768201527f4831563448325a272f3e3c2f673e3c67207472616e73666f726d3d277472616e6101968201527f736c617465283829273e3c7061746820643d274d3020315634563548314832486101b68201527f335631483256304831483056315a4d32203456314c312031563448325a272f3e6101d68201527f3c2f673e3c2f673e3c67207472616e73666f726d3d277363616c6528312920746101f68201527f72616e736c6174652834322c20353029272066696c6c3d2723666666272066696102168201527f6c6c2d72756c653d276576656e6f64642720636c69702d72756c653d276576656102368201527f6e6f64642720617269612d6c6162656c3d274a41434b273e3c67207472616e736102568201527f666f726d3d277472616e736c617465283029273e3c67207472616e73666f726d6102768201527f3d277472616e736c617465283029273e3c7061746820643d274d3020304832486102968201527f335631563456354832483148305634563348315634483256314c30203156305a6102b68201527f272f3e3c2f673e3c67207472616e73666f726d3d277472616e736c61746528346102d68201527f29273e3c7061746820643d274d3020335635483156334c3220335635483356336102f68201527f5632563156304832483148305631563256335a4d31203248325631483156325a6103168201527f272f3e3c2f673e3c67207472616e73666f726d3d277472616e736c61746528386103368201527f29273e3c7061746820643d274d3020304831483356314c3120315634483356356103568201527f483148305634563156305a272f3e3c2f673e3c67207472616e73666f726d3d276103768201527f7472616e736c61746528313229273e3c7061746820643d274d312030483056326103968201527f56335635483156334832563548334c3320334832563248334c33203048324c326103b68201527f2032483156305a272f3e3c2f673e3c67207472616e73666f726d3d277472616e6103d68201527f736c61746528313629273e3c7061746820643d274d30203348314c31203048306103f68201527f56335a4d30203548314c312034483056355a272f3e3c2f673e3c2f673e3c2f676104168201527f3e3c7265637420783d2734312720793d273634272077696474683d27313927206104368201527f6865696768743d2731272066696c6c3d2723463946394639272f3e000000000061045682015261047101919050565b7f44454641554c5400000000000000000000000000000000000000000000000000815260070190565b60007f7b0000000000000000000000000000000000000000000000000000000000000082527f226e616d65223a2022484244204a434b222c000000000000000000000000000060018301527f226465736372697074696f6e223a20224861707079204269727468646179204a60138301527f61636b202d205656222c0000000000000000000000000000000000000000000060338301527f22696d616765223a202200000000000000000000000000000000000000000000603d8301528251611f8f8160478501602087016127e8565b7f227d0000000000000000000000000000000000000000000000000000000000006047939091019283015250604901919050565b60007f646174613a6170706c69636174696f6e2f6a736f6e3b6261736536342c00000082528251611ffb81601d8501602087016127e8565b91909101601d0192915050565b60007f3c6720207472616e73666f726d3d277363616c6528302e3529207472616e736c82527f617465280000000000000000000000000000000000000000000000000000000060208301528651612066816024850160208b016127e8565b7f2c0000000000000000000000000000000000000000000000000000000000000060249184019182015286516120a3816025840160208b016127e8565b7f29272066696c6c3d2700000000000000000000000000000000000000000000006025929091019182015285516120e181602e840160208a016127e8565b7f272066696c6c2d72756c653d276576656e6f64642720636c69702d72756c653d602e92909101918201527f276576656e6f64642720617269612d6c6162656c3d2700000000000000000000604e82015284516121458160648401602089016127e8565b61216461215f6121596064848601016117a3565b876116df565b611793565b9998505050505050505050565b60007f646174613a696d6167652f7376672b786d6c3b6261736536342c000000000000825282516121a981601a8501602087016127e8565b91909101601a0192915050565b6001600160a01b0391909116815260200190565b60006001600160a01b038087168352808616602084015250836040830152608060608301526121fc60808301846116b3565b9695505050505050565b901515815260200190565b60006020825261145560208301846116b3565b60208082526032908201527f4552433732313a207472616e7366657220746f206e6f6e20455243373231526560408201527f63656976657220696d706c656d656e7465720000000000000000000000000000606082015260800190565b60208082526025908201527f4552433732313a207472616e736665722066726f6d20696e636f72726563742060408201527f6f776e6572000000000000000000000000000000000000000000000000000000606082015260800190565b60208082526024908201527f4552433732313a207472616e7366657220746f20746865207a65726f2061646460408201527f7265737300000000000000000000000000000000000000000000000000000000606082015260800190565b60208082526019908201527f4552433732313a20617070726f766520746f2063616c6c657200000000000000604082015260600190565b60208082526027908201527f5369676e6174757265206d757374206265203130206f72206c6573732063686160408201527f7261637465727300000000000000000000000000000000000000000000000000606082015260800190565b6020808252602c908201527f4552433732313a206f70657261746f7220717565727920666f72206e6f6e657860408201526b34b9ba32b73a103a37b5b2b760a11b606082015260800190565b60208082526016908201527f4a61636b73206269727468646179206973206f76657200000000000000000000604082015260600190565b60208082526038908201527f4552433732313a20617070726f76652063616c6c6572206973206e6f74206f7760408201527f6e6572206e6f7220617070726f76656420666f7220616c6c0000000000000000606082015260800190565b6020808252602a908201527f4552433732313a2062616c616e636520717565727920666f7220746865207a6560408201527f726f206164647265737300000000000000000000000000000000000000000000606082015260800190565b60208082526029908201527f4552433732313a206f776e657220717565727920666f72206e6f6e657869737460408201527f656e7420746f6b656e0000000000000000000000000000000000000000000000606082015260800190565b6020808252600c908201527f4e6f207369676e61747572650000000000000000000000000000000000000000604082015260600190565b60208082526019908201527f546869732069736e2774204a61636b7320626972746864617900000000000000604082015260600190565b60208082526021908201527f5369676e617475726573206d75737420626520776974686f757420737061636560408201527f7300000000000000000000000000000000000000000000000000000000000000606082015260800190565b6020808252602c908201527f4552433732313a20617070726f76656420717565727920666f72206e6f6e657860408201526b34b9ba32b73a103a37b5b2b760a11b606082015260800190565b60208082526021908201527f4552433732313a20617070726f76616c20746f2063757272656e74206f776e6560408201527f7200000000000000000000000000000000000000000000000000000000000000606082015260800190565b60208082526031908201527f4552433732313a207472616e736665722063616c6c6572206973206e6f74206f60408201527f776e6572206e6f7220617070726f766564000000000000000000000000000000606082015260800190565b60208082526016908201527f596f752063616e206f6e6c79207369676e206f6e636500000000000000000000604082015260600190565b90815260200190565b60009081526020902090565b600082198211156127995761279961287e565b500190565b6000826127ad576127ad612894565b500490565b60008160001904831182151516156127cc576127cc61287e565b500290565b6000828210156127e3576127e361287e565b500390565b60005b838110156128035781810151838201526020016127eb565b838111156108ac5750506000910152565b60028104600182168061282857607f821691505b6020821081141561284957634e487b7160e01b600052602260045260246000fd5b50919050565b60006000198214156128635761286361287e565b5060010190565b60008261287957612879612894565b500690565b634e487b7160e01b600052601160045260246000fd5b634e487b7160e01b600052601260045260246000fd5b634e487b7160e01b600052604160045260246000fd5b6001600160e01b0319811681146128d657600080fd5b5056fe4142434445464748494a4b4c4d4e4f505152535455565758595a6162636465666768696a6b6c6d6e6f707172737475767778797a303132333435363738392b2fa2646970667358221220579ece50ce6aad0a9be468951f32ace5e7f424d5bf43c4a83885ea3609cda15b64736f6c634300080100333c7061746820643d274d302035483148324c32203448334c33203048324831483056355a4d3120344c3120314c3220314c32203448315a272f3e3c7061746820643d274d302032563148314c3120324c3020325a4d3220324c3120325633483056344c31203456334c32203356344c33203456334c32203356325a4d3220324c3320325631483256325a272f3e3c7061746820643d274d31203148324c32203448314c3120315a4d3120314830563448314c31203548324c32203448334c33203148324c32203048314c3120315a272f3e3c7061746820643d274d3120334830563048314c3120335a4d3220334831563548324c3220335a4d3220334c32203048334c33203348325a272f3e3c7061746820643d274d30203348314c312030483056335a4d30203548314c312034483056355a272f3e3c7061746820643d274d3120304830563156345635483148335634483156334832563248314c3120314c332031563048315a272f3e3c7061746820643d274d3220314830563048334c3320314c3320334c3220334c3120334c31203448334c33203548305634563356324c3220324c3220315a272f3e3c7061746820643d274d3020304831483356314c312031563448335635483148305634563156305a272f3e3c7061746820643d274d30203048314c3120324832563048335632563356354832563348315635483056305a272f3e3c7061746820643d274d33203548324c32203348314c3020335632563048314c3120324c3220324c32203048334c3320324c33203356355a272f3e3c7061746820643d274d302030483248335631563456354832483148305634563348315634483256314c30203156305a272f3e3c7061746820643d274d30203048314833563148315632483256334831483056305a4d32203348335634563548305634483256335a272f3e3c7061746820643d274d3120314c32203156324c3120324c3120315a4d312030483248334c3320314c3320324c332033563548324c32203348314c30203356325631563048315a272f3e3c7061746820643d274d3220314c3120314c3120324c32203256315a4d32203048334c3320314c3320324c3320334c3320344c33203548324831483056345633563256315630483148325a4d32203456334c3120334c31203448325a272f3e3c7061746820643d274d3020354831483248334c33203048324831483056355a4d3220344c3220314c3120314c31203448325a272f3e3c7061746820643d274d302030563148315635483256315630483148305a272f3e3c7061746820643d274d3320314c3320304832483056314c32203156324c30203256334c322033563448305635483248334c3320344c3320334c33203256315a272f3e3c7061746820643d274d3120324c312031483256324c3120325a4d3120354c312033483256354c3120355a4d31203556364830563548315a272f3e3c7061746820643d274d3320314c3320304832483056314c3220314c322035483356315a272f3e3c7265637420783d27312720793d2735272077696474683d273127206865696768743d273127207472616e73666f726d3d27726f74617465283138302031203529272f3e3c7061746820643d274d3120304830563256335635483156334832563548334c3320334832563248334c33203048324c322032483156305a272f3e3c7061746820643d274d32203148314c3120324c30203256334c3120334c3120344c3220344c3220334c33203356324c3220324c3220315a272f3e3c7061746820643d274d31203548324c3220344833563548345634483556334834563248355631483456304833563148324c32203048314c3120314830563248314c3120334830563448314c3120355a4d33203248324c322033483356325a272f3e3c7061746820643d274d3320314c33203048324831483056314c3120314c31203548324c3220314c3320315a272f3e3c7061746820643d274d312030483056345635483148335634483156305a272f3e3c7061746820643d274d3120354830563048314c3120314c32203156324c3120324c3120355a4d332032563348324c3220324c3320325a4d3320324c3320314c3420314c34203048354c3520354834563248335a272f3e3c7061746820643d274d322030483056314832563248315633483256324833563048325a4d32203448315635483256345a272f3e3c7061746820643d274d302031563456354831483248335634563248325634483156314c33203156304831483056315a272f3e3c7061746820643d274d3220314830563048334c3320314c3320324c3220324c3220315a4d3120334c3120324c3220324c32203348315a4d3120334c31203448334c3320354830563456334c3120335a272f3e3c7061746820643d274d30203156324c3120324c31203148305a4d30203356344c3120344c31203348305a272f3e3c7061746820643d274d3120344c3020344c3020354c3120354c3120345a4d3220334c3220344c3120344c3120334c3220335a4d3220324c3220334c3320334c3320324c3220325a4d3120314c3120324c3220324c3220314c3120315a4d3120314c3120304c3020304c3020314c3120315a272f3e3c7061746820643d274d3020335635483156334c3220335635483356335632563156304832483148305631563256335a4d31203248325631483156325a272f3e3c7061746820643d274d30203156324c332032563148305a4d30203356344c33203456334c3020335a272f3e3c7061746820643d274d31203548305630483148334c33203156324c3220324c3220314c31203156324c3220324c322033483156355a4d32203348334c33203548324c3220335a272f3e3c7061746820643d274d3120304830563548314832483356334832563248335630483248315a4d32203248315631483256325a4d32203456334831563448325a272f3e3c70617468207472616e73666f726d3d277472616e736c61746528302c2031292720643d274d31203448324c32203348314c3120345a4d3120344830563548314c3120345a272f3e3c7061746820643d274d302031563048314832483356314c3220315634483356354832483148305634483156314c3020315a272f3e3c7061746820643d274d3420304c3520304c35203548344c34203448335633483456305a204d3220334c32203248334c3320334c3220335a204d3220334c3220344c3120344c31203548304c3020304c3120304c31203348325a272f3e3c7061746820643d274d30203048315635483056305a204d31203148325633483156315a204d32203248335634483256325a204d33203048345635483356305a272f3e3c7061746820643d274d3120324830563048314c3120325a4d32203248314c3120334830563548314c31203348324c32203548334c33203348324c3220325a4d3220324c32203048334c33203248325a272f3e3c7061746820643d274d302031563456354831483248335631483256304831483056315a4d32203456314c312031563448325a272f3e3c7061746820643d274d30203548314c3120334c3320334c3320324c3320314c3320304831483056355a4d3220314c3120314c3120324c3220324c3220315a272f3e3c70617468207472616e73666f726d3d277472616e736c61746528302c202d31292720643d274d3120314c31203048324c32203148334c3320324c3120324c3120334c32203348334c3320344c332035563648324c32203748314c312036483056354c3220354c3220344c312034483056314c3120315a272f3e3c7061746820643d274d3020304831483356314c31203156324832563348315635483056335632563156305a272f3e3c7061746820643d274d32203148334c332030483256315a4d3120324c3120314832563248315a4d3120334c3120324830563348315a4d3220344c32203348314c31203448325a4d322034563548334c33203448325a272f3e3c7061746820643d274d30203456335632563048302e3939393939394c31203248324c3320324c3320334c3320344c33203548324831483056345a4d32203456334c3120334c31203448325a272f3e3c7061746820643d274d3120344830563048314c3120345a4d3220344831563548324c3220345a4d3220344c32203048334c33203448325a272f3e3c7061746820643d274d31203348305630483148334c3320314c3120314c3120324c32203248334c3320334c33203456354832483056344c3220344c3220334c3120335a272f3e3c7061746820643d274d31203548305634563048314c3120344c3220344c32203048334c3320345635483248315a272f3e",
  "linkReferences": {},
  "deployedLinkReferences": {}
}