{
  "_format": "hh-sol-artifact-1",
  "contractName": "GameItems",
  "sourceName": "contracts/GameItems.sol",
  "abi": [
    {
      "inputs": [],
      "stateMutability": "nonpayable",
      "type": "constructor"
    },
    {
      "anonymous": false,
      "inputs": [
        {
          "indexed": true,
          "internalType": "address",
          "name": "account",
          "type": "address"
        },
        {
          "indexed": true,
          "internalType": "address",
          "name": "operator",
          "type": "address"
        },
        {
          "indexed": false,
          "internalType": "bool",
          "name": "approved",
          "type": "bool"
        }
      ],
      "name": "ApprovalForAll",
      "type": "event"
    },
    {
      "anonymous": false,
      "inputs": [
        {
          "indexed": true,
          "internalType": "address",
          "name": "operator",
          "type": "address"
        },
        {
          "indexed": true,
          "internalType": "address",
          "name": "from",
          "type": "address"
        },
        {
          "indexed": true,
          "internalType": "address",
          "name": "to",
          "type": "address"
        },
        {
          "indexed": false,
          "internalType": "uint256[]",
          "name": "ids",
          "type": "uint256[]"
        },
        {
          "indexed": false,
          "internalType": "uint256[]",
          "name": "values",
          "type": "uint256[]"
        }
      ],
      "name": "TransferBatch",
      "type": "event"
    },
    {
      "anonymous": false,
      "inputs": [
        {
          "indexed": true,
          "internalType": "address",
          "name": "operator",
          "type": "address"
        },
        {
          "indexed": true,
          "internalType": "address",
          "name": "from",
          "type": "address"
        },
        {
          "indexed": true,
          "internalType": "address",
          "name": "to",
          "type": "address"
        },
        {
          "indexed": false,
          "internalType": "uint256",
          "name": "id",
          "type": "uint256"
        },
        {
          "indexed": false,
          "internalType": "uint256",
          "name": "value",
          "type": "uint256"
        }
      ],
      "name": "TransferSingle",
      "type": "event"
    },
    {
      "anonymous": false,
      "inputs": [
        {
          "indexed": false,
          "internalType": "string",
          "name": "value",
          "type": "string"
        },
        {
          "indexed": true,
          "internalType": "uint256",
          "name": "id",
          "type": "uint256"
        }
      ],
      "name": "URI",
      "type": "event"
    },
    {
      "inputs": [],
      "name": "GOLD",
      "outputs": [
        {
          "internalType": "uint256",
          "name": "",
          "type": "uint256"
        }
      ],
      "stateMutability": "view",
      "type": "function"
    },
    {
      "inputs": [],
      "name": "SHIELD",
      "outputs": [
        {
          "internalType": "uint256",
          "name": "",
          "type": "uint256"
        }
      ],
      "stateMutability": "view",
      "type": "function"
    },
    {
      "inputs": [],
      "name": "SILVER",
      "outputs": [
        {
          "internalType": "uint256",
          "name": "",
          "type": "uint256"
        }
      ],
      "stateMutability": "view",
      "type": "function"
    },
    {
      "inputs": [],
      "name": "SWORD",
      "outputs": [
        {
          "internalType": "uint256",
          "name": "",
          "type": "uint256"
        }
      ],
      "stateMutability": "view",
      "type": "function"
    },
    {
      "inputs": [],
      "name": "THORS_HAMMER",
      "outputs": [
        {
          "internalType": "uint256",
          "name": "",
          "type": "uint256"
        }
      ],
      "stateMutability": "view",
      "type": "function"
    },
    {
      "inputs": [
        {
          "internalType": "address",
          "name": "account",
          "type": "address"
        },
        {
          "internalType": "uint256",
          "name": "id",
          "type": "uint256"
        }
      ],
      "name": "balanceOf",
      "outputs": [
        {
          "internalType": "uint256",
          "name": "",
          "type": "uint256"
        }
      ],
      "stateMutability": "view",
      "type": "function"
    },
    {
      "inputs": [
        {
          "internalType": "address[]",
          "name": "accounts",
          "type": "address[]"
        },
        {
          "internalType": "uint256[]",
          "name": "ids",
          "type": "uint256[]"
        }
      ],
      "name": "balanceOfBatch",
      "outputs": [
        {
          "internalType": "uint256[]",
          "name": "",
          "type": "uint256[]"
        }
      ],
      "stateMutability": "view",
      "type": "function"
    },
    {
      "inputs": [
        {
          "internalType": "address",
          "name": "account",
          "type": "address"
        },
        {
          "internalType": "address",
          "name": "operator",
          "type": "address"
        }
      ],
      "name": "isApprovedForAll",
      "outputs": [
        {
          "internalType": "bool",
          "name": "",
          "type": "bool"
        }
      ],
      "stateMutability": "view",
      "type": "function"
    },
    {
      "inputs": [
        {
          "internalType": "address",
          "name": "from",
          "type": "address"
        },
        {
          "internalType": "address",
          "name": "to",
          "type": "address"
        },
        {
          "internalType": "uint256[]",
          "name": "ids",
          "type": "uint256[]"
        },
        {
          "internalType": "uint256[]",
          "name": "amounts",
          "type": "uint256[]"
        },
        {
          "internalType": "bytes",
          "name": "data",
          "type": "bytes"
        }
      ],
      "name": "safeBatchTransferFrom",
      "outputs": [],
      "stateMutability": "nonpayable",
      "type": "function"
    },
    {
      "inputs": [
        {
          "internalType": "address",
          "name": "from",
          "type": "address"
        },
        {
          "internalType": "address",
          "name": "to",
          "type": "address"
        },
        {
          "internalType": "uint256",
          "name": "id",
          "type": "uint256"
        },
        {
          "internalType": "uint256",
          "name": "amount",
          "type": "uint256"
        },
        {
          "internalType": "bytes",
          "name": "data",
          "type": "bytes"
        }
      ],
      "name": "safeTransferFrom",
      "outputs": [],
      "stateMutability": "nonpayable",
      "type": "function"
    },
    {
      "inputs": [
        {
          "internalType": "address",
          "name": "operator",
          "type": "address"
        },
        {
          "internalType": "bool",
          "name": "approved",
          "type": "bool"
        }
      ],
      "name": "setApprovalForAll",
      "outputs": [],
      "stateMutability": "nonpayable",
      "type": "function"
    },
    {
      "inputs": [
        {
          "internalType": "bytes4",
          "name": "interfaceId",
          "type": "bytes4"
        }
      ],
      "name": "supportsInterface",
      "outputs": [
        {
          "internalType": "bool",
          "name": "",
          "type": "bool"
        }
      ],
      "stateMutability": "view",
      "type": "function"
    },
    {
      "inputs": [
        {
          "internalType": "uint256",
          "name": "",
          "type": "uint256"
        }
      ],
      "name": "uri",
      "outputs": [
        {
          "internalType": "string",
          "name": "",
          "type": "string"
        }
      ],
      "stateMutability": "view",
      "type": "function"
    }
  ],
  "bytecode": "0x60806040523480156200001157600080fd5b506040518060600160405280602781526020016200349f602791396200003d816200011560201b60201c565b506200006a336000670de0b6b3a7640000604051806020016040528060008152506200013160201b60201c565b6200009a3360016b033b2e3c9fd0803ce8000000604051806020016040528060008152506200013160201b60201c565b620000bf3360026001604051806020016040528060008152506200013160201b60201c565b620000e7336003633b9aca00604051806020016040528060008152506200013160201b60201c565b6200010f336004633b9aca00604051806020016040528060008152506200013160201b60201c565b62000d47565b80600290805190602001906200012d929190620005fc565b5050565b600073ffffffffffffffffffffffffffffffffffffffff168473ffffffffffffffffffffffffffffffffffffffff161415620001a4576040517f08c379a00000000000000000000000000000000000000000000000000000000081526004016200019b90620008d4565b60405180910390fd5b6000620001b6620002f660201b60201c565b9050620001ef81600087620001d188620002fe60201b60201c565b620001e288620002fe60201b60201c565b87620003c760201b60201c565b8260008086815260200190815260200160002060008773ffffffffffffffffffffffffffffffffffffffff1673ffffffffffffffffffffffffffffffffffffffff168152602001908152602001600020600082825462000250919062000965565b925050819055508473ffffffffffffffffffffffffffffffffffffffff16600073ffffffffffffffffffffffffffffffffffffffff168273ffffffffffffffffffffffffffffffffffffffff167fc3d58168c5ae7397731d063d5bbf3d657854427343f4c083240f7aacaa2d0f628787604051620002d0929190620008f6565b60405180910390a4620002ef81600087878787620003cf60201b60201c565b5050505050565b600033905090565b60606000600167ffffffffffffffff81111562000344577f4e487b7100000000000000000000000000000000000000000000000000000000600052604160045260246000fd5b604051908082528060200260200182016040528015620003735781602001602082028036833780820191505090505b5090508281600081518110620003b2577f4e487b7100000000000000000000000000000000000000000000000000000000600052603260045260246000fd5b60200260200101818152505080915050919050565b505050505050565b620003fb8473ffffffffffffffffffffffffffffffffffffffff16620005d960201b620008a21760201c565b15620005d1578373ffffffffffffffffffffffffffffffffffffffff1663f23a6e6187878686866040518663ffffffff1660e01b81526004016200044495949392919062000808565b602060405180830381600087803b1580156200045f57600080fd5b505af19250505080156200049357506040513d601f19601f82011682018060405250810190620004909190620006c3565b60015b6200054557620004a262000b5b565b806308c379a01415620005065750620004ba62000c8b565b80620004c7575062000508565b806040517f08c379a0000000000000000000000000000000000000000000000000000000008152600401620004fd91906200086c565b60405180910390fd5b505b6040517f08c379a00000000000000000000000000000000000000000000000000000000081526004016200053c9062000890565b60405180910390fd5b63f23a6e6160e01b7bffffffffffffffffffffffffffffffffffffffffffffffffffffffff1916817bffffffffffffffffffffffffffffffffffffffffffffffffffffffff191614620005cf576040517f08c379a0000000000000000000000000000000000000000000000000000000008152600401620005c690620008b2565b60405180910390fd5b505b505050505050565b6000808273ffffffffffffffffffffffffffffffffffffffff163b119050919050565b8280546200060a9062000a62565b90600052602060002090601f0160209004810192826200062e57600085556200067a565b82601f106200064957805160ff19168380011785556200067a565b828001600101855582156200067a579182015b82811115620006795782518255916020019190600101906200065c565b5b5090506200068991906200068d565b5090565b5b80821115620006a85760008160009055506001016200068e565b5090565b600081519050620006bd8162000d2d565b92915050565b600060208284031215620006d657600080fd5b6000620006e684828501620006ac565b91505092915050565b620006fa81620009c2565b82525050565b60006200070d826200092d565b62000719818562000943565b93506200072b81856020860162000a2c565b620007368162000b80565b840191505092915050565b60006200074e8262000938565b6200075a818562000954565b93506200076c81856020860162000a2c565b620007778162000b80565b840191505092915050565b60006200079160348362000954565b91506200079e8262000b9e565b604082019050919050565b6000620007b860288362000954565b9150620007c58262000bed565b604082019050919050565b6000620007df60218362000954565b9150620007ec8262000c3c565b604082019050919050565b620008028162000a22565b82525050565b600060a0820190506200081f6000830188620006ef565b6200082e6020830187620006ef565b6200083d6040830186620007f7565b6200084c6060830185620007f7565b818103608083015262000860818462000700565b90509695505050505050565b6000602082019050818103600083015262000888818462000741565b905092915050565b60006020820190508181036000830152620008ab8162000782565b9050919050565b60006020820190508181036000830152620008cd81620007a9565b9050919050565b60006020820190508181036000830152620008ef81620007d0565b9050919050565b60006040820190506200090d6000830185620007f7565b6200091c6020830184620007f7565b9392505050565b6000604051905090565b600081519050919050565b600081519050919050565b600082825260208201905092915050565b600082825260208201905092915050565b6000620009728262000a22565b91506200097f8362000a22565b9250827fffffffffffffffffffffffffffffffffffffffffffffffffffffffffffffffff03821115620009b757620009b662000ace565b5b828201905092915050565b6000620009cf8262000a02565b9050919050565b60007fffffffff0000000000000000000000000000000000000000000000000000000082169050919050565b600073ffffffffffffffffffffffffffffffffffffffff82169050919050565b6000819050919050565b60005b8381101562000a4c57808201518184015260208101905062000a2f565b8381111562000a5c576000848401525b50505050565b6000600282049050600182168062000a7b57607f821691505b6020821081141562000a925762000a9162000afd565b5b50919050565b62000aa38262000b80565b810181811067ffffffffffffffff8211171562000ac55762000ac462000b2c565b5b80604052505050565b7f4e487b7100000000000000000000000000000000000000000000000000000000600052601160045260246000fd5b7f4e487b7100000000000000000000000000000000000000000000000000000000600052602260045260246000fd5b7f4e487b7100000000000000000000000000000000000000000000000000000000600052604160045260246000fd5b600060033d111562000b7d5760046000803e62000b7a60005162000b91565b90505b90565b6000601f19601f8301169050919050565b60008160e01c9050919050565b7f455243313135353a207472616e7366657220746f206e6f6e204552433131353560008201527f526563656976657220696d706c656d656e746572000000000000000000000000602082015250565b7f455243313135353a204552433131353552656365697665722072656a6563746560008201527f6420746f6b656e73000000000000000000000000000000000000000000000000602082015250565b7f455243313135353a206d696e7420746f20746865207a65726f2061646472657360008201527f7300000000000000000000000000000000000000000000000000000000000000602082015250565b600060443d101562000c9d5762000d2a565b62000ca762000923565b60043d036004823e80513d602482011167ffffffffffffffff8211171562000cd157505062000d2a565b808201805167ffffffffffffffff81111562000cf1575050505062000d2a565b80602083010160043d03850181111562000d1057505050505062000d2a565b62000d218260200185018662000a98565b82955050505050505b90565b62000d3881620009d6565b811462000d4457600080fd5b50565b6127488062000d576000396000f3fe608060405234801561001057600080fd5b50600436106100ce5760003560e01c80634e1273f41161008c578063d562e20411610066578063d562e20414610225578063e3e55f0814610243578063e985e9c514610261578063f242432a14610291576100ce565b80634e1273f4146101bb5780635b2725ed146101eb578063a22cb46514610209576100ce565b8062fdd58e146100d357806301ffc9a7146101035780630e89341c1461013357806313dc989f146101635780632eb2c2d6146101815780633e4bee381461019d575b600080fd5b6100ed60048036038101906100e891906118e5565b6102ad565b6040516100fa9190611f22565b60405180910390f35b61011d6004803603810190610118919061198d565b610376565b60405161012a9190611da5565b60405180910390f35b61014d600480360381019061014891906119df565b610458565b60405161015a9190611dc0565b60405180910390f35b61016b6104ec565b6040516101789190611f22565b60405180910390f35b61019b6004803603810190610196919061175b565b6104f1565b005b6101a5610592565b6040516101b29190611f22565b60405180910390f35b6101d560048036038101906101d09190611921565b610597565b6040516101e29190611d4c565b60405180910390f35b6101f3610748565b6040516102009190611f22565b60405180910390f35b610223600480360381019061021e91906118a9565b61074d565b005b61022d610763565b60405161023a9190611f22565b60405180910390f35b61024b610768565b6040516102589190611f22565b60405180910390f35b61027b6004803603810190610276919061171f565b61076d565b6040516102889190611da5565b60405180910390f35b6102ab60048036038101906102a6919061181a565b610801565b005b60008073ffffffffffffffffffffffffffffffffffffffff168373ffffffffffffffffffffffffffffffffffffffff16141561031e576040517f08c379a000000000000000000000000000000000000000000000000000000000815260040161031590611e22565b60405180910390fd5b60008083815260200190815260200160002060008473ffffffffffffffffffffffffffffffffffffffff1673ffffffffffffffffffffffffffffffffffffffff16815260200190815260200160002054905092915050565b60007fd9b67a26000000000000000000000000000000000000000000000000000000007bffffffffffffffffffffffffffffffffffffffffffffffffffffffff1916827bffffffffffffffffffffffffffffffffffffffffffffffffffffffff1916148061044157507f0e89341c000000000000000000000000000000000000000000000000000000007bffffffffffffffffffffffffffffffffffffffffffffffffffffffff1916827bffffffffffffffffffffffffffffffffffffffffffffffffffffffff1916145b806104515750610450826108c5565b5b9050919050565b60606002805461046790612191565b80601f016020809104026020016040519081016040528092919081815260200182805461049390612191565b80156104e05780601f106104b5576101008083540402835291602001916104e0565b820191906000526020600020905b8154815290600101906020018083116104c357829003601f168201915b50505050509050919050565b600381565b6104f961092f565b73ffffffffffffffffffffffffffffffffffffffff168573ffffffffffffffffffffffffffffffffffffffff16148061053f575061053e8561053961092f565b61076d565b5b61057e576040517f08c379a000000000000000000000000000000000000000000000000000000000815260040161057590611e82565b60405180910390fd5b61058b8585858585610937565b5050505050565b600081565b606081518351146105dd576040517f08c379a00000000000000000000000000000000000000000000000000000000081526004016105d490611ee2565b60405180910390fd5b6000835167ffffffffffffffff811115610620577f4e487b7100000000000000000000000000000000000000000000000000000000600052604160045260246000fd5b60405190808252806020026020018201604052801561064e5781602001602082028036833780820191505090505b50905060005b845181101561073d576106e7858281518110610699577f4e487b7100000000000000000000000000000000000000000000000000000000600052603260045260246000fd5b60200260200101518583815181106106da577f4e487b7100000000000000000000000000000000000000000000000000000000600052603260045260246000fd5b60200260200101516102ad565b828281518110610720577f4e487b7100000000000000000000000000000000000000000000000000000000600052603260045260246000fd5b60200260200101818152505080610736906121f4565b9050610654565b508091505092915050565b600481565b61075f61075861092f565b8383610c97565b5050565b600281565b600181565b6000600160008473ffffffffffffffffffffffffffffffffffffffff1673ffffffffffffffffffffffffffffffffffffffff16815260200190815260200160002060008373ffffffffffffffffffffffffffffffffffffffff1673ffffffffffffffffffffffffffffffffffffffff16815260200190815260200160002060009054906101000a900460ff16905092915050565b61080961092f565b73ffffffffffffffffffffffffffffffffffffffff168573ffffffffffffffffffffffffffffffffffffffff16148061084f575061084e8561084961092f565b61076d565b5b61088e576040517f08c379a000000000000000000000000000000000000000000000000000000000815260040161088590611e42565b60405180910390fd5b61089b8585858585610e04565b5050505050565b6000808273ffffffffffffffffffffffffffffffffffffffff163b119050919050565b60007f01ffc9a7000000000000000000000000000000000000000000000000000000007bffffffffffffffffffffffffffffffffffffffffffffffffffffffff1916827bffffffffffffffffffffffffffffffffffffffffffffffffffffffff1916149050919050565b600033905090565b815183511461097b576040517f08c379a000000000000000000000000000000000000000000000000000000000815260040161097290611f02565b60405180910390fd5b600073ffffffffffffffffffffffffffffffffffffffff168473ffffffffffffffffffffffffffffffffffffffff1614156109eb576040517f08c379a00000000000000000000000000000000000000000000000000000000081526004016109e290611e62565b60405180910390fd5b60006109f561092f565b9050610a05818787878787611086565b60005b8451811015610c02576000858281518110610a4c577f4e487b7100000000000000000000000000000000000000000000000000000000600052603260045260246000fd5b602002602001015190506000858381518110610a91577f4e487b7100000000000000000000000000000000000000000000000000000000600052603260045260246000fd5b60200260200101519050600080600084815260200190815260200160002060008b73ffffffffffffffffffffffffffffffffffffffff1673ffffffffffffffffffffffffffffffffffffffff16815260200190815260200160002054905081811015610b32576040517f08c379a0000000000000000000000000000000000000000000000000000000008152600401610b2990611ea2565b60405180910390fd5b81810360008085815260200190815260200160002060008c73ffffffffffffffffffffffffffffffffffffffff1673ffffffffffffffffffffffffffffffffffffffff168152602001908152602001600020819055508160008085815260200190815260200160002060008b73ffffffffffffffffffffffffffffffffffffffff1673ffffffffffffffffffffffffffffffffffffffff1681526020019081526020016000206000828254610be79190612085565b9250508190555050505080610bfb906121f4565b9050610a08565b508473ffffffffffffffffffffffffffffffffffffffff168673ffffffffffffffffffffffffffffffffffffffff168273ffffffffffffffffffffffffffffffffffffffff167f4a39dc06d4c0dbc64b70af90fd698a233a518aa5d07e595d983b8c0526c8f7fb8787604051610c79929190611d6e565b60405180910390a4610c8f81878787878761108e565b505050505050565b8173ffffffffffffffffffffffffffffffffffffffff168373ffffffffffffffffffffffffffffffffffffffff161415610d06576040517f08c379a0000000000000000000000000000000000000000000000000000000008152600401610cfd90611ec2565b60405180910390fd5b80600160008573ffffffffffffffffffffffffffffffffffffffff1673ffffffffffffffffffffffffffffffffffffffff16815260200190815260200160002060008473ffffffffffffffffffffffffffffffffffffffff1673ffffffffffffffffffffffffffffffffffffffff16815260200190815260200160002060006101000a81548160ff0219169083151502179055508173ffffffffffffffffffffffffffffffffffffffff168373ffffffffffffffffffffffffffffffffffffffff167f17307eab39ab6107e8899845ad3d59bd9653f200f220920489ca2b5937696c3183604051610df79190611da5565b60405180910390a3505050565b600073ffffffffffffffffffffffffffffffffffffffff168473ffffffffffffffffffffffffffffffffffffffff161415610e74576040517f08c379a0000000000000000000000000000000000000000000000000000000008152600401610e6b90611e62565b60405180910390fd5b6000610e7e61092f565b9050610e9e818787610e8f88611275565b610e9888611275565b87611086565b600080600086815260200190815260200160002060008873ffffffffffffffffffffffffffffffffffffffff1673ffffffffffffffffffffffffffffffffffffffff16815260200190815260200160002054905083811015610f35576040517f08c379a0000000000000000000000000000000000000000000000000000000008152600401610f2c90611ea2565b60405180910390fd5b83810360008087815260200190815260200160002060008973ffffffffffffffffffffffffffffffffffffffff1673ffffffffffffffffffffffffffffffffffffffff168152602001908152602001600020819055508360008087815260200190815260200160002060008873ffffffffffffffffffffffffffffffffffffffff1673ffffffffffffffffffffffffffffffffffffffff1681526020019081526020016000206000828254610fea9190612085565b925050819055508573ffffffffffffffffffffffffffffffffffffffff168773ffffffffffffffffffffffffffffffffffffffff168373ffffffffffffffffffffffffffffffffffffffff167fc3d58168c5ae7397731d063d5bbf3d657854427343f4c083240f7aacaa2d0f628888604051611067929190611f3d565b60405180910390a461107d82888888888861133b565b50505050505050565b505050505050565b6110ad8473ffffffffffffffffffffffffffffffffffffffff166108a2565b1561126d578373ffffffffffffffffffffffffffffffffffffffff1663bc197c8187878686866040518663ffffffff1660e01b81526004016110f3959493929190611c8a565b602060405180830381600087803b15801561110d57600080fd5b505af192505050801561113e57506040513d601f19601f8201168201806040525081019061113b91906119b6565b60015b6111e45761114a6122ca565b806308c379a014156111a7575061115f612620565b8061116a57506111a9565b806040517f08c379a000000000000000000000000000000000000000000000000000000000815260040161119e9190611dc0565b60405180910390fd5b505b6040517f08c379a00000000000000000000000000000000000000000000000000000000081526004016111db90611de2565b60405180910390fd5b63bc197c8160e01b7bffffffffffffffffffffffffffffffffffffffffffffffffffffffff1916817bffffffffffffffffffffffffffffffffffffffffffffffffffffffff19161461126b576040517f08c379a000000000000000000000000000000000000000000000000000000000815260040161126290611e02565b60405180910390fd5b505b505050505050565b60606000600167ffffffffffffffff8111156112ba577f4e487b7100000000000000000000000000000000000000000000000000000000600052604160045260246000fd5b6040519080825280602002602001820160405280156112e85781602001602082028036833780820191505090505b5090508281600081518110611326577f4e487b7100000000000000000000000000000000000000000000000000000000600052603260045260246000fd5b60200260200101818152505080915050919050565b61135a8473ffffffffffffffffffffffffffffffffffffffff166108a2565b1561151a578373ffffffffffffffffffffffffffffffffffffffff1663f23a6e6187878686866040518663ffffffff1660e01b81526004016113a0959493929190611cf2565b602060405180830381600087803b1580156113ba57600080fd5b505af19250505080156113eb57506040513d601f19601f820116820180604052508101906113e891906119b6565b60015b611491576113f76122ca565b806308c379a01415611454575061140c612620565b806114175750611456565b806040517f08c379a000000000000000000000000000000000000000000000000000000000815260040161144b9190611dc0565b60405180910390fd5b505b6040517f08c379a000000000000000000000000000000000000000000000000000000000815260040161148890611de2565b60405180910390fd5b63f23a6e6160e01b7bffffffffffffffffffffffffffffffffffffffffffffffffffffffff1916817bffffffffffffffffffffffffffffffffffffffffffffffffffffffff191614611518576040517f08c379a000000000000000000000000000000000000000000000000000000000815260040161150f90611e02565b60405180910390fd5b505b505050505050565b600061153561153084611f8b565b611f66565b9050808382526020820190508285602086028201111561155457600080fd5b60005b85811015611584578161156a8882611638565b845260208401935060208301925050600181019050611557565b5050509392505050565b60006115a161159c84611fb7565b611f66565b905080838252602082019050828560208602820111156115c057600080fd5b60005b858110156115f057816115d6888261170a565b8452602084019350602083019250506001810190506115c3565b5050509392505050565b600061160d61160884611fe3565b611f66565b90508281526020810184848401111561162557600080fd5b61163084828561214f565b509392505050565b600081359050611647816126b6565b92915050565b600082601f83011261165e57600080fd5b813561166e848260208601611522565b91505092915050565b600082601f83011261168857600080fd5b813561169884826020860161158e565b91505092915050565b6000813590506116b0816126cd565b92915050565b6000813590506116c5816126e4565b92915050565b6000815190506116da816126e4565b92915050565b600082601f8301126116f157600080fd5b81356117018482602086016115fa565b91505092915050565b600081359050611719816126fb565b92915050565b6000806040838503121561173257600080fd5b600061174085828601611638565b925050602061175185828601611638565b9150509250929050565b600080600080600060a0868803121561177357600080fd5b600061178188828901611638565b955050602061179288828901611638565b945050604086013567ffffffffffffffff8111156117af57600080fd5b6117bb88828901611677565b935050606086013567ffffffffffffffff8111156117d857600080fd5b6117e488828901611677565b925050608086013567ffffffffffffffff81111561180157600080fd5b61180d888289016116e0565b9150509295509295909350565b600080600080600060a0868803121561183257600080fd5b600061184088828901611638565b955050602061185188828901611638565b94505060406118628882890161170a565b93505060606118738882890161170a565b925050608086013567ffffffffffffffff81111561189057600080fd5b61189c888289016116e0565b9150509295509295909350565b600080604083850312156118bc57600080fd5b60006118ca85828601611638565b92505060206118db858286016116a1565b9150509250929050565b600080604083850312156118f857600080fd5b600061190685828601611638565b92505060206119178582860161170a565b9150509250929050565b6000806040838503121561193457600080fd5b600083013567ffffffffffffffff81111561194e57600080fd5b61195a8582860161164d565b925050602083013567ffffffffffffffff81111561197757600080fd5b61198385828601611677565b9150509250929050565b60006020828403121561199f57600080fd5b60006119ad848285016116b6565b91505092915050565b6000602082840312156119c857600080fd5b60006119d6848285016116cb565b91505092915050565b6000602082840312156119f157600080fd5b60006119ff8482850161170a565b91505092915050565b6000611a148383611c6c565b60208301905092915050565b611a29816120db565b82525050565b6000611a3a82612024565b611a448185612052565b9350611a4f83612014565b8060005b83811015611a80578151611a678882611a08565b9750611a7283612045565b925050600181019050611a53565b5085935050505092915050565b611a96816120ed565b82525050565b6000611aa78261202f565b611ab18185612063565b9350611ac181856020860161215e565b611aca816122ec565b840191505092915050565b6000611ae08261203a565b611aea8185612074565b9350611afa81856020860161215e565b611b03816122ec565b840191505092915050565b6000611b1b603483612074565b9150611b268261230a565b604082019050919050565b6000611b3e602883612074565b9150611b4982612359565b604082019050919050565b6000611b61602b83612074565b9150611b6c826123a8565b604082019050919050565b6000611b84602983612074565b9150611b8f826123f7565b604082019050919050565b6000611ba7602583612074565b9150611bb282612446565b604082019050919050565b6000611bca603283612074565b9150611bd582612495565b604082019050919050565b6000611bed602a83612074565b9150611bf8826124e4565b604082019050919050565b6000611c10602983612074565b9150611c1b82612533565b604082019050919050565b6000611c33602983612074565b9150611c3e82612582565b604082019050919050565b6000611c56602883612074565b9150611c61826125d1565b604082019050919050565b611c7581612145565b82525050565b611c8481612145565b82525050565b600060a082019050611c9f6000830188611a20565b611cac6020830187611a20565b8181036040830152611cbe8186611a2f565b90508181036060830152611cd28185611a2f565b90508181036080830152611ce68184611a9c565b90509695505050505050565b600060a082019050611d076000830188611a20565b611d146020830187611a20565b611d216040830186611c7b565b611d2e6060830185611c7b565b8181036080830152611d408184611a9c565b90509695505050505050565b60006020820190508181036000830152611d668184611a2f565b905092915050565b60006040820190508181036000830152611d888185611a2f565b90508181036020830152611d9c8184611a2f565b90509392505050565b6000602082019050611dba6000830184611a8d565b92915050565b60006020820190508181036000830152611dda8184611ad5565b905092915050565b60006020820190508181036000830152611dfb81611b0e565b9050919050565b60006020820190508181036000830152611e1b81611b31565b9050919050565b60006020820190508181036000830152611e3b81611b54565b9050919050565b60006020820190508181036000830152611e5b81611b77565b9050919050565b60006020820190508181036000830152611e7b81611b9a565b9050919050565b60006020820190508181036000830152611e9b81611bbd565b9050919050565b60006020820190508181036000830152611ebb81611be0565b9050919050565b60006020820190508181036000830152611edb81611c03565b9050919050565b60006020820190508181036000830152611efb81611c26565b9050919050565b60006020820190508181036000830152611f1b81611c49565b9050919050565b6000602082019050611f376000830184611c7b565b92915050565b6000604082019050611f526000830185611c7b565b611f5f6020830184611c7b565b9392505050565b6000611f70611f81565b9050611f7c82826121c3565b919050565b6000604051905090565b600067ffffffffffffffff821115611fa657611fa561229b565b5b602082029050602081019050919050565b600067ffffffffffffffff821115611fd257611fd161229b565b5b602082029050602081019050919050565b600067ffffffffffffffff821115611ffe57611ffd61229b565b5b612007826122ec565b9050602081019050919050565b6000819050602082019050919050565b600081519050919050565b600081519050919050565b600081519050919050565b6000602082019050919050565b600082825260208201905092915050565b600082825260208201905092915050565b600082825260208201905092915050565b600061209082612145565b915061209b83612145565b9250827fffffffffffffffffffffffffffffffffffffffffffffffffffffffffffffffff038211156120d0576120cf61223d565b5b828201905092915050565b60006120e682612125565b9050919050565b60008115159050919050565b60007fffffffff0000000000000000000000000000000000000000000000000000000082169050919050565b600073ffffffffffffffffffffffffffffffffffffffff82169050919050565b6000819050919050565b82818337600083830152505050565b60005b8381101561217c578082015181840152602081019050612161565b8381111561218b576000848401525b50505050565b600060028204905060018216806121a957607f821691505b602082108114156121bd576121bc61226c565b5b50919050565b6121cc826122ec565b810181811067ffffffffffffffff821117156121eb576121ea61229b565b5b80604052505050565b60006121ff82612145565b91507fffffffffffffffffffffffffffffffffffffffffffffffffffffffffffffffff8214156122325761223161223d565b5b600182019050919050565b7f4e487b7100000000000000000000000000000000000000000000000000000000600052601160045260246000fd5b7f4e487b7100000000000000000000000000000000000000000000000000000000600052602260045260246000fd5b7f4e487b7100000000000000000000000000000000000000000000000000000000600052604160045260246000fd5b600060033d11156122e95760046000803e6122e66000516122fd565b90505b90565b6000601f19601f8301169050919050565b60008160e01c9050919050565b7f455243313135353a207472616e7366657220746f206e6f6e204552433131353560008201527f526563656976657220696d706c656d656e746572000000000000000000000000602082015250565b7f455243313135353a204552433131353552656365697665722072656a6563746560008201527f6420746f6b656e73000000000000000000000000000000000000000000000000602082015250565b7f455243313135353a2062616c616e636520717565727920666f7220746865207a60008201527f65726f2061646472657373000000000000000000000000000000000000000000602082015250565b7f455243313135353a2063616c6c6572206973206e6f74206f776e6572206e6f7260008201527f20617070726f7665640000000000000000000000000000000000000000000000602082015250565b7f455243313135353a207472616e7366657220746f20746865207a65726f20616460008201527f6472657373000000000000000000000000000000000000000000000000000000602082015250565b7f455243313135353a207472616e736665722063616c6c6572206973206e6f742060008201527f6f776e6572206e6f7220617070726f7665640000000000000000000000000000602082015250565b7f455243313135353a20696e73756666696369656e742062616c616e636520666f60008201527f72207472616e7366657200000000000000000000000000000000000000000000602082015250565b7f455243313135353a2073657474696e6720617070726f76616c2073746174757360008201527f20666f722073656c660000000000000000000000000000000000000000000000602082015250565b7f455243313135353a206163636f756e747320616e6420696473206c656e67746860008201527f206d69736d617463680000000000000000000000000000000000000000000000602082015250565b7f455243313135353a2069647320616e6420616d6f756e7473206c656e6774682060008201527f6d69736d61746368000000000000000000000000000000000000000000000000602082015250565b600060443d1015612630576126b3565b612638611f81565b60043d036004823e80513d602482011167ffffffffffffffff821117156126605750506126b3565b808201805167ffffffffffffffff81111561267e57505050506126b3565b80602083010160043d03850181111561269b5750505050506126b3565b6126aa826020018501866121c3565b82955050505050505b90565b6126bf816120db565b81146126ca57600080fd5b50565b6126d6816120ed565b81146126e157600080fd5b50565b6126ed816120f9565b81146126f857600080fd5b50565b61270481612145565b811461270f57600080fd5b5056fea26469706673582212201cdaf43e80d24a15dca88fe0129f1a6a9aca6e219d0098f001a1f3d21bc0ef8664736f6c6343000801003368747470733a2f2f67616d652e6578616d706c652f6170692f6974656d2f7b69647d2e6a736f6e",
  "linkReferences": {},
  "deployedLinkReferences": {}
}