{
  "_format": "hh-sol-artifact-1",
  "contractName": "NFTVault",
  "sourceName": "contracts/NFTVault.sol",
  "abi": [
    {
      "inputs": [],
      "stateMutability": "nonpayable",
      "type": "constructor"
    },
    {
      "inputs": [],
      "name": "getCurrentBalance",
      "outputs": [
        {
          "internalType": "uint256",
          "name": "balance",
          "type": "uint256"
        }
      ],
      "stateMutability": "view",
      "type": "function"
    },
    {
      "inputs": [],
      "name": "getTokenAddr",
      "outputs": [
        {
          "internalType": "address",
          "name": "token",
          "type": "address"
        }
      ],
      "stateMutability": "view",
      "type": "function"
    },
    {
      "inputs": [],
      "name": "getVaultBalance",
      "outputs": [
        {
          "internalType": "uint256",
          "name": "balance",
          "type": "uint256"
        }
      ],
      "stateMutability": "view",
      "type": "function"
    },
    {
      "inputs": [
        {
          "internalType": "address",
          "name": "_operator",
          "type": "address"
        },
        {
          "internalType": "address",
          "name": "_from",
          "type": "address"
        },
        {
          "internalType": "uint256",
          "name": "_tokenId",
          "type": "uint256"
        },
        {
          "internalType": "bytes",
          "name": "",
          "type": "bytes"
        }
      ],
      "name": "onERC721Received",
      "outputs": [
        {
          "internalType": "bytes4",
          "name": "",
          "type": "bytes4"
        }
      ],
      "stateMutability": "nonpayable",
      "type": "function"
    },
    {
      "inputs": [],
      "name": "owner",
      "outputs": [
        {
          "internalType": "address payable",
          "name": "",
          "type": "address"
        }
      ],
      "stateMutability": "view",
      "type": "function"
    },
    {
      "inputs": [
        {
          "internalType": "address",
          "name": "",
          "type": "address"
        },
        {
          "internalType": "uint256",
          "name": "amount",
          "type": "uint256"
        }
      ],
      "name": "receiveToken",
      "outputs": [
        {
          "internalType": "bool",
          "name": "success",
          "type": "bool"
        }
      ],
      "stateMutability": "nonpayable",
      "type": "function"
    },
    {
      "inputs": [
        {
          "internalType": "address",
          "name": "_addr",
          "type": "address"
        },
        {
          "internalType": "bool",
          "name": "_whiteList",
          "type": "bool"
        }
      ],
      "name": "setWhiteList",
      "outputs": [],
      "stateMutability": "nonpayable",
      "type": "function"
    },
    {
      "inputs": [
        {
          "internalType": "address",
          "name": "",
          "type": "address"
        },
        {
          "internalType": "uint256",
          "name": "",
          "type": "uint256"
        }
      ],
      "name": "tokens",
      "outputs": [
        {
          "internalType": "uint256",
          "name": "",
          "type": "uint256"
        }
      ],
      "stateMutability": "view",
      "type": "function"
    },
    {
      "inputs": [
        {
          "internalType": "address",
          "name": "_from",
          "type": "address"
        },
        {
          "internalType": "address",
          "name": "_to",
          "type": "address"
        },
        {
          "internalType": "uint256",
          "name": "amount",
          "type": "uint256"
        }
      ],
      "name": "transferGold",
      "outputs": [
        {
          "internalType": "bool",
          "name": "success",
          "type": "bool"
        }
      ],
      "stateMutability": "nonpayable",
      "type": "function"
    }
  ],
  "bytecode": "0x60806040523480156200001157600080fd5b50620f42406040516200002490620000d4565b62000030919062000141565b604051809103906000f0801580156200004d573d6000803e3d6000fd5b506000806101000a81548173ffffffffffffffffffffffffffffffffffffffff021916908373ffffffffffffffffffffffffffffffffffffffff16021790555033600160006101000a81548173ffffffffffffffffffffffffffffffffffffffff021916908373ffffffffffffffffffffffffffffffffffffffff16021790555062000209565b6119e6806200183083390190565b620000ed81620001a3565b82525050565b60006200010260048362000188565b91506200010f82620001b7565b602082019050919050565b60006200012960038362000188565b91506200013682620001e0565b602082019050919050565b600060608201905081810360008301526200015c81620000f3565b9050818103602083015262000171816200011a565b9050620001826040830184620000e2565b92915050565b600082825260208201905092915050565b6000819050919050565b6000620001b08262000199565b9050919050565b7f476f6c6400000000000000000000000000000000000000000000000000000000600082015250565b7f474c440000000000000000000000000000000000000000000000000000000000600082015250565b61161780620002196000396000f3fe608060405234801561001057600080fd5b50600436106100935760003560e01c80638da5cb5b116100665780638da5cb5b1461013257806397235a1e14610150578063a574971014610180578063bd4b35a61461019e578063ed12e8ef146101ce57610093565b8063150b7a02146100985780634abf825d146100c8578063582b2720146100f85780638d14e12714610116575b600080fd5b6100b260048036038101906100ad9190610e66565b6101ec565b6040516100bf91906111c5565b60405180910390f35b6100e260048036038101906100dd9190610f1d565b6103b8565b6040516100ef9190611260565b60405180910390f35b6101006103e9565b60405161010d91906110eb565b60405180910390f35b610130600480360381019061012b9190610ee1565b610412565b005b61013a6104fd565b6040516101479190611106565b60405180910390f35b61016a60048036038101906101659190610f1d565b610523565b60405161017791906111aa565b60405180910390f35b610188610a7b565b6040516101959190611260565b60405180910390f35b6101b860048036038101906101b39190610e17565b610b2c565b6040516101c591906111aa565b60405180910390f35b6101d6610c95565b6040516101e39190611260565b60405180910390f35b60008060009054906101000a900473ffffffffffffffffffffffffffffffffffffffff1673ffffffffffffffffffffffffffffffffffffffff1663a9059cbb8560016040518363ffffffff1660e01b815260040161024b929190611158565b602060405180830381600087803b15801561026557600080fd5b505af1158015610279573d6000803e3d6000fd5b505050506040513d601f19601f8201168201806040525081019061029d9190610f59565b80156102f25750600460003373ffffffffffffffffffffffffffffffffffffffff1673ffffffffffffffffffffffffffffffffffffffff16815260200190815260200160002060009054906101000a900460ff165b156103af57600260405180604001604052803373ffffffffffffffffffffffffffffffffffffffff16815260200185815250908060018154018082558091505060019003906000526020600020906002020160009091909190915060008201518160000160006101000a81548173ffffffffffffffffffffffffffffffffffffffff021916908373ffffffffffffffffffffffffffffffffffffffff16021790555060208201518160010155505063150b7a0260e01b90506103b0565b5b949350505050565b600360205281600052604060002081815481106103d457600080fd5b90600052602060002001600091509150505481565b60008060009054906101000a900473ffffffffffffffffffffffffffffffffffffffff16905090565b600160009054906101000a900473ffffffffffffffffffffffffffffffffffffffff1673ffffffffffffffffffffffffffffffffffffffff163373ffffffffffffffffffffffffffffffffffffffff16146104a2576040517f08c379a000000000000000000000000000000000000000000000000000000000815260040161049990611220565b60405180910390fd5b80600460008473ffffffffffffffffffffffffffffffffffffffff1673ffffffffffffffffffffffffffffffffffffffff16815260200190815260200160002060006101000a81548160ff0219169083151502179055505050565b600160009054906101000a900473ffffffffffffffffffffffffffffffffffffffff1681565b60008060008054906101000a900473ffffffffffffffffffffffffffffffffffffffff1673ffffffffffffffffffffffffffffffffffffffff166370a08231336040518263ffffffff1660e01b815260040161057f91906110eb565b60206040518083038186803b15801561059757600080fd5b505afa1580156105ab573d6000803e3d6000fd5b505050506040513d601f19601f820116820180604052508101906105cf9190610f82565b1415610610576040517f08c379a0000000000000000000000000000000000000000000000000000000008152600401610607906111e0565b60405180910390fd5b600060028054905011610658576040517f08c379a000000000000000000000000000000000000000000000000000000000815260040161064f90611200565b60405180910390fd5b6001821461069b576040517f08c379a000000000000000000000000000000000000000000000000000000000815260040161069290611240565b60405180910390fd5b60008054906101000a900473ffffffffffffffffffffffffffffffffffffffff1673ffffffffffffffffffffffffffffffffffffffff166323b872dd3330856040518463ffffffff1660e01b81526004016106f893929190611121565b602060405180830381600087803b15801561071257600080fd5b505af1158015610726573d6000803e3d6000fd5b505050506040513d601f19601f8201168201806040525081019061074a9190610f59565b15610a70576000600280549050443360405160200161076a9291906110bf565b6040516020818303038152906040528051906020012060001c61078d919061141c565b90506000600282815481106107cb577f4e487b7100000000000000000000000000000000000000000000000000000000600052603260045260246000fd5b906000526020600020906002020160010154905060006002838154811061081b577f4e487b7100000000000000000000000000000000000000000000000000000000600052603260045260246000fd5b906000526020600020906002020160000160009054906101000a900473ffffffffffffffffffffffffffffffffffffffff1690508073ffffffffffffffffffffffffffffffffffffffff166323b872dd3033856040518463ffffffff1660e01b815260040161088c93929190611121565b600060405180830381600087803b1580156108a657600080fd5b505af11580156108ba573d6000803e3d6000fd5b5050505060028054905083106108cf57600080fd5b600260016002805490506108e391906112e2565b8154811061091a577f4e487b7100000000000000000000000000000000000000000000000000000000600052603260045260246000fd5b906000526020600020906002020160028481548110610962577f4e487b7100000000000000000000000000000000000000000000000000000000600052603260045260246000fd5b90600052602060002090600202016000820160009054906101000a900473ffffffffffffffffffffffffffffffffffffffff168160000160006101000a81548173ffffffffffffffffffffffffffffffffffffffff021916908373ffffffffffffffffffffffffffffffffffffffff160217905550600182015481600101559050506002805480610a1c577f4e487b7100000000000000000000000000000000000000000000000000000000600052603160045260246000fd5b6001900381819060005260206000209060020201600080820160006101000a81549073ffffffffffffffffffffffffffffffffffffffff021916905560018201600090555050905560019350505050610a75565b600090505b92915050565b60008060009054906101000a900473ffffffffffffffffffffffffffffffffffffffff1673ffffffffffffffffffffffffffffffffffffffff166370a08231336040518263ffffffff1660e01b8152600401610ad791906110eb565b60206040518083038186803b158015610aef57600080fd5b505afa158015610b03573d6000803e3d6000fd5b505050506040513d601f19601f82011682018060405250810190610b279190610f82565b905090565b60008060009054906101000a900473ffffffffffffffffffffffffffffffffffffffff1673ffffffffffffffffffffffffffffffffffffffff1663095ea7b330846040518363ffffffff1660e01b8152600401610b8a929190611181565b602060405180830381600087803b158015610ba457600080fd5b505af1158015610bb8573d6000803e3d6000fd5b505050506040513d601f19601f82011682018060405250810190610bdc9190610f59565b5060008054906101000a900473ffffffffffffffffffffffffffffffffffffffff1673ffffffffffffffffffffffffffffffffffffffff166323b872dd8585856040518463ffffffff1660e01b8152600401610c3a93929190611121565b602060405180830381600087803b158015610c5457600080fd5b505af1158015610c68573d6000803e3d6000fd5b505050506040513d601f19601f82011682018060405250810190610c8c9190610f59565b90509392505050565b60008060009054906101000a900473ffffffffffffffffffffffffffffffffffffffff1673ffffffffffffffffffffffffffffffffffffffff166370a08231306040518263ffffffff1660e01b8152600401610cf191906110eb565b60206040518083038186803b158015610d0957600080fd5b505afa158015610d1d573d6000803e3d6000fd5b505050506040513d601f19601f82011682018060405250810190610d419190610f82565b905090565b6000610d59610d54846112a0565b61127b565b905082815260208101848484011115610d7157600080fd5b610d7c8482856113ae565b509392505050565b600081359050610d938161159c565b92915050565b600081359050610da8816115b3565b92915050565b600081519050610dbd816115b3565b92915050565b600082601f830112610dd457600080fd5b8135610de4848260208601610d46565b91505092915050565b600081359050610dfc816115ca565b92915050565b600081519050610e11816115ca565b92915050565b600080600060608486031215610e2c57600080fd5b6000610e3a86828701610d84565b9350506020610e4b86828701610d84565b9250506040610e5c86828701610ded565b9150509250925092565b60008060008060808587031215610e7c57600080fd5b6000610e8a87828801610d84565b9450506020610e9b87828801610d84565b9350506040610eac87828801610ded565b925050606085013567ffffffffffffffff811115610ec957600080fd5b610ed587828801610dc3565b91505092959194509250565b60008060408385031215610ef457600080fd5b6000610f0285828601610d84565b9250506020610f1385828601610d99565b9150509250929050565b60008060408385031215610f3057600080fd5b6000610f3e85828601610d84565b9250506020610f4f85828601610ded565b9150509250929050565b600060208284031215610f6b57600080fd5b6000610f7984828501610dae565b91505092915050565b600060208284031215610f9457600080fd5b6000610fa284828501610e02565b91505092915050565b610fb481611328565b82525050565b610fc381611316565b82525050565b610fda610fd582611316565b6113ee565b82525050565b610fe98161133a565b82525050565b610ff881611346565b82525050565b6110078161139c565b82525050565b600061101a6019836112d1565b9150611025826114f8565b602082019050919050565b600061103d600c836112d1565b915061104882611521565b602082019050919050565b60006110606015836112d1565b915061106b8261154a565b602082019050919050565b60006110836010836112d1565b915061108e82611573565b602082019050919050565b6110a281611392565b82525050565b6110b96110b482611392565b611412565b82525050565b60006110cb82856110a8565b6020820191506110db8284610fc9565b6014820191508190509392505050565b60006020820190506111006000830184610fba565b92915050565b600060208201905061111b6000830184610fab565b92915050565b60006060820190506111366000830186610fba565b6111436020830185610fba565b6111506040830184611099565b949350505050565b600060408201905061116d6000830185610fba565b61117a6020830184610ffe565b9392505050565b60006040820190506111966000830185610fba565b6111a36020830184611099565b9392505050565b60006020820190506111bf6000830184610fe0565b92915050565b60006020820190506111da6000830184610fef565b92915050565b600060208201905081810360008301526111f98161100d565b9050919050565b6000602082019050818103600083015261121981611030565b9050919050565b6000602082019050818103600083015261123981611053565b9050919050565b6000602082019050818103600083015261125981611076565b9050919050565b60006020820190506112756000830184611099565b92915050565b6000611285611296565b905061129182826113bd565b919050565b6000604051905090565b600067ffffffffffffffff8211156112bb576112ba6114ab565b5b6112c4826114da565b9050602081019050919050565b600082825260208201905092915050565b60006112ed82611392565b91506112f883611392565b92508282101561130b5761130a61144d565b5b828203905092915050565b600061132182611372565b9050919050565b600061133382611372565b9050919050565b60008115159050919050565b60007fffffffff0000000000000000000000000000000000000000000000000000000082169050919050565b600073ffffffffffffffffffffffffffffffffffffffff82169050919050565b6000819050919050565b60006113a782611392565b9050919050565b82818337600083830152505050565b6113c6826114da565b810181811067ffffffffffffffff821117156113e5576113e46114ab565b5b80604052505050565b60006113f982611400565b9050919050565b600061140b826114eb565b9050919050565b6000819050919050565b600061142782611392565b915061143283611392565b9250826114425761144161147c565b5b828206905092915050565b7f4e487b7100000000000000000000000000000000000000000000000000000000600052601160045260246000fd5b7f4e487b7100000000000000000000000000000000000000000000000000000000600052601260045260246000fd5b7f4e487b7100000000000000000000000000000000000000000000000000000000600052604160045260246000fd5b6000601f19601f8301169050919050565b60008160601b9050919050565b7f73656e6465722063616e6e6f742068617665203020676f6c6400000000000000600082015250565b7f6e6f206d6f7265206e6674730000000000000000000000000000000000000000600082015250565b7f596f7520617265206e6f7420746865206f776e65720000000000000000000000600082015250565b7f616d6f756e74206d757374206265203100000000000000000000000000000000600082015250565b6115a581611316565b81146115b057600080fd5b50565b6115bc8161133a565b81146115c757600080fd5b50565b6115d381611392565b81146115de57600080fd5b5056fea26469706673582212201f3c7a252c838098fa2a021eac782b78da0ce262efd2aa0833f2d4dd6cf9032b64736f6c6343000801003360806040523480156200001157600080fd5b50604051620019e6380380620019e6833981810160405281019062000037919062000344565b82828160039080519060200190620000519291906200020b565b5080600490805190602001906200006a9291906200020b565b5050506200007f33826200008860201b60201c565b5050506200069d565b600073ffffffffffffffffffffffffffffffffffffffff168273ffffffffffffffffffffffffffffffffffffffff161415620000fb576040517f08c379a0000000000000000000000000000000000000000000000000000000008152600401620000f29062000404565b60405180910390fd5b6200010f600083836200020160201b60201c565b8060026000828254620001239190620004b3565b92505081905550806000808473ffffffffffffffffffffffffffffffffffffffff1673ffffffffffffffffffffffffffffffffffffffff16815260200190815260200160002060008282546200017a9190620004b3565b925050819055508173ffffffffffffffffffffffffffffffffffffffff16600073ffffffffffffffffffffffffffffffffffffffff167fddf252ad1be2c89b69c2b068fc378daa952ba7f163c4a11628f55a4df523b3ef83604051620001e1919062000426565b60405180910390a3620001fd600083836200020660201b60201c565b5050565b505050565b505050565b828054620002199062000550565b90600052602060002090601f0160209004810192826200023d576000855562000289565b82601f106200025857805160ff191683800117855562000289565b8280016001018555821562000289579182015b82811115620002885782518255916020019190600101906200026b565b5b5090506200029891906200029c565b5090565b5b80821115620002b75760008160009055506001016200029d565b5090565b6000620002d2620002cc846200046c565b62000443565b905082815260208101848484011115620002eb57600080fd5b620002f88482856200051a565b509392505050565b600082601f8301126200031257600080fd5b815162000324848260208601620002bb565b91505092915050565b6000815190506200033e8162000683565b92915050565b6000806000606084860312156200035a57600080fd5b600084015167ffffffffffffffff8111156200037557600080fd5b620003838682870162000300565b935050602084015167ffffffffffffffff811115620003a157600080fd5b620003af8682870162000300565b9250506040620003c2868287016200032d565b9150509250925092565b6000620003db601f83620004a2565b9150620003e8826200065a565b602082019050919050565b620003fe8162000510565b82525050565b600060208201905081810360008301526200041f81620003cc565b9050919050565b60006020820190506200043d6000830184620003f3565b92915050565b60006200044f62000462565b90506200045d828262000586565b919050565b6000604051905090565b600067ffffffffffffffff8211156200048a57620004896200061a565b5b620004958262000649565b9050602081019050919050565b600082825260208201905092915050565b6000620004c08262000510565b9150620004cd8362000510565b9250827fffffffffffffffffffffffffffffffffffffffffffffffffffffffffffffffff03821115620005055762000504620005bc565b5b828201905092915050565b6000819050919050565b60005b838110156200053a5780820151818401526020810190506200051d565b838111156200054a576000848401525b50505050565b600060028204905060018216806200056957607f821691505b6020821081141562000580576200057f620005eb565b5b50919050565b620005918262000649565b810181811067ffffffffffffffff82111715620005b357620005b26200061a565b5b80604052505050565b7f4e487b7100000000000000000000000000000000000000000000000000000000600052601160045260246000fd5b7f4e487b7100000000000000000000000000000000000000000000000000000000600052602260045260246000fd5b7f4e487b7100000000000000000000000000000000000000000000000000000000600052604160045260246000fd5b6000601f19601f8301169050919050565b7f45524332303a206d696e7420746f20746865207a65726f206164647265737300600082015250565b6200068e8162000510565b81146200069a57600080fd5b50565b61133980620006ad6000396000f3fe608060405234801561001057600080fd5b50600436106100a95760003560e01c80633950935111610071578063395093511461016857806370a082311461019857806395d89b41146101c8578063a457c2d7146101e6578063a9059cbb14610216578063dd62ed3e14610246576100a9565b806306fdde03146100ae578063095ea7b3146100cc57806318160ddd146100fc57806323b872dd1461011a578063313ce5671461014a575b600080fd5b6100b6610276565b6040516100c39190610dff565b60405180910390f35b6100e660048036038101906100e19190610c4d565b610308565b6040516100f39190610de4565b60405180910390f35b61010461032b565b6040516101119190610f01565b60405180910390f35b610134600480360381019061012f9190610bfe565b610335565b6040516101419190610de4565b60405180910390f35b610152610364565b60405161015f9190610f1c565b60405180910390f35b610182600480360381019061017d9190610c4d565b61036d565b60405161018f9190610de4565b60405180910390f35b6101b260048036038101906101ad9190610b99565b610417565b6040516101bf9190610f01565b60405180910390f35b6101d061045f565b6040516101dd9190610dff565b60405180910390f35b61020060048036038101906101fb9190610c4d565b6104f1565b60405161020d9190610de4565b60405180910390f35b610230600480360381019061022b9190610c4d565b6105db565b60405161023d9190610de4565b60405180910390f35b610260600480360381019061025b9190610bc2565b6105fe565b60405161026d9190610f01565b60405180910390f35b60606003805461028590611031565b80601f01602080910402602001604051908101604052809291908181526020018280546102b190611031565b80156102fe5780601f106102d3576101008083540402835291602001916102fe565b820191906000526020600020905b8154815290600101906020018083116102e157829003601f168201915b5050505050905090565b600080610313610685565b905061032081858561068d565b600191505092915050565b6000600254905090565b600080610340610685565b905061034d858285610858565b6103588585856108e4565b60019150509392505050565b60006012905090565b600080610378610685565b905061040c818585600160008673ffffffffffffffffffffffffffffffffffffffff1673ffffffffffffffffffffffffffffffffffffffff16815260200190815260200160002060008973ffffffffffffffffffffffffffffffffffffffff1673ffffffffffffffffffffffffffffffffffffffff168152602001908152602001600020546104079190610f53565b61068d565b600191505092915050565b60008060008373ffffffffffffffffffffffffffffffffffffffff1673ffffffffffffffffffffffffffffffffffffffff168152602001908152602001600020549050919050565b60606004805461046e90611031565b80601f016020809104026020016040519081016040528092919081815260200182805461049a90611031565b80156104e75780601f106104bc576101008083540402835291602001916104e7565b820191906000526020600020905b8154815290600101906020018083116104ca57829003601f168201915b5050505050905090565b6000806104fc610685565b90506000600160008373ffffffffffffffffffffffffffffffffffffffff1673ffffffffffffffffffffffffffffffffffffffff16815260200190815260200160002060008673ffffffffffffffffffffffffffffffffffffffff1673ffffffffffffffffffffffffffffffffffffffff168152602001908152602001600020549050838110156105c2576040517f08c379a00000000000000000000000000000000000000000000000000000000081526004016105b990610ee1565b60405180910390fd5b6105cf828686840361068d565b60019250505092915050565b6000806105e6610685565b90506105f38185856108e4565b600191505092915050565b6000600160008473ffffffffffffffffffffffffffffffffffffffff1673ffffffffffffffffffffffffffffffffffffffff16815260200190815260200160002060008373ffffffffffffffffffffffffffffffffffffffff1673ffffffffffffffffffffffffffffffffffffffff16815260200190815260200160002054905092915050565b600033905090565b600073ffffffffffffffffffffffffffffffffffffffff168373ffffffffffffffffffffffffffffffffffffffff1614156106fd576040517f08c379a00000000000000000000000000000000000000000000000000000000081526004016106f490610ec1565b60405180910390fd5b600073ffffffffffffffffffffffffffffffffffffffff168273ffffffffffffffffffffffffffffffffffffffff16141561076d576040517f08c379a000000000000000000000000000000000000000000000000000000000815260040161076490610e41565b60405180910390fd5b80600160008573ffffffffffffffffffffffffffffffffffffffff1673ffffffffffffffffffffffffffffffffffffffff16815260200190815260200160002060008473ffffffffffffffffffffffffffffffffffffffff1673ffffffffffffffffffffffffffffffffffffffff168152602001908152602001600020819055508173ffffffffffffffffffffffffffffffffffffffff168373ffffffffffffffffffffffffffffffffffffffff167f8c5be1e5ebec7d5bd14f71427d1e84f3dd0314c0f7b2291e5b200ac8c7c3b9258360405161084b9190610f01565b60405180910390a3505050565b600061086484846105fe565b90507fffffffffffffffffffffffffffffffffffffffffffffffffffffffffffffffff81146108de57818110156108d0576040517f08c379a00000000000000000000000000000000000000000000000000000000081526004016108c790610e61565b60405180910390fd5b6108dd848484840361068d565b5b50505050565b600073ffffffffffffffffffffffffffffffffffffffff168373ffffffffffffffffffffffffffffffffffffffff161415610954576040517f08c379a000000000000000000000000000000000000000000000000000000000815260040161094b90610ea1565b60405180910390fd5b600073ffffffffffffffffffffffffffffffffffffffff168273ffffffffffffffffffffffffffffffffffffffff1614156109c4576040517f08c379a00000000000000000000000000000000000000000000000000000000081526004016109bb90610e21565b60405180910390fd5b6109cf838383610b65565b60008060008573ffffffffffffffffffffffffffffffffffffffff1673ffffffffffffffffffffffffffffffffffffffff16815260200190815260200160002054905081811015610a55576040517f08c379a0000000000000000000000000000000000000000000000000000000008152600401610a4c90610e81565b60405180910390fd5b8181036000808673ffffffffffffffffffffffffffffffffffffffff1673ffffffffffffffffffffffffffffffffffffffff16815260200190815260200160002081905550816000808573ffffffffffffffffffffffffffffffffffffffff1673ffffffffffffffffffffffffffffffffffffffff1681526020019081526020016000206000828254610ae89190610f53565b925050819055508273ffffffffffffffffffffffffffffffffffffffff168473ffffffffffffffffffffffffffffffffffffffff167fddf252ad1be2c89b69c2b068fc378daa952ba7f163c4a11628f55a4df523b3ef84604051610b4c9190610f01565b60405180910390a3610b5f848484610b6a565b50505050565b505050565b505050565b600081359050610b7e816112d5565b92915050565b600081359050610b93816112ec565b92915050565b600060208284031215610bab57600080fd5b6000610bb984828501610b6f565b91505092915050565b60008060408385031215610bd557600080fd5b6000610be385828601610b6f565b9250506020610bf485828601610b6f565b9150509250929050565b600080600060608486031215610c1357600080fd5b6000610c2186828701610b6f565b9350506020610c3286828701610b6f565b9250506040610c4386828701610b84565b9150509250925092565b60008060408385031215610c6057600080fd5b6000610c6e85828601610b6f565b9250506020610c7f85828601610b84565b9150509250929050565b610c9281610fbb565b82525050565b6000610ca382610f37565b610cad8185610f42565b9350610cbd818560208601610ffe565b610cc6816110c1565b840191505092915050565b6000610cde602383610f42565b9150610ce9826110d2565b604082019050919050565b6000610d01602283610f42565b9150610d0c82611121565b604082019050919050565b6000610d24601d83610f42565b9150610d2f82611170565b602082019050919050565b6000610d47602683610f42565b9150610d5282611199565b604082019050919050565b6000610d6a602583610f42565b9150610d75826111e8565b604082019050919050565b6000610d8d602483610f42565b9150610d9882611237565b604082019050919050565b6000610db0602583610f42565b9150610dbb82611286565b604082019050919050565b610dcf81610fe7565b82525050565b610dde81610ff1565b82525050565b6000602082019050610df96000830184610c89565b92915050565b60006020820190508181036000830152610e198184610c98565b905092915050565b60006020820190508181036000830152610e3a81610cd1565b9050919050565b60006020820190508181036000830152610e5a81610cf4565b9050919050565b60006020820190508181036000830152610e7a81610d17565b9050919050565b60006020820190508181036000830152610e9a81610d3a565b9050919050565b60006020820190508181036000830152610eba81610d5d565b9050919050565b60006020820190508181036000830152610eda81610d80565b9050919050565b60006020820190508181036000830152610efa81610da3565b9050919050565b6000602082019050610f166000830184610dc6565b92915050565b6000602082019050610f316000830184610dd5565b92915050565b600081519050919050565b600082825260208201905092915050565b6000610f5e82610fe7565b9150610f6983610fe7565b9250827fffffffffffffffffffffffffffffffffffffffffffffffffffffffffffffffff03821115610f9e57610f9d611063565b5b828201905092915050565b6000610fb482610fc7565b9050919050565b60008115159050919050565b600073ffffffffffffffffffffffffffffffffffffffff82169050919050565b6000819050919050565b600060ff82169050919050565b60005b8381101561101c578082015181840152602081019050611001565b8381111561102b576000848401525b50505050565b6000600282049050600182168061104957607f821691505b6020821081141561105d5761105c611092565b5b50919050565b7f4e487b7100000000000000000000000000000000000000000000000000000000600052601160045260246000fd5b7f4e487b7100000000000000000000000000000000000000000000000000000000600052602260045260246000fd5b6000601f19601f8301169050919050565b7f45524332303a207472616e7366657220746f20746865207a65726f206164647260008201527f6573730000000000000000000000000000000000000000000000000000000000602082015250565b7f45524332303a20617070726f766520746f20746865207a65726f20616464726560008201527f7373000000000000000000000000000000000000000000000000000000000000602082015250565b7f45524332303a20696e73756666696369656e7420616c6c6f77616e6365000000600082015250565b7f45524332303a207472616e7366657220616d6f756e742065786365656473206260008201527f616c616e63650000000000000000000000000000000000000000000000000000602082015250565b7f45524332303a207472616e736665722066726f6d20746865207a65726f20616460008201527f6472657373000000000000000000000000000000000000000000000000000000602082015250565b7f45524332303a20617070726f76652066726f6d20746865207a65726f2061646460008201527f7265737300000000000000000000000000000000000000000000000000000000602082015250565b7f45524332303a2064656372656173656420616c6c6f77616e63652062656c6f7760008201527f207a65726f000000000000000000000000000000000000000000000000000000602082015250565b6112de81610fa9565b81146112e957600080fd5b50565b6112f581610fe7565b811461130057600080fd5b5056fea26469706673582212205507393a4b0b516fb97f1c6db9df1258cefdd1f4e8bc9237de2ec69c932d65b364736f6c63430008010033",
  "linkReferences": {},
  "deployedLinkReferences": {}
}