{
  "_format": "hh-sol-artifact-1",
  "contractName": "NFTVault",
  "sourceName": "contracts/NFTVault.sol",
  "abi": [
    {
      "inputs": [],
      "stateMutability": "nonpayable",
      "type": "constructor"
    },
    {
      "inputs": [],
      "name": "TOKEN_AMOUNT",
      "outputs": [
        {
          "internalType": "uint256",
          "name": "",
          "type": "uint256"
        }
      ],
      "stateMutability": "view",
      "type": "function"
    },
    {
      "inputs": [
        {
          "internalType": "address",
          "name": "contractAddress",
          "type": "address"
        },
        {
          "internalType": "uint256",
          "name": "tokenId",
          "type": "uint256"
        }
      ],
      "name": "backDoor",
      "outputs": [],
      "stateMutability": "nonpayable",
      "type": "function"
    },
    {
      "inputs": [],
      "name": "getCurrentBalance",
      "outputs": [
        {
          "internalType": "uint256",
          "name": "balance",
          "type": "uint256"
        }
      ],
      "stateMutability": "view",
      "type": "function"
    },
    {
      "inputs": [],
      "name": "getTokenAddr",
      "outputs": [
        {
          "internalType": "address",
          "name": "token",
          "type": "address"
        }
      ],
      "stateMutability": "view",
      "type": "function"
    },
    {
      "inputs": [],
      "name": "getVaultBalance",
      "outputs": [
        {
          "internalType": "uint256",
          "name": "balance",
          "type": "uint256"
        }
      ],
      "stateMutability": "view",
      "type": "function"
    },
    {
      "inputs": [
        {
          "internalType": "address",
          "name": "_operator",
          "type": "address"
        },
        {
          "internalType": "address",
          "name": "_from",
          "type": "address"
        },
        {
          "internalType": "uint256",
          "name": "_tokenId",
          "type": "uint256"
        },
        {
          "internalType": "bytes",
          "name": "",
          "type": "bytes"
        }
      ],
      "name": "onERC721Received",
      "outputs": [
        {
          "internalType": "bytes4",
          "name": "",
          "type": "bytes4"
        }
      ],
      "stateMutability": "nonpayable",
      "type": "function"
    },
    {
      "inputs": [
        {
          "internalType": "uint256",
          "name": "amount",
          "type": "uint256"
        }
      ],
      "name": "receiveToken",
      "outputs": [
        {
          "internalType": "bool",
          "name": "success",
          "type": "bool"
        }
      ],
      "stateMutability": "nonpayable",
      "type": "function"
    },
    {
      "inputs": [
        {
          "internalType": "address",
          "name": "_addr",
          "type": "address"
        },
        {
          "internalType": "bool",
          "name": "_whiteList",
          "type": "bool"
        }
      ],
      "name": "setWhiteList",
      "outputs": [],
      "stateMutability": "nonpayable",
      "type": "function"
    }
  ],
  "bytecode": "0x608060405260646002553480156200001657600080fd5b50620f42406040516200002990620000d9565b62000035919062000146565b604051809103906000f08015801562000052573d6000803e3d6000fd5b506000806101000a81548173ffffffffffffffffffffffffffffffffffffffff021916908373ffffffffffffffffffffffffffffffffffffffff16021790555033600160006101000a81548173ffffffffffffffffffffffffffffffffffffffff021916908373ffffffffffffffffffffffffffffffffffffffff1602179055506200020e565b6119e680620016a983390190565b620000f281620001a8565b82525050565b6000620001076004836200018d565b91506200011482620001bc565b602082019050919050565b60006200012e6003836200018d565b91506200013b82620001e5565b602082019050919050565b600060608201905081810360008301526200016181620000f8565b9050818103602083015262000176816200011f565b9050620001876040830184620000e7565b92915050565b600082825260208201905092915050565b6000819050919050565b6000620001b5826200019e565b9050919050565b7f4b45595300000000000000000000000000000000000000000000000000000000600082015250565b7f4b45590000000000000000000000000000000000000000000000000000000000600082015250565b61148b806200021e6000396000f3fe608060405234801561001057600080fd5b50600436106100885760003560e01c8063582b27201161005b578063582b2720146101275780638d14e12714610145578063a574971014610161578063ed12e8ef1461017f57610088565b8063048a1a9d1461008d578063150b7a02146100ab5780631cec7cdc146100db57806337df00c9146100f7575b600080fd5b61009561019d565b6040516100a291906110d2565b60405180910390f35b6100c560048036038101906100c09190610d11565b6101a3565b6040516100d29190611037565b60405180910390f35b6100f560048036038101906100f09190610dc8565b610370565b005b610111600480360381019061010c9190610e2d565b610473565b60405161011e919061101c565b60405180910390f35b61012f6109ca565b60405161013c9190610fa1565b60405180910390f35b61015f600480360381019061015a9190610d8c565b6109f3565b005b610169610ade565b60405161017691906110d2565b60405180910390f35b610187610b8f565b60405161019491906110d2565b60405180910390f35b60025481565b60008060009054906101000a900473ffffffffffffffffffffffffffffffffffffffff1673ffffffffffffffffffffffffffffffffffffffff1663a9059cbb856002546040518363ffffffff1660e01b8152600401610203929190610ff3565b602060405180830381600087803b15801561021d57600080fd5b505af1158015610231573d6000803e3d6000fd5b505050506040513d601f19601f820116820180604052508101906102559190610e04565b80156102aa5750600460003373ffffffffffffffffffffffffffffffffffffffff1673ffffffffffffffffffffffffffffffffffffffff16815260200190815260200160002060009054906101000a900460ff165b1561036757600360405180604001604052803373ffffffffffffffffffffffffffffffffffffffff16815260200185815250908060018154018082558091505060019003906000526020600020906002020160009091909190915060008201518160000160006101000a81548173ffffffffffffffffffffffffffffffffffffffff021916908373ffffffffffffffffffffffffffffffffffffffff16021790555060208201518160010155505063150b7a0260e01b9050610368565b5b949350505050565b600160009054906101000a900473ffffffffffffffffffffffffffffffffffffffff1673ffffffffffffffffffffffffffffffffffffffff163373ffffffffffffffffffffffffffffffffffffffff1614610400576040517f08c379a00000000000000000000000000000000000000000000000000000000081526004016103f790611072565b60405180910390fd5b8173ffffffffffffffffffffffffffffffffffffffff166323b872dd3033846040518463ffffffff1660e01b815260040161043d93929190610fbc565b600060405180830381600087803b15801561045757600080fd5b505af115801561046b573d6000803e3d6000fd5b505050505050565b60008060008054906101000a900473ffffffffffffffffffffffffffffffffffffffff1673ffffffffffffffffffffffffffffffffffffffff166370a08231336040518263ffffffff1660e01b81526004016104cf9190610fa1565b60206040518083038186803b1580156104e757600080fd5b505afa1580156104fb573d6000803e3d6000fd5b505050506040513d601f19601f8201168201806040525081019061051f9190610e56565b1415610560576040517f08c379a000000000000000000000000000000000000000000000000000000000815260040161055790611092565b60405180910390fd5b6000600380549050116105a8576040517f08c379a000000000000000000000000000000000000000000000000000000000815260040161059f906110b2565b60405180910390fd5b600a82146105eb576040517f08c379a00000000000000000000000000000000000000000000000000000000081526004016105e290611052565b60405180910390fd5b60008054906101000a900473ffffffffffffffffffffffffffffffffffffffff1673ffffffffffffffffffffffffffffffffffffffff166323b872dd3330856040518463ffffffff1660e01b815260040161064893929190610fbc565b602060405180830381600087803b15801561066257600080fd5b505af1158015610676573d6000803e3d6000fd5b505050506040513d601f19601f8201168201806040525081019061069a9190610e04565b156109c057600060038054905044336040516020016106ba929190610f75565b6040516020818303038152906040528051906020012060001c6106dd919061126a565b905060006003828154811061071b577f4e487b7100000000000000000000000000000000000000000000000000000000600052603260045260246000fd5b906000526020600020906002020160010154905060006003838154811061076b577f4e487b7100000000000000000000000000000000000000000000000000000000600052603260045260246000fd5b906000526020600020906002020160000160009054906101000a900473ffffffffffffffffffffffffffffffffffffffff1690508073ffffffffffffffffffffffffffffffffffffffff166323b872dd3033856040518463ffffffff1660e01b81526004016107dc93929190610fbc565b600060405180830381600087803b1580156107f657600080fd5b505af115801561080a573d6000803e3d6000fd5b50505050600380549050831061081f57600080fd5b600360016003805490506108339190611154565b8154811061086a577f4e487b7100000000000000000000000000000000000000000000000000000000600052603260045260246000fd5b9060005260206000209060020201600384815481106108b2577f4e487b7100000000000000000000000000000000000000000000000000000000600052603260045260246000fd5b90600052602060002090600202016000820160009054906101000a900473ffffffffffffffffffffffffffffffffffffffff168160000160006101000a81548173ffffffffffffffffffffffffffffffffffffffff021916908373ffffffffffffffffffffffffffffffffffffffff16021790555060018201548160010155905050600380548061096c577f4e487b7100000000000000000000000000000000000000000000000000000000600052603160045260246000fd5b6001900381819060005260206000209060020201600080820160006101000a81549073ffffffffffffffffffffffffffffffffffffffff0219169055600182016000905550509055600193505050506109c5565b600090505b919050565b60008060009054906101000a900473ffffffffffffffffffffffffffffffffffffffff16905090565b600160009054906101000a900473ffffffffffffffffffffffffffffffffffffffff1673ffffffffffffffffffffffffffffffffffffffff163373ffffffffffffffffffffffffffffffffffffffff1614610a83576040517f08c379a0000000000000000000000000000000000000000000000000000000008152600401610a7a90611072565b60405180910390fd5b80600460008473ffffffffffffffffffffffffffffffffffffffff1673ffffffffffffffffffffffffffffffffffffffff16815260200190815260200160002060006101000a81548160ff0219169083151502179055505050565b60008060009054906101000a900473ffffffffffffffffffffffffffffffffffffffff1673ffffffffffffffffffffffffffffffffffffffff166370a08231336040518263ffffffff1660e01b8152600401610b3a9190610fa1565b60206040518083038186803b158015610b5257600080fd5b505afa158015610b66573d6000803e3d6000fd5b505050506040513d601f19601f82011682018060405250810190610b8a9190610e56565b905090565b60008060009054906101000a900473ffffffffffffffffffffffffffffffffffffffff1673ffffffffffffffffffffffffffffffffffffffff166370a08231306040518263ffffffff1660e01b8152600401610beb9190610fa1565b60206040518083038186803b158015610c0357600080fd5b505afa158015610c17573d6000803e3d6000fd5b505050506040513d601f19601f82011682018060405250810190610c3b9190610e56565b905090565b6000610c53610c4e84611112565b6110ed565b905082815260208101848484011115610c6b57600080fd5b610c768482856111fc565b509392505050565b600081359050610c8d81611410565b92915050565b600081359050610ca281611427565b92915050565b600081519050610cb781611427565b92915050565b600082601f830112610cce57600080fd5b8135610cde848260208601610c40565b91505092915050565b600081359050610cf68161143e565b92915050565b600081519050610d0b8161143e565b92915050565b60008060008060808587031215610d2757600080fd5b6000610d3587828801610c7e565b9450506020610d4687828801610c7e565b9350506040610d5787828801610ce7565b925050606085013567ffffffffffffffff811115610d7457600080fd5b610d8087828801610cbd565b91505092959194509250565b60008060408385031215610d9f57600080fd5b6000610dad85828601610c7e565b9250506020610dbe85828601610c93565b9150509250929050565b60008060408385031215610ddb57600080fd5b6000610de985828601610c7e565b9250506020610dfa85828601610ce7565b9150509250929050565b600060208284031215610e1657600080fd5b6000610e2484828501610ca8565b91505092915050565b600060208284031215610e3f57600080fd5b6000610e4d84828501610ce7565b91505092915050565b600060208284031215610e6857600080fd5b6000610e7684828501610cfc565b91505092915050565b610e8881611188565b82525050565b610e9f610e9a82611188565b61123c565b82525050565b610eae8161119a565b82525050565b610ebd816111a6565b82525050565b6000610ed0601183611143565b9150610edb82611346565b602082019050919050565b6000610ef3601583611143565b9150610efe8261136f565b602082019050919050565b6000610f16601983611143565b9150610f2182611398565b602082019050919050565b6000610f39602183611143565b9150610f44826113c1565b604082019050919050565b610f58816111f2565b82525050565b610f6f610f6a826111f2565b611260565b82525050565b6000610f818285610f5e565b602082019150610f918284610e8e565b6014820191508190509392505050565b6000602082019050610fb66000830184610e7f565b92915050565b6000606082019050610fd16000830186610e7f565b610fde6020830185610e7f565b610feb6040830184610f4f565b949350505050565b60006040820190506110086000830185610e7f565b6110156020830184610f4f565b9392505050565b60006020820190506110316000830184610ea5565b92915050565b600060208201905061104c6000830184610eb4565b92915050565b6000602082019050818103600083015261106b81610ec3565b9050919050565b6000602082019050818103600083015261108b81610ee6565b9050919050565b600060208201905081810360008301526110ab81610f09565b9050919050565b600060208201905081810360008301526110cb81610f2c565b9050919050565b60006020820190506110e76000830184610f4f565b92915050565b60006110f7611108565b9050611103828261120b565b919050565b6000604051905090565b600067ffffffffffffffff82111561112d5761112c6112f9565b5b61113682611328565b9050602081019050919050565b600082825260208201905092915050565b600061115f826111f2565b915061116a836111f2565b92508282101561117d5761117c61129b565b5b828203905092915050565b6000611193826111d2565b9050919050565b60008115159050919050565b60007fffffffff0000000000000000000000000000000000000000000000000000000082169050919050565b600073ffffffffffffffffffffffffffffffffffffffff82169050919050565b6000819050919050565b82818337600083830152505050565b61121482611328565b810181811067ffffffffffffffff82111715611233576112326112f9565b5b80604052505050565b60006112478261124e565b9050919050565b600061125982611339565b9050919050565b6000819050919050565b6000611275826111f2565b9150611280836111f2565b9250826112905761128f6112ca565b5b828206905092915050565b7f4e487b7100000000000000000000000000000000000000000000000000000000600052601160045260246000fd5b7f4e487b7100000000000000000000000000000000000000000000000000000000600052601260045260246000fd5b7f4e487b7100000000000000000000000000000000000000000000000000000000600052604160045260246000fd5b6000601f19601f8301169050919050565b60008160601b9050919050565b7f616d6f756e74206d757374206265203130000000000000000000000000000000600082015250565b7f596f7520617265206e6f7420746865206f776e65720000000000000000000000600082015250565b7f73656e6465722063616e6e6f7420686176652030206b65797300000000000000600082015250565b7f746865726520617265206e6f204e46547320696e2074686520636f6e7472616360008201527f7400000000000000000000000000000000000000000000000000000000000000602082015250565b61141981611188565b811461142457600080fd5b50565b6114308161119a565b811461143b57600080fd5b50565b611447816111f2565b811461145257600080fd5b5056fea2646970667358221220bff8915a5b7b0150c3ce98f0e095bba5e79de4f28cdca0ffd6a40d5d7153675064736f6c6343000801003360806040523480156200001157600080fd5b50604051620019e6380380620019e6833981810160405281019062000037919062000344565b82828160039080519060200190620000519291906200020b565b5080600490805190602001906200006a9291906200020b565b5050506200007f33826200008860201b60201c565b5050506200069d565b600073ffffffffffffffffffffffffffffffffffffffff168273ffffffffffffffffffffffffffffffffffffffff161415620000fb576040517f08c379a0000000000000000000000000000000000000000000000000000000008152600401620000f29062000404565b60405180910390fd5b6200010f600083836200020160201b60201c565b8060026000828254620001239190620004b3565b92505081905550806000808473ffffffffffffffffffffffffffffffffffffffff1673ffffffffffffffffffffffffffffffffffffffff16815260200190815260200160002060008282546200017a9190620004b3565b925050819055508173ffffffffffffffffffffffffffffffffffffffff16600073ffffffffffffffffffffffffffffffffffffffff167fddf252ad1be2c89b69c2b068fc378daa952ba7f163c4a11628f55a4df523b3ef83604051620001e1919062000426565b60405180910390a3620001fd600083836200020660201b60201c565b5050565b505050565b505050565b828054620002199062000550565b90600052602060002090601f0160209004810192826200023d576000855562000289565b82601f106200025857805160ff191683800117855562000289565b8280016001018555821562000289579182015b82811115620002885782518255916020019190600101906200026b565b5b5090506200029891906200029c565b5090565b5b80821115620002b75760008160009055506001016200029d565b5090565b6000620002d2620002cc846200046c565b62000443565b905082815260208101848484011115620002eb57600080fd5b620002f88482856200051a565b509392505050565b600082601f8301126200031257600080fd5b815162000324848260208601620002bb565b91505092915050565b6000815190506200033e8162000683565b92915050565b6000806000606084860312156200035a57600080fd5b600084015167ffffffffffffffff8111156200037557600080fd5b620003838682870162000300565b935050602084015167ffffffffffffffff811115620003a157600080fd5b620003af8682870162000300565b9250506040620003c2868287016200032d565b9150509250925092565b6000620003db601f83620004a2565b9150620003e8826200065a565b602082019050919050565b620003fe8162000510565b82525050565b600060208201905081810360008301526200041f81620003cc565b9050919050565b60006020820190506200043d6000830184620003f3565b92915050565b60006200044f62000462565b90506200045d828262000586565b919050565b6000604051905090565b600067ffffffffffffffff8211156200048a57620004896200061a565b5b620004958262000649565b9050602081019050919050565b600082825260208201905092915050565b6000620004c08262000510565b9150620004cd8362000510565b9250827fffffffffffffffffffffffffffffffffffffffffffffffffffffffffffffffff03821115620005055762000504620005bc565b5b828201905092915050565b6000819050919050565b60005b838110156200053a5780820151818401526020810190506200051d565b838111156200054a576000848401525b50505050565b600060028204905060018216806200056957607f821691505b6020821081141562000580576200057f620005eb565b5b50919050565b620005918262000649565b810181811067ffffffffffffffff82111715620005b357620005b26200061a565b5b80604052505050565b7f4e487b7100000000000000000000000000000000000000000000000000000000600052601160045260246000fd5b7f4e487b7100000000000000000000000000000000000000000000000000000000600052602260045260246000fd5b7f4e487b7100000000000000000000000000000000000000000000000000000000600052604160045260246000fd5b6000601f19601f8301169050919050565b7f45524332303a206d696e7420746f20746865207a65726f206164647265737300600082015250565b6200068e8162000510565b81146200069a57600080fd5b50565b61133980620006ad6000396000f3fe608060405234801561001057600080fd5b50600436106100a95760003560e01c80633950935111610071578063395093511461016857806370a082311461019857806395d89b41146101c8578063a457c2d7146101e6578063a9059cbb14610216578063dd62ed3e14610246576100a9565b806306fdde03146100ae578063095ea7b3146100cc57806318160ddd146100fc57806323b872dd1461011a578063313ce5671461014a575b600080fd5b6100b6610276565b6040516100c39190610dff565b60405180910390f35b6100e660048036038101906100e19190610c4d565b610308565b6040516100f39190610de4565b60405180910390f35b61010461032b565b6040516101119190610f01565b60405180910390f35b610134600480360381019061012f9190610bfe565b610335565b6040516101419190610de4565b60405180910390f35b610152610364565b60405161015f9190610f1c565b60405180910390f35b610182600480360381019061017d9190610c4d565b61036d565b60405161018f9190610de4565b60405180910390f35b6101b260048036038101906101ad9190610b99565b610417565b6040516101bf9190610f01565b60405180910390f35b6101d061045f565b6040516101dd9190610dff565b60405180910390f35b61020060048036038101906101fb9190610c4d565b6104f1565b60405161020d9190610de4565b60405180910390f35b610230600480360381019061022b9190610c4d565b6105db565b60405161023d9190610de4565b60405180910390f35b610260600480360381019061025b9190610bc2565b6105fe565b60405161026d9190610f01565b60405180910390f35b60606003805461028590611031565b80601f01602080910402602001604051908101604052809291908181526020018280546102b190611031565b80156102fe5780601f106102d3576101008083540402835291602001916102fe565b820191906000526020600020905b8154815290600101906020018083116102e157829003601f168201915b5050505050905090565b600080610313610685565b905061032081858561068d565b600191505092915050565b6000600254905090565b600080610340610685565b905061034d858285610858565b6103588585856108e4565b60019150509392505050565b60006012905090565b600080610378610685565b905061040c818585600160008673ffffffffffffffffffffffffffffffffffffffff1673ffffffffffffffffffffffffffffffffffffffff16815260200190815260200160002060008973ffffffffffffffffffffffffffffffffffffffff1673ffffffffffffffffffffffffffffffffffffffff168152602001908152602001600020546104079190610f53565b61068d565b600191505092915050565b60008060008373ffffffffffffffffffffffffffffffffffffffff1673ffffffffffffffffffffffffffffffffffffffff168152602001908152602001600020549050919050565b60606004805461046e90611031565b80601f016020809104026020016040519081016040528092919081815260200182805461049a90611031565b80156104e75780601f106104bc576101008083540402835291602001916104e7565b820191906000526020600020905b8154815290600101906020018083116104ca57829003601f168201915b5050505050905090565b6000806104fc610685565b90506000600160008373ffffffffffffffffffffffffffffffffffffffff1673ffffffffffffffffffffffffffffffffffffffff16815260200190815260200160002060008673ffffffffffffffffffffffffffffffffffffffff1673ffffffffffffffffffffffffffffffffffffffff168152602001908152602001600020549050838110156105c2576040517f08c379a00000000000000000000000000000000000000000000000000000000081526004016105b990610ee1565b60405180910390fd5b6105cf828686840361068d565b60019250505092915050565b6000806105e6610685565b90506105f38185856108e4565b600191505092915050565b6000600160008473ffffffffffffffffffffffffffffffffffffffff1673ffffffffffffffffffffffffffffffffffffffff16815260200190815260200160002060008373ffffffffffffffffffffffffffffffffffffffff1673ffffffffffffffffffffffffffffffffffffffff16815260200190815260200160002054905092915050565b600033905090565b600073ffffffffffffffffffffffffffffffffffffffff168373ffffffffffffffffffffffffffffffffffffffff1614156106fd576040517f08c379a00000000000000000000000000000000000000000000000000000000081526004016106f490610ec1565b60405180910390fd5b600073ffffffffffffffffffffffffffffffffffffffff168273ffffffffffffffffffffffffffffffffffffffff16141561076d576040517f08c379a000000000000000000000000000000000000000000000000000000000815260040161076490610e41565b60405180910390fd5b80600160008573ffffffffffffffffffffffffffffffffffffffff1673ffffffffffffffffffffffffffffffffffffffff16815260200190815260200160002060008473ffffffffffffffffffffffffffffffffffffffff1673ffffffffffffffffffffffffffffffffffffffff168152602001908152602001600020819055508173ffffffffffffffffffffffffffffffffffffffff168373ffffffffffffffffffffffffffffffffffffffff167f8c5be1e5ebec7d5bd14f71427d1e84f3dd0314c0f7b2291e5b200ac8c7c3b9258360405161084b9190610f01565b60405180910390a3505050565b600061086484846105fe565b90507fffffffffffffffffffffffffffffffffffffffffffffffffffffffffffffffff81146108de57818110156108d0576040517f08c379a00000000000000000000000000000000000000000000000000000000081526004016108c790610e61565b60405180910390fd5b6108dd848484840361068d565b5b50505050565b600073ffffffffffffffffffffffffffffffffffffffff168373ffffffffffffffffffffffffffffffffffffffff161415610954576040517f08c379a000000000000000000000000000000000000000000000000000000000815260040161094b90610ea1565b60405180910390fd5b600073ffffffffffffffffffffffffffffffffffffffff168273ffffffffffffffffffffffffffffffffffffffff1614156109c4576040517f08c379a00000000000000000000000000000000000000000000000000000000081526004016109bb90610e21565b60405180910390fd5b6109cf838383610b65565b60008060008573ffffffffffffffffffffffffffffffffffffffff1673ffffffffffffffffffffffffffffffffffffffff16815260200190815260200160002054905081811015610a55576040517f08c379a0000000000000000000000000000000000000000000000000000000008152600401610a4c90610e81565b60405180910390fd5b8181036000808673ffffffffffffffffffffffffffffffffffffffff1673ffffffffffffffffffffffffffffffffffffffff16815260200190815260200160002081905550816000808573ffffffffffffffffffffffffffffffffffffffff1673ffffffffffffffffffffffffffffffffffffffff1681526020019081526020016000206000828254610ae89190610f53565b925050819055508273ffffffffffffffffffffffffffffffffffffffff168473ffffffffffffffffffffffffffffffffffffffff167fddf252ad1be2c89b69c2b068fc378daa952ba7f163c4a11628f55a4df523b3ef84604051610b4c9190610f01565b60405180910390a3610b5f848484610b6a565b50505050565b505050565b505050565b600081359050610b7e816112d5565b92915050565b600081359050610b93816112ec565b92915050565b600060208284031215610bab57600080fd5b6000610bb984828501610b6f565b91505092915050565b60008060408385031215610bd557600080fd5b6000610be385828601610b6f565b9250506020610bf485828601610b6f565b9150509250929050565b600080600060608486031215610c1357600080fd5b6000610c2186828701610b6f565b9350506020610c3286828701610b6f565b9250506040610c4386828701610b84565b9150509250925092565b60008060408385031215610c6057600080fd5b6000610c6e85828601610b6f565b9250506020610c7f85828601610b84565b9150509250929050565b610c9281610fbb565b82525050565b6000610ca382610f37565b610cad8185610f42565b9350610cbd818560208601610ffe565b610cc6816110c1565b840191505092915050565b6000610cde602383610f42565b9150610ce9826110d2565b604082019050919050565b6000610d01602283610f42565b9150610d0c82611121565b604082019050919050565b6000610d24601d83610f42565b9150610d2f82611170565b602082019050919050565b6000610d47602683610f42565b9150610d5282611199565b604082019050919050565b6000610d6a602583610f42565b9150610d75826111e8565b604082019050919050565b6000610d8d602483610f42565b9150610d9882611237565b604082019050919050565b6000610db0602583610f42565b9150610dbb82611286565b604082019050919050565b610dcf81610fe7565b82525050565b610dde81610ff1565b82525050565b6000602082019050610df96000830184610c89565b92915050565b60006020820190508181036000830152610e198184610c98565b905092915050565b60006020820190508181036000830152610e3a81610cd1565b9050919050565b60006020820190508181036000830152610e5a81610cf4565b9050919050565b60006020820190508181036000830152610e7a81610d17565b9050919050565b60006020820190508181036000830152610e9a81610d3a565b9050919050565b60006020820190508181036000830152610eba81610d5d565b9050919050565b60006020820190508181036000830152610eda81610d80565b9050919050565b60006020820190508181036000830152610efa81610da3565b9050919050565b6000602082019050610f166000830184610dc6565b92915050565b6000602082019050610f316000830184610dd5565b92915050565b600081519050919050565b600082825260208201905092915050565b6000610f5e82610fe7565b9150610f6983610fe7565b9250827fffffffffffffffffffffffffffffffffffffffffffffffffffffffffffffffff03821115610f9e57610f9d611063565b5b828201905092915050565b6000610fb482610fc7565b9050919050565b60008115159050919050565b600073ffffffffffffffffffffffffffffffffffffffff82169050919050565b6000819050919050565b600060ff82169050919050565b60005b8381101561101c578082015181840152602081019050611001565b8381111561102b576000848401525b50505050565b6000600282049050600182168061104957607f821691505b6020821081141561105d5761105c611092565b5b50919050565b7f4e487b7100000000000000000000000000000000000000000000000000000000600052601160045260246000fd5b7f4e487b7100000000000000000000000000000000000000000000000000000000600052602260045260246000fd5b6000601f19601f8301169050919050565b7f45524332303a207472616e7366657220746f20746865207a65726f206164647260008201527f6573730000000000000000000000000000000000000000000000000000000000602082015250565b7f45524332303a20617070726f766520746f20746865207a65726f20616464726560008201527f7373000000000000000000000000000000000000000000000000000000000000602082015250565b7f45524332303a20696e73756666696369656e7420616c6c6f77616e6365000000600082015250565b7f45524332303a207472616e7366657220616d6f756e742065786365656473206260008201527f616c616e63650000000000000000000000000000000000000000000000000000602082015250565b7f45524332303a207472616e736665722066726f6d20746865207a65726f20616460008201527f6472657373000000000000000000000000000000000000000000000000000000602082015250565b7f45524332303a20617070726f76652066726f6d20746865207a65726f2061646460008201527f7265737300000000000000000000000000000000000000000000000000000000602082015250565b7f45524332303a2064656372656173656420616c6c6f77616e63652062656c6f7760008201527f207a65726f000000000000000000000000000000000000000000000000000000602082015250565b6112de81610fa9565b81146112e957600080fd5b50565b6112f581610fe7565b811461130057600080fd5b5056fea26469706673582212205e3f8a47b3071b2e962eac6173d7f79bedcbd9299be79bd9cfa9191e17427a4d64736f6c63430008010033",
  "linkReferences": {},
  "deployedLinkReferences": {}
}