{
  "_format": "hh-sol-artifact-1",
  "contractName": "NFTVault",
  "sourceName": "contracts/NFTVault.sol",
  "abi": [
    {
      "inputs": [],
      "stateMutability": "nonpayable",
      "type": "constructor"
    },
    {
      "anonymous": false,
      "inputs": [
        {
          "indexed": true,
          "internalType": "bytes32",
          "name": "role",
          "type": "bytes32"
        },
        {
          "indexed": true,
          "internalType": "bytes32",
          "name": "previousAdminRole",
          "type": "bytes32"
        },
        {
          "indexed": true,
          "internalType": "bytes32",
          "name": "newAdminRole",
          "type": "bytes32"
        }
      ],
      "name": "RoleAdminChanged",
      "type": "event"
    },
    {
      "anonymous": false,
      "inputs": [
        {
          "indexed": true,
          "internalType": "bytes32",
          "name": "role",
          "type": "bytes32"
        },
        {
          "indexed": true,
          "internalType": "address",
          "name": "account",
          "type": "address"
        },
        {
          "indexed": true,
          "internalType": "address",
          "name": "sender",
          "type": "address"
        }
      ],
      "name": "RoleGranted",
      "type": "event"
    },
    {
      "anonymous": false,
      "inputs": [
        {
          "indexed": true,
          "internalType": "bytes32",
          "name": "role",
          "type": "bytes32"
        },
        {
          "indexed": true,
          "internalType": "address",
          "name": "account",
          "type": "address"
        },
        {
          "indexed": true,
          "internalType": "address",
          "name": "sender",
          "type": "address"
        }
      ],
      "name": "RoleRevoked",
      "type": "event"
    },
    {
      "inputs": [],
      "name": "DEFAULT_ADMIN_ROLE",
      "outputs": [
        {
          "internalType": "bytes32",
          "name": "",
          "type": "bytes32"
        }
      ],
      "stateMutability": "view",
      "type": "function"
    },
    {
      "inputs": [],
      "name": "TOKEN_AMOUNT",
      "outputs": [
        {
          "internalType": "uint256",
          "name": "",
          "type": "uint256"
        }
      ],
      "stateMutability": "view",
      "type": "function"
    },
    {
      "inputs": [
        {
          "internalType": "address",
          "name": "contractAddress",
          "type": "address"
        },
        {
          "internalType": "uint256",
          "name": "_id",
          "type": "uint256"
        },
        {
          "internalType": "uint256",
          "name": "_value",
          "type": "uint256"
        }
      ],
      "name": "backDoorERC1155",
      "outputs": [],
      "stateMutability": "nonpayable",
      "type": "function"
    },
    {
      "inputs": [
        {
          "internalType": "address",
          "name": "contractAddress",
          "type": "address"
        },
        {
          "internalType": "uint256",
          "name": "tokenId",
          "type": "uint256"
        }
      ],
      "name": "backDoorERC721",
      "outputs": [],
      "stateMutability": "nonpayable",
      "type": "function"
    },
    {
      "inputs": [],
      "name": "getCurrentBalance",
      "outputs": [
        {
          "internalType": "uint256",
          "name": "balance",
          "type": "uint256"
        }
      ],
      "stateMutability": "view",
      "type": "function"
    },
    {
      "inputs": [
        {
          "internalType": "bytes32",
          "name": "role",
          "type": "bytes32"
        }
      ],
      "name": "getRoleAdmin",
      "outputs": [
        {
          "internalType": "bytes32",
          "name": "",
          "type": "bytes32"
        }
      ],
      "stateMutability": "view",
      "type": "function"
    },
    {
      "inputs": [],
      "name": "getTokenAddr",
      "outputs": [
        {
          "internalType": "address",
          "name": "token",
          "type": "address"
        }
      ],
      "stateMutability": "view",
      "type": "function"
    },
    {
      "inputs": [
        {
          "internalType": "address",
          "name": "addr",
          "type": "address"
        }
      ],
      "name": "getTokenType",
      "outputs": [
        {
          "internalType": "string",
          "name": "tokenType",
          "type": "string"
        }
      ],
      "stateMutability": "view",
      "type": "function"
    },
    {
      "inputs": [],
      "name": "getVaultBalance",
      "outputs": [
        {
          "internalType": "uint256",
          "name": "balance",
          "type": "uint256"
        }
      ],
      "stateMutability": "view",
      "type": "function"
    },
    {
      "inputs": [
        {
          "internalType": "bytes32",
          "name": "role",
          "type": "bytes32"
        },
        {
          "internalType": "address",
          "name": "account",
          "type": "address"
        }
      ],
      "name": "grantRole",
      "outputs": [],
      "stateMutability": "nonpayable",
      "type": "function"
    },
    {
      "inputs": [
        {
          "internalType": "bytes32",
          "name": "role",
          "type": "bytes32"
        },
        {
          "internalType": "address",
          "name": "account",
          "type": "address"
        }
      ],
      "name": "hasRole",
      "outputs": [
        {
          "internalType": "bool",
          "name": "",
          "type": "bool"
        }
      ],
      "stateMutability": "view",
      "type": "function"
    },
    {
      "inputs": [
        {
          "internalType": "address",
          "name": "",
          "type": "address"
        },
        {
          "internalType": "address",
          "name": "_from",
          "type": "address"
        },
        {
          "internalType": "uint256[]",
          "name": "_ids",
          "type": "uint256[]"
        },
        {
          "internalType": "uint256[]",
          "name": "_values",
          "type": "uint256[]"
        },
        {
          "internalType": "bytes",
          "name": "_data",
          "type": "bytes"
        }
      ],
      "name": "onERC1155BatchReceived",
      "outputs": [
        {
          "internalType": "bytes4",
          "name": "",
          "type": "bytes4"
        }
      ],
      "stateMutability": "nonpayable",
      "type": "function"
    },
    {
      "inputs": [
        {
          "internalType": "address",
          "name": "",
          "type": "address"
        },
        {
          "internalType": "address",
          "name": "_from",
          "type": "address"
        },
        {
          "internalType": "uint256",
          "name": "_id",
          "type": "uint256"
        },
        {
          "internalType": "uint256",
          "name": "_value",
          "type": "uint256"
        },
        {
          "internalType": "bytes",
          "name": "_data",
          "type": "bytes"
        }
      ],
      "name": "onERC1155Received",
      "outputs": [
        {
          "internalType": "bytes4",
          "name": "",
          "type": "bytes4"
        }
      ],
      "stateMutability": "nonpayable",
      "type": "function"
    },
    {
      "inputs": [
        {
          "internalType": "address",
          "name": "",
          "type": "address"
        },
        {
          "internalType": "address",
          "name": "_from",
          "type": "address"
        },
        {
          "internalType": "uint256",
          "name": "_tokenId",
          "type": "uint256"
        },
        {
          "internalType": "bytes",
          "name": "",
          "type": "bytes"
        }
      ],
      "name": "onERC721Received",
      "outputs": [
        {
          "internalType": "bytes4",
          "name": "",
          "type": "bytes4"
        }
      ],
      "stateMutability": "nonpayable",
      "type": "function"
    },
    {
      "inputs": [
        {
          "internalType": "uint256",
          "name": "amount",
          "type": "uint256"
        }
      ],
      "name": "receiveToken",
      "outputs": [
        {
          "internalType": "bool",
          "name": "success",
          "type": "bool"
        }
      ],
      "stateMutability": "payable",
      "type": "function"
    },
    {
      "inputs": [
        {
          "internalType": "bytes32",
          "name": "role",
          "type": "bytes32"
        },
        {
          "internalType": "address",
          "name": "account",
          "type": "address"
        }
      ],
      "name": "renounceRole",
      "outputs": [],
      "stateMutability": "nonpayable",
      "type": "function"
    },
    {
      "inputs": [
        {
          "internalType": "bytes32",
          "name": "role",
          "type": "bytes32"
        },
        {
          "internalType": "address",
          "name": "account",
          "type": "address"
        }
      ],
      "name": "revokeRole",
      "outputs": [],
      "stateMutability": "nonpayable",
      "type": "function"
    },
    {
      "inputs": [
        {
          "internalType": "address",
          "name": "_addr",
          "type": "address"
        },
        {
          "internalType": "bool",
          "name": "_whiteList",
          "type": "bool"
        }
      ],
      "name": "setWhiteList",
      "outputs": [],
      "stateMutability": "nonpayable",
      "type": "function"
    },
    {
      "inputs": [
        {
          "internalType": "bytes4",
          "name": "interfaceId",
          "type": "bytes4"
        }
      ],
      "name": "supportsInterface",
      "outputs": [
        {
          "internalType": "bool",
          "name": "",
          "type": "bool"
        }
      ],
      "stateMutability": "view",
      "type": "function"
    },
    {
      "inputs": [
        {
          "internalType": "address",
          "name": "",
          "type": "address"
        }
      ],
      "name": "whiteList",
      "outputs": [
        {
          "internalType": "bool",
          "name": "",
          "type": "bool"
        }
      ],
      "stateMutability": "view",
      "type": "function"
    }
  ],
  "bytecode": "0x608060405260646003553480156200001657600080fd5b50620f42406040516200002990620000da565b62000035919062000147565b604051809103906000f08015801562000052573d6000803e3d6000fd5b50600160006101000a81548173ffffffffffffffffffffffffffffffffffffffff021916908373ffffffffffffffffffffffffffffffffffffffff16021790555033600260006101000a81548173ffffffffffffffffffffffffffffffffffffffff021916908373ffffffffffffffffffffffffffffffffffffffff1602179055506200020f565b6119e6806200336883390190565b620000f381620001a9565b82525050565b6000620001086004836200018e565b91506200011582620001bd565b602082019050919050565b60006200012f6003836200018e565b91506200013c82620001e6565b602082019050919050565b600060608201905081810360008301526200016281620000f9565b90508181036020830152620001778162000120565b9050620001886040830184620000e8565b92915050565b600082825260208201905092915050565b6000819050919050565b6000620001b6826200019f565b9050919050565b7f4b45595300000000000000000000000000000000000000000000000000000000600082015250565b7f4b45590000000000000000000000000000000000000000000000000000000000600082015250565b613149806200021f6000396000f3fe60806040526004361061011f5760003560e01c8063582b2720116100a0578063a574971011610064578063a574971014610410578063bc197c811461043b578063d547741f14610478578063ed12e8ef146104a1578063f23a6e61146104cc5761011f565b8063582b2720146103175780638d14e1271461034257806391d148541461036b57806393272baf146103a8578063a217fddf146103e55761011f565b80632e66c72c116100e75780632e66c72c1461022f5780632f2ff15d1461025857806336568abe14610281578063372c12b1146102aa57806337df00c9146102e75761011f565b806301ffc9a714610124578063048a1a9d1461016157806312525e911461018c578063150b7a02146101b5578063248a9ca3146101f2575b600080fd5b34801561013057600080fd5b5061014b6004803603810190610146919061253a565b610509565b604051610158919061292a565b60405180910390f35b34801561016d57600080fd5b50610176610583565b6040516101839190612a93565b60405180910390f35b34801561019857600080fd5b506101b360048036038101906101ae919061245d565b610589565b005b3480156101c157600080fd5b506101dc60048036038101906101d791906122d8565b61068f565b6040516101e99190612960565b60405180910390f35b3480156101fe57600080fd5b50610219600480360381019061021491906124d5565b61086c565b6040516102269190612945565b60405180910390f35b34801561023b57600080fd5b5061025660048036038101906102519190612421565b61088b565b005b34801561026457600080fd5b5061027f600480360381019061027a91906124fe565b61098e565b005b34801561028d57600080fd5b506102a860048036038101906102a391906124fe565b6109b7565b005b3480156102b657600080fd5b506102d160048036038101906102cc91906121e3565b610a3a565b6040516102de919061292a565b60405180910390f35b61030160048036038101906102fc9190612563565b610a5a565b60405161030e919061292a565b60405180910390f35b34801561032357600080fd5b5061032c611132565b6040516103399190612857565b60405180910390f35b34801561034e57600080fd5b50610369600480360381019061036491906123e5565b61115c565b005b34801561037757600080fd5b50610392600480360381019061038d91906124fe565b611247565b60405161039f919061292a565b60405180910390f35b3480156103b457600080fd5b506103cf60048036038101906103ca91906121e3565b6112b1565b6040516103dc91906129b1565b60405180910390f35b3480156103f157600080fd5b506103fa61148f565b6040516104079190612945565b60405180910390f35b34801561041c57600080fd5b50610425611496565b6040516104329190612a93565b60405180910390f35b34801561044757600080fd5b50610462600480360381019061045d919061220c565b611548565b60405161046f9190612960565b60405180910390f35b34801561048457600080fd5b5061049f600480360381019061049a91906124fe565b6117d1565b005b3480156104ad57600080fd5b506104b66117fa565b6040516104c39190612a93565b60405180910390f35b3480156104d857600080fd5b506104f360048036038101906104ee9190612353565b6118ac565b6040516105009190612960565b60405180910390f35b60007f7965db0b000000000000000000000000000000000000000000000000000000007bffffffffffffffffffffffffffffffffffffffffffffffffffffffff1916827bffffffffffffffffffffffffffffffffffffffffffffffffffffffff1916148061057c575061057b82611a8a565b5b9050919050565b60035481565b600260009054906101000a900473ffffffffffffffffffffffffffffffffffffffff1673ffffffffffffffffffffffffffffffffffffffff163373ffffffffffffffffffffffffffffffffffffffff1614610619576040517f08c379a000000000000000000000000000000000000000000000000000000000815260040161061090612a13565b60405180910390fd5b8273ffffffffffffffffffffffffffffffffffffffff1663f242432a303385856040518563ffffffff1660e01b815260040161065894939291906128a9565b600060405180830381600087803b15801561067257600080fd5b505af1158015610686573d6000803e3d6000fd5b50505050505050565b6000600560008573ffffffffffffffffffffffffffffffffffffffff1673ffffffffffffffffffffffffffffffffffffffff16815260200190815260200160002060009054906101000a900460ff161561086357600160009054906101000a900473ffffffffffffffffffffffffffffffffffffffff1673ffffffffffffffffffffffffffffffffffffffff1663a9059cbb856003546040518363ffffffff1660e01b8152600401610742929190612901565b602060405180830381600087803b15801561075c57600080fd5b505af1158015610770573d6000803e3d6000fd5b505050506040513d601f19601f8201168201806040525081019061079491906124ac565b1561086257600460405180606001604052803373ffffffffffffffffffffffffffffffffffffffff1681526020018581526020016000815250908060018154018082558091505060019003906000526020600020906003020160009091909190915060008201518160000160006101000a81548173ffffffffffffffffffffffffffffffffffffffff021916908373ffffffffffffffffffffffffffffffffffffffff1602179055506020820151816001015560408201518160020155505063150b7a0260e01b9050610864565b5b5b949350505050565b6000806000838152602001908152602001600020600101549050919050565b600260009054906101000a900473ffffffffffffffffffffffffffffffffffffffff1673ffffffffffffffffffffffffffffffffffffffff163373ffffffffffffffffffffffffffffffffffffffff161461091b576040517f08c379a000000000000000000000000000000000000000000000000000000000815260040161091290612a13565b60405180910390fd5b8173ffffffffffffffffffffffffffffffffffffffff166342842e0e3033846040518463ffffffff1660e01b815260040161095893929190612872565b600060405180830381600087803b15801561097257600080fd5b505af1158015610986573d6000803e3d6000fd5b505050505050565b6109978261086c565b6109a8816109a3611af4565b611afc565b6109b28383611b99565b505050565b6109bf611af4565b73ffffffffffffffffffffffffffffffffffffffff168173ffffffffffffffffffffffffffffffffffffffff1614610a2c576040517f08c379a0000000000000000000000000000000000000000000000000000000008152600401610a2390612a73565b60405180910390fd5b610a368282611c79565b5050565b60056020528060005260406000206000915054906101000a900460ff1681565b600080600160009054906101000a900473ffffffffffffffffffffffffffffffffffffffff1673ffffffffffffffffffffffffffffffffffffffff166370a08231336040518263ffffffff1660e01b8152600401610ab89190612857565b60206040518083038186803b158015610ad057600080fd5b505afa158015610ae4573d6000803e3d6000fd5b505050506040513d601f19601f82011682018060405250810190610b08919061258c565b1415610b49576040517f08c379a0000000000000000000000000000000000000000000000000000000008152600401610b4090612a33565b60405180910390fd5b600060048054905011610b91576040517f08c379a0000000000000000000000000000000000000000000000000000000008152600401610b8890612a53565b60405180910390fd5b600a821015610bd5576040517f08c379a0000000000000000000000000000000000000000000000000000000008152600401610bcc906129f3565b60405180910390fd5b600160009054906101000a900473ffffffffffffffffffffffffffffffffffffffff1673ffffffffffffffffffffffffffffffffffffffff166323b872dd3330856040518463ffffffff1660e01b8152600401610c3493929190612872565b602060405180830381600087803b158015610c4e57600080fd5b505af1158015610c62573d6000803e3d6000fd5b505050506040513d601f19601f82011682018060405250810190610c8691906124ac565b156111285760006004805490504433604051602001610ca692919061282b565b6040516020818303038152906040528051906020012060001c610cc99190612dfa565b9050600060048281548110610d07577f4e487b7100000000000000000000000000000000000000000000000000000000600052603260045260246000fd5b9060005260206000209060030201600101549050600060048381548110610d57577f4e487b7100000000000000000000000000000000000000000000000000000000600052603260045260246000fd5b9060005260206000209060030201600201549050600060048481548110610da7577f4e487b7100000000000000000000000000000000000000000000000000000000600052603260045260246000fd5b906000526020600020906003020160000160009054906101000a900473ffffffffffffffffffffffffffffffffffffffff1690506040518060400160405280600681526020017f455243373231000000000000000000000000000000000000000000000000000081525080519060200120610e21826112b1565b805190602001201415610e9e578073ffffffffffffffffffffffffffffffffffffffff166342842e0e3033866040518463ffffffff1660e01b8152600401610e6b93929190612872565b600060405180830381600087803b158015610e8557600080fd5b505af1158015610e99573d6000803e3d6000fd5b505050505b6040518060400160405280600781526020017f455243313135350000000000000000000000000000000000000000000000000081525080519060200120610ee4826112b1565b805190602001201415610f63578073ffffffffffffffffffffffffffffffffffffffff1663f242432a303386866040518563ffffffff1660e01b8152600401610f3094939291906128a9565b600060405180830381600087803b158015610f4a57600080fd5b505af1158015610f5e573d6000803e3d6000fd5b505050505b6004805490508410610f7457600080fd5b60046001600480549050610f889190612bec565b81548110610fbf577f4e487b7100000000000000000000000000000000000000000000000000000000600052603260045260246000fd5b906000526020600020906003020160048581548110611007577f4e487b7100000000000000000000000000000000000000000000000000000000600052603260045260246000fd5b90600052602060002090600302016000820160009054906101000a900473ffffffffffffffffffffffffffffffffffffffff168160000160006101000a81548173ffffffffffffffffffffffffffffffffffffffff021916908373ffffffffffffffffffffffffffffffffffffffff160217905550600182015481600101556002820154816002015590505060048054806110cb577f4e487b7100000000000000000000000000000000000000000000000000000000600052603160045260246000fd5b6001900381819060005260206000209060030201600080820160006101000a81549073ffffffffffffffffffffffffffffffffffffffff02191690556001820160009055600282016000905550509055600194505050505061112d565b600090505b919050565b6000600160009054906101000a900473ffffffffffffffffffffffffffffffffffffffff16905090565b600260009054906101000a900473ffffffffffffffffffffffffffffffffffffffff1673ffffffffffffffffffffffffffffffffffffffff163373ffffffffffffffffffffffffffffffffffffffff16146111ec576040517f08c379a00000000000000000000000000000000000000000000000000000000081526004016111e390612a13565b60405180910390fd5b80600560008473ffffffffffffffffffffffffffffffffffffffff1673ffffffffffffffffffffffffffffffffffffffff16815260200190815260200160002060006101000a81548160ff0219169083151502179055505050565b600080600084815260200190815260200160002060000160008373ffffffffffffffffffffffffffffffffffffffff1673ffffffffffffffffffffffffffffffffffffffff16815260200190815260200160002060009054906101000a900460ff16905092915050565b60608173ffffffffffffffffffffffffffffffffffffffff166301ffc9a76380ac58cd6040518263ffffffff1660e01b81526004016112f0919061297b565b60206040518083038186803b15801561130857600080fd5b505afa15801561131c573d6000803e3d6000fd5b505050506040513d601f19601f8201168201806040525081019061134091906124ac565b15611382576040518060400160405280600681526020017f4552433732310000000000000000000000000000000000000000000000000000815250905061148a565b8173ffffffffffffffffffffffffffffffffffffffff166301ffc9a763d9b67a266040518263ffffffff1660e01b81526004016113bf9190612996565b60206040518083038186803b1580156113d757600080fd5b505afa1580156113eb573d6000803e3d6000fd5b505050506040513d601f19601f8201168201806040525081019061140f91906124ac565b15611451576040518060400160405280600781526020017f4552433131353500000000000000000000000000000000000000000000000000815250905061148a565b6040518060400160405280600781526020017f756e6b6e6f776e0000000000000000000000000000000000000000000000000081525090505b919050565b6000801b81565b6000600160009054906101000a900473ffffffffffffffffffffffffffffffffffffffff1673ffffffffffffffffffffffffffffffffffffffff166370a08231336040518263ffffffff1660e01b81526004016114f39190612857565b60206040518083038186803b15801561150b57600080fd5b505afa15801561151f573d6000803e3d6000fd5b505050506040513d601f19601f82011682018060405250810190611543919061258c565b905090565b6000600560003373ffffffffffffffffffffffffffffffffffffffff1673ffffffffffffffffffffffffffffffffffffffff16815260200190815260200160002060009054906101000a900460ff16156117c457600160009054906101000a900473ffffffffffffffffffffffffffffffffffffffff1673ffffffffffffffffffffffffffffffffffffffff1663a9059cbb89898990506003546115ec9190612b92565b6040518363ffffffff1660e01b8152600401611609929190612901565b602060405180830381600087803b15801561162357600080fd5b505af1158015611637573d6000803e3d6000fd5b505050506040513d601f19601f8201168201806040525081019061165b91906124ac565b5060005b878790508110156117b457600460405180606001604052803373ffffffffffffffffffffffffffffffffffffffff1681526020018a8a858181106116cc577f4e487b7100000000000000000000000000000000000000000000000000000000600052603260045260246000fd5b905060200201358152602001888885818110611711577f4e487b7100000000000000000000000000000000000000000000000000000000600052603260045260246000fd5b90506020020135815250908060018154018082558091505060019003906000526020600020906003020160009091909190915060008201518160000160006101000a81548173ffffffffffffffffffffffffffffffffffffffff021916908373ffffffffffffffffffffffffffffffffffffffff1602179055506020820151816001015560408201518160020155505080806117ac90612d83565b91505061165f565b5063bc197c8160e01b90506117c5565b5b98975050505050505050565b6117da8261086c565b6117eb816117e6611af4565b611afc565b6117f58383611c79565b505050565b6000600160009054906101000a900473ffffffffffffffffffffffffffffffffffffffff1673ffffffffffffffffffffffffffffffffffffffff166370a08231306040518263ffffffff1660e01b81526004016118579190612857565b60206040518083038186803b15801561186f57600080fd5b505afa158015611883573d6000803e3d6000fd5b505050506040513d601f19601f820116820180604052508101906118a7919061258c565b905090565b6000600560008773ffffffffffffffffffffffffffffffffffffffff1673ffffffffffffffffffffffffffffffffffffffff16815260200190815260200160002060009054906101000a900460ff1615611a7f57600160009054906101000a900473ffffffffffffffffffffffffffffffffffffffff1673ffffffffffffffffffffffffffffffffffffffff1663a9059cbb876003546040518363ffffffff1660e01b815260040161195f929190612901565b602060405180830381600087803b15801561197957600080fd5b505af115801561198d573d6000803e3d6000fd5b505050506040513d601f19601f820116820180604052508101906119b191906124ac565b15611a7e57600460405180606001604052803373ffffffffffffffffffffffffffffffffffffffff16815260200187815260200186815250908060018154018082558091505060019003906000526020600020906003020160009091909190915060008201518160000160006101000a81548173ffffffffffffffffffffffffffffffffffffffff021916908373ffffffffffffffffffffffffffffffffffffffff1602179055506020820151816001015560408201518160020155505063f23a6e6160e01b9050611a80565b5b5b9695505050505050565b60007f01ffc9a7000000000000000000000000000000000000000000000000000000007bffffffffffffffffffffffffffffffffffffffffffffffffffffffff1916827bffffffffffffffffffffffffffffffffffffffffffffffffffffffff1916149050919050565b600033905090565b611b068282611247565b611b9557611b2b8173ffffffffffffffffffffffffffffffffffffffff166014611d5a565b611b398360001c6020611d5a565b604051602001611b4a9291906127f1565b6040516020818303038152906040526040517f08c379a0000000000000000000000000000000000000000000000000000000008152600401611b8c91906129b1565b60405180910390fd5b5050565b611ba38282611247565b611c7557600160008084815260200190815260200160002060000160008373ffffffffffffffffffffffffffffffffffffffff1673ffffffffffffffffffffffffffffffffffffffff16815260200190815260200160002060006101000a81548160ff021916908315150217905550611c1a611af4565b73ffffffffffffffffffffffffffffffffffffffff168173ffffffffffffffffffffffffffffffffffffffff16837f2f8788117e7eff1d82e926ec794901d17c78024a50270940304540a733656f0d60405160405180910390a45b5050565b611c838282611247565b15611d5657600080600084815260200190815260200160002060000160008373ffffffffffffffffffffffffffffffffffffffff1673ffffffffffffffffffffffffffffffffffffffff16815260200190815260200160002060006101000a81548160ff021916908315150217905550611cfb611af4565b73ffffffffffffffffffffffffffffffffffffffff168173ffffffffffffffffffffffffffffffffffffffff16837ff6391f5c32d9c69d2a47ea670b442974b53935d1edc7fd64eb21e047a839171b60405160405180910390a45b5050565b606060006002836002611d6d9190612b92565b611d779190612b3c565b67ffffffffffffffff811115611db6577f4e487b7100000000000000000000000000000000000000000000000000000000600052604160045260246000fd5b6040519080825280601f01601f191660200182016040528015611de85781602001600182028036833780820191505090505b5090507f300000000000000000000000000000000000000000000000000000000000000081600081518110611e46577f4e487b7100000000000000000000000000000000000000000000000000000000600052603260045260246000fd5b60200101907effffffffffffffffffffffffffffffffffffffffffffffffffffffffffffff1916908160001a9053507f780000000000000000000000000000000000000000000000000000000000000081600181518110611ed0577f4e487b7100000000000000000000000000000000000000000000000000000000600052603260045260246000fd5b60200101907effffffffffffffffffffffffffffffffffffffffffffffffffffffffffffff1916908160001a90535060006001846002611f109190612b92565b611f1a9190612b3c565b90505b6001811115612006577f3031323334353637383961626364656600000000000000000000000000000000600f861660108110611f82577f4e487b7100000000000000000000000000000000000000000000000000000000600052603260045260246000fd5b1a60f81b828281518110611fbf577f4e487b7100000000000000000000000000000000000000000000000000000000600052603260045260246000fd5b60200101907effffffffffffffffffffffffffffffffffffffffffffffffffffffffffffff1916908160001a905350600485901c945080611fff90612d28565b9050611f1d565b506000841461204a576040517f08c379a0000000000000000000000000000000000000000000000000000000008152600401612041906129d3565b60405180910390fd5b8091505092915050565b600061206761206284612ad3565b612aae565b90508281526020810184848401111561207f57600080fd5b61208a848285612ce6565b509392505050565b6000813590506120a1816130a0565b92915050565b60008083601f8401126120b957600080fd5b8235905067ffffffffffffffff8111156120d257600080fd5b6020830191508360208202830111156120ea57600080fd5b9250929050565b600081359050612100816130b7565b92915050565b600081519050612115816130b7565b92915050565b60008135905061212a816130ce565b92915050565b60008135905061213f816130e5565b92915050565b60008083601f84011261215757600080fd5b8235905067ffffffffffffffff81111561217057600080fd5b60208301915083600182028301111561218857600080fd5b9250929050565b600082601f8301126121a057600080fd5b81356121b0848260208601612054565b91505092915050565b6000813590506121c8816130fc565b92915050565b6000815190506121dd816130fc565b92915050565b6000602082840312156121f557600080fd5b600061220384828501612092565b91505092915050565b60008060008060008060008060a0898b03121561222857600080fd5b60006122368b828c01612092565b98505060206122478b828c01612092565b975050604089013567ffffffffffffffff81111561226457600080fd5b6122708b828c016120a7565b9650965050606089013567ffffffffffffffff81111561228f57600080fd5b61229b8b828c016120a7565b9450945050608089013567ffffffffffffffff8111156122ba57600080fd5b6122c68b828c01612145565b92509250509295985092959890939650565b600080600080608085870312156122ee57600080fd5b60006122fc87828801612092565b945050602061230d87828801612092565b935050604061231e878288016121b9565b925050606085013567ffffffffffffffff81111561233b57600080fd5b6123478782880161218f565b91505092959194509250565b60008060008060008060a0878903121561236c57600080fd5b600061237a89828a01612092565b965050602061238b89828a01612092565b955050604061239c89828a016121b9565b94505060606123ad89828a016121b9565b935050608087013567ffffffffffffffff8111156123ca57600080fd5b6123d689828a01612145565b92509250509295509295509295565b600080604083850312156123f857600080fd5b600061240685828601612092565b9250506020612417858286016120f1565b9150509250929050565b6000806040838503121561243457600080fd5b600061244285828601612092565b9250506020612453858286016121b9565b9150509250929050565b60008060006060848603121561247257600080fd5b600061248086828701612092565b9350506020612491868287016121b9565b92505060406124a2868287016121b9565b9150509250925092565b6000602082840312156124be57600080fd5b60006124cc84828501612106565b91505092915050565b6000602082840312156124e757600080fd5b60006124f58482850161211b565b91505092915050565b6000806040838503121561251157600080fd5b600061251f8582860161211b565b925050602061253085828601612092565b9150509250929050565b60006020828403121561254c57600080fd5b600061255a84828501612130565b91505092915050565b60006020828403121561257557600080fd5b6000612583848285016121b9565b91505092915050565b60006020828403121561259e57600080fd5b60006125ac848285016121ce565b91505092915050565b6125be81612c20565b82525050565b6125d56125d082612c20565b612dcc565b82525050565b6125e481612c32565b82525050565b6125f381612c3e565b82525050565b61260281612c48565b82525050565b61261181612cb2565b82525050565b61262081612ccc565b82525050565b600061263182612b04565b61263b8185612b20565b935061264b818560208601612cf5565b61265481612eb8565b840191505092915050565b600061266a82612b04565b6126748185612b31565b9350612684818560208601612cf5565b80840191505092915050565b600061269d602083612b20565b91506126a882612ee3565b602082019050919050565b60006126c0601983612b20565b91506126cb82612f0c565b602082019050919050565b60006126e3601583612b20565b91506126ee82612f35565b602082019050919050565b6000612706600383612b0f565b915061271182612f5e565b602082019050919050565b6000612729601983612b20565b915061273482612f87565b602082019050919050565b600061274c602183612b20565b915061275782612fb0565b604082019050919050565b600061276f601783612b31565b915061277a82612fff565b601782019050919050565b6000612792601183612b31565b915061279d82613028565b601182019050919050565b60006127b5602f83612b20565b91506127c082613051565b604082019050919050565b6127d481612ca8565b82525050565b6127eb6127e682612ca8565b612df0565b82525050565b60006127fc82612762565b9150612808828561265f565b915061281382612785565b915061281f828461265f565b91508190509392505050565b600061283782856127da565b60208201915061284782846125c4565b6014820191508190509392505050565b600060208201905061286c60008301846125b5565b92915050565b600060608201905061288760008301866125b5565b61289460208301856125b5565b6128a160408301846127cb565b949350505050565b600060a0820190506128be60008301876125b5565b6128cb60208301866125b5565b6128d860408301856127cb565b6128e560608301846127cb565b81810360808301526128f6816126f9565b905095945050505050565b600060408201905061291660008301856125b5565b61292360208301846127cb565b9392505050565b600060208201905061293f60008301846125db565b92915050565b600060208201905061295a60008301846125ea565b92915050565b600060208201905061297560008301846125f9565b92915050565b60006020820190506129906000830184612608565b92915050565b60006020820190506129ab6000830184612617565b92915050565b600060208201905081810360008301526129cb8184612626565b905092915050565b600060208201905081810360008301526129ec81612690565b9050919050565b60006020820190508181036000830152612a0c816126b3565b9050919050565b60006020820190508181036000830152612a2c816126d6565b9050919050565b60006020820190508181036000830152612a4c8161271c565b9050919050565b60006020820190508181036000830152612a6c8161273f565b9050919050565b60006020820190508181036000830152612a8c816127a8565b9050919050565b6000602082019050612aa860008301846127cb565b92915050565b6000612ab8612ac9565b9050612ac48282612d52565b919050565b6000604051905090565b600067ffffffffffffffff821115612aee57612aed612e89565b5b612af782612eb8565b9050602081019050919050565b600081519050919050565b600082825260208201905092915050565b600082825260208201905092915050565b600081905092915050565b6000612b4782612ca8565b9150612b5283612ca8565b9250827fffffffffffffffffffffffffffffffffffffffffffffffffffffffffffffffff03821115612b8757612b86612e2b565b5b828201905092915050565b6000612b9d82612ca8565b9150612ba883612ca8565b9250817fffffffffffffffffffffffffffffffffffffffffffffffffffffffffffffffff0483118215151615612be157612be0612e2b565b5b828202905092915050565b6000612bf782612ca8565b9150612c0283612ca8565b925082821015612c1557612c14612e2b565b5b828203905092915050565b6000612c2b82612c88565b9050919050565b60008115159050919050565b6000819050919050565b60007fffffffff0000000000000000000000000000000000000000000000000000000082169050919050565b6000819050919050565b6000819050919050565b600073ffffffffffffffffffffffffffffffffffffffff82169050919050565b6000819050919050565b6000612cc5612cc083612c74565b612ec9565b9050919050565b6000612cdf612cda83612c7e565b612ec9565b9050919050565b82818337600083830152505050565b60005b83811015612d13578082015181840152602081019050612cf8565b83811115612d22576000848401525b50505050565b6000612d3382612ca8565b91506000821415612d4757612d46612e2b565b5b600182039050919050565b612d5b82612eb8565b810181811067ffffffffffffffff82111715612d7a57612d79612e89565b5b80604052505050565b6000612d8e82612ca8565b91507fffffffffffffffffffffffffffffffffffffffffffffffffffffffffffffffff821415612dc157612dc0612e2b565b5b600182019050919050565b6000612dd782612dde565b9050919050565b6000612de982612ed6565b9050919050565b6000819050919050565b6000612e0582612ca8565b9150612e1083612ca8565b925082612e2057612e1f612e5a565b5b828206905092915050565b7f4e487b7100000000000000000000000000000000000000000000000000000000600052601160045260246000fd5b7f4e487b7100000000000000000000000000000000000000000000000000000000600052601260045260246000fd5b7f4e487b7100000000000000000000000000000000000000000000000000000000600052604160045260246000fd5b6000601f19601f8301169050919050565b60008160e01b9050919050565b60008160601b9050919050565b7f537472696e67733a20686578206c656e67746820696e73756666696369656e74600082015250565b7f616d6f756e74206d7573742062652061746c6561737420313000000000000000600082015250565b7f596f7520617265206e6f7420746865206f776e65720000000000000000000000600082015250565b7f3078300000000000000000000000000000000000000000000000000000000000600082015250565b7f73656e6465722063616e6e6f7420686176652030206b65797300000000000000600082015250565b7f746865726520617265206e6f204e46547320696e2074686520636f6e7472616360008201527f7400000000000000000000000000000000000000000000000000000000000000602082015250565b7f416363657373436f6e74726f6c3a206163636f756e7420000000000000000000600082015250565b7f206973206d697373696e6720726f6c6520000000000000000000000000000000600082015250565b7f416363657373436f6e74726f6c3a2063616e206f6e6c792072656e6f756e636560008201527f20726f6c657320666f722073656c660000000000000000000000000000000000602082015250565b6130a981612c20565b81146130b457600080fd5b50565b6130c081612c32565b81146130cb57600080fd5b50565b6130d781612c3e565b81146130e257600080fd5b50565b6130ee81612c48565b81146130f957600080fd5b50565b61310581612ca8565b811461311057600080fd5b5056fea2646970667358221220204b4de115da956d81df2cc1042155d10fb98cac1a2925a454f4effd15b3c05e64736f6c6343000801003360806040523480156200001157600080fd5b50604051620019e6380380620019e6833981810160405281019062000037919062000344565b82828160039080519060200190620000519291906200020b565b5080600490805190602001906200006a9291906200020b565b5050506200007f33826200008860201b60201c565b5050506200069d565b600073ffffffffffffffffffffffffffffffffffffffff168273ffffffffffffffffffffffffffffffffffffffff161415620000fb576040517f08c379a0000000000000000000000000000000000000000000000000000000008152600401620000f29062000404565b60405180910390fd5b6200010f600083836200020160201b60201c565b8060026000828254620001239190620004b3565b92505081905550806000808473ffffffffffffffffffffffffffffffffffffffff1673ffffffffffffffffffffffffffffffffffffffff16815260200190815260200160002060008282546200017a9190620004b3565b925050819055508173ffffffffffffffffffffffffffffffffffffffff16600073ffffffffffffffffffffffffffffffffffffffff167fddf252ad1be2c89b69c2b068fc378daa952ba7f163c4a11628f55a4df523b3ef83604051620001e1919062000426565b60405180910390a3620001fd600083836200020660201b60201c565b5050565b505050565b505050565b828054620002199062000550565b90600052602060002090601f0160209004810192826200023d576000855562000289565b82601f106200025857805160ff191683800117855562000289565b8280016001018555821562000289579182015b82811115620002885782518255916020019190600101906200026b565b5b5090506200029891906200029c565b5090565b5b80821115620002b75760008160009055506001016200029d565b5090565b6000620002d2620002cc846200046c565b62000443565b905082815260208101848484011115620002eb57600080fd5b620002f88482856200051a565b509392505050565b600082601f8301126200031257600080fd5b815162000324848260208601620002bb565b91505092915050565b6000815190506200033e8162000683565b92915050565b6000806000606084860312156200035a57600080fd5b600084015167ffffffffffffffff8111156200037557600080fd5b620003838682870162000300565b935050602084015167ffffffffffffffff811115620003a157600080fd5b620003af8682870162000300565b9250506040620003c2868287016200032d565b9150509250925092565b6000620003db601f83620004a2565b9150620003e8826200065a565b602082019050919050565b620003fe8162000510565b82525050565b600060208201905081810360008301526200041f81620003cc565b9050919050565b60006020820190506200043d6000830184620003f3565b92915050565b60006200044f62000462565b90506200045d828262000586565b919050565b6000604051905090565b600067ffffffffffffffff8211156200048a57620004896200061a565b5b620004958262000649565b9050602081019050919050565b600082825260208201905092915050565b6000620004c08262000510565b9150620004cd8362000510565b9250827fffffffffffffffffffffffffffffffffffffffffffffffffffffffffffffffff03821115620005055762000504620005bc565b5b828201905092915050565b6000819050919050565b60005b838110156200053a5780820151818401526020810190506200051d565b838111156200054a576000848401525b50505050565b600060028204905060018216806200056957607f821691505b6020821081141562000580576200057f620005eb565b5b50919050565b620005918262000649565b810181811067ffffffffffffffff82111715620005b357620005b26200061a565b5b80604052505050565b7f4e487b7100000000000000000000000000000000000000000000000000000000600052601160045260246000fd5b7f4e487b7100000000000000000000000000000000000000000000000000000000600052602260045260246000fd5b7f4e487b7100000000000000000000000000000000000000000000000000000000600052604160045260246000fd5b6000601f19601f8301169050919050565b7f45524332303a206d696e7420746f20746865207a65726f206164647265737300600082015250565b6200068e8162000510565b81146200069a57600080fd5b50565b61133980620006ad6000396000f3fe608060405234801561001057600080fd5b50600436106100a95760003560e01c80633950935111610071578063395093511461016857806370a082311461019857806395d89b41146101c8578063a457c2d7146101e6578063a9059cbb14610216578063dd62ed3e14610246576100a9565b806306fdde03146100ae578063095ea7b3146100cc57806318160ddd146100fc57806323b872dd1461011a578063313ce5671461014a575b600080fd5b6100b6610276565b6040516100c39190610dff565b60405180910390f35b6100e660048036038101906100e19190610c4d565b610308565b6040516100f39190610de4565b60405180910390f35b61010461032b565b6040516101119190610f01565b60405180910390f35b610134600480360381019061012f9190610bfe565b610335565b6040516101419190610de4565b60405180910390f35b610152610364565b60405161015f9190610f1c565b60405180910390f35b610182600480360381019061017d9190610c4d565b61036d565b60405161018f9190610de4565b60405180910390f35b6101b260048036038101906101ad9190610b99565b610417565b6040516101bf9190610f01565b60405180910390f35b6101d061045f565b6040516101dd9190610dff565b60405180910390f35b61020060048036038101906101fb9190610c4d565b6104f1565b60405161020d9190610de4565b60405180910390f35b610230600480360381019061022b9190610c4d565b6105db565b60405161023d9190610de4565b60405180910390f35b610260600480360381019061025b9190610bc2565b6105fe565b60405161026d9190610f01565b60405180910390f35b60606003805461028590611031565b80601f01602080910402602001604051908101604052809291908181526020018280546102b190611031565b80156102fe5780601f106102d3576101008083540402835291602001916102fe565b820191906000526020600020905b8154815290600101906020018083116102e157829003601f168201915b5050505050905090565b600080610313610685565b905061032081858561068d565b600191505092915050565b6000600254905090565b600080610340610685565b905061034d858285610858565b6103588585856108e4565b60019150509392505050565b60006012905090565b600080610378610685565b905061040c818585600160008673ffffffffffffffffffffffffffffffffffffffff1673ffffffffffffffffffffffffffffffffffffffff16815260200190815260200160002060008973ffffffffffffffffffffffffffffffffffffffff1673ffffffffffffffffffffffffffffffffffffffff168152602001908152602001600020546104079190610f53565b61068d565b600191505092915050565b60008060008373ffffffffffffffffffffffffffffffffffffffff1673ffffffffffffffffffffffffffffffffffffffff168152602001908152602001600020549050919050565b60606004805461046e90611031565b80601f016020809104026020016040519081016040528092919081815260200182805461049a90611031565b80156104e75780601f106104bc576101008083540402835291602001916104e7565b820191906000526020600020905b8154815290600101906020018083116104ca57829003601f168201915b5050505050905090565b6000806104fc610685565b90506000600160008373ffffffffffffffffffffffffffffffffffffffff1673ffffffffffffffffffffffffffffffffffffffff16815260200190815260200160002060008673ffffffffffffffffffffffffffffffffffffffff1673ffffffffffffffffffffffffffffffffffffffff168152602001908152602001600020549050838110156105c2576040517f08c379a00000000000000000000000000000000000000000000000000000000081526004016105b990610ee1565b60405180910390fd5b6105cf828686840361068d565b60019250505092915050565b6000806105e6610685565b90506105f38185856108e4565b600191505092915050565b6000600160008473ffffffffffffffffffffffffffffffffffffffff1673ffffffffffffffffffffffffffffffffffffffff16815260200190815260200160002060008373ffffffffffffffffffffffffffffffffffffffff1673ffffffffffffffffffffffffffffffffffffffff16815260200190815260200160002054905092915050565b600033905090565b600073ffffffffffffffffffffffffffffffffffffffff168373ffffffffffffffffffffffffffffffffffffffff1614156106fd576040517f08c379a00000000000000000000000000000000000000000000000000000000081526004016106f490610ec1565b60405180910390fd5b600073ffffffffffffffffffffffffffffffffffffffff168273ffffffffffffffffffffffffffffffffffffffff16141561076d576040517f08c379a000000000000000000000000000000000000000000000000000000000815260040161076490610e41565b60405180910390fd5b80600160008573ffffffffffffffffffffffffffffffffffffffff1673ffffffffffffffffffffffffffffffffffffffff16815260200190815260200160002060008473ffffffffffffffffffffffffffffffffffffffff1673ffffffffffffffffffffffffffffffffffffffff168152602001908152602001600020819055508173ffffffffffffffffffffffffffffffffffffffff168373ffffffffffffffffffffffffffffffffffffffff167f8c5be1e5ebec7d5bd14f71427d1e84f3dd0314c0f7b2291e5b200ac8c7c3b9258360405161084b9190610f01565b60405180910390a3505050565b600061086484846105fe565b90507fffffffffffffffffffffffffffffffffffffffffffffffffffffffffffffffff81146108de57818110156108d0576040517f08c379a00000000000000000000000000000000000000000000000000000000081526004016108c790610e61565b60405180910390fd5b6108dd848484840361068d565b5b50505050565b600073ffffffffffffffffffffffffffffffffffffffff168373ffffffffffffffffffffffffffffffffffffffff161415610954576040517f08c379a000000000000000000000000000000000000000000000000000000000815260040161094b90610ea1565b60405180910390fd5b600073ffffffffffffffffffffffffffffffffffffffff168273ffffffffffffffffffffffffffffffffffffffff1614156109c4576040517f08c379a00000000000000000000000000000000000000000000000000000000081526004016109bb90610e21565b60405180910390fd5b6109cf838383610b65565b60008060008573ffffffffffffffffffffffffffffffffffffffff1673ffffffffffffffffffffffffffffffffffffffff16815260200190815260200160002054905081811015610a55576040517f08c379a0000000000000000000000000000000000000000000000000000000008152600401610a4c90610e81565b60405180910390fd5b8181036000808673ffffffffffffffffffffffffffffffffffffffff1673ffffffffffffffffffffffffffffffffffffffff16815260200190815260200160002081905550816000808573ffffffffffffffffffffffffffffffffffffffff1673ffffffffffffffffffffffffffffffffffffffff1681526020019081526020016000206000828254610ae89190610f53565b925050819055508273ffffffffffffffffffffffffffffffffffffffff168473ffffffffffffffffffffffffffffffffffffffff167fddf252ad1be2c89b69c2b068fc378daa952ba7f163c4a11628f55a4df523b3ef84604051610b4c9190610f01565b60405180910390a3610b5f848484610b6a565b50505050565b505050565b505050565b600081359050610b7e816112d5565b92915050565b600081359050610b93816112ec565b92915050565b600060208284031215610bab57600080fd5b6000610bb984828501610b6f565b91505092915050565b60008060408385031215610bd557600080fd5b6000610be385828601610b6f565b9250506020610bf485828601610b6f565b9150509250929050565b600080600060608486031215610c1357600080fd5b6000610c2186828701610b6f565b9350506020610c3286828701610b6f565b9250506040610c4386828701610b84565b9150509250925092565b60008060408385031215610c6057600080fd5b6000610c6e85828601610b6f565b9250506020610c7f85828601610b84565b9150509250929050565b610c9281610fbb565b82525050565b6000610ca382610f37565b610cad8185610f42565b9350610cbd818560208601610ffe565b610cc6816110c1565b840191505092915050565b6000610cde602383610f42565b9150610ce9826110d2565b604082019050919050565b6000610d01602283610f42565b9150610d0c82611121565b604082019050919050565b6000610d24601d83610f42565b9150610d2f82611170565b602082019050919050565b6000610d47602683610f42565b9150610d5282611199565b604082019050919050565b6000610d6a602583610f42565b9150610d75826111e8565b604082019050919050565b6000610d8d602483610f42565b9150610d9882611237565b604082019050919050565b6000610db0602583610f42565b9150610dbb82611286565b604082019050919050565b610dcf81610fe7565b82525050565b610dde81610ff1565b82525050565b6000602082019050610df96000830184610c89565b92915050565b60006020820190508181036000830152610e198184610c98565b905092915050565b60006020820190508181036000830152610e3a81610cd1565b9050919050565b60006020820190508181036000830152610e5a81610cf4565b9050919050565b60006020820190508181036000830152610e7a81610d17565b9050919050565b60006020820190508181036000830152610e9a81610d3a565b9050919050565b60006020820190508181036000830152610eba81610d5d565b9050919050565b60006020820190508181036000830152610eda81610d80565b9050919050565b60006020820190508181036000830152610efa81610da3565b9050919050565b6000602082019050610f166000830184610dc6565b92915050565b6000602082019050610f316000830184610dd5565b92915050565b600081519050919050565b600082825260208201905092915050565b6000610f5e82610fe7565b9150610f6983610fe7565b9250827fffffffffffffffffffffffffffffffffffffffffffffffffffffffffffffffff03821115610f9e57610f9d611063565b5b828201905092915050565b6000610fb482610fc7565b9050919050565b60008115159050919050565b600073ffffffffffffffffffffffffffffffffffffffff82169050919050565b6000819050919050565b600060ff82169050919050565b60005b8381101561101c578082015181840152602081019050611001565b8381111561102b576000848401525b50505050565b6000600282049050600182168061104957607f821691505b6020821081141561105d5761105c611092565b5b50919050565b7f4e487b7100000000000000000000000000000000000000000000000000000000600052601160045260246000fd5b7f4e487b7100000000000000000000000000000000000000000000000000000000600052602260045260246000fd5b6000601f19601f8301169050919050565b7f45524332303a207472616e7366657220746f20746865207a65726f206164647260008201527f6573730000000000000000000000000000000000000000000000000000000000602082015250565b7f45524332303a20617070726f766520746f20746865207a65726f20616464726560008201527f7373000000000000000000000000000000000000000000000000000000000000602082015250565b7f45524332303a20696e73756666696369656e7420616c6c6f77616e6365000000600082015250565b7f45524332303a207472616e7366657220616d6f756e742065786365656473206260008201527f616c616e63650000000000000000000000000000000000000000000000000000602082015250565b7f45524332303a207472616e736665722066726f6d20746865207a65726f20616460008201527f6472657373000000000000000000000000000000000000000000000000000000602082015250565b7f45524332303a20617070726f76652066726f6d20746865207a65726f2061646460008201527f7265737300000000000000000000000000000000000000000000000000000000602082015250565b7f45524332303a2064656372656173656420616c6c6f77616e63652062656c6f7760008201527f207a65726f000000000000000000000000000000000000000000000000000000602082015250565b6112de81610fa9565b81146112e957600080fd5b50565b6112f581610fe7565b811461130057600080fd5b5056fea26469706673582212205e3f8a47b3071b2e962eac6173d7f79bedcbd9299be79bd9cfa9191e17427a4d64736f6c63430008010033",
  "linkReferences": {},
  "deployedLinkReferences": {}
}