{
  "_format": "hh-sol-artifact-1",
  "contractName": "MyNFT",
  "sourceName": "contracts/MyNFT.sol",
  "abi": [
    {
      "inputs": [],
      "stateMutability": "nonpayable",
      "type": "constructor"
    },
    {
      "anonymous": false,
      "inputs": [
        {
          "indexed": true,
          "internalType": "address",
          "name": "owner",
          "type": "address"
        },
        {
          "indexed": true,
          "internalType": "address",
          "name": "approved",
          "type": "address"
        },
        {
          "indexed": true,
          "internalType": "uint256",
          "name": "tokenId",
          "type": "uint256"
        }
      ],
      "name": "Approval",
      "type": "event"
    },
    {
      "anonymous": false,
      "inputs": [
        {
          "indexed": true,
          "internalType": "address",
          "name": "owner",
          "type": "address"
        },
        {
          "indexed": true,
          "internalType": "address",
          "name": "operator",
          "type": "address"
        },
        {
          "indexed": false,
          "internalType": "bool",
          "name": "approved",
          "type": "bool"
        }
      ],
      "name": "ApprovalForAll",
      "type": "event"
    },
    {
      "anonymous": false,
      "inputs": [
        {
          "indexed": true,
          "internalType": "address",
          "name": "previousOwner",
          "type": "address"
        },
        {
          "indexed": true,
          "internalType": "address",
          "name": "newOwner",
          "type": "address"
        }
      ],
      "name": "OwnershipTransferred",
      "type": "event"
    },
    {
      "anonymous": false,
      "inputs": [
        {
          "indexed": true,
          "internalType": "address",
          "name": "from",
          "type": "address"
        },
        {
          "indexed": true,
          "internalType": "address",
          "name": "to",
          "type": "address"
        },
        {
          "indexed": true,
          "internalType": "uint256",
          "name": "tokenId",
          "type": "uint256"
        }
      ],
      "name": "Transfer",
      "type": "event"
    },
    {
      "inputs": [
        {
          "internalType": "address",
          "name": "to",
          "type": "address"
        },
        {
          "internalType": "uint256",
          "name": "tokenId",
          "type": "uint256"
        }
      ],
      "name": "approve",
      "outputs": [],
      "stateMutability": "nonpayable",
      "type": "function"
    },
    {
      "inputs": [
        {
          "internalType": "address",
          "name": "recipient",
          "type": "address"
        }
      ],
      "name": "balanceAddr",
      "outputs": [
        {
          "internalType": "uint256",
          "name": "balance",
          "type": "uint256"
        }
      ],
      "stateMutability": "view",
      "type": "function"
    },
    {
      "inputs": [
        {
          "internalType": "address",
          "name": "owner",
          "type": "address"
        }
      ],
      "name": "balanceOf",
      "outputs": [
        {
          "internalType": "uint256",
          "name": "",
          "type": "uint256"
        }
      ],
      "stateMutability": "view",
      "type": "function"
    },
    {
      "inputs": [
        {
          "internalType": "address",
          "name": "",
          "type": "address"
        }
      ],
      "name": "balances",
      "outputs": [
        {
          "internalType": "uint256",
          "name": "",
          "type": "uint256"
        }
      ],
      "stateMutability": "view",
      "type": "function"
    },
    {
      "inputs": [
        {
          "internalType": "uint256",
          "name": "tokenId",
          "type": "uint256"
        }
      ],
      "name": "getApproved",
      "outputs": [
        {
          "internalType": "address",
          "name": "",
          "type": "address"
        }
      ],
      "stateMutability": "view",
      "type": "function"
    },
    {
      "inputs": [],
      "name": "initialize",
      "outputs": [],
      "stateMutability": "nonpayable",
      "type": "function"
    },
    {
      "inputs": [
        {
          "internalType": "address",
          "name": "owner",
          "type": "address"
        },
        {
          "internalType": "address",
          "name": "operator",
          "type": "address"
        }
      ],
      "name": "isApprovedForAll",
      "outputs": [
        {
          "internalType": "bool",
          "name": "",
          "type": "bool"
        }
      ],
      "stateMutability": "view",
      "type": "function"
    },
    {
      "inputs": [
        {
          "internalType": "address",
          "name": "recipient",
          "type": "address"
        },
        {
          "internalType": "string",
          "name": "tokenURI",
          "type": "string"
        }
      ],
      "name": "mintNFT",
      "outputs": [
        {
          "internalType": "uint256",
          "name": "",
          "type": "uint256"
        }
      ],
      "stateMutability": "nonpayable",
      "type": "function"
    },
    {
      "inputs": [],
      "name": "name",
      "outputs": [
        {
          "internalType": "string",
          "name": "",
          "type": "string"
        }
      ],
      "stateMutability": "view",
      "type": "function"
    },
    {
      "inputs": [],
      "name": "numberOfTokensLeft",
      "outputs": [
        {
          "internalType": "uint256",
          "name": "",
          "type": "uint256"
        }
      ],
      "stateMutability": "view",
      "type": "function"
    },
    {
      "inputs": [],
      "name": "owner",
      "outputs": [
        {
          "internalType": "address",
          "name": "",
          "type": "address"
        }
      ],
      "stateMutability": "view",
      "type": "function"
    },
    {
      "inputs": [
        {
          "internalType": "uint256",
          "name": "tokenId",
          "type": "uint256"
        }
      ],
      "name": "ownerOf",
      "outputs": [
        {
          "internalType": "address",
          "name": "",
          "type": "address"
        }
      ],
      "stateMutability": "view",
      "type": "function"
    },
    {
      "inputs": [],
      "name": "renounceOwnership",
      "outputs": [],
      "stateMutability": "nonpayable",
      "type": "function"
    },
    {
      "inputs": [
        {
          "internalType": "address",
          "name": "from",
          "type": "address"
        },
        {
          "internalType": "address",
          "name": "to",
          "type": "address"
        },
        {
          "internalType": "uint256",
          "name": "tokenId",
          "type": "uint256"
        }
      ],
      "name": "safeTransferFrom",
      "outputs": [],
      "stateMutability": "nonpayable",
      "type": "function"
    },
    {
      "inputs": [
        {
          "internalType": "address",
          "name": "from",
          "type": "address"
        },
        {
          "internalType": "address",
          "name": "to",
          "type": "address"
        },
        {
          "internalType": "uint256",
          "name": "tokenId",
          "type": "uint256"
        },
        {
          "internalType": "bytes",
          "name": "_data",
          "type": "bytes"
        }
      ],
      "name": "safeTransferFrom",
      "outputs": [],
      "stateMutability": "nonpayable",
      "type": "function"
    },
    {
      "inputs": [
        {
          "internalType": "address",
          "name": "operator",
          "type": "address"
        },
        {
          "internalType": "bool",
          "name": "approved",
          "type": "bool"
        }
      ],
      "name": "setApprovalForAll",
      "outputs": [],
      "stateMutability": "nonpayable",
      "type": "function"
    },
    {
      "inputs": [
        {
          "internalType": "bytes4",
          "name": "interfaceId",
          "type": "bytes4"
        }
      ],
      "name": "supportsInterface",
      "outputs": [
        {
          "internalType": "bool",
          "name": "",
          "type": "bool"
        }
      ],
      "stateMutability": "view",
      "type": "function"
    },
    {
      "inputs": [],
      "name": "symbol",
      "outputs": [
        {
          "internalType": "string",
          "name": "",
          "type": "string"
        }
      ],
      "stateMutability": "view",
      "type": "function"
    },
    {
      "inputs": [
        {
          "internalType": "uint256",
          "name": "tokenId",
          "type": "uint256"
        }
      ],
      "name": "tokenURI",
      "outputs": [
        {
          "internalType": "string",
          "name": "",
          "type": "string"
        }
      ],
      "stateMutability": "view",
      "type": "function"
    },
    {
      "inputs": [
        {
          "internalType": "address",
          "name": "from",
          "type": "address"
        },
        {
          "internalType": "address",
          "name": "to",
          "type": "address"
        },
        {
          "internalType": "uint256",
          "name": "tokenId",
          "type": "uint256"
        }
      ],
      "name": "transferFrom",
      "outputs": [],
      "stateMutability": "nonpayable",
      "type": "function"
    },
    {
      "inputs": [
        {
          "internalType": "address",
          "name": "newOwner",
          "type": "address"
        }
      ],
      "name": "transferOwnership",
      "outputs": [],
      "stateMutability": "nonpayable",
      "type": "function"
    }
  ],
  "bytecode": "0x60806040523480156200001157600080fd5b506040518060400160405280600581526020017f4d794e46540000000000000000000000000000000000000000000000000000008152506040518060400160405280600381526020017f4e4654000000000000000000000000000000000000000000000000000000000081525081600090805190602001906200009692919062000211565b508060019080519060200190620000af92919062000211565b505050620000d2620000c6620000e860201b60201c565b620000f060201b60201c565b620000e2620001b660201b60201c565b62000326565b600033905090565b6000600760009054906101000a900473ffffffffffffffffffffffffffffffffffffffff16905081600760006101000a81548173ffffffffffffffffffffffffffffffffffffffff021916908373ffffffffffffffffffffffffffffffffffffffff1602179055508173ffffffffffffffffffffffffffffffffffffffff168173ffffffffffffffffffffffffffffffffffffffff167f8be0079c531659141344cd1fd0a4f28419497f9722a3daafe3b4186f6b6457e060405160405180910390a35050565b600260096000735a8064f8249d079f02bfb688f4aa86b6b2c6535973ffffffffffffffffffffffffffffffffffffffff1673ffffffffffffffffffffffffffffffffffffffff16815260200190815260200160002081905550565b8280546200021f90620002c1565b90600052602060002090601f0160209004810192826200024357600085556200028f565b82601f106200025e57805160ff19168380011785556200028f565b828001600101855582156200028f579182015b828111156200028e57825182559160200191906001019062000271565b5b5090506200029e9190620002a2565b5090565b5b80821115620002bd576000816000905550600101620002a3565b5090565b60006002820490506001821680620002da57607f821691505b60208210811415620002f157620002f0620002f7565b5b50919050565b7f4e487b7100000000000000000000000000000000000000000000000000000000600052602260045260246000fd5b6132fe80620003366000396000f3fe608060405234801561001057600080fd5b50600436106101375760003560e01c8063715018a6116100b8578063a22cb4651161007c578063a22cb4651461033c578063b88d4fde14610358578063c87b56dd14610374578063e985e9c5146103a4578063eacabe14146103d4578063f2fde38b1461040457610137565b8063715018a6146102bc57806373245eef146102c65780638129fc1c146102f65780638da5cb5b1461030057806395d89b411461031e57610137565b806327e235e3116100ff57806327e235e3146101f257806327ea06b81461022257806342842e0e146102405780636352211e1461025c57806370a082311461028c57610137565b806301ffc9a71461013c57806306fdde031461016c578063081812fc1461018a578063095ea7b3146101ba57806323b872dd146101d6575b600080fd5b61015660048036038101906101519190612217565b610420565b6040516101639190612686565b60405180910390f35b610174610502565b60405161018191906126a1565b60405180910390f35b6101a4600480360381019061019f9190612269565b610594565b6040516101b1919061261f565b60405180910390f35b6101d460048036038101906101cf91906121db565b610619565b005b6101f060048036038101906101eb9190612081565b610731565b005b61020c6004803603810190610207919061201c565b610791565b6040516102199190612923565b60405180910390f35b61022a6107a9565b6040516102379190612923565b60405180910390f35b61025a60048036038101906102559190612081565b6107c6565b005b61027660048036038101906102719190612269565b6107e6565b604051610283919061261f565b60405180910390f35b6102a660048036038101906102a1919061201c565b610898565b6040516102b39190612923565b60405180910390f35b6102c4610950565b005b6102e060048036038101906102db919061201c565b6109d8565b6040516102ed9190612923565b60405180910390f35b6102fe610a21565b005b610308610a7c565b604051610315919061261f565b60405180910390f35b610326610aa6565b60405161033391906126a1565b60405180910390f35b6103566004803603810190610351919061214b565b610b38565b005b610372600480360381019061036d91906120d0565b610b4e565b005b61038e60048036038101906103899190612269565b610bb0565b60405161039b91906126a1565b60405180910390f35b6103be60048036038101906103b99190612045565b610d02565b6040516103cb9190612686565b60405180910390f35b6103ee60048036038101906103e99190612187565b610d96565b6040516103fb9190612923565b60405180910390f35b61041e6004803603810190610419919061201c565b610f3c565b005b60007f80ac58cd000000000000000000000000000000000000000000000000000000007bffffffffffffffffffffffffffffffffffffffffffffffffffffffff1916827bffffffffffffffffffffffffffffffffffffffffffffffffffffffff191614806104eb57507f5b5e139f000000000000000000000000000000000000000000000000000000007bffffffffffffffffffffffffffffffffffffffffffffffffffffffff1916827bffffffffffffffffffffffffffffffffffffffffffffffffffffffff1916145b806104fb57506104fa82611034565b5b9050919050565b60606000805461051190612ba3565b80601f016020809104026020016040519081016040528092919081815260200182805461053d90612ba3565b801561058a5780601f1061055f5761010080835404028352916020019161058a565b820191906000526020600020905b81548152906001019060200180831161056d57829003601f168201915b5050505050905090565b600061059f8261109e565b6105de576040517f08c379a00000000000000000000000000000000000000000000000000000000081526004016105d590612883565b60405180910390fd5b6004600083815260200190815260200160002060009054906101000a900473ffffffffffffffffffffffffffffffffffffffff169050919050565b6000610624826107e6565b90508073ffffffffffffffffffffffffffffffffffffffff168373ffffffffffffffffffffffffffffffffffffffff161415610695576040517f08c379a000000000000000000000000000000000000000000000000000000000815260040161068c906128e3565b60405180910390fd5b8073ffffffffffffffffffffffffffffffffffffffff166106b461110a565b73ffffffffffffffffffffffffffffffffffffffff1614806106e357506106e2816106dd61110a565b610d02565b5b610722576040517f08c379a0000000000000000000000000000000000000000000000000000000008152600401610719906127c3565b60405180910390fd5b61072c8383611112565b505050565b61074261073c61110a565b826111cb565b610781576040517f08c379a000000000000000000000000000000000000000000000000000000000815260040161077890612903565b60405180910390fd5b61078c8383836112a9565b505050565b60096020528060005260406000206000915090505481565b60006107b56008611510565b600a6107c19190612a8f565b905090565b6107e183838360405180602001604052806000815250610b4e565b505050565b6000806002600084815260200190815260200160002060009054906101000a900473ffffffffffffffffffffffffffffffffffffffff169050600073ffffffffffffffffffffffffffffffffffffffff168173ffffffffffffffffffffffffffffffffffffffff16141561088f576040517f08c379a000000000000000000000000000000000000000000000000000000000815260040161088690612803565b60405180910390fd5b80915050919050565b60008073ffffffffffffffffffffffffffffffffffffffff168273ffffffffffffffffffffffffffffffffffffffff161415610909576040517f08c379a0000000000000000000000000000000000000000000000000000000008152600401610900906127e3565b60405180910390fd5b600360008373ffffffffffffffffffffffffffffffffffffffff1673ffffffffffffffffffffffffffffffffffffffff168152602001908152602001600020549050919050565b61095861110a565b73ffffffffffffffffffffffffffffffffffffffff16610976610a7c565b73ffffffffffffffffffffffffffffffffffffffff16146109cc576040517f08c379a00000000000000000000000000000000000000000000000000000000081526004016109c3906128a3565b60405180910390fd5b6109d6600061151e565b565b6000600960008373ffffffffffffffffffffffffffffffffffffffff1673ffffffffffffffffffffffffffffffffffffffff168152602001908152602001600020549050919050565b600260096000735a8064f8249d079f02bfb688f4aa86b6b2c6535973ffffffffffffffffffffffffffffffffffffffff1673ffffffffffffffffffffffffffffffffffffffff16815260200190815260200160002081905550565b6000600760009054906101000a900473ffffffffffffffffffffffffffffffffffffffff16905090565b606060018054610ab590612ba3565b80601f0160208091040260200160405190810160405280929190818152602001828054610ae190612ba3565b8015610b2e5780601f10610b0357610100808354040283529160200191610b2e565b820191906000526020600020905b815481529060010190602001808311610b1157829003601f168201915b5050505050905090565b610b4a610b4361110a565b83836115e4565b5050565b610b5f610b5961110a565b836111cb565b610b9e576040517f08c379a0000000000000000000000000000000000000000000000000000000008152600401610b9590612903565b60405180910390fd5b610baa84848484611751565b50505050565b6060610bbb8261109e565b610bfa576040517f08c379a0000000000000000000000000000000000000000000000000000000008152600401610bf190612863565b60405180910390fd5b6000600660008481526020019081526020016000208054610c1a90612ba3565b80601f0160208091040260200160405190810160405280929190818152602001828054610c4690612ba3565b8015610c935780601f10610c6857610100808354040283529160200191610c93565b820191906000526020600020905b815481529060010190602001808311610c7657829003601f168201915b505050505090506000610ca46117ad565b9050600081511415610cba578192505050610cfd565b600082511115610cef578082604051602001610cd79291906125fb565b60405160208183030381529060405292505050610cfd565b610cf8846117c4565b925050505b919050565b6000600560008473ffffffffffffffffffffffffffffffffffffffff1673ffffffffffffffffffffffffffffffffffffffff16815260200190815260200160002060008373ffffffffffffffffffffffffffffffffffffffff1673ffffffffffffffffffffffffffffffffffffffff16815260200190815260200160002060009054906101000a900460ff16905092915050565b6000610da061110a565b73ffffffffffffffffffffffffffffffffffffffff16610dbe610a7c565b73ffffffffffffffffffffffffffffffffffffffff1614610e14576040517f08c379a0000000000000000000000000000000000000000000000000000000008152600401610e0b906128a3565b60405180910390fd5b6000600960008573ffffffffffffffffffffffffffffffffffffffff1673ffffffffffffffffffffffffffffffffffffffff16815260200190815260200160002054118015610e6c5750600a610e6a6008611510565b105b15610efb57610e7b600861186b565b6000610e876008611510565b9050610e938482611881565b610e9d8184611a5b565b600960008573ffffffffffffffffffffffffffffffffffffffff1673ffffffffffffffffffffffffffffffffffffffff1681526020019081526020016000206000815480929190610eed90612b79565b919050555080915050610f36565b6040517f08c379a0000000000000000000000000000000000000000000000000000000008152600401610f2d906126e3565b60405180910390fd5b92915050565b610f4461110a565b73ffffffffffffffffffffffffffffffffffffffff16610f62610a7c565b73ffffffffffffffffffffffffffffffffffffffff1614610fb8576040517f08c379a0000000000000000000000000000000000000000000000000000000008152600401610faf906128a3565b60405180910390fd5b600073ffffffffffffffffffffffffffffffffffffffff168173ffffffffffffffffffffffffffffffffffffffff161415611028576040517f08c379a000000000000000000000000000000000000000000000000000000000815260040161101f90612703565b60405180910390fd5b6110318161151e565b50565b60007f01ffc9a7000000000000000000000000000000000000000000000000000000007bffffffffffffffffffffffffffffffffffffffffffffffffffffffff1916827bffffffffffffffffffffffffffffffffffffffffffffffffffffffff1916149050919050565b60008073ffffffffffffffffffffffffffffffffffffffff166002600084815260200190815260200160002060009054906101000a900473ffffffffffffffffffffffffffffffffffffffff1673ffffffffffffffffffffffffffffffffffffffff1614159050919050565b600033905090565b816004600083815260200190815260200160002060006101000a81548173ffffffffffffffffffffffffffffffffffffffff021916908373ffffffffffffffffffffffffffffffffffffffff160217905550808273ffffffffffffffffffffffffffffffffffffffff16611185836107e6565b73ffffffffffffffffffffffffffffffffffffffff167f8c5be1e5ebec7d5bd14f71427d1e84f3dd0314c0f7b2291e5b200ac8c7c3b92560405160405180910390a45050565b60006111d68261109e565b611215576040517f08c379a000000000000000000000000000000000000000000000000000000000815260040161120c906127a3565b60405180910390fd5b6000611220836107e6565b90508073ffffffffffffffffffffffffffffffffffffffff168473ffffffffffffffffffffffffffffffffffffffff16148061128f57508373ffffffffffffffffffffffffffffffffffffffff1661127784610594565b73ffffffffffffffffffffffffffffffffffffffff16145b806112a0575061129f8185610d02565b5b91505092915050565b8273ffffffffffffffffffffffffffffffffffffffff166112c9826107e6565b73ffffffffffffffffffffffffffffffffffffffff161461131f576040517f08c379a000000000000000000000000000000000000000000000000000000000815260040161131690612723565b60405180910390fd5b600073ffffffffffffffffffffffffffffffffffffffff168273ffffffffffffffffffffffffffffffffffffffff16141561138f576040517f08c379a000000000000000000000000000000000000000000000000000000000815260040161138690612763565b60405180910390fd5b61139a838383611acf565b6113a5600082611112565b6001600360008573ffffffffffffffffffffffffffffffffffffffff1673ffffffffffffffffffffffffffffffffffffffff16815260200190815260200160002060008282546113f59190612a8f565b925050819055506001600360008473ffffffffffffffffffffffffffffffffffffffff1673ffffffffffffffffffffffffffffffffffffffff168152602001908152602001600020600082825461144c9190612a08565b92505081905550816002600083815260200190815260200160002060006101000a81548173ffffffffffffffffffffffffffffffffffffffff021916908373ffffffffffffffffffffffffffffffffffffffff160217905550808273ffffffffffffffffffffffffffffffffffffffff168473ffffffffffffffffffffffffffffffffffffffff167fddf252ad1be2c89b69c2b068fc378daa952ba7f163c4a11628f55a4df523b3ef60405160405180910390a461150b838383611ad4565b505050565b600081600001549050919050565b6000600760009054906101000a900473ffffffffffffffffffffffffffffffffffffffff16905081600760006101000a81548173ffffffffffffffffffffffffffffffffffffffff021916908373ffffffffffffffffffffffffffffffffffffffff1602179055508173ffffffffffffffffffffffffffffffffffffffff168173ffffffffffffffffffffffffffffffffffffffff167f8be0079c531659141344cd1fd0a4f28419497f9722a3daafe3b4186f6b6457e060405160405180910390a35050565b8173ffffffffffffffffffffffffffffffffffffffff168373ffffffffffffffffffffffffffffffffffffffff161415611653576040517f08c379a000000000000000000000000000000000000000000000000000000000815260040161164a90612783565b60405180910390fd5b80600560008573ffffffffffffffffffffffffffffffffffffffff1673ffffffffffffffffffffffffffffffffffffffff16815260200190815260200160002060008473ffffffffffffffffffffffffffffffffffffffff1673ffffffffffffffffffffffffffffffffffffffff16815260200190815260200160002060006101000a81548160ff0219169083151502179055508173ffffffffffffffffffffffffffffffffffffffff168373ffffffffffffffffffffffffffffffffffffffff167f17307eab39ab6107e8899845ad3d59bd9653f200f220920489ca2b5937696c31836040516117449190612686565b60405180910390a3505050565b61175c8484846112a9565b61176884848484611ad9565b6117a7576040517f08c379a000000000000000000000000000000000000000000000000000000000815260040161179e906126c3565b60405180910390fd5b50505050565b606060405180602001604052806000815250905090565b60606117cf8261109e565b61180e576040517f08c379a0000000000000000000000000000000000000000000000000000000008152600401611805906128c3565b60405180910390fd5b60006118186117ad565b905060008151116118385760405180602001604052806000815250611863565b8061184284611c70565b6040516020016118539291906125fb565b6040516020818303038152906040525b915050919050565b6001816000016000828254019250508190555050565b600073ffffffffffffffffffffffffffffffffffffffff168273ffffffffffffffffffffffffffffffffffffffff1614156118f1576040517f08c379a00000000000000000000000000000000000000000000000000000000081526004016118e890612843565b60405180910390fd5b6118fa8161109e565b1561193a576040517f08c379a000000000000000000000000000000000000000000000000000000000815260040161193190612743565b60405180910390fd5b61194660008383611acf565b6001600360008473ffffffffffffffffffffffffffffffffffffffff1673ffffffffffffffffffffffffffffffffffffffff16815260200190815260200160002060008282546119969190612a08565b92505081905550816002600083815260200190815260200160002060006101000a81548173ffffffffffffffffffffffffffffffffffffffff021916908373ffffffffffffffffffffffffffffffffffffffff160217905550808273ffffffffffffffffffffffffffffffffffffffff16600073ffffffffffffffffffffffffffffffffffffffff167fddf252ad1be2c89b69c2b068fc378daa952ba7f163c4a11628f55a4df523b3ef60405160405180910390a4611a5760008383611ad4565b5050565b611a648261109e565b611aa3576040517f08c379a0000000000000000000000000000000000000000000000000000000008152600401611a9a90612823565b60405180910390fd5b80600660008481526020019081526020016000209080519060200190611aca929190611e40565b505050565b505050565b505050565b6000611afa8473ffffffffffffffffffffffffffffffffffffffff16611e1d565b15611c63578373ffffffffffffffffffffffffffffffffffffffff1663150b7a02611b2361110a565b8786866040518563ffffffff1660e01b8152600401611b45949392919061263a565b602060405180830381600087803b158015611b5f57600080fd5b505af1925050508015611b9057506040513d601f19601f82011682018060405250810190611b8d9190612240565b60015b611c13573d8060008114611bc0576040519150601f19603f3d011682016040523d82523d6000602084013e611bc5565b606091505b50600081511415611c0b576040517f08c379a0000000000000000000000000000000000000000000000000000000008152600401611c02906126c3565b60405180910390fd5b805181602001fd5b63150b7a0260e01b7bffffffffffffffffffffffffffffffffffffffffffffffffffffffff1916817bffffffffffffffffffffffffffffffffffffffffffffffffffffffff191614915050611c68565b600190505b949350505050565b60606000821415611cb8576040518060400160405280600181526020017f30000000000000000000000000000000000000000000000000000000000000008152509050611e18565b600082905060005b60008214611cea578080611cd390612c06565b915050600a82611ce39190612a5e565b9150611cc0565b60008167ffffffffffffffff811115611d2c577f4e487b7100000000000000000000000000000000000000000000000000000000600052604160045260246000fd5b6040519080825280601f01601f191660200182016040528015611d5e5781602001600182028036833780820191505090505b5090505b60008514611e1157600182611d779190612a8f565b9150600a85611d869190612c4f565b6030611d929190612a08565b60f81b818381518110611dce577f4e487b7100000000000000000000000000000000000000000000000000000000600052603260045260246000fd5b60200101907effffffffffffffffffffffffffffffffffffffffffffffffffffffffffffff1916908160001a905350600a85611e0a9190612a5e565b9450611d62565b8093505050505b919050565b6000808273ffffffffffffffffffffffffffffffffffffffff163b119050919050565b828054611e4c90612ba3565b90600052602060002090601f016020900481019282611e6e5760008555611eb5565b82601f10611e8757805160ff1916838001178555611eb5565b82800160010185558215611eb5579182015b82811115611eb4578251825591602001919060010190611e99565b5b509050611ec29190611ec6565b5090565b5b80821115611edf576000816000905550600101611ec7565b5090565b6000611ef6611ef184612963565b61293e565b905082815260208101848484011115611f0e57600080fd5b611f19848285612b37565b509392505050565b6000611f34611f2f84612994565b61293e565b905082815260208101848484011115611f4c57600080fd5b611f57848285612b37565b509392505050565b600081359050611f6e8161326c565b92915050565b600081359050611f8381613283565b92915050565b600081359050611f988161329a565b92915050565b600081519050611fad8161329a565b92915050565b600082601f830112611fc457600080fd5b8135611fd4848260208601611ee3565b91505092915050565b600082601f830112611fee57600080fd5b8135611ffe848260208601611f21565b91505092915050565b600081359050612016816132b1565b92915050565b60006020828403121561202e57600080fd5b600061203c84828501611f5f565b91505092915050565b6000806040838503121561205857600080fd5b600061206685828601611f5f565b925050602061207785828601611f5f565b9150509250929050565b60008060006060848603121561209657600080fd5b60006120a486828701611f5f565b93505060206120b586828701611f5f565b92505060406120c686828701612007565b9150509250925092565b600080600080608085870312156120e657600080fd5b60006120f487828801611f5f565b945050602061210587828801611f5f565b935050604061211687828801612007565b925050606085013567ffffffffffffffff81111561213357600080fd5b61213f87828801611fb3565b91505092959194509250565b6000806040838503121561215e57600080fd5b600061216c85828601611f5f565b925050602061217d85828601611f74565b9150509250929050565b6000806040838503121561219a57600080fd5b60006121a885828601611f5f565b925050602083013567ffffffffffffffff8111156121c557600080fd5b6121d185828601611fdd565b9150509250929050565b600080604083850312156121ee57600080fd5b60006121fc85828601611f5f565b925050602061220d85828601612007565b9150509250929050565b60006020828403121561222957600080fd5b600061223784828501611f89565b91505092915050565b60006020828403121561225257600080fd5b600061226084828501611f9e565b91505092915050565b60006020828403121561227b57600080fd5b600061228984828501612007565b91505092915050565b61229b81612ac3565b82525050565b6122aa81612ad5565b82525050565b60006122bb826129c5565b6122c581856129db565b93506122d5818560208601612b46565b6122de81612d3c565b840191505092915050565b60006122f4826129d0565b6122fe81856129ec565b935061230e818560208601612b46565b61231781612d3c565b840191505092915050565b600061232d826129d0565b61233781856129fd565b9350612347818560208601612b46565b80840191505092915050565b60006123606032836129ec565b915061236b82612d4d565b604082019050919050565b60006123836009836129ec565b915061238e82612d9c565b602082019050919050565b60006123a66026836129ec565b91506123b182612dc5565b604082019050919050565b60006123c96025836129ec565b91506123d482612e14565b604082019050919050565b60006123ec601c836129ec565b91506123f782612e63565b602082019050919050565b600061240f6024836129ec565b915061241a82612e8c565b604082019050919050565b60006124326019836129ec565b915061243d82612edb565b602082019050919050565b6000612455602c836129ec565b915061246082612f04565b604082019050919050565b60006124786038836129ec565b915061248382612f53565b604082019050919050565b600061249b602a836129ec565b91506124a682612fa2565b604082019050919050565b60006124be6029836129ec565b91506124c982612ff1565b604082019050919050565b60006124e1602e836129ec565b91506124ec82613040565b604082019050919050565b60006125046020836129ec565b915061250f8261308f565b602082019050919050565b60006125276031836129ec565b9150612532826130b8565b604082019050919050565b600061254a602c836129ec565b915061255582613107565b604082019050919050565b600061256d6020836129ec565b915061257882613156565b602082019050919050565b6000612590602f836129ec565b915061259b8261317f565b604082019050919050565b60006125b36021836129ec565b91506125be826131ce565b604082019050919050565b60006125d66031836129ec565b91506125e18261321d565b604082019050919050565b6125f581612b2d565b82525050565b60006126078285612322565b91506126138284612322565b91508190509392505050565b60006020820190506126346000830184612292565b92915050565b600060808201905061264f6000830187612292565b61265c6020830186612292565b61266960408301856125ec565b818103606083015261267b81846122b0565b905095945050505050565b600060208201905061269b60008301846122a1565b92915050565b600060208201905081810360008301526126bb81846122e9565b905092915050565b600060208201905081810360008301526126dc81612353565b9050919050565b600060208201905081810360008301526126fc81612376565b9050919050565b6000602082019050818103600083015261271c81612399565b9050919050565b6000602082019050818103600083015261273c816123bc565b9050919050565b6000602082019050818103600083015261275c816123df565b9050919050565b6000602082019050818103600083015261277c81612402565b9050919050565b6000602082019050818103600083015261279c81612425565b9050919050565b600060208201905081810360008301526127bc81612448565b9050919050565b600060208201905081810360008301526127dc8161246b565b9050919050565b600060208201905081810360008301526127fc8161248e565b9050919050565b6000602082019050818103600083015261281c816124b1565b9050919050565b6000602082019050818103600083015261283c816124d4565b9050919050565b6000602082019050818103600083015261285c816124f7565b9050919050565b6000602082019050818103600083015261287c8161251a565b9050919050565b6000602082019050818103600083015261289c8161253d565b9050919050565b600060208201905081810360008301526128bc81612560565b9050919050565b600060208201905081810360008301526128dc81612583565b9050919050565b600060208201905081810360008301526128fc816125a6565b9050919050565b6000602082019050818103600083015261291c816125c9565b9050919050565b600060208201905061293860008301846125ec565b92915050565b6000612948612959565b90506129548282612bd5565b919050565b6000604051905090565b600067ffffffffffffffff82111561297e5761297d612d0d565b5b61298782612d3c565b9050602081019050919050565b600067ffffffffffffffff8211156129af576129ae612d0d565b5b6129b882612d3c565b9050602081019050919050565b600081519050919050565b600081519050919050565b600082825260208201905092915050565b600082825260208201905092915050565b600081905092915050565b6000612a1382612b2d565b9150612a1e83612b2d565b9250827fffffffffffffffffffffffffffffffffffffffffffffffffffffffffffffffff03821115612a5357612a52612c80565b5b828201905092915050565b6000612a6982612b2d565b9150612a7483612b2d565b925082612a8457612a83612caf565b5b828204905092915050565b6000612a9a82612b2d565b9150612aa583612b2d565b925082821015612ab857612ab7612c80565b5b828203905092915050565b6000612ace82612b0d565b9050919050565b60008115159050919050565b60007fffffffff0000000000000000000000000000000000000000000000000000000082169050919050565b600073ffffffffffffffffffffffffffffffffffffffff82169050919050565b6000819050919050565b82818337600083830152505050565b60005b83811015612b64578082015181840152602081019050612b49565b83811115612b73576000848401525b50505050565b6000612b8482612b2d565b91506000821415612b9857612b97612c80565b5b600182039050919050565b60006002820490506001821680612bbb57607f821691505b60208210811415612bcf57612bce612cde565b5b50919050565b612bde82612d3c565b810181811067ffffffffffffffff82111715612bfd57612bfc612d0d565b5b80604052505050565b6000612c1182612b2d565b91507fffffffffffffffffffffffffffffffffffffffffffffffffffffffffffffffff821415612c4457612c43612c80565b5b600182019050919050565b6000612c5a82612b2d565b9150612c6583612b2d565b925082612c7557612c74612caf565b5b828206905092915050565b7f4e487b7100000000000000000000000000000000000000000000000000000000600052601160045260246000fd5b7f4e487b7100000000000000000000000000000000000000000000000000000000600052601260045260246000fd5b7f4e487b7100000000000000000000000000000000000000000000000000000000600052602260045260246000fd5b7f4e487b7100000000000000000000000000000000000000000000000000000000600052604160045260246000fd5b6000601f19601f8301169050919050565b7f4552433732313a207472616e7366657220746f206e6f6e20455243373231526560008201527f63656976657220696d706c656d656e7465720000000000000000000000000000602082015250565b7f4e6f7420666f756e640000000000000000000000000000000000000000000000600082015250565b7f4f776e61626c653a206e6577206f776e657220697320746865207a65726f206160008201527f6464726573730000000000000000000000000000000000000000000000000000602082015250565b7f4552433732313a207472616e736665722066726f6d20696e636f72726563742060008201527f6f776e6572000000000000000000000000000000000000000000000000000000602082015250565b7f4552433732313a20746f6b656e20616c7265616479206d696e74656400000000600082015250565b7f4552433732313a207472616e7366657220746f20746865207a65726f2061646460008201527f7265737300000000000000000000000000000000000000000000000000000000602082015250565b7f4552433732313a20617070726f766520746f2063616c6c657200000000000000600082015250565b7f4552433732313a206f70657261746f7220717565727920666f72206e6f6e657860008201527f697374656e7420746f6b656e0000000000000000000000000000000000000000602082015250565b7f4552433732313a20617070726f76652063616c6c6572206973206e6f74206f7760008201527f6e6572206e6f7220617070726f76656420666f7220616c6c0000000000000000602082015250565b7f4552433732313a2062616c616e636520717565727920666f7220746865207a6560008201527f726f206164647265737300000000000000000000000000000000000000000000602082015250565b7f4552433732313a206f776e657220717565727920666f72206e6f6e657869737460008201527f656e7420746f6b656e0000000000000000000000000000000000000000000000602082015250565b7f45524337323155524953746f726167653a2055524920736574206f66206e6f6e60008201527f6578697374656e7420746f6b656e000000000000000000000000000000000000602082015250565b7f4552433732313a206d696e7420746f20746865207a65726f2061646472657373600082015250565b7f45524337323155524953746f726167653a2055524920717565727920666f722060008201527f6e6f6e6578697374656e7420746f6b656e000000000000000000000000000000602082015250565b7f4552433732313a20617070726f76656420717565727920666f72206e6f6e657860008201527f697374656e7420746f6b656e0000000000000000000000000000000000000000602082015250565b7f4f776e61626c653a2063616c6c6572206973206e6f7420746865206f776e6572600082015250565b7f4552433732314d657461646174613a2055524920717565727920666f72206e6f60008201527f6e6578697374656e7420746f6b656e0000000000000000000000000000000000602082015250565b7f4552433732313a20617070726f76616c20746f2063757272656e74206f776e6560008201527f7200000000000000000000000000000000000000000000000000000000000000602082015250565b7f4552433732313a207472616e736665722063616c6c6572206973206e6f74206f60008201527f776e6572206e6f7220617070726f766564000000000000000000000000000000602082015250565b61327581612ac3565b811461328057600080fd5b50565b61328c81612ad5565b811461329757600080fd5b50565b6132a381612ae1565b81146132ae57600080fd5b50565b6132ba81612b2d565b81146132c557600080fd5b5056fea2646970667358221220aabaf5dbf86ce78ef0ea019435a6e95a08e99ec798f98bef13f395998333eda064736f6c63430008010033",
  "linkReferences": {},
  "deployedLinkReferences": {}
}