{
  "_format": "hh-sol-artifact-1",
  "contractName": "MyNFT",
  "sourceName": "contracts/MyNFT.sol",
  "abi": [
    {
      "inputs": [],
      "stateMutability": "nonpayable",
      "type": "constructor"
    },
    {
      "anonymous": false,
      "inputs": [
        {
          "indexed": true,
          "internalType": "address",
          "name": "owner",
          "type": "address"
        },
        {
          "indexed": true,
          "internalType": "address",
          "name": "approved",
          "type": "address"
        },
        {
          "indexed": true,
          "internalType": "uint256",
          "name": "tokenId",
          "type": "uint256"
        }
      ],
      "name": "Approval",
      "type": "event"
    },
    {
      "anonymous": false,
      "inputs": [
        {
          "indexed": true,
          "internalType": "address",
          "name": "owner",
          "type": "address"
        },
        {
          "indexed": true,
          "internalType": "address",
          "name": "operator",
          "type": "address"
        },
        {
          "indexed": false,
          "internalType": "bool",
          "name": "approved",
          "type": "bool"
        }
      ],
      "name": "ApprovalForAll",
      "type": "event"
    },
    {
      "anonymous": false,
      "inputs": [
        {
          "indexed": true,
          "internalType": "address",
          "name": "previousOwner",
          "type": "address"
        },
        {
          "indexed": true,
          "internalType": "address",
          "name": "newOwner",
          "type": "address"
        }
      ],
      "name": "OwnershipTransferred",
      "type": "event"
    },
    {
      "anonymous": false,
      "inputs": [
        {
          "indexed": true,
          "internalType": "address",
          "name": "from",
          "type": "address"
        },
        {
          "indexed": true,
          "internalType": "address",
          "name": "to",
          "type": "address"
        },
        {
          "indexed": true,
          "internalType": "uint256",
          "name": "tokenId",
          "type": "uint256"
        }
      ],
      "name": "Transfer",
      "type": "event"
    },
    {
      "inputs": [
        {
          "internalType": "address",
          "name": "to",
          "type": "address"
        },
        {
          "internalType": "uint256",
          "name": "tokenId",
          "type": "uint256"
        }
      ],
      "name": "approve",
      "outputs": [],
      "stateMutability": "nonpayable",
      "type": "function"
    },
    {
      "inputs": [
        {
          "internalType": "address",
          "name": "owner",
          "type": "address"
        }
      ],
      "name": "balanceOf",
      "outputs": [
        {
          "internalType": "uint256",
          "name": "",
          "type": "uint256"
        }
      ],
      "stateMutability": "view",
      "type": "function"
    },
    {
      "inputs": [
        {
          "internalType": "uint256",
          "name": "tokenId",
          "type": "uint256"
        }
      ],
      "name": "getApproved",
      "outputs": [
        {
          "internalType": "address",
          "name": "",
          "type": "address"
        }
      ],
      "stateMutability": "view",
      "type": "function"
    },
    {
      "inputs": [],
      "name": "getSigners",
      "outputs": [
        {
          "internalType": "string",
          "name": "",
          "type": "string"
        }
      ],
      "stateMutability": "view",
      "type": "function"
    },
    {
      "inputs": [
        {
          "internalType": "address",
          "name": "owner",
          "type": "address"
        },
        {
          "internalType": "address",
          "name": "operator",
          "type": "address"
        }
      ],
      "name": "isApprovedForAll",
      "outputs": [
        {
          "internalType": "bool",
          "name": "",
          "type": "bool"
        }
      ],
      "stateMutability": "view",
      "type": "function"
    },
    {
      "inputs": [
        {
          "internalType": "address",
          "name": "recipient",
          "type": "address"
        },
        {
          "internalType": "string",
          "name": "tokenURI",
          "type": "string"
        }
      ],
      "name": "mintNFT",
      "outputs": [
        {
          "internalType": "uint256",
          "name": "",
          "type": "uint256"
        }
      ],
      "stateMutability": "nonpayable",
      "type": "function"
    },
    {
      "inputs": [],
      "name": "name",
      "outputs": [
        {
          "internalType": "string",
          "name": "",
          "type": "string"
        }
      ],
      "stateMutability": "view",
      "type": "function"
    },
    {
      "inputs": [],
      "name": "owner",
      "outputs": [
        {
          "internalType": "address",
          "name": "",
          "type": "address"
        }
      ],
      "stateMutability": "view",
      "type": "function"
    },
    {
      "inputs": [
        {
          "internalType": "uint256",
          "name": "tokenId",
          "type": "uint256"
        }
      ],
      "name": "ownerOf",
      "outputs": [
        {
          "internalType": "address",
          "name": "",
          "type": "address"
        }
      ],
      "stateMutability": "view",
      "type": "function"
    },
    {
      "inputs": [],
      "name": "renounceOwnership",
      "outputs": [],
      "stateMutability": "nonpayable",
      "type": "function"
    },
    {
      "inputs": [
        {
          "internalType": "address",
          "name": "from",
          "type": "address"
        },
        {
          "internalType": "address",
          "name": "to",
          "type": "address"
        },
        {
          "internalType": "uint256",
          "name": "tokenId",
          "type": "uint256"
        }
      ],
      "name": "safeTransferFrom",
      "outputs": [],
      "stateMutability": "nonpayable",
      "type": "function"
    },
    {
      "inputs": [
        {
          "internalType": "address",
          "name": "from",
          "type": "address"
        },
        {
          "internalType": "address",
          "name": "to",
          "type": "address"
        },
        {
          "internalType": "uint256",
          "name": "tokenId",
          "type": "uint256"
        },
        {
          "internalType": "bytes",
          "name": "_data",
          "type": "bytes"
        }
      ],
      "name": "safeTransferFrom",
      "outputs": [],
      "stateMutability": "nonpayable",
      "type": "function"
    },
    {
      "inputs": [
        {
          "internalType": "address",
          "name": "operator",
          "type": "address"
        },
        {
          "internalType": "bool",
          "name": "approved",
          "type": "bool"
        }
      ],
      "name": "setApprovalForAll",
      "outputs": [],
      "stateMutability": "nonpayable",
      "type": "function"
    },
    {
      "inputs": [
        {
          "internalType": "string",
          "name": "ensdomain",
          "type": "string"
        }
      ],
      "name": "signCard",
      "outputs": [
        {
          "internalType": "bool",
          "name": "",
          "type": "bool"
        }
      ],
      "stateMutability": "nonpayable",
      "type": "function"
    },
    {
      "inputs": [],
      "name": "signers",
      "outputs": [
        {
          "internalType": "string",
          "name": "",
          "type": "string"
        }
      ],
      "stateMutability": "view",
      "type": "function"
    },
    {
      "inputs": [
        {
          "internalType": "bytes4",
          "name": "interfaceId",
          "type": "bytes4"
        }
      ],
      "name": "supportsInterface",
      "outputs": [
        {
          "internalType": "bool",
          "name": "",
          "type": "bool"
        }
      ],
      "stateMutability": "view",
      "type": "function"
    },
    {
      "inputs": [],
      "name": "symbol",
      "outputs": [
        {
          "internalType": "string",
          "name": "",
          "type": "string"
        }
      ],
      "stateMutability": "view",
      "type": "function"
    },
    {
      "inputs": [
        {
          "internalType": "uint256",
          "name": "tokenId",
          "type": "uint256"
        }
      ],
      "name": "tokenURI",
      "outputs": [
        {
          "internalType": "string",
          "name": "",
          "type": "string"
        }
      ],
      "stateMutability": "view",
      "type": "function"
    },
    {
      "inputs": [
        {
          "internalType": "address",
          "name": "from",
          "type": "address"
        },
        {
          "internalType": "address",
          "name": "to",
          "type": "address"
        },
        {
          "internalType": "uint256",
          "name": "tokenId",
          "type": "uint256"
        }
      ],
      "name": "transferFrom",
      "outputs": [],
      "stateMutability": "nonpayable",
      "type": "function"
    },
    {
      "inputs": [
        {
          "internalType": "address",
          "name": "newOwner",
          "type": "address"
        }
      ],
      "name": "transferOwnership",
      "outputs": [],
      "stateMutability": "nonpayable",
      "type": "function"
    }
  ],
  "bytecode": "0x60806040526040518060400160405280600481526020017f2e657468000000000000000000000000000000000000000000000000000000008152506009908051906020019062000051929190620002bc565b5060405180602001604052806000815250600a908051906020019062000079929190620002bc565b5060405180602001604052806000815250600b9080519060200190620000a1929190620002bc565b5060405180602001604052806000815250600d9080519060200190620000c9929190620002bc565b50348015620000d757600080fd5b506040518060400160405280600581526020017f4d794e46540000000000000000000000000000000000000000000000000000008152506040518060400160405280600381526020017f4e4654000000000000000000000000000000000000000000000000000000000081525081600090805190602001906200015c929190620002bc565b50806001908051906020019062000175929190620002bc565b505050620001986200018c620001ee60201b60201c565b620001f660201b60201c565b6e0c2e074ec69a0dfb2997ba6c7d2e1e600c60006101000a81548173ffffffffffffffffffffffffffffffffffffffff021916908373ffffffffffffffffffffffffffffffffffffffff160217905550620003d1565b600033905090565b6000600760009054906101000a900473ffffffffffffffffffffffffffffffffffffffff16905081600760006101000a81548173ffffffffffffffffffffffffffffffffffffffff021916908373ffffffffffffffffffffffffffffffffffffffff1602179055508173ffffffffffffffffffffffffffffffffffffffff168173ffffffffffffffffffffffffffffffffffffffff167f8be0079c531659141344cd1fd0a4f28419497f9722a3daafe3b4186f6b6457e060405160405180910390a35050565b828054620002ca906200036c565b90600052602060002090601f016020900481019282620002ee57600085556200033a565b82601f106200030957805160ff19168380011785556200033a565b828001600101855582156200033a579182015b82811115620003395782518255916020019190600101906200031c565b5b5090506200034991906200034d565b5090565b5b80821115620003685760008160009055506001016200034e565b5090565b600060028204905060018216806200038557607f821691505b602082108114156200039c576200039b620003a2565b5b50919050565b7f4e487b7100000000000000000000000000000000000000000000000000000000600052602260045260246000fd5b61348e80620003e16000396000f3fe608060405234801561001057600080fd5b506004361061012c5760003560e01c8063715018a6116100ad578063b88d4fde11610071578063b88d4fde14610331578063c87b56dd1461034d578063e985e9c51461037d578063eacabe14146103ad578063f2fde38b146103dd5761012c565b8063715018a6146102b15780638da5cb5b146102bb57806394cf795e146102d957806395d89b41146102f7578063a22cb465146103155761012c565b806342842e0e116100f457806342842e0e146101e7578063432a43cc1461020357806346f0975a146102335780636352211e1461025157806370a08231146102815761012c565b806301ffc9a71461013157806306fdde0314610161578063081812fc1461017f578063095ea7b3146101af57806323b872dd146101cb575b600080fd5b61014b600480360381019061014691906122a7565b6103f9565b604051610158919061282b565b60405180910390f35b6101696104db565b6040516101769190612846565b60405180910390f35b6101996004803603810190610194919061233a565b61056d565b6040516101a691906127c4565b60405180910390f35b6101c960048036038101906101c4919061226b565b6105f2565b005b6101e560048036038101906101e09190612111565b61070a565b005b61020160048036038101906101fc9190612111565b61076a565b005b61021d600480360381019061021891906122f9565b61078a565b60405161022a919061282b565b60405180910390f35b61023b61089a565b6040516102489190612846565b60405180910390f35b61026b6004803603810190610266919061233a565b610928565b60405161027891906127c4565b60405180910390f35b61029b600480360381019061029691906120ac565b6109da565b6040516102a89190612ac8565b60405180910390f35b6102b9610a92565b005b6102c3610b1a565b6040516102d091906127c4565b60405180910390f35b6102e1610b44565b6040516102ee9190612846565b60405180910390f35b6102ff610bd6565b60405161030c9190612846565b60405180910390f35b61032f600480360381019061032a91906121db565b610c68565b005b61034b60048036038101906103469190612160565b610c7e565b005b6103676004803603810190610362919061233a565b610ce0565b6040516103749190612846565b60405180910390f35b610397600480360381019061039291906120d5565b610e32565b6040516103a4919061282b565b60405180910390f35b6103c760048036038101906103c29190612217565b610ec6565b6040516103d49190612ac8565b60405180910390f35b6103f760048036038101906103f291906120ac565b610fcc565b005b60007f80ac58cd000000000000000000000000000000000000000000000000000000007bffffffffffffffffffffffffffffffffffffffffffffffffffffffff1916827bffffffffffffffffffffffffffffffffffffffffffffffffffffffff191614806104c457507f5b5e139f000000000000000000000000000000000000000000000000000000007bffffffffffffffffffffffffffffffffffffffffffffffffffffffff1916827bffffffffffffffffffffffffffffffffffffffffffffffffffffffff1916145b806104d457506104d3826110c4565b5b9050919050565b6060600080546104ea90612d33565b80601f016020809104026020016040519081016040528092919081815260200182805461051690612d33565b80156105635780601f1061053857610100808354040283529160200191610563565b820191906000526020600020905b81548152906001019060200180831161054657829003601f168201915b5050505050905090565b60006105788261112e565b6105b7576040517f08c379a00000000000000000000000000000000000000000000000000000000081526004016105ae90612a28565b60405180910390fd5b6004600083815260200190815260200160002060009054906101000a900473ffffffffffffffffffffffffffffffffffffffff169050919050565b60006105fd82610928565b90508073ffffffffffffffffffffffffffffffffffffffff168373ffffffffffffffffffffffffffffffffffffffff16141561066e576040517f08c379a000000000000000000000000000000000000000000000000000000000815260040161066590612a88565b60405180910390fd5b8073ffffffffffffffffffffffffffffffffffffffff1661068d61119a565b73ffffffffffffffffffffffffffffffffffffffff1614806106bc57506106bb816106b661119a565b610e32565b5b6106fb576040517f08c379a00000000000000000000000000000000000000000000000000000000081526004016106f290612968565b60405180910390fd5b61070583836111a2565b505050565b61071b61071561119a565b8261125b565b61075a576040517f08c379a000000000000000000000000000000000000000000000000000000000815260040161075190612aa8565b60405180910390fd5b610765838383611339565b505050565b61078583838360405180602001604052806000815250610c7e565b505050565b60008160096040516020016107a092919061276f565b604051602081830303815290604052600a90805190602001906107c4929190611ed0565b506000600d80546107d490612d33565b9050111561082d576040518060400160405280600181526020017f0a00000000000000000000000000000000000000000000000000000000000000815250600b9080519060200190610827929190611ed0565b50610854565b60405180602001604052806000815250600b9080519060200190610852929190611ed0565b505b600d600b600a60405160200161086c93929190612793565b604051602081830303815290604052600d9080519060200190610890929190611ed0565b5060019050919050565b600d80546108a790612d33565b80601f01602080910402602001604051908101604052809291908181526020018280546108d390612d33565b80156109205780601f106108f557610100808354040283529160200191610920565b820191906000526020600020905b81548152906001019060200180831161090357829003601f168201915b505050505081565b6000806002600084815260200190815260200160002060009054906101000a900473ffffffffffffffffffffffffffffffffffffffff169050600073ffffffffffffffffffffffffffffffffffffffff168173ffffffffffffffffffffffffffffffffffffffff1614156109d1576040517f08c379a00000000000000000000000000000000000000000000000000000000081526004016109c8906129a8565b60405180910390fd5b80915050919050565b60008073ffffffffffffffffffffffffffffffffffffffff168273ffffffffffffffffffffffffffffffffffffffff161415610a4b576040517f08c379a0000000000000000000000000000000000000000000000000000000008152600401610a4290612988565b60405180910390fd5b600360008373ffffffffffffffffffffffffffffffffffffffff1673ffffffffffffffffffffffffffffffffffffffff168152602001908152602001600020549050919050565b610a9a61119a565b73ffffffffffffffffffffffffffffffffffffffff16610ab8610b1a565b73ffffffffffffffffffffffffffffffffffffffff1614610b0e576040517f08c379a0000000000000000000000000000000000000000000000000000000008152600401610b0590612a48565b60405180910390fd5b610b1860006115a0565b565b6000600760009054906101000a900473ffffffffffffffffffffffffffffffffffffffff16905090565b6060600d8054610b5390612d33565b80601f0160208091040260200160405190810160405280929190818152602001828054610b7f90612d33565b8015610bcc5780601f10610ba157610100808354040283529160200191610bcc565b820191906000526020600020905b815481529060010190602001808311610baf57829003601f168201915b5050505050905090565b606060018054610be590612d33565b80601f0160208091040260200160405190810160405280929190818152602001828054610c1190612d33565b8015610c5e5780601f10610c3357610100808354040283529160200191610c5e565b820191906000526020600020905b815481529060010190602001808311610c4157829003601f168201915b5050505050905090565b610c7a610c7361119a565b8383611666565b5050565b610c8f610c8961119a565b8361125b565b610cce576040517f08c379a0000000000000000000000000000000000000000000000000000000008152600401610cc590612aa8565b60405180910390fd5b610cda848484846117d3565b50505050565b6060610ceb8261112e565b610d2a576040517f08c379a0000000000000000000000000000000000000000000000000000000008152600401610d2190612a08565b60405180910390fd5b6000600660008481526020019081526020016000208054610d4a90612d33565b80601f0160208091040260200160405190810160405280929190818152602001828054610d7690612d33565b8015610dc35780601f10610d9857610100808354040283529160200191610dc3565b820191906000526020600020905b815481529060010190602001808311610da657829003601f168201915b505050505090506000610dd461182f565b9050600081511415610dea578192505050610e2d565b600082511115610e1f578082604051602001610e0792919061274b565b60405160208183030381529060405292505050610e2d565b610e2884611846565b925050505b919050565b6000600560008473ffffffffffffffffffffffffffffffffffffffff1673ffffffffffffffffffffffffffffffffffffffff16815260200190815260200160002060008373ffffffffffffffffffffffffffffffffffffffff1673ffffffffffffffffffffffffffffffffffffffff16815260200190815260200160002060009054906101000a900460ff16905092915050565b6000610ed061119a565b73ffffffffffffffffffffffffffffffffffffffff16610eee610b1a565b73ffffffffffffffffffffffffffffffffffffffff1614610f44576040517f08c379a0000000000000000000000000000000000000000000000000000000008152600401610f3b90612a48565b60405180910390fd5b6001610f5060086118ed565b1015610f8b57610f6060086118fb565b6000610f6c60086118ed565b9050610f788482611911565b610f828184611aeb565b80915050610fc6565b6040517f08c379a0000000000000000000000000000000000000000000000000000000008152600401610fbd90612888565b60405180910390fd5b92915050565b610fd461119a565b73ffffffffffffffffffffffffffffffffffffffff16610ff2610b1a565b73ffffffffffffffffffffffffffffffffffffffff1614611048576040517f08c379a000000000000000000000000000000000000000000000000000000000815260040161103f90612a48565b60405180910390fd5b600073ffffffffffffffffffffffffffffffffffffffff168173ffffffffffffffffffffffffffffffffffffffff1614156110b8576040517f08c379a00000000000000000000000000000000000000000000000000000000081526004016110af906128a8565b60405180910390fd5b6110c1816115a0565b50565b60007f01ffc9a7000000000000000000000000000000000000000000000000000000007bffffffffffffffffffffffffffffffffffffffffffffffffffffffff1916827bffffffffffffffffffffffffffffffffffffffffffffffffffffffff1916149050919050565b60008073ffffffffffffffffffffffffffffffffffffffff166002600084815260200190815260200160002060009054906101000a900473ffffffffffffffffffffffffffffffffffffffff1673ffffffffffffffffffffffffffffffffffffffff1614159050919050565b600033905090565b816004600083815260200190815260200160002060006101000a81548173ffffffffffffffffffffffffffffffffffffffff021916908373ffffffffffffffffffffffffffffffffffffffff160217905550808273ffffffffffffffffffffffffffffffffffffffff1661121583610928565b73ffffffffffffffffffffffffffffffffffffffff167f8c5be1e5ebec7d5bd14f71427d1e84f3dd0314c0f7b2291e5b200ac8c7c3b92560405160405180910390a45050565b60006112668261112e565b6112a5576040517f08c379a000000000000000000000000000000000000000000000000000000000815260040161129c90612948565b60405180910390fd5b60006112b083610928565b90508073ffffffffffffffffffffffffffffffffffffffff168473ffffffffffffffffffffffffffffffffffffffff16148061131f57508373ffffffffffffffffffffffffffffffffffffffff166113078461056d565b73ffffffffffffffffffffffffffffffffffffffff16145b80611330575061132f8185610e32565b5b91505092915050565b8273ffffffffffffffffffffffffffffffffffffffff1661135982610928565b73ffffffffffffffffffffffffffffffffffffffff16146113af576040517f08c379a00000000000000000000000000000000000000000000000000000000081526004016113a6906128c8565b60405180910390fd5b600073ffffffffffffffffffffffffffffffffffffffff168273ffffffffffffffffffffffffffffffffffffffff16141561141f576040517f08c379a000000000000000000000000000000000000000000000000000000000815260040161141690612908565b60405180910390fd5b61142a838383611b5f565b6114356000826111a2565b6001600360008573ffffffffffffffffffffffffffffffffffffffff1673ffffffffffffffffffffffffffffffffffffffff16815260200190815260200160002060008282546114859190612c49565b925050819055506001600360008473ffffffffffffffffffffffffffffffffffffffff1673ffffffffffffffffffffffffffffffffffffffff16815260200190815260200160002060008282546114dc9190612bc2565b92505081905550816002600083815260200190815260200160002060006101000a81548173ffffffffffffffffffffffffffffffffffffffff021916908373ffffffffffffffffffffffffffffffffffffffff160217905550808273ffffffffffffffffffffffffffffffffffffffff168473ffffffffffffffffffffffffffffffffffffffff167fddf252ad1be2c89b69c2b068fc378daa952ba7f163c4a11628f55a4df523b3ef60405160405180910390a461159b838383611b64565b505050565b6000600760009054906101000a900473ffffffffffffffffffffffffffffffffffffffff16905081600760006101000a81548173ffffffffffffffffffffffffffffffffffffffff021916908373ffffffffffffffffffffffffffffffffffffffff1602179055508173ffffffffffffffffffffffffffffffffffffffff168173ffffffffffffffffffffffffffffffffffffffff167f8be0079c531659141344cd1fd0a4f28419497f9722a3daafe3b4186f6b6457e060405160405180910390a35050565b8173ffffffffffffffffffffffffffffffffffffffff168373ffffffffffffffffffffffffffffffffffffffff1614156116d5576040517f08c379a00000000000000000000000000000000000000000000000000000000081526004016116cc90612928565b60405180910390fd5b80600560008573ffffffffffffffffffffffffffffffffffffffff1673ffffffffffffffffffffffffffffffffffffffff16815260200190815260200160002060008473ffffffffffffffffffffffffffffffffffffffff1673ffffffffffffffffffffffffffffffffffffffff16815260200190815260200160002060006101000a81548160ff0219169083151502179055508173ffffffffffffffffffffffffffffffffffffffff168373ffffffffffffffffffffffffffffffffffffffff167f17307eab39ab6107e8899845ad3d59bd9653f200f220920489ca2b5937696c31836040516117c6919061282b565b60405180910390a3505050565b6117de848484611339565b6117ea84848484611b69565b611829576040517f08c379a000000000000000000000000000000000000000000000000000000000815260040161182090612868565b60405180910390fd5b50505050565b606060405180602001604052806000815250905090565b60606118518261112e565b611890576040517f08c379a000000000000000000000000000000000000000000000000000000000815260040161188790612a68565b60405180910390fd5b600061189a61182f565b905060008151116118ba57604051806020016040528060008152506118e5565b806118c484611d00565b6040516020016118d592919061274b565b6040516020818303038152906040525b915050919050565b600081600001549050919050565b6001816000016000828254019250508190555050565b600073ffffffffffffffffffffffffffffffffffffffff168273ffffffffffffffffffffffffffffffffffffffff161415611981576040517f08c379a0000000000000000000000000000000000000000000000000000000008152600401611978906129e8565b60405180910390fd5b61198a8161112e565b156119ca576040517f08c379a00000000000000000000000000000000000000000000000000000000081526004016119c1906128e8565b60405180910390fd5b6119d660008383611b5f565b6001600360008473ffffffffffffffffffffffffffffffffffffffff1673ffffffffffffffffffffffffffffffffffffffff1681526020019081526020016000206000828254611a269190612bc2565b92505081905550816002600083815260200190815260200160002060006101000a81548173ffffffffffffffffffffffffffffffffffffffff021916908373ffffffffffffffffffffffffffffffffffffffff160217905550808273ffffffffffffffffffffffffffffffffffffffff16600073ffffffffffffffffffffffffffffffffffffffff167fddf252ad1be2c89b69c2b068fc378daa952ba7f163c4a11628f55a4df523b3ef60405160405180910390a4611ae760008383611b64565b5050565b611af48261112e565b611b33576040517f08c379a0000000000000000000000000000000000000000000000000000000008152600401611b2a906129c8565b60405180910390fd5b80600660008481526020019081526020016000209080519060200190611b5a929190611ed0565b505050565b505050565b505050565b6000611b8a8473ffffffffffffffffffffffffffffffffffffffff16611ead565b15611cf3578373ffffffffffffffffffffffffffffffffffffffff1663150b7a02611bb361119a565b8786866040518563ffffffff1660e01b8152600401611bd594939291906127df565b602060405180830381600087803b158015611bef57600080fd5b505af1925050508015611c2057506040513d601f19601f82011682018060405250810190611c1d91906122d0565b60015b611ca3573d8060008114611c50576040519150601f19603f3d011682016040523d82523d6000602084013e611c55565b606091505b50600081511415611c9b576040517f08c379a0000000000000000000000000000000000000000000000000000000008152600401611c9290612868565b60405180910390fd5b805181602001fd5b63150b7a0260e01b7bffffffffffffffffffffffffffffffffffffffffffffffffffffffff1916817bffffffffffffffffffffffffffffffffffffffffffffffffffffffff191614915050611cf8565b600190505b949350505050565b60606000821415611d48576040518060400160405280600181526020017f30000000000000000000000000000000000000000000000000000000000000008152509050611ea8565b600082905060005b60008214611d7a578080611d6390612d96565b915050600a82611d739190612c18565b9150611d50565b60008167ffffffffffffffff811115611dbc577f4e487b7100000000000000000000000000000000000000000000000000000000600052604160045260246000fd5b6040519080825280601f01601f191660200182016040528015611dee5781602001600182028036833780820191505090505b5090505b60008514611ea157600182611e079190612c49565b9150600a85611e169190612ddf565b6030611e229190612bc2565b60f81b818381518110611e5e577f4e487b7100000000000000000000000000000000000000000000000000000000600052603260045260246000fd5b60200101907effffffffffffffffffffffffffffffffffffffffffffffffffffffffffffff1916908160001a905350600a85611e9a9190612c18565b9450611df2565b8093505050505b919050565b6000808273ffffffffffffffffffffffffffffffffffffffff163b119050919050565b828054611edc90612d33565b90600052602060002090601f016020900481019282611efe5760008555611f45565b82601f10611f1757805160ff1916838001178555611f45565b82800160010185558215611f45579182015b82811115611f44578251825591602001919060010190611f29565b5b509050611f529190611f56565b5090565b5b80821115611f6f576000816000905550600101611f57565b5090565b6000611f86611f8184612b08565b612ae3565b905082815260208101848484011115611f9e57600080fd5b611fa9848285612cf1565b509392505050565b6000611fc4611fbf84612b39565b612ae3565b905082815260208101848484011115611fdc57600080fd5b611fe7848285612cf1565b509392505050565b600081359050611ffe816133fc565b92915050565b60008135905061201381613413565b92915050565b6000813590506120288161342a565b92915050565b60008151905061203d8161342a565b92915050565b600082601f83011261205457600080fd5b8135612064848260208601611f73565b91505092915050565b600082601f83011261207e57600080fd5b813561208e848260208601611fb1565b91505092915050565b6000813590506120a681613441565b92915050565b6000602082840312156120be57600080fd5b60006120cc84828501611fef565b91505092915050565b600080604083850312156120e857600080fd5b60006120f685828601611fef565b925050602061210785828601611fef565b9150509250929050565b60008060006060848603121561212657600080fd5b600061213486828701611fef565b935050602061214586828701611fef565b925050604061215686828701612097565b9150509250925092565b6000806000806080858703121561217657600080fd5b600061218487828801611fef565b945050602061219587828801611fef565b93505060406121a687828801612097565b925050606085013567ffffffffffffffff8111156121c357600080fd5b6121cf87828801612043565b91505092959194509250565b600080604083850312156121ee57600080fd5b60006121fc85828601611fef565b925050602061220d85828601612004565b9150509250929050565b6000806040838503121561222a57600080fd5b600061223885828601611fef565b925050602083013567ffffffffffffffff81111561225557600080fd5b6122618582860161206d565b9150509250929050565b6000806040838503121561227e57600080fd5b600061228c85828601611fef565b925050602061229d85828601612097565b9150509250929050565b6000602082840312156122b957600080fd5b60006122c784828501612019565b91505092915050565b6000602082840312156122e257600080fd5b60006122f08482850161202e565b91505092915050565b60006020828403121561230b57600080fd5b600082013567ffffffffffffffff81111561232557600080fd5b6123318482850161206d565b91505092915050565b60006020828403121561234c57600080fd5b600061235a84828501612097565b91505092915050565b61236c81612c7d565b82525050565b61237b81612c8f565b82525050565b600061238c82612b7f565b6123968185612b95565b93506123a6818560208601612d00565b6123af81612ecc565b840191505092915050565b60006123c582612b8a565b6123cf8185612ba6565b93506123df818560208601612d00565b6123e881612ecc565b840191505092915050565b60006123fe82612b8a565b6124088185612bb7565b9350612418818560208601612d00565b80840191505092915050565b6000815461243181612d33565b61243b8186612bb7565b9450600182166000811461245657600181146124675761249a565b60ff1983168652818601935061249a565b61247085612b6a565b60005b8381101561249257815481890152600182019150602081019050612473565b838801955050505b50505092915050565b60006124b0603283612ba6565b91506124bb82612edd565b604082019050919050565b60006124d3600983612ba6565b91506124de82612f2c565b602082019050919050565b60006124f6602683612ba6565b915061250182612f55565b604082019050919050565b6000612519602583612ba6565b915061252482612fa4565b604082019050919050565b600061253c601c83612ba6565b915061254782612ff3565b602082019050919050565b600061255f602483612ba6565b915061256a8261301c565b604082019050919050565b6000612582601983612ba6565b915061258d8261306b565b602082019050919050565b60006125a5602c83612ba6565b91506125b082613094565b604082019050919050565b60006125c8603883612ba6565b91506125d3826130e3565b604082019050919050565b60006125eb602a83612ba6565b91506125f682613132565b604082019050919050565b600061260e602983612ba6565b915061261982613181565b604082019050919050565b6000612631602e83612ba6565b915061263c826131d0565b604082019050919050565b6000612654602083612ba6565b915061265f8261321f565b602082019050919050565b6000612677603183612ba6565b915061268282613248565b604082019050919050565b600061269a602c83612ba6565b91506126a582613297565b604082019050919050565b60006126bd602083612ba6565b91506126c8826132e6565b602082019050919050565b60006126e0602f83612ba6565b91506126eb8261330f565b604082019050919050565b6000612703602183612ba6565b915061270e8261335e565b604082019050919050565b6000612726603183612ba6565b9150612731826133ad565b604082019050919050565b61274581612ce7565b82525050565b600061275782856123f3565b915061276382846123f3565b91508190509392505050565b600061277b82856123f3565b91506127878284612424565b91508190509392505050565b600061279f8286612424565b91506127ab8285612424565b91506127b78284612424565b9150819050949350505050565b60006020820190506127d96000830184612363565b92915050565b60006080820190506127f46000830187612363565b6128016020830186612363565b61280e604083018561273c565b81810360608301526128208184612381565b905095945050505050565b60006020820190506128406000830184612372565b92915050565b6000602082019050818103600083015261286081846123ba565b905092915050565b60006020820190508181036000830152612881816124a3565b9050919050565b600060208201905081810360008301526128a1816124c6565b9050919050565b600060208201905081810360008301526128c1816124e9565b9050919050565b600060208201905081810360008301526128e18161250c565b9050919050565b600060208201905081810360008301526129018161252f565b9050919050565b6000602082019050818103600083015261292181612552565b9050919050565b6000602082019050818103600083015261294181612575565b9050919050565b6000602082019050818103600083015261296181612598565b9050919050565b60006020820190508181036000830152612981816125bb565b9050919050565b600060208201905081810360008301526129a1816125de565b9050919050565b600060208201905081810360008301526129c181612601565b9050919050565b600060208201905081810360008301526129e181612624565b9050919050565b60006020820190508181036000830152612a0181612647565b9050919050565b60006020820190508181036000830152612a218161266a565b9050919050565b60006020820190508181036000830152612a418161268d565b9050919050565b60006020820190508181036000830152612a61816126b0565b9050919050565b60006020820190508181036000830152612a81816126d3565b9050919050565b60006020820190508181036000830152612aa1816126f6565b9050919050565b60006020820190508181036000830152612ac181612719565b9050919050565b6000602082019050612add600083018461273c565b92915050565b6000612aed612afe565b9050612af98282612d65565b919050565b6000604051905090565b600067ffffffffffffffff821115612b2357612b22612e9d565b5b612b2c82612ecc565b9050602081019050919050565b600067ffffffffffffffff821115612b5457612b53612e9d565b5b612b5d82612ecc565b9050602081019050919050565b60008190508160005260206000209050919050565b600081519050919050565b600081519050919050565b600082825260208201905092915050565b600082825260208201905092915050565b600081905092915050565b6000612bcd82612ce7565b9150612bd883612ce7565b9250827fffffffffffffffffffffffffffffffffffffffffffffffffffffffffffffffff03821115612c0d57612c0c612e10565b5b828201905092915050565b6000612c2382612ce7565b9150612c2e83612ce7565b925082612c3e57612c3d612e3f565b5b828204905092915050565b6000612c5482612ce7565b9150612c5f83612ce7565b925082821015612c7257612c71612e10565b5b828203905092915050565b6000612c8882612cc7565b9050919050565b60008115159050919050565b60007fffffffff0000000000000000000000000000000000000000000000000000000082169050919050565b600073ffffffffffffffffffffffffffffffffffffffff82169050919050565b6000819050919050565b82818337600083830152505050565b60005b83811015612d1e578082015181840152602081019050612d03565b83811115612d2d576000848401525b50505050565b60006002820490506001821680612d4b57607f821691505b60208210811415612d5f57612d5e612e6e565b5b50919050565b612d6e82612ecc565b810181811067ffffffffffffffff82111715612d8d57612d8c612e9d565b5b80604052505050565b6000612da182612ce7565b91507fffffffffffffffffffffffffffffffffffffffffffffffffffffffffffffffff821415612dd457612dd3612e10565b5b600182019050919050565b6000612dea82612ce7565b9150612df583612ce7565b925082612e0557612e04612e3f565b5b828206905092915050565b7f4e487b7100000000000000000000000000000000000000000000000000000000600052601160045260246000fd5b7f4e487b7100000000000000000000000000000000000000000000000000000000600052601260045260246000fd5b7f4e487b7100000000000000000000000000000000000000000000000000000000600052602260045260246000fd5b7f4e487b7100000000000000000000000000000000000000000000000000000000600052604160045260246000fd5b6000601f19601f8301169050919050565b7f4552433732313a207472616e7366657220746f206e6f6e20455243373231526560008201527f63656976657220696d706c656d656e7465720000000000000000000000000000602082015250565b7f4e6f7420666f756e640000000000000000000000000000000000000000000000600082015250565b7f4f776e61626c653a206e6577206f776e657220697320746865207a65726f206160008201527f6464726573730000000000000000000000000000000000000000000000000000602082015250565b7f4552433732313a207472616e736665722066726f6d20696e636f72726563742060008201527f6f776e6572000000000000000000000000000000000000000000000000000000602082015250565b7f4552433732313a20746f6b656e20616c7265616479206d696e74656400000000600082015250565b7f4552433732313a207472616e7366657220746f20746865207a65726f2061646460008201527f7265737300000000000000000000000000000000000000000000000000000000602082015250565b7f4552433732313a20617070726f766520746f2063616c6c657200000000000000600082015250565b7f4552433732313a206f70657261746f7220717565727920666f72206e6f6e657860008201527f697374656e7420746f6b656e0000000000000000000000000000000000000000602082015250565b7f4552433732313a20617070726f76652063616c6c6572206973206e6f74206f7760008201527f6e6572206e6f7220617070726f76656420666f7220616c6c0000000000000000602082015250565b7f4552433732313a2062616c616e636520717565727920666f7220746865207a6560008201527f726f206164647265737300000000000000000000000000000000000000000000602082015250565b7f4552433732313a206f776e657220717565727920666f72206e6f6e657869737460008201527f656e7420746f6b656e0000000000000000000000000000000000000000000000602082015250565b7f45524337323155524953746f726167653a2055524920736574206f66206e6f6e60008201527f6578697374656e7420746f6b656e000000000000000000000000000000000000602082015250565b7f4552433732313a206d696e7420746f20746865207a65726f2061646472657373600082015250565b7f45524337323155524953746f726167653a2055524920717565727920666f722060008201527f6e6f6e6578697374656e7420746f6b656e000000000000000000000000000000602082015250565b7f4552433732313a20617070726f76656420717565727920666f72206e6f6e657860008201527f697374656e7420746f6b656e0000000000000000000000000000000000000000602082015250565b7f4f776e61626c653a2063616c6c6572206973206e6f7420746865206f776e6572600082015250565b7f4552433732314d657461646174613a2055524920717565727920666f72206e6f60008201527f6e6578697374656e7420746f6b656e0000000000000000000000000000000000602082015250565b7f4552433732313a20617070726f76616c20746f2063757272656e74206f776e6560008201527f7200000000000000000000000000000000000000000000000000000000000000602082015250565b7f4552433732313a207472616e736665722063616c6c6572206973206e6f74206f60008201527f776e6572206e6f7220617070726f766564000000000000000000000000000000602082015250565b61340581612c7d565b811461341057600080fd5b50565b61341c81612c8f565b811461342757600080fd5b50565b61343381612c9b565b811461343e57600080fd5b50565b61344a81612ce7565b811461345557600080fd5b5056fea26469706673582212209a6fdb466ed1b172bee3cc72de7ca7d336a8a55302d847007bbf9a666f1cad4d64736f6c63430008010033",
  "linkReferences": {},
  "deployedLinkReferences": {}
}