{
  "_format": "hh-sol-artifact-1",
  "contractName": "WriteSVG",
  "sourceName": "contracts/WriteSVG.sol",
  "abi": [
    {
      "inputs": [],
      "stateMutability": "nonpayable",
      "type": "constructor"
    },
    {
      "inputs": [
        {
          "internalType": "string",
          "name": "text",
          "type": "string"
        },
        {
          "internalType": "string",
          "name": "color",
          "type": "string"
        },
        {
          "internalType": "uint256",
          "name": "spacing",
          "type": "uint256"
        },
        {
          "internalType": "uint256",
          "name": "y",
          "type": "uint256"
        }
      ],
      "name": "write",
      "outputs": [
        {
          "internalType": "string",
          "name": "",
          "type": "string"
        }
      ],
      "stateMutability": "view",
      "type": "function"
    }
  ],
  "bytecode": "0x60806040523480156200001157600080fd5b5060405180608001604052806044815260200162004ac66044913960006040516200003c9062002807565b908152602001604051809103902090805190602001906200005f92919062001a98565b5060405180606001604052806021815260200162004dc46021913960006040516200008a9062002d0f565b90815260200160405180910390209080519060200190620000ad92919062001a98565b5060405180608001604052806041815260200162004ba4604191396000604051620000d89062002c9c565b90815260200160405180910390209080519060200190620000fb92919062001a98565b5060405180608001604052806043815260200162004de56043913960006040516200012690620028bf565b908152602001604051809103902090805190602001906200014992919062001a98565b506040518060600160405280603b815260200162004c3f603b91396000604051620001749062002863565b908152602001604051809103902090805190602001906200019792919062001a98565b5060405180606001604052806038815260200162004cad603891396000604051620001c29062002d3d565b90815260200160405180910390209080519060200190620001e592919062001a98565b506040518060800160405280604f81526020016200558d604f91396000604051620002109062002dc7565b908152602001604051809103902090805190602001906200023392919062001a98565b5060405180606001604052806027815260200162004e636027913960006040516200025e90620029d3565b908152602001604051809103902090805190602001906200028192919062001a98565b506040518060800160405280605f815260200162004d2f605f91396000604051620002ac9062002dde565b90815260200160405180910390209080519060200190620002cf92919062001a98565b506040518060800160405280604a815260200162004ce5604a91396000604051620002fa9062002d82565b908152602001604051809103902090805190602001906200031d92919062001a98565b50604051806060016040528060408152602001620051aa6040913960006040516200034890620027f0565b908152602001604051809103902090805190602001906200036b92919062001a98565b5060405180608001604052806043815260200162005260604391396000604051620003969062002891565b90815260200160405180910390209080519060200190620003b992919062001a98565b506040518060600160405280602b815260200162004be5602b91396000604051620003e490620027d9565b908152602001604051809103902090805190602001906200040792919062001a98565b5060405180606001604052806036815260200162005413603691396000604051620004329062002a8b565b908152602001604051809103902090805190602001906200045592919062001a98565b5060405180606001604052806035815260200162004b6f6035913960006040516200048090620029a5565b90815260200160405180910390209080519060200190620004a392919062001a98565b506040518060600160405280602f815260200162005505602f91396000604051620004ce9062002df5565b90815260200160405180910390209080519060200190620004f192919062001a98565b50604051806060016040528060338152602001620050816033913960006040516200051c9062002835565b908152602001604051809103902090805190602001906200053f92919062001a98565b506040518060600160405280602f815260200162004c10602f913960006040516200056a90620028d6565b908152602001604051809103902090805190602001906200058d92919062001a98565b50604051806060016040528060358152602001620052eb603591396000604051620005b89062002b9f565b90815260200160405180910390209080519060200190620005db92919062001a98565b5060405180606001604052806033815260200162004c7a603391396000604051620006069062002bb6565b908152602001604051809103902090805190602001906200062992919062001a98565b506040518060600160405280603b815260200162004ece603b91396000604051620006549062002bcd565b908152602001604051809103902090805190602001906200067792919062001a98565b5060405180606001604052806021815260200162004fd5602191396000604051620006a29062002b71565b90815260200160405180910390209080519060200190620006c592919062001a98565b5060405180608001604052806057815260200162004ff6605791396000604051620006f09062002b2c565b908152602001604051809103902090805190602001906200071392919062001a98565b506040518060800160405280604381526020016200537d6043913960006040516200073e9062002afe565b908152602001604051809103902090805190602001906200076192919062001a98565b5060405180606001604052806036815260200162004d8e6036913960006040516200078c9062002cf8565b90815260200160405180910390209080519060200190620007af92919062001a98565b5060405180608001604052806042815260200162005449604291396000604051620007da9062002ae7565b90815260200160405180910390209080519060200190620007fd92919062001a98565b506040518060600160405280603a815260200162004a39603a91396000604051620008289062002ead565b908152602001604051809103902090805190602001906200084b92919062001a98565b506040518060800160405280604a815260200162005216604a91396000604051620008769062002e23565b908152602001604051809103902090805190602001906200089992919062001a98565b5060405180608001604052806047815260200162005617604791396000604051620008c49062002c6e565b90815260200160405180910390209080519060200190620008e792919062001a98565b506040518060600160405280602f815260200162004fa6602f91396000604051620009129062002b5a565b908152602001604051809103902090805190602001906200093592919062001a98565b506040518060600160405280603181526020016200565e60319139600060405162000960906200291b565b908152602001604051809103902090805190602001906200098392919062001a98565b506040518060600160405280603b8152602001620055dc603b91396000604051620009ae9062002e51565b90815260200160405180910390209080519060200190620009d192919062001a98565b506040518060800160405280605d815260200162005320605d91396000604051620009fc9062002d6b565b9081526020016040518091039020908051906020019062000a1f92919062001a98565b50604051806080016040528060538152602001620053c060539139600060405162000a4a9062002a01565b9081526020016040518091039020908051906020019062000a6d92919062001a98565b506040518060600160405280603b815260200162004b0a603b9139600060405162000a989062002bfb565b9081526020016040518091039020908051906020019062000abb92919062001a98565b50604051806080016040528060538152602001620050b460539139600060405162000ae69062002b15565b9081526020016040518091039020908051906020019062000b0992919062001a98565b50600060405162000b1a90620027f0565b9081526020016040518091039020600060405162000b389062002932565b908152602001604051809103902090805462000b549062002ecf565b62000b6192919062001b29565b50600060405162000b729062002891565b9081526020016040518091039020600060405162000b909062002ce1565b908152602001604051809103902090805462000bac9062002ecf565b62000bb992919062001b29565b50600060405162000bca90620027d9565b9081526020016040518091039020600060405162000be8906200284c565b908152602001604051809103902090805462000c049062002ecf565b62000c1192919062001b29565b50600060405162000c229062002a8b565b9081526020016040518091039020600060405162000c409062002e68565b908152602001604051809103902090805462000c5c9062002ecf565b62000c6992919062001b29565b50600060405162000c7a90620029a5565b9081526020016040518091039020600060405162000c989062002c57565b908152602001604051809103902090805462000cb49062002ecf565b62000cc192919062001b29565b50600060405162000cd29062002df5565b9081526020016040518091039020600060405162000cf09062002d54565b908152602001604051809103902090805462000d0c9062002ecf565b62000d1992919062001b29565b50600060405162000d2a9062002835565b9081526020016040518091039020600060405162000d48906200287a565b908152602001604051809103902090805462000d649062002ecf565b62000d7192919062001b29565b50600060405162000d8290620028d6565b9081526020016040518091039020600060405162000da09062002c40565b908152602001604051809103902090805462000dbc9062002ecf565b62000dc992919062001b29565b50600060405162000dda9062002b9f565b9081526020016040518091039020600060405162000df89062002e0c565b908152602001604051809103902090805462000e149062002ecf565b62000e2192919062001b29565b50600060405162000e329062002bb6565b9081526020016040518091039020600060405162000e509062002cca565b908152602001604051809103902090805462000e6c9062002ecf565b62000e7992919062001b29565b50600060405162000e8a9062002bcd565b9081526020016040518091039020600060405162000ea89062002e96565b908152602001604051809103902090805462000ec49062002ecf565b62000ed192919062001b29565b50600060405162000ee29062002b71565b9081526020016040518091039020600060405162000f009062002a74565b908152602001604051809103902090805462000f1c9062002ecf565b62000f2992919062001b29565b50600060405162000f3a9062002b2c565b9081526020016040518091039020600060405162000f589062002db0565b908152602001604051809103902090805462000f749062002ecf565b62000f8192919062001b29565b50600060405162000f929062002afe565b9081526020016040518091039020600060405162000fb090620029bc565b908152602001604051809103902090805462000fcc9062002ecf565b62000fd992919062001b29565b50600060405162000fea9062002cf8565b908152602001604051809103902060006040516200100890620029ea565b9081526020016040518091039020908054620010249062002ecf565b6200103192919062001b29565b506000604051620010429062002ae7565b908152602001604051809103902060006040516200106090620028a8565b90815260200160405180910390209080546200107c9062002ecf565b6200108992919062001b29565b5060006040516200109a9062002ead565b90815260200160405180910390206000604051620010b89062002960565b9081526020016040518091039020908054620010d49062002ecf565b620010e192919062001b29565b506000604051620010f29062002e23565b90815260200160405180910390206000604051620011109062002977565b90815260200160405180910390209080546200112c9062002ecf565b6200113992919062001b29565b5060006040516200114a9062002c6e565b90815260200160405180910390206000604051620011689062002a2f565b9081526020016040518091039020908054620011849062002ecf565b6200119192919062001b29565b506000604051620011a29062002b5a565b90815260200160405180910390206000604051620011c09062002d26565b9081526020016040518091039020908054620011dc9062002ecf565b620011e992919062001b29565b506000604051620011fa906200291b565b90815260200160405180910390206000604051620012189062002904565b9081526020016040518091039020908054620012349062002ecf565b6200124192919062001b29565b506000604051620012529062002e51565b90815260200160405180910390206000604051620012709062002c29565b90815260200160405180910390209080546200128c9062002ecf565b6200129992919062001b29565b506000604051620012aa9062002d6b565b90815260200160405180910390206000604051620012c890620027c2565b9081526020016040518091039020908054620012e49062002ecf565b620012f192919062001b29565b506000604051620013029062002a01565b90815260200160405180910390206000604051620013209062002ad0565b90815260200160405180910390209080546200133c9062002ecf565b6200134992919062001b29565b5060006040516200135a9062002bfb565b90815260200160405180910390206000604051620013789062002b43565b9081526020016040518091039020908054620013949062002ecf565b620013a192919062001b29565b506000604051620013b29062002b15565b90815260200160405180910390206000604051620013d0906200298e565b9081526020016040518091039020908054620013ec9062002ecf565b620013f992919062001b29565b5060405180608001604052806053815260200162004a7360539139600060405162001424906200281e565b908152602001604051809103902090805190602001906200144792919062001a98565b506040518060600160405280602c8152602001620051ea602c91396000604051620014729062002e7f565b908152602001604051809103902090805190602001906200149592919062001a98565b506040518060a001604052806075815260200162005135607591396000604051620014c09062002b88565b90815260200160405180910390209080519060200190620014e392919062001a98565b50604051806080016040528060598152602001620055346059913960006040516200150e9062002e3a565b908152602001604051809103902090805190602001906200153192919062001a98565b50604051806080016040528060488152602001620052a36048913960006040516200155c9062002949565b908152602001604051809103902090805190602001906200157f92919062001a98565b5060405180608001604052806044815260200162004e8a604491396000604051620015aa9062002aa2565b90815260200160405180910390209080519060200190620015cd92919062001a98565b506040518060600160405280602e815260200162005107602e91396000604051620015f89062002be4565b908152602001604051809103902090805190602001906200161b92919062001a98565b506040518060600160405280603b815260200162004e28603b91396000604051620016469062002a5d565b908152602001604051809103902090805190602001906200166992919062001a98565b506040518060600160405280602a815260200162004b45602a913960006040516200169490620028ed565b90815260200160405180910390209080519060200190620016b792919062001a98565b506040518060600160405280603481526020016200504d603491396000604051620016e29062002a18565b908152602001604051809103902090805190602001906200170592919062001a98565b506040518060600160405280603b815260200162004f09603b91396000604051620017309062002ab9565b908152602001604051809103902090805190602001906200175392919062001a98565b506040518060400160405280601f81526020017f3c7061746820643d274d3020334c3020324c33203256334c3020335a272f3e0081525060006040516200179a9062002d99565b90815260200160405180910390209080519060200190620017bd92919062001a98565b506040518060a00160405280607a81526020016200548b607a91396000604051620017e89062002cb3565b908152602001604051809103902090805190602001906200180b92919062001a98565b506040518060a001604052806062815260200162004f44606291396000604051620018369062002c85565b908152602001604051809103902090805190602001906200185992919062001a98565b506040518060200160405280600081525060006040516200187a9062002a46565b908152602001604051809103902090805190602001906200189d92919062001a98565b5060036001604051620018b09062002c12565b908152602001604051809103902081905550600180604051620018d39062002a46565b908152602001604051809103902081905550600180604051620018f69062002aa2565b908152602001604051809103902081905550600180604051620019199062002be4565b9081526020016040518091039020819055506001806040516200193c90620028ed565b90815260200160405180910390208190555060026001604051620019609062002949565b90815260200160405180910390208190555060026001604051620019849062002a5d565b90815260200160405180910390208190555060046001604051620019a89062002afe565b90815260200160405180910390208190555060046001604051620019cc90620029bc565b90815260200160405180910390208190555060056001604051620019f09062002c85565b9081526020016040518091039020819055506005600160405162001a149062002b2c565b9081526020016040518091039020819055506005600160405162001a389062002db0565b9081526020016040518091039020819055506005600160405162001a5c9062002d6b565b9081526020016040518091039020819055506005600160405162001a8090620027c2565b90815260200160405180910390208190555062003bb2565b82805462001aa69062002ecf565b90600052602060002090601f01602090048101928262001aca576000855562001b16565b82601f1062001ae557805160ff191683800117855562001b16565b8280016001018555821562001b16579182015b8281111562001b1557825182559160200191906001019062001af8565b5b50905062001b25919062001bc1565b5090565b82805462001b379062002ecf565b90600052602060002090601f01602090048101928262001b5b576000855562001bae565b82601f1062001b6e578054855562001bae565b8280016001018555821562001bae57600052602060002091601f016020900482015b8281111562001bad57825482559160010191906001019062001b90565b5b50905062001bbd919062001bc1565b5090565b5b8082111562001bdc57600081600090555060010162001bc2565b5090565b600062001bef60018362002ec4565b915062001bfc8262002f34565b600182019050919050565b600062001c1660018362002ec4565b915062001c238262002f5d565b600182019050919050565b600062001c3d60018362002ec4565b915062001c4a8262002f86565b600182019050919050565b600062001c6460018362002ec4565b915062001c718262002faf565b600182019050919050565b600062001c8b60018362002ec4565b915062001c988262002fd8565b600182019050919050565b600062001cb260018362002ec4565b915062001cbf8262003001565b600182019050919050565b600062001cd960018362002ec4565b915062001ce6826200302a565b600182019050919050565b600062001d0060018362002ec4565b915062001d0d8262003053565b600182019050919050565b600062001d2760018362002ec4565b915062001d34826200307c565b600182019050919050565b600062001d4e60018362002ec4565b915062001d5b82620030a5565b600182019050919050565b600062001d7560018362002ec4565b915062001d8282620030ce565b600182019050919050565b600062001d9c60018362002ec4565b915062001da982620030f7565b600182019050919050565b600062001dc360018362002ec4565b915062001dd08262003120565b600182019050919050565b600062001dea60018362002ec4565b915062001df78262003149565b600182019050919050565b600062001e1160018362002ec4565b915062001e1e8262003172565b600182019050919050565b600062001e3860018362002ec4565b915062001e45826200319b565b600182019050919050565b600062001e5f60018362002ec4565b915062001e6c82620031c4565b600182019050919050565b600062001e8660018362002ec4565b915062001e9382620031ed565b600182019050919050565b600062001ead60018362002ec4565b915062001eba8262003216565b600182019050919050565b600062001ed460018362002ec4565b915062001ee1826200323f565b600182019050919050565b600062001efb60018362002ec4565b915062001f088262003268565b600182019050919050565b600062001f2260018362002ec4565b915062001f2f8262003291565b600182019050919050565b600062001f4960018362002ec4565b915062001f5682620032ba565b600182019050919050565b600062001f7060018362002ec4565b915062001f7d82620032e3565b600182019050919050565b600062001f9760018362002ec4565b915062001fa4826200330c565b600182019050919050565b600062001fbe60018362002ec4565b915062001fcb8262003335565b600182019050919050565b600062001fe560018362002ec4565b915062001ff2826200335e565b600182019050919050565b60006200200c60018362002ec4565b9150620020198262003387565b600182019050919050565b60006200203360018362002ec4565b91506200204082620033b0565b600182019050919050565b60006200205a60018362002ec4565b91506200206782620033d9565b600182019050919050565b60006200208160018362002ec4565b91506200208e8262003402565b600182019050919050565b6000620020a860018362002ec4565b9150620020b5826200342b565b600182019050919050565b6000620020cf60018362002ec4565b9150620020dc8262003454565b600182019050919050565b6000620020f660018362002ec4565b915062002103826200347d565b600182019050919050565b60006200211d60018362002ec4565b91506200212a82620034a6565b600182019050919050565b60006200214460018362002ec4565b91506200215182620034cf565b600182019050919050565b60006200216b60018362002ec4565b91506200217882620034f8565b600182019050919050565b60006200219260018362002ec4565b91506200219f8262003521565b600182019050919050565b6000620021b960018362002ec4565b9150620021c6826200354a565b600182019050919050565b6000620021e060018362002ec4565b9150620021ed8262003573565b600182019050919050565b60006200220760018362002ec4565b915062002214826200359c565b600182019050919050565b60006200222e60018362002ec4565b91506200223b82620035c5565b600182019050919050565b60006200225560018362002ec4565b91506200226282620035ee565b600182019050919050565b60006200227c60018362002ec4565b9150620022898262003617565b600182019050919050565b6000620022a360018362002ec4565b9150620022b08262003640565b600182019050919050565b6000620022ca60018362002ec4565b9150620022d78262003669565b600182019050919050565b6000620022f160018362002ec4565b9150620022fe8262003692565b600182019050919050565b60006200231860018362002ec4565b91506200232582620036bb565b600182019050919050565b60006200233f60078362002ec4565b91506200234c82620036e4565b600782019050919050565b60006200236660018362002ec4565b915062002373826200370d565b600182019050919050565b60006200238d60018362002ec4565b91506200239a8262003736565b600182019050919050565b6000620023b460018362002ec4565b9150620023c1826200375f565b600182019050919050565b6000620023db60018362002ec4565b9150620023e88262003788565b600182019050919050565b60006200240260018362002ec4565b91506200240f82620037b1565b600182019050919050565b60006200242960018362002ec4565b91506200243682620037da565b600182019050919050565b60006200245060018362002ec4565b91506200245d8262003803565b600182019050919050565b60006200247760018362002ec4565b915062002484826200382c565b600182019050919050565b60006200249e60018362002ec4565b9150620024ab8262003855565b600182019050919050565b6000620024c560018362002ec4565b9150620024d2826200387e565b600182019050919050565b6000620024ec60018362002ec4565b9150620024f982620038a7565b600182019050919050565b60006200251360018362002ec4565b91506200252082620038d0565b600182019050919050565b60006200253a60018362002ec4565b91506200254782620038f9565b600182019050919050565b60006200256160018362002ec4565b91506200256e8262003922565b600182019050919050565b60006200258860018362002ec4565b915062002595826200394b565b600182019050919050565b6000620025af60018362002ec4565b9150620025bc8262003974565b600182019050919050565b6000620025d660018362002ec4565b9150620025e3826200399d565b600182019050919050565b6000620025fd60018362002ec4565b91506200260a82620039c6565b600182019050919050565b60006200262460018362002ec4565b91506200263182620039ef565b600182019050919050565b60006200264b60018362002ec4565b9150620026588262003a18565b600182019050919050565b60006200267260018362002ec4565b91506200267f8262003a41565b600182019050919050565b60006200269960018362002ec4565b9150620026a68262003a6a565b600182019050919050565b6000620026c060018362002ec4565b9150620026cd8262003a93565b600182019050919050565b6000620026e760018362002ec4565b9150620026f48262003abc565b600182019050919050565b60006200270e60018362002ec4565b91506200271b8262003ae5565b600182019050919050565b60006200273560018362002ec4565b9150620027428262003b0e565b600182019050919050565b60006200275c60018362002ec4565b9150620027698262003b37565b600182019050919050565b60006200278360018362002ec4565b9150620027908262003b60565b600182019050919050565b6000620027aa60018362002ec4565b9150620027b78262003b89565b600182019050919050565b6000620027cf8262001be0565b9150819050919050565b6000620027e68262001c07565b9150819050919050565b6000620027fd8262001c2e565b9150819050919050565b6000620028148262001c55565b9150819050919050565b60006200282b8262001c7c565b9150819050919050565b6000620028428262001ca3565b9150819050919050565b6000620028598262001cca565b9150819050919050565b6000620028708262001cf1565b9150819050919050565b6000620028878262001d18565b9150819050919050565b60006200289e8262001d3f565b9150819050919050565b6000620028b58262001d66565b9150819050919050565b6000620028cc8262001d8d565b9150819050919050565b6000620028e38262001db4565b9150819050919050565b6000620028fa8262001ddb565b9150819050919050565b6000620029118262001e02565b9150819050919050565b6000620029288262001e29565b9150819050919050565b60006200293f8262001e50565b9150819050919050565b6000620029568262001e77565b9150819050919050565b60006200296d8262001e9e565b9150819050919050565b6000620029848262001ec5565b9150819050919050565b60006200299b8262001eec565b9150819050919050565b6000620029b28262001f13565b9150819050919050565b6000620029c98262001f3a565b9150819050919050565b6000620029e08262001f61565b9150819050919050565b6000620029f78262001f88565b9150819050919050565b600062002a0e8262001faf565b9150819050919050565b600062002a258262001fd6565b9150819050919050565b600062002a3c8262001ffd565b9150819050919050565b600062002a538262002024565b9150819050919050565b600062002a6a826200204b565b9150819050919050565b600062002a818262002072565b9150819050919050565b600062002a988262002099565b9150819050919050565b600062002aaf82620020c0565b9150819050919050565b600062002ac682620020e7565b9150819050919050565b600062002add826200210e565b9150819050919050565b600062002af48262002135565b9150819050919050565b600062002b0b826200215c565b9150819050919050565b600062002b228262002183565b9150819050919050565b600062002b3982620021aa565b9150819050919050565b600062002b5082620021d1565b9150819050919050565b600062002b6782620021f8565b9150819050919050565b600062002b7e826200221f565b9150819050919050565b600062002b958262002246565b9150819050919050565b600062002bac826200226d565b9150819050919050565b600062002bc38262002294565b9150819050919050565b600062002bda82620022bb565b9150819050919050565b600062002bf182620022e2565b9150819050919050565b600062002c088262002309565b9150819050919050565b600062002c1f8262002330565b9150819050919050565b600062002c368262002357565b9150819050919050565b600062002c4d826200237e565b9150819050919050565b600062002c6482620023a5565b9150819050919050565b600062002c7b82620023cc565b9150819050919050565b600062002c9282620023f3565b9150819050919050565b600062002ca9826200241a565b9150819050919050565b600062002cc08262002441565b9150819050919050565b600062002cd78262002468565b9150819050919050565b600062002cee826200248f565b9150819050919050565b600062002d0582620024b6565b9150819050919050565b600062002d1c82620024dd565b9150819050919050565b600062002d338262002504565b9150819050919050565b600062002d4a826200252b565b9150819050919050565b600062002d618262002552565b9150819050919050565b600062002d788262002579565b9150819050919050565b600062002d8f82620025a0565b9150819050919050565b600062002da682620025c7565b9150819050919050565b600062002dbd82620025ee565b9150819050919050565b600062002dd48262002615565b9150819050919050565b600062002deb826200263c565b9150819050919050565b600062002e028262002663565b9150819050919050565b600062002e19826200268a565b9150819050919050565b600062002e3082620026b1565b9150819050919050565b600062002e4782620026d8565b9150819050919050565b600062002e5e82620026ff565b9150819050919050565b600062002e758262002726565b9150819050919050565b600062002e8c826200274d565b9150819050919050565b600062002ea38262002774565b9150819050919050565b600062002eba826200279b565b9150819050919050565b600081905092915050565b6000600282049050600182168062002ee857607f821691505b6020821081141562002eff5762002efe62002f05565b5b50919050565b7f4e487b7100000000000000000000000000000000000000000000000000000000600052602260045260246000fd5b7f7700000000000000000000000000000000000000000000000000000000000000600082015250565b7f4300000000000000000000000000000000000000000000000000000000000000600082015250565b7f4100000000000000000000000000000000000000000000000000000000000000600082015250565b7f3000000000000000000000000000000000000000000000000000000000000000600082015250565b7f2a00000000000000000000000000000000000000000000000000000000000000600082015250565b7f4700000000000000000000000000000000000000000000000000000000000000600082015250565b7f6300000000000000000000000000000000000000000000000000000000000000600082015250565b7f3400000000000000000000000000000000000000000000000000000000000000600082015250565b7f6700000000000000000000000000000000000000000000000000000000000000600082015250565b7f4200000000000000000000000000000000000000000000000000000000000000600082015250565b7f7000000000000000000000000000000000000000000000000000000000000000600082015250565b7f3300000000000000000000000000000000000000000000000000000000000000600082015250565b7f4800000000000000000000000000000000000000000000000000000000000000600082015250565b7f2100000000000000000000000000000000000000000000000000000000000000600082015250565b7f7500000000000000000000000000000000000000000000000000000000000000600082015250565b7f5500000000000000000000000000000000000000000000000000000000000000600082015250565b7f6100000000000000000000000000000000000000000000000000000000000000600082015250565b7f2c00000000000000000000000000000000000000000000000000000000000000600082015250565b7f7100000000000000000000000000000000000000000000000000000000000000600082015250565b7f7200000000000000000000000000000000000000000000000000000000000000600082015250565b7f7a00000000000000000000000000000000000000000000000000000000000000600082015250565b7f4500000000000000000000000000000000000000000000000000000000000000600082015250565b7f6e00000000000000000000000000000000000000000000000000000000000000600082015250565b7f3700000000000000000000000000000000000000000000000000000000000000600082015250565b7f6f00000000000000000000000000000000000000000000000000000000000000600082015250565b7f5800000000000000000000000000000000000000000000000000000000000000600082015250565b7f3f00000000000000000000000000000000000000000000000000000000000000600082015250565b7f7300000000000000000000000000000000000000000000000000000000000000600082015250565b7f2000000000000000000000000000000000000000000000000000000000000000600082015250565b7f3b00000000000000000000000000000000000000000000000000000000000000600082015250565b7f6c00000000000000000000000000000000000000000000000000000000000000600082015250565b7f4400000000000000000000000000000000000000000000000000000000000000600082015250565b7f2e00000000000000000000000000000000000000000000000000000000000000600082015250565b7f2b00000000000000000000000000000000000000000000000000000000000000600082015250565b7f7800000000000000000000000000000000000000000000000000000000000000600082015250565b7f5000000000000000000000000000000000000000000000000000000000000000600082015250565b7f4e00000000000000000000000000000000000000000000000000000000000000600082015250565b7f5a00000000000000000000000000000000000000000000000000000000000000600082015250565b7f4d00000000000000000000000000000000000000000000000000000000000000600082015250565b7f7900000000000000000000000000000000000000000000000000000000000000600082015250565b7f5400000000000000000000000000000000000000000000000000000000000000600082015250565b7f4c00000000000000000000000000000000000000000000000000000000000000600082015250565b7f3c00000000000000000000000000000000000000000000000000000000000000600082015250565b7f4900000000000000000000000000000000000000000000000000000000000000600082015250565b7f4a00000000000000000000000000000000000000000000000000000000000000600082015250565b7f4b00000000000000000000000000000000000000000000000000000000000000600082015250565b7f3a00000000000000000000000000000000000000000000000000000000000000600082015250565b7f5900000000000000000000000000000000000000000000000000000000000000600082015250565b7f44454641554c5400000000000000000000000000000000000000000000000000600082015250565b7f7600000000000000000000000000000000000000000000000000000000000000600082015250565b7f6800000000000000000000000000000000000000000000000000000000000000600082015250565b7f6500000000000000000000000000000000000000000000000000000000000000600082015250565b7f5300000000000000000000000000000000000000000000000000000000000000600082015250565b7f2300000000000000000000000000000000000000000000000000000000000000600082015250565b7f3200000000000000000000000000000000000000000000000000000000000000600082015250565b7f2400000000000000000000000000000000000000000000000000000000000000600082015250565b7f6a00000000000000000000000000000000000000000000000000000000000000600082015250565b7f6200000000000000000000000000000000000000000000000000000000000000600082015250565b7f4f00000000000000000000000000000000000000000000000000000000000000600082015250565b7f3100000000000000000000000000000000000000000000000000000000000000600082015250565b7f7400000000000000000000000000000000000000000000000000000000000000600082015250565b7f3500000000000000000000000000000000000000000000000000000000000000600082015250565b7f6600000000000000000000000000000000000000000000000000000000000000600082015250565b7f5700000000000000000000000000000000000000000000000000000000000000600082015250565b7f3900000000000000000000000000000000000000000000000000000000000000600082015250565b7f2d00000000000000000000000000000000000000000000000000000000000000600082015250565b7f6d00000000000000000000000000000000000000000000000000000000000000600082015250565b7f3600000000000000000000000000000000000000000000000000000000000000600082015250565b7f3800000000000000000000000000000000000000000000000000000000000000600082015250565b7f4600000000000000000000000000000000000000000000000000000000000000600082015250565b7f6900000000000000000000000000000000000000000000000000000000000000600082015250565b7f5200000000000000000000000000000000000000000000000000000000000000600082015250565b7f3e00000000000000000000000000000000000000000000000000000000000000600082015250565b7f5600000000000000000000000000000000000000000000000000000000000000600082015250565b7f6400000000000000000000000000000000000000000000000000000000000000600082015250565b7f3d00000000000000000000000000000000000000000000000000000000000000600082015250565b7f6b00000000000000000000000000000000000000000000000000000000000000600082015250565b7f5100000000000000000000000000000000000000000000000000000000000000600082015250565b610e778062003bc26000396000f3fe608060405234801561001057600080fd5b506004361061002b5760003560e01c8063671639c114610030575b600080fd5b61004a600480360381019061004591906105da565b610060565b604051610057919061091d565b60405180910390f35b606060008060405180602001604052806000815250905060005b875181101561021657600061008f898361027f565b9050600080826040516100a29190610812565b908152602001604051809103902080546100bb90610ac3565b80601f01602080910402602001604051908101604052809291908181526020018280546100e790610ac3565b80156101345780601f1061010957610100808354040283529160200191610134565b820191906000526020600020905b81548152906001019060200180831161011757829003601f168201915b5050505050905060008060018460405161014e9190610812565b90815260200160405180910390205414156101855760016040516101719061087b565b9081526020016040518091039020546101a5565b6001836040516101959190610812565b9081526020016040518091039020545b905060008251116101b857505050610203565b846101c2876103b0565b836040516020016101d593929190610829565b60405160208183030381529060405294508881876101f391906109bc565b6101fd91906109bc565b95505050505b808061020e90610b26565b91505061007a565b5060006002836102269190610a12565b60646102329190610a43565b9050600061023f826103b0565b610248876103b0565b898b8660405160200161025f959493929190610890565b604051602081830303815290604052905080945050505050949350505050565b60606000600167ffffffffffffffff8111156102c4577f4e487b7100000000000000000000000000000000000000000000000000000000600052604160045260246000fd5b6040519080825280601f01601f1916602001820160405280156102f65781602001600182028036833780820191505090505b509050838381518110610332577f4e487b7100000000000000000000000000000000000000000000000000000000600052603260045260246000fd5b602001015160f81c60f81b81600081518110610377577f4e487b7100000000000000000000000000000000000000000000000000000000600052603260045260246000fd5b60200101907effffffffffffffffffffffffffffffffffffffffffffffffffffffffffffff1916908160001a9053508091505092915050565b606060008214156103f8576040518060400160405280600181526020017f30000000000000000000000000000000000000000000000000000000000000008152509050610558565b600082905060005b6000821461042a57808061041390610b26565b915050600a826104239190610a12565b9150610400565b60008167ffffffffffffffff81111561046c577f4e487b7100000000000000000000000000000000000000000000000000000000600052604160045260246000fd5b6040519080825280601f01601f19166020018201604052801561049e5781602001600182028036833780820191505090505b5090505b60008514610551576001826104b79190610a43565b9150600a856104c69190610b6f565b60306104d291906109bc565b60f81b81838151811061050e577f4e487b7100000000000000000000000000000000000000000000000000000000600052603260045260246000fd5b60200101907effffffffffffffffffffffffffffffffffffffffffffffffffffffffffffff1916908160001a905350600a8561054a9190610a12565b94506104a2565b8093505050505b919050565b600061057061056b84610964565b61093f565b90508281526020810184848401111561058857600080fd5b610593848285610a81565b509392505050565b600082601f8301126105ac57600080fd5b81356105bc84826020860161055d565b91505092915050565b6000813590506105d481610e2a565b92915050565b600080600080608085870312156105f057600080fd5b600085013567ffffffffffffffff81111561060a57600080fd5b6106168782880161059b565b945050602085013567ffffffffffffffff81111561063357600080fd5b61063f8782880161059b565b9350506040610650878288016105c5565b9250506060610661878288016105c5565b91505092959194509250565b600061067882610995565b61068281856109a0565b9350610692818560208601610a90565b61069b81610c5c565b840191505092915050565b60006106b182610995565b6106bb81856109b1565b93506106cb818560208601610a90565b80840191505092915050565b60006106e46001836109b1565b91506106ef82610c6d565b600182019050919050565b60006107076009836109b1565b915061071282610c96565b600982019050919050565b600061072a6036836109b1565b915061073582610cbf565b603682019050919050565b600061074d6007836109b1565b915061075882610d0e565b600782019050919050565b60006107706004836109b1565b915061077b82610d37565b600482019050919050565b60006107936018836109b1565b915061079e82610d60565b601882019050919050565b60006107b66002836109b1565b91506107c182610d89565b600282019050919050565b60006107d96024836109b1565b91506107e482610db2565b602482019050919050565b60006107fc6003836109b1565b915061080782610e01565b600382019050919050565b600061081e82846106a6565b915081905092915050565b600061083582866106a6565b915061084082610786565b915061084c82856106a6565b9150610857826107ef565b915061086382846106a6565b915061086e82610763565b9150819050949350505050565b600061088682610740565b9150819050919050565b600061089b826107cc565b91506108a782886106a6565b91506108b2826106d7565b91506108be82876106a6565b91506108c9826106fa565b91506108d582866106a6565b91506108e08261071d565b91506108ec82856106a6565b91506108f7826107a9565b915061090382846106a6565b915061090e82610763565b91508190509695505050505050565b60006020820190508181036000830152610937818461066d565b905092915050565b600061094961095a565b90506109558282610af5565b919050565b6000604051905090565b600067ffffffffffffffff82111561097f5761097e610c2d565b5b61098882610c5c565b9050602081019050919050565b600081519050919050565b600082825260208201905092915050565b600081905092915050565b60006109c782610a77565b91506109d283610a77565b9250827fffffffffffffffffffffffffffffffffffffffffffffffffffffffffffffffff03821115610a0757610a06610ba0565b5b828201905092915050565b6000610a1d82610a77565b9150610a2883610a77565b925082610a3857610a37610bcf565b5b828204905092915050565b6000610a4e82610a77565b9150610a5983610a77565b925082821015610a6c57610a6b610ba0565b5b828203905092915050565b6000819050919050565b82818337600083830152505050565b60005b83811015610aae578082015181840152602081019050610a93565b83811115610abd576000848401525b50505050565b60006002820490506001821680610adb57607f821691505b60208210811415610aef57610aee610bfe565b5b50919050565b610afe82610c5c565b810181811067ffffffffffffffff82111715610b1d57610b1c610c2d565b5b80604052505050565b6000610b3182610a77565b91507fffffffffffffffffffffffffffffffffffffffffffffffffffffffffffffffff821415610b6457610b63610ba0565b5b600182019050919050565b6000610b7a82610a77565b9150610b8583610a77565b925082610b9557610b94610bcf565b5b828206905092915050565b7f4e487b7100000000000000000000000000000000000000000000000000000000600052601160045260246000fd5b7f4e487b7100000000000000000000000000000000000000000000000000000000600052601260045260246000fd5b7f4e487b7100000000000000000000000000000000000000000000000000000000600052602260045260246000fd5b7f4e487b7100000000000000000000000000000000000000000000000000000000600052604160045260246000fd5b6000601f19601f8301169050919050565b7f2c00000000000000000000000000000000000000000000000000000000000000600082015250565b7f29272066696c6c3d270000000000000000000000000000000000000000000000600082015250565b7f272066696c6c2d72756c653d276576656e6f64642720636c69702d72756c653d60008201527f276576656e6f64642720617269612d6c6162656c3d2700000000000000000000602082015250565b7f44454641554c5400000000000000000000000000000000000000000000000000600082015250565b7f3c2f673e00000000000000000000000000000000000000000000000000000000600082015250565b7f3c67207472616e73666f726d3d277472616e736c617465280000000000000000600082015250565b7f273e000000000000000000000000000000000000000000000000000000000000600082015250565b7f3c6720207472616e73666f726d3d277363616c6528302e3529207472616e736c60008201527f6174652800000000000000000000000000000000000000000000000000000000602082015250565b7f29273e0000000000000000000000000000000000000000000000000000000000600082015250565b610e3381610a77565b8114610e3e57600080fd5b5056fea2646970667358221220fed50d9a1bbec22f791c750fc2aeb64e0c8c1ddf3be9fdf7008a7588f853055b64736f6c634300080100333c7061746820643d274d302035483148324c32203448334c33203048324831483056355a4d3120344c3120314c3220314c32203448315a272f3e3c7061746820643d274d302032563148314c3120324c3020325a4d3220324c3120325633483056344c31203456334c32203356344c33203456334c32203356325a4d3220324c3320325631483256325a272f3e3c7061746820643d274d31203148324c32203448314c3120315a4d3120314830563448314c31203548324c32203448334c33203148324c32203048314c3120315a272f3e3c7061746820643d274d3120334830563048314c3120335a4d3220334831563548324c3220335a4d3220334c32203048334c33203348325a272f3e3c7061746820643d274d30203348314c312030483056335a4d30203548314c312034483056355a272f3e3c7061746820643d274d3120304830563156345635483148335634483156334832563248314c3120314c332031563048315a272f3e3c7061746820643d274d3220314830563048334c3320314c3320334c3220334c3120334c31203448334c33203548305634563356324c3220324c3220315a272f3e3c7061746820643d274d3020304831483356314c312031563448335635483148305634563156305a272f3e3c7061746820643d274d30203048314c3120324832563048335632563356354832563348315635483056305a272f3e3c7061746820643d274d33203548324c32203348314c3020335632563048314c3120324c3220324c32203048334c3320324c33203356355a272f3e3c7061746820643d274d302030483248335631563456354832483148305634563348315634483256314c30203156305a272f3e3c7061746820643d274d30203048314833563148315632483256334831483056305a4d32203348335634563548305634483256335a272f3e3c7061746820643d274d3120314c32203156324c3120324c3120315a4d312030483248334c3320314c3320324c332033563548324c32203348314c30203356325631563048315a272f3e3c7061746820643d274d3220314c3120314c3120324c32203256315a4d32203048334c3320314c3320324c3320334c3320344c33203548324831483056345633563256315630483148325a4d32203456334c3120334c31203448325a272f3e3c7061746820643d274d3020354831483248334c33203048324831483056355a4d3220344c3220314c3120314c31203448325a272f3e3c7061746820643d274d302030563148315635483256315630483148305a272f3e3c7061746820643d274d3320314c3320304832483056314c32203156324c30203256334c322033563448305635483248334c3320344c3320334c33203256315a272f3e3c7061746820643d274d3120324c312031483256324c3120325a4d3120354c312033483256354c3120355a4d31203556364830563548315a272f3e3c7061746820643d274d3320314c3320304832483056314c3220314c322035483356315a272f3e3c7265637420783d27312720793d2735272077696474683d273127206865696768743d273127207472616e73666f726d3d27726f74617465283138302031203529272f3e3c7061746820643d274d3120304830563256335635483156334832563548334c3320334832563248334c33203048324c322032483156305a272f3e3c7061746820643d274d32203148314c3120324c30203256334c3120334c3120344c3220344c3220334c33203356324c3220324c3220315a272f3e3c7061746820643d274d31203548324c3220344833563548345634483556334834563248355631483456304833563148324c32203048314c3120314830563248314c3120334830563448314c3120355a4d33203248324c322033483356325a272f3e3c7061746820643d274d3320314c33203048324831483056314c3120314c31203548324c3220314c3320315a272f3e3c7061746820643d274d312030483056345635483148335634483156305a272f3e3c7061746820643d274d3120354830563048314c3120314c32203156324c3120324c3120355a4d332032563348324c3220324c3320325a4d3320324c3320314c3420314c34203048354c3520354834563248335a272f3e3c7061746820643d274d322030483056314832563248315633483256324833563048325a4d32203448315635483256345a272f3e3c7061746820643d274d302031563456354831483248335634563248325634483156314c33203156304831483056315a272f3e3c7061746820643d274d3220314830563048334c3320314c3320324c3220324c3220315a4d3120334c3120324c3220324c32203348315a4d3120334c31203448334c3320354830563456334c3120335a272f3e3c7061746820643d274d30203156324c3120324c31203148305a4d30203356344c3120344c31203348305a272f3e3c7061746820643d274d3120344c3020344c3020354c3120354c3120345a4d3220334c3220344c3120344c3120334c3220335a4d3220324c3220334c3320334c3320324c3220325a4d3120314c3120324c3220324c3220314c3120315a4d3120314c3120304c3020304c3020314c3120315a272f3e3c7061746820643d274d3020335635483156334c3220335635483356335632563156304832483148305631563256335a4d31203248325631483156325a272f3e3c7061746820643d274d30203156324c332032563148305a4d30203356344c33203456334c3020335a272f3e3c7061746820643d274d31203548305630483148334c33203156324c3220324c3220314c31203156324c3220324c322033483156355a4d32203348334c33203548324c3220335a272f3e3c7061746820643d274d3120304830563548314832483356334832563248335630483248315a4d32203248315631483256325a4d32203456334831563448325a272f3e3c70617468207472616e73666f726d3d277472616e736c61746528302c2031292720643d274d31203448324c32203348314c3120345a4d3120344830563548314c3120345a272f3e3c7061746820643d274d302031563048314832483356314c3220315634483356354832483148305634483156314c3020315a272f3e3c7061746820643d274d3420304c3520304c35203548344c34203448335633483456305a204d3220334c32203248334c3320334c3220335a204d3220334c3220344c3120344c31203548304c3020304c3120304c31203348325a272f3e3c7061746820643d274d30203048315635483056305a204d31203148325633483156315a204d32203248335634483256325a204d33203048345635483356305a272f3e3c7061746820643d274d3120324830563048314c3120325a4d32203248314c3120334830563548314c31203348324c32203548334c33203348324c3220325a4d3220324c32203048334c33203248325a272f3e3c7061746820643d274d302031563456354831483248335631483256304831483056315a4d32203456314c312031563448325a272f3e3c7061746820643d274d30203548314c3120334c3320334c3320324c3320314c3320304831483056355a4d3220314c3120314c3120324c3220324c3220315a272f3e3c70617468207472616e73666f726d3d277472616e736c61746528302c202d31292720643d274d3120314c31203048324c32203148334c3320324c3120324c3120334c32203348334c3320344c332035563648324c32203748314c312036483056354c3220354c3220344c312034483056314c3120315a272f3e3c7061746820643d274d3020304831483356314c31203156324832563348315635483056335632563156305a272f3e3c7061746820643d274d32203148334c332030483256315a4d3120324c3120314832563248315a4d3120334c3120324830563348315a4d3220344c32203348314c31203448325a4d322034563548334c33203448325a272f3e3c7061746820643d274d30203456335632563048302e3939393939394c31203248324c3320324c3320334c3320344c33203548324831483056345a4d32203456334c3120334c31203448325a272f3e3c7061746820643d274d3120344830563048314c3120345a4d3220344831563548324c3220345a4d3220344c32203048334c33203448325a272f3e3c7061746820643d274d31203348305630483148334c3320314c3120314c3120324c32203248334c3320334c33203456354832483056344c3220344c3220334c3120335a272f3e3c7061746820643d274d31203548305634563048314c3120344c3220344c32203048334c3320345635483248315a272f3e",
  "linkReferences": {},
  "deployedLinkReferences": {}
}