{
  "_format": "hh-sol-artifact-1",
  "contractName": "WriteSVG",
  "sourceName": "contracts/WriteSVG.sol",
  "abi": [
    {
      "inputs": [],
      "stateMutability": "nonpayable",
      "type": "constructor"
    },
    {
      "inputs": [
        {
          "internalType": "string",
          "name": "text",
          "type": "string"
        },
        {
          "internalType": "string",
          "name": "color",
          "type": "string"
        },
        {
          "internalType": "uint256",
          "name": "spacing",
          "type": "uint256"
        },
        {
          "internalType": "uint256",
          "name": "y",
          "type": "uint256"
        }
      ],
      "name": "write",
      "outputs": [
        {
          "internalType": "string",
          "name": "",
          "type": "string"
        }
      ],
      "stateMutability": "view",
      "type": "function"
    }
  ],
  "bytecode": "0x60806040523480156200001157600080fd5b5060405180608001604052806044815260200162002a246044913960006040516200003c9062001be7565b908152602001604051809103902090805190602001906200005f92919062001a96565b5060405180606001604052806021815260200162002d226021913960006040516200008a9062001ec5565b90815260200160405180910390209080519060200190620000ad92919062001a96565b5060405180608001604052806041815260200162002b02604191396000604051620000d89062001e84565b90815260200160405180910390209080519060200190620000fb92919062001a96565b5060405180608001604052806043815260200162002d43604391396000604051620001269062001c4f565b908152602001604051809103902090805190602001906200014992919062001a96565b506040518060600160405280603b815260200162002b9d603b91396000604051620001749062001c1b565b908152602001604051809103902090805190602001906200019792919062001a96565b5060405180606001604052806038815260200162002c0b603891396000604051620001c29062001edf565b90815260200160405180910390209080519060200190620001e592919062001a96565b506040518060800160405280604f8152602001620034eb604f91396000604051620002109062001f2d565b908152602001604051809103902090805190602001906200023392919062001a96565b5060405180606001604052806027815260200162002dc16027913960006040516200025e9062001ceb565b908152602001604051809103902090805190602001906200028192919062001a96565b506040518060800160405280605f815260200162002c8d605f91396000604051620002ac9062001f3a565b90815260200160405180910390209080519060200190620002cf92919062001a96565b506040518060800160405280604a815260200162002c43604a91396000604051620002fa9062001f06565b908152602001604051809103902090805190602001906200031d92919062001a96565b5060405180606001604052806040815260200162003108604091396000604051620003489062001bda565b908152602001604051809103902090805190602001906200036b92919062001a96565b50604051806080016040528060438152602001620031be604391396000604051620003969062001c35565b90815260200160405180910390209080519060200190620003b992919062001a96565b506040518060600160405280602b815260200162002b43602b91396000604051620003e49062001bcd565b908152602001604051809103902090805190602001906200040792919062001a96565b5060405180606001604052806036815260200162003371603691396000604051620004329062001d53565b908152602001604051809103902090805190602001906200045592919062001a96565b5060405180606001604052806035815260200162002acd603591396000604051620004809062001cd1565b90815260200160405180910390209080519060200190620004a392919062001a96565b506040518060600160405280602f815260200162003463602f91396000604051620004ce9062001f47565b90815260200160405180910390209080519060200190620004f192919062001a96565b5060405180606001604052806033815260200162002fdf6033913960006040516200051c9062001c01565b908152602001604051809103902090805190602001906200053f92919062001a96565b506040518060600160405280602f815260200162002b6e602f913960006040516200056a9062001c5c565b908152602001604051809103902090805190602001906200058d92919062001a96565b5060405180606001604052806035815260200162003249603591396000604051620005b89062001def565b90815260200160405180910390209080519060200190620005db92919062001a96565b5060405180606001604052806033815260200162002bd8603391396000604051620006069062001dfc565b908152602001604051809103902090805190602001906200062992919062001a96565b506040518060600160405280603b815260200162002e2c603b91396000604051620006549062001e09565b908152602001604051809103902090805190602001906200067792919062001a96565b5060405180606001604052806021815260200162002f33602191396000604051620006a29062001dd5565b90815260200160405180910390209080519060200190620006c592919062001a96565b5060405180608001604052806057815260200162002f54605791396000604051620006f09062001dae565b908152602001604051809103902090805190602001906200071392919062001a96565b50604051806080016040528060438152602001620032db6043913960006040516200073e9062001d94565b908152602001604051809103902090805190602001906200076192919062001a96565b5060405180606001604052806036815260200162002cec6036913960006040516200078c9062001eb8565b90815260200160405180910390209080519060200190620007af92919062001a96565b50604051806080016040528060428152602001620033a7604291396000604051620007da9062001d87565b90815260200160405180910390209080519060200190620007fd92919062001a96565b506040518060600160405280603a815260200162002997603a91396000604051620008289062001faf565b908152602001604051809103902090805190602001906200084b92919062001a96565b506040518060800160405280604a815260200162003174604a91396000604051620008769062001f61565b908152602001604051809103902090805190602001906200089992919062001a96565b5060405180608001604052806047815260200162003575604791396000604051620008c49062001e6a565b90815260200160405180910390209080519060200190620008e792919062001a96565b506040518060600160405280602f815260200162002f04602f91396000604051620009129062001dc8565b908152602001604051809103902090805190602001906200093592919062001a96565b50604051806060016040528060318152602001620035bc603191396000604051620009609062001c83565b908152602001604051809103902090805190602001906200098392919062001a96565b506040518060600160405280603b81526020016200353a603b91396000604051620009ae9062001f7b565b90815260200160405180910390209080519060200190620009d192919062001a96565b506040518060800160405280605d81526020016200327e605d91396000604051620009fc9062001ef9565b9081526020016040518091039020908051906020019062000a1f92919062001a96565b506040518060800160405280605381526020016200331e60539139600060405162000a4a9062001d05565b9081526020016040518091039020908051906020019062000a6d92919062001a96565b506040518060600160405280603b815260200162002a68603b9139600060405162000a989062001e23565b9081526020016040518091039020908051906020019062000abb92919062001a96565b506040518060800160405280605381526020016200301260539139600060405162000ae69062001da1565b9081526020016040518091039020908051906020019062000b0992919062001a96565b50600060405162000b1a9062001bda565b9081526020016040518091039020600060405162000b389062001c90565b908152602001604051809103902090805462000b549062001fbc565b62000b6192919062001b25565b50600060405162000b729062001c35565b9081526020016040518091039020600060405162000b909062001eab565b908152602001604051809103902090805462000bac9062001fbc565b62000bb992919062001b25565b50600060405162000bca9062001bcd565b9081526020016040518091039020600060405162000be89062001c0e565b908152602001604051809103902090805462000c049062001fbc565b62000c1192919062001b25565b50600060405162000c229062001d53565b9081526020016040518091039020600060405162000c409062001f88565b908152602001604051809103902090805462000c5c9062001fbc565b62000c6992919062001b25565b50600060405162000c7a9062001cd1565b9081526020016040518091039020600060405162000c989062001e5d565b908152602001604051809103902090805462000cb49062001fbc565b62000cc192919062001b25565b50600060405162000cd29062001f47565b9081526020016040518091039020600060405162000cf09062001eec565b908152602001604051809103902090805462000d0c9062001fbc565b62000d1992919062001b25565b50600060405162000d2a9062001c01565b9081526020016040518091039020600060405162000d489062001c28565b908152602001604051809103902090805462000d649062001fbc565b62000d7192919062001b25565b50600060405162000d829062001c5c565b9081526020016040518091039020600060405162000da09062001e50565b908152602001604051809103902090805462000dbc9062001fbc565b62000dc992919062001b25565b50600060405162000dda9062001def565b9081526020016040518091039020600060405162000df89062001f54565b908152602001604051809103902090805462000e149062001fbc565b62000e2192919062001b25565b50600060405162000e329062001dfc565b9081526020016040518091039020600060405162000e509062001e9e565b908152602001604051809103902090805462000e6c9062001fbc565b62000e7992919062001b25565b50600060405162000e8a9062001e09565b9081526020016040518091039020600060405162000ea89062001fa2565b908152602001604051809103902090805462000ec49062001fbc565b62000ed192919062001b25565b50600060405162000ee29062001dd5565b9081526020016040518091039020600060405162000f009062001d46565b908152602001604051809103902090805462000f1c9062001fbc565b62000f2992919062001b25565b50600060405162000f3a9062001dae565b9081526020016040518091039020600060405162000f589062001f20565b908152602001604051809103902090805462000f749062001fbc565b62000f8192919062001b25565b50600060405162000f929062001d94565b9081526020016040518091039020600060405162000fb09062001cde565b908152602001604051809103902090805462000fcc9062001fbc565b62000fd992919062001b25565b50600060405162000fea9062001eb8565b90815260200160405180910390206000604051620010089062001cf8565b9081526020016040518091039020908054620010249062001fbc565b6200103192919062001b25565b506000604051620010429062001d87565b90815260200160405180910390206000604051620010609062001c42565b90815260200160405180910390209080546200107c9062001fbc565b6200108992919062001b25565b5060006040516200109a9062001faf565b90815260200160405180910390206000604051620010b89062001caa565b9081526020016040518091039020908054620010d49062001fbc565b620010e192919062001b25565b506000604051620010f29062001f61565b90815260200160405180910390206000604051620011109062001cb7565b90815260200160405180910390209080546200112c9062001fbc565b6200113992919062001b25565b5060006040516200114a9062001e6a565b90815260200160405180910390206000604051620011689062001d1f565b9081526020016040518091039020908054620011849062001fbc565b6200119192919062001b25565b506000604051620011a29062001dc8565b90815260200160405180910390206000604051620011c09062001ed2565b9081526020016040518091039020908054620011dc9062001fbc565b620011e992919062001b25565b506000604051620011fa9062001c83565b90815260200160405180910390206000604051620012189062001c76565b9081526020016040518091039020908054620012349062001fbc565b6200124192919062001b25565b506000604051620012529062001f7b565b90815260200160405180910390206000604051620012709062001e43565b90815260200160405180910390209080546200128c9062001fbc565b6200129992919062001b25565b506000604051620012aa9062001ef9565b90815260200160405180910390206000604051620012c89062001bc0565b9081526020016040518091039020908054620012e49062001fbc565b620012f192919062001b25565b506000604051620013029062001d05565b90815260200160405180910390206000604051620013209062001d7a565b90815260200160405180910390209080546200133c9062001fbc565b6200134992919062001b25565b5060006040516200135a9062001e23565b90815260200160405180910390206000604051620013789062001dbb565b9081526020016040518091039020908054620013949062001fbc565b620013a192919062001b25565b506000604051620013b29062001da1565b90815260200160405180910390206000604051620013d09062001cc4565b9081526020016040518091039020908054620013ec9062001fbc565b620013f992919062001b25565b50604051806080016040528060538152602001620029d1605391396000604051620014249062001bf4565b908152602001604051809103902090805190602001906200144792919062001a96565b506040518060600160405280602c815260200162003148602c91396000604051620014729062001f95565b908152602001604051809103902090805190602001906200149592919062001a96565b506040518060a001604052806075815260200162003093607591396000604051620014c09062001de2565b90815260200160405180910390209080519060200190620014e392919062001a96565b50604051806080016040528060598152602001620034926059913960006040516200150e9062001f6e565b908152602001604051809103902090805190602001906200153192919062001a96565b50604051806080016040528060488152602001620032016048913960006040516200155c9062001c9d565b908152602001604051809103902090805190602001906200157f92919062001a96565b5060405180608001604052806044815260200162002de8604491396000604051620015aa9062001d60565b90815260200160405180910390209080519060200190620015cd92919062001a96565b506040518060600160405280602e815260200162003065602e91396000604051620015f89062001e16565b908152602001604051809103902090805190602001906200161b92919062001a96565b506040518060600160405280603b815260200162002d86603b91396000604051620016469062001d39565b908152602001604051809103902090805190602001906200166992919062001a96565b506040518060600160405280602a815260200162002aa3602a91396000604051620016949062001c69565b90815260200160405180910390209080519060200190620016b792919062001a96565b5060405180606001604052806034815260200162002fab603491396000604051620016e29062001d12565b908152602001604051809103902090805190602001906200170592919062001a96565b506040518060600160405280603b815260200162002e67603b91396000604051620017309062001d6d565b908152602001604051809103902090805190602001906200175392919062001a96565b506040518060400160405280601f81526020017f3c7061746820643d274d3020334c3020324c33203256334c3020335a272f3e0081525060006040516200179a9062001f13565b90815260200160405180910390209080519060200190620017bd92919062001a96565b506040518060a00160405280607a8152602001620033e9607a91396000604051620017e89062001e91565b908152602001604051809103902090805190602001906200180b92919062001a96565b506040518060a001604052806062815260200162002ea2606291396000604051620018369062001e77565b908152602001604051809103902090805190602001906200185992919062001a96565b506040518060200160405280600081525060006040516200187a9062001d2c565b908152602001604051809103902090805190602001906200189d92919062001a96565b5060036001604051620018b09062001e30565b908152602001604051809103902081905550600180604051620018d39062001d2c565b908152602001604051809103902081905550600180604051620018f69062001d60565b908152602001604051809103902081905550600180604051620019199062001e16565b9081526020016040518091039020819055506001806040516200193c9062001c69565b90815260200160405180910390208190555060026001604051620019609062001c9d565b90815260200160405180910390208190555060026001604051620019849062001d39565b90815260200160405180910390208190555060046001604051620019a89062001d94565b90815260200160405180910390208190555060046001604051620019cc9062001cde565b90815260200160405180910390208190555060056001604051620019f09062001e77565b9081526020016040518091039020819055506005600160405162001a149062001dae565b9081526020016040518091039020819055506005600160405162001a389062001f20565b9081526020016040518091039020819055506005600160405162001a5c9062001ef9565b9081526020016040518091039020819055506005600160405162001a809062001bc0565b9081526040519081900360200190205562001ff9565b82805462001aa49062001fbc565b90600052602060002090601f01602090048101928262001ac8576000855562001b13565b82601f1062001ae357805160ff191683800117855562001b13565b8280016001018555821562001b13579182015b8281111562001b1357825182559160200191906001019062001af6565b5062001b2192915062001ba9565b5090565b82805462001b339062001fbc565b90600052602060002090601f01602090048101928262001b57576000855562001b13565b82601f1062001b6a578054855562001b13565b8280016001018555821562001b1357600052602060002091601f016020900482015b8281111562001b1357825482559160010191906001019062001b8c565b5b8082111562001b21576000815560010162001baa565b607760f81b815260010190565b604360f81b815260010190565b604160f81b815260010190565b600360fc1b815260010190565b601560f91b815260010190565b604760f81b815260010190565b606360f81b815260010190565b600d60fa1b815260010190565b606760f81b815260010190565b602160f91b815260010190565b600760fc1b815260010190565b603360f81b815260010190565b600960fb1b815260010190565b602160f81b815260010190565b607560f81b815260010190565b605560f81b815260010190565b606160f81b815260010190565b600b60fa1b815260010190565b607160f81b815260010190565b603960f91b815260010190565b603d60f91b815260010190565b604560f81b815260010190565b603760f91b815260010190565b603760f81b815260010190565b606f60f81b815260010190565b600b60fb1b815260010190565b603f60f81b815260010190565b607360f81b815260010190565b600160fd1b815260010190565b603b60f81b815260010190565b601b60fa1b815260010190565b601160fa1b815260010190565b601760f91b815260010190565b602b60f81b815260010190565b600f60fb1b815260010190565b600560fc1b815260010190565b602760f91b815260010190565b602d60f91b815260010190565b604d60f81b815260010190565b607960f81b815260010190565b601560fa1b815260010190565b601360fa1b815260010190565b600f60fa1b815260010190565b604960f81b815260010190565b602560f91b815260010190565b604b60f81b815260010190565b601d60f91b815260010190565b605960f81b815260010190565b661111519055531560ca1b815260070190565b603b60f91b815260010190565b600d60fb1b815260010190565b606560f81b815260010190565b605360f81b815260010190565b602360f81b815260010190565b601960f91b815260010190565b600960fa1b815260010190565b603560f91b815260010190565b603160f91b815260010190565b604f60f81b815260010190565b603160f81b815260010190565b601d60fa1b815260010190565b603560f81b815260010190565b603360f91b815260010190565b605760f81b815260010190565b603960f81b815260010190565b602d60f81b815260010190565b606d60f81b815260010190565b601b60f91b815260010190565b600760fb1b815260010190565b602360f91b815260010190565b606960f81b815260010190565b602960f91b815260010190565b601f60f91b815260010190565b602b60f91b815260010190565b601960fa1b815260010190565b603d60f81b815260010190565b606b60f81b815260010190565b605160f81b815260010190565b60028104600182168062001fd157607f821691505b6020821081141562001ff357634e487b7160e01b600052602260045260246000fd5b50919050565b61098e80620020096000396000f3fe608060405234801561001057600080fd5b506004361061002b5760003560e01c8063671639c114610030575b600080fd5b61004361003e3660046104f3565b610059565b6040516100509190610806565b60405180910390f35b60408051602081019091526000808252606091815b8751811015610209576000610083898361026c565b90506000808260405161009691906105b9565b908152602001604051809103902080546100af906108ac565b80601f01602080910402602001604051908101604052809291908181526020018280546100db906108ac565b80156101285780601f106100fd57610100808354040283529160200191610128565b820191906000526020600020905b81548152906001019060200180831161010b57829003601f168201915b50505050509050600060018360405161014191906105b9565b9081526020016040518091039020546000141561017a5760016040516101669061067d565b90815260200160405180910390205461019a565b60018360405161018a91906105b9565b9081526020016040518091039020545b905060008251116101ad575050506101f7565b846101b787610313565b836040516020016101ca939291906105d5565b60408051601f198184030181529190529450886101e78288610839565b6101f19190610839565b95505050505b80610201816108e7565b91505061006e565b506000610217600284610851565b610222906064610865565b9050600061022f82610313565b61023887610313565b898b8660405160200161024f9594939291906106a6565b60408051808303601f190181529190529998505050505050505050565b604080516001808252818301909252606091600091906020820181803683370190505090508383815181106102b157634e487b7160e01b600052603260045260246000fd5b602001015160f81c60f81b816000815181106102dd57634e487b7160e01b600052603260045260246000fd5b60200101907effffffffffffffffffffffffffffffffffffffffffffffffffffffffffffff1916908160001a9053509392505050565b606081610354575060408051808201909152600181527f30000000000000000000000000000000000000000000000000000000000000006020820152610467565b8160005b811561037e5780610368816108e7565b91506103779050600a83610851565b9150610358565b60008167ffffffffffffffff8111156103a757634e487b7160e01b600052604160045260246000fd5b6040519080825280601f01601f1916602001820160405280156103d1576020820181803683370190505b5090505b8415610462576103e6600183610865565b91506103f3600a86610902565b6103fe906030610839565b60f81b81838151811061042157634e487b7160e01b600052603260045260246000fd5b60200101907effffffffffffffffffffffffffffffffffffffffffffffffffffffffffffff1916908160001a90535061045b600a86610851565b94506103d5565b925050505b919050565b600082601f83011261047c578081fd5b813567ffffffffffffffff8082111561049757610497610942565b604051601f8301601f19908116603f011681019082821181831017156104bf576104bf610942565b816040528381528660208588010111156104d7578485fd5b8360208701602083013792830160200193909352509392505050565b60008060008060808587031215610508578384fd5b843567ffffffffffffffff8082111561051f578586fd5b61052b8883890161046c565b95506020870135915080821115610540578485fd5b5061054d8782880161046c565b949794965050505060408301359260600135919050565b6000815161057681856020860161087c565b9290920192915050565b631e17b39f60e11b815260040190565b7f273e000000000000000000000000000000000000000000000000000000000000815260020190565b600082516105cb81846020870161087c565b9190910192915050565b600084516105e781846020890161087c565b7f3c67207472616e73666f726d3d277472616e736c617465280000000000000000908301908152845161062181601884016020890161087c565b7f29273e000000000000000000000000000000000000000000000000000000000060189290910191820152835161065f81601b84016020880161087c565b631e17b39f60e11b601b9290910191820152601f0195945050505050565b7f44454641554c5400000000000000000000000000000000000000000000000000815260070190565b60007f3c6720207472616e73666f726d3d277363616c6528302e3529207472616e736c82527f617465280000000000000000000000000000000000000000000000000000000060208301528651610704816024850160208b0161087c565b7f2c000000000000000000000000000000000000000000000000000000000000006024918401918201528651610741816025840160208b0161087c565b7f29272066696c6c3d27000000000000000000000000000000000000000000000060259290910191820152855161077f81602e840160208a0161087c565b6024818301019150507f272066696c6c2d72756c653d276576656e6f64642720636c69702d72756c653d600a8201527f276576656e6f64642720617269612d6c6162656c3d2700000000000000000000602a8201526107fa6107f56107ef6107ea6040850189610564565b610590565b86610564565b610580565b98975050505050505050565b600060208252825180602084015261082581604085016020870161087c565b601f01601f19169190910160400192915050565b6000821982111561084c5761084c610916565b500190565b6000826108605761086061092c565b500490565b60008282101561087757610877610916565b500390565b60005b8381101561089757818101518382015260200161087f565b838111156108a6576000848401525b50505050565b6002810460018216806108c057607f821691505b602082108114156108e157634e487b7160e01b600052602260045260246000fd5b50919050565b60006000198214156108fb576108fb610916565b5060010190565b6000826109115761091161092c565b500690565b634e487b7160e01b600052601160045260246000fd5b634e487b7160e01b600052601260045260246000fd5b634e487b7160e01b600052604160045260246000fdfea26469706673582212208279a9b3e23e213bf8a50ca839d397b299c1771d5d06b3a2c8b16830cf76bd0464736f6c634300080100333c7061746820643d274d302035483148324c32203448334c33203048324831483056355a4d3120344c3120314c3220314c32203448315a272f3e3c7061746820643d274d302032563148314c3120324c3020325a4d3220324c3120325633483056344c31203456334c32203356344c33203456334c32203356325a4d3220324c3320325631483256325a272f3e3c7061746820643d274d31203148324c32203448314c3120315a4d3120314830563448314c31203548324c32203448334c33203148324c32203048314c3120315a272f3e3c7061746820643d274d3120334830563048314c3120335a4d3220334831563548324c3220335a4d3220334c32203048334c33203348325a272f3e3c7061746820643d274d30203348314c312030483056335a4d30203548314c312034483056355a272f3e3c7061746820643d274d3120304830563156345635483148335634483156334832563248314c3120314c332031563048315a272f3e3c7061746820643d274d3220314830563048334c3320314c3320334c3220334c3120334c31203448334c33203548305634563356324c3220324c3220315a272f3e3c7061746820643d274d3020304831483356314c312031563448335635483148305634563156305a272f3e3c7061746820643d274d30203048314c3120324832563048335632563356354832563348315635483056305a272f3e3c7061746820643d274d33203548324c32203348314c3020335632563048314c3120324c3220324c32203048334c3320324c33203356355a272f3e3c7061746820643d274d302030483248335631563456354832483148305634563348315634483256314c30203156305a272f3e3c7061746820643d274d30203048314833563148315632483256334831483056305a4d32203348335634563548305634483256335a272f3e3c7061746820643d274d3120314c32203156324c3120324c3120315a4d312030483248334c3320314c3320324c332033563548324c32203348314c30203356325631563048315a272f3e3c7061746820643d274d3220314c3120314c3120324c32203256315a4d32203048334c3320314c3320324c3320334c3320344c33203548324831483056345633563256315630483148325a4d32203456334c3120334c31203448325a272f3e3c7061746820643d274d3020354831483248334c33203048324831483056355a4d3220344c3220314c3120314c31203448325a272f3e3c7061746820643d274d302030563148315635483256315630483148305a272f3e3c7061746820643d274d3320314c3320304832483056314c32203156324c30203256334c322033563448305635483248334c3320344c3320334c33203256315a272f3e3c7061746820643d274d3120324c312031483256324c3120325a4d3120354c312033483256354c3120355a4d31203556364830563548315a272f3e3c7061746820643d274d3320314c3320304832483056314c3220314c322035483356315a272f3e3c7265637420783d27312720793d2735272077696474683d273127206865696768743d273127207472616e73666f726d3d27726f74617465283138302031203529272f3e3c7061746820643d274d3120304830563256335635483156334832563548334c3320334832563248334c33203048324c322032483156305a272f3e3c7061746820643d274d32203148314c3120324c30203256334c3120334c3120344c3220344c3220334c33203356324c3220324c3220315a272f3e3c7061746820643d274d31203548324c3220344833563548345634483556334834563248355631483456304833563148324c32203048314c3120314830563248314c3120334830563448314c3120355a4d33203248324c322033483356325a272f3e3c7061746820643d274d3320314c33203048324831483056314c3120314c31203548324c3220314c3320315a272f3e3c7061746820643d274d312030483056345635483148335634483156305a272f3e3c7061746820643d274d3120354830563048314c3120314c32203156324c3120324c3120355a4d332032563348324c3220324c3320325a4d3320324c3320314c3420314c34203048354c3520354834563248335a272f3e3c7061746820643d274d322030483056314832563248315633483256324833563048325a4d32203448315635483256345a272f3e3c7061746820643d274d302031563456354831483248335634563248325634483156314c33203156304831483056315a272f3e3c7061746820643d274d3220314830563048334c3320314c3320324c3220324c3220315a4d3120334c3120324c3220324c32203348315a4d3120334c31203448334c3320354830563456334c3120335a272f3e3c7061746820643d274d30203156324c3120324c31203148305a4d30203356344c3120344c31203348305a272f3e3c7061746820643d274d3120344c3020344c3020354c3120354c3120345a4d3220334c3220344c3120344c3120334c3220335a4d3220324c3220334c3320334c3320324c3220325a4d3120314c3120324c3220324c3220314c3120315a4d3120314c3120304c3020304c3020314c3120315a272f3e3c7061746820643d274d3020335635483156334c3220335635483356335632563156304832483148305631563256335a4d31203248325631483156325a272f3e3c7061746820643d274d30203156324c332032563148305a4d30203356344c33203456334c3020335a272f3e3c7061746820643d274d31203548305630483148334c33203156324c3220324c3220314c31203156324c3220324c322033483156355a4d32203348334c33203548324c3220335a272f3e3c7061746820643d274d3120304830563548314832483356334832563248335630483248315a4d32203248315631483256325a4d32203456334831563448325a272f3e3c70617468207472616e73666f726d3d277472616e736c61746528302c2031292720643d274d31203448324c32203348314c3120345a4d3120344830563548314c3120345a272f3e3c7061746820643d274d302031563048314832483356314c3220315634483356354832483148305634483156314c3020315a272f3e3c7061746820643d274d3420304c3520304c35203548344c34203448335633483456305a204d3220334c32203248334c3320334c3220335a204d3220334c3220344c3120344c31203548304c3020304c3120304c31203348325a272f3e3c7061746820643d274d30203048315635483056305a204d31203148325633483156315a204d32203248335634483256325a204d33203048345635483356305a272f3e3c7061746820643d274d3120324830563048314c3120325a4d32203248314c3120334830563548314c31203348324c32203548334c33203348324c3220325a4d3220324c32203048334c33203248325a272f3e3c7061746820643d274d302031563456354831483248335631483256304831483056315a4d32203456314c312031563448325a272f3e3c7061746820643d274d30203548314c3120334c3320334c3320324c3320314c3320304831483056355a4d3220314c3120314c3120324c3220324c3220315a272f3e3c70617468207472616e73666f726d3d277472616e736c61746528302c202d31292720643d274d3120314c31203048324c32203148334c3320324c3120324c3120334c32203348334c3320344c332035563648324c32203748314c312036483056354c3220354c3220344c312034483056314c3120315a272f3e3c7061746820643d274d3020304831483356314c31203156324832563348315635483056335632563156305a272f3e3c7061746820643d274d32203148334c332030483256315a4d3120324c3120314832563248315a4d3120334c3120324830563348315a4d3220344c32203348314c31203448325a4d322034563548334c33203448325a272f3e3c7061746820643d274d30203456335632563048302e3939393939394c31203248324c3320324c3320334c3320344c33203548324831483056345a4d32203456334c3120334c31203448325a272f3e3c7061746820643d274d3120344830563048314c3120345a4d3220344831563548324c3220345a4d3220344c32203048334c33203448325a272f3e3c7061746820643d274d31203348305630483148334c3320314c3120314c3120324c32203248334c3320334c33203456354832483056344c3220344c3220334c3120335a272f3e3c7061746820643d274d31203548305634563048314c3120344c3220344c32203048334c3320345635483248315a272f3e",
  "linkReferences": {},
  "deployedLinkReferences": {}
}