{
  "_format": "hh-sol-artifact-1",
  "contractName": "WriteSVG",
  "sourceName": "contracts/WriteSVG.sol",
  "abi": [
    {
      "inputs": [],
      "stateMutability": "nonpayable",
      "type": "constructor"
    },
    {
      "inputs": [
        {
          "internalType": "string",
          "name": "text",
          "type": "string"
        },
        {
          "internalType": "string",
          "name": "color",
          "type": "string"
        },
        {
          "internalType": "uint256",
          "name": "spacing",
          "type": "uint256"
        },
        {
          "internalType": "uint256",
          "name": "y",
          "type": "uint256"
        }
      ],
      "name": "write",
      "outputs": [
        {
          "internalType": "string",
          "name": "",
          "type": "string"
        }
      ],
      "stateMutability": "view",
      "type": "function"
    }
  ],
  "bytecode": "0x60806040523480156200001157600080fd5b506040518060800160405280604481526020016200492a6044913960006040516200003c906200266b565b908152602001604051809103902090805190602001906200005f92919062001994565b5060405180606001604052806021815260200162004c286021913960006040516200008a9062002b73565b90815260200160405180910390209080519060200190620000ad92919062001994565b5060405180608001604052806041815260200162004a08604191396000604051620000d89062002b00565b90815260200160405180910390209080519060200190620000fb92919062001994565b5060405180608001604052806043815260200162004c49604391396000604051620001269062002723565b908152602001604051809103902090805190602001906200014992919062001994565b506040518060600160405280603b815260200162004aa3603b913960006040516200017490620026c7565b908152602001604051809103902090805190602001906200019792919062001994565b5060405180606001604052806038815260200162004b11603891396000604051620001c29062002ba1565b90815260200160405180910390209080519060200190620001e592919062001994565b506040518060800160405280604f8152602001620053f1604f91396000604051620002109062002c2b565b908152602001604051809103902090805190602001906200023392919062001994565b5060405180606001604052806027815260200162004cc76027913960006040516200025e9062002837565b908152602001604051809103902090805190602001906200028192919062001994565b506040518060800160405280605f815260200162004b93605f91396000604051620002ac9062002c42565b90815260200160405180910390209080519060200190620002cf92919062001994565b506040518060800160405280604a815260200162004b49604a91396000604051620002fa9062002be6565b908152602001604051809103902090805190602001906200031d92919062001994565b506040518060600160405280604081526020016200500e604091396000604051620003489062002654565b908152602001604051809103902090805190602001906200036b92919062001994565b50604051806080016040528060438152602001620050c46043913960006040516200039690620026f5565b90815260200160405180910390209080519060200190620003b992919062001994565b506040518060600160405280602b815260200162004a49602b91396000604051620003e4906200263d565b908152602001604051809103902090805190602001906200040792919062001994565b50604051806060016040528060368152602001620052776036913960006040516200043290620028ef565b908152602001604051809103902090805190602001906200045592919062001994565b50604051806060016040528060358152602001620049d3603591396000604051620004809062002809565b90815260200160405180910390209080519060200190620004a392919062001994565b506040518060600160405280602f815260200162005369602f91396000604051620004ce9062002c59565b90815260200160405180910390209080519060200190620004f192919062001994565b5060405180606001604052806033815260200162004ee56033913960006040516200051c9062002699565b908152602001604051809103902090805190602001906200053f92919062001994565b506040518060600160405280602f815260200162004a74602f913960006040516200056a906200273a565b908152602001604051809103902090805190602001906200058d92919062001994565b506040518060600160405280603581526020016200514f603591396000604051620005b89062002a03565b90815260200160405180910390209080519060200190620005db92919062001994565b5060405180606001604052806033815260200162004ade603391396000604051620006069062002a1a565b908152602001604051809103902090805190602001906200062992919062001994565b506040518060600160405280603b815260200162004d32603b91396000604051620006549062002a31565b908152602001604051809103902090805190602001906200067792919062001994565b5060405180606001604052806021815260200162004e39602191396000604051620006a290620029d5565b90815260200160405180910390209080519060200190620006c592919062001994565b5060405180608001604052806057815260200162004e5a605791396000604051620006f09062002990565b908152602001604051809103902090805190602001906200071392919062001994565b50604051806080016040528060438152602001620051e16043913960006040516200073e9062002962565b908152602001604051809103902090805190602001906200076192919062001994565b5060405180606001604052806036815260200162004bf26036913960006040516200078c9062002b5c565b90815260200160405180910390209080519060200190620007af92919062001994565b50604051806080016040528060428152602001620052ad604291396000604051620007da906200294b565b90815260200160405180910390209080519060200190620007fd92919062001994565b506040518060600160405280603a81526020016200489d603a91396000604051620008289062002d11565b908152602001604051809103902090805190602001906200084b92919062001994565b506040518060800160405280604a81526020016200507a604a91396000604051620008769062002c87565b908152602001604051809103902090805190602001906200089992919062001994565b506040518060800160405280604781526020016200547b604791396000604051620008c49062002ad2565b90815260200160405180910390209080519060200190620008e792919062001994565b506040518060600160405280602f815260200162004e0a602f913960006040516200091290620029be565b908152602001604051809103902090805190602001906200093592919062001994565b50604051806060016040528060318152602001620054c260319139600060405162000960906200277f565b908152602001604051809103902090805190602001906200098392919062001994565b506040518060600160405280603b815260200162005440603b91396000604051620009ae9062002cb5565b90815260200160405180910390209080519060200190620009d192919062001994565b506040518060800160405280605d815260200162005184605d91396000604051620009fc9062002bcf565b9081526020016040518091039020908051906020019062000a1f92919062001994565b506040518060800160405280605381526020016200522460539139600060405162000a4a9062002865565b9081526020016040518091039020908051906020019062000a6d92919062001994565b506040518060600160405280603b81526020016200496e603b9139600060405162000a989062002a5f565b9081526020016040518091039020908051906020019062000abb92919062001994565b5060405180608001604052806053815260200162004f1860539139600060405162000ae69062002979565b9081526020016040518091039020908051906020019062000b0992919062001994565b50604051806080016040528060538152602001620048d760539139600060405162000b349062002682565b9081526020016040518091039020908051906020019062000b5792919062001994565b506040518060600160405280602c81526020016200504e602c9139600060405162000b829062002ce3565b9081526020016040518091039020908051906020019062000ba592919062001994565b506040518060a001604052806075815260200162004f9960759139600060405162000bd090620029ec565b9081526020016040518091039020908051906020019062000bf392919062001994565b506040518060800160405280605981526020016200539860599139600060405162000c1e9062002c9e565b9081526020016040518091039020908051906020019062000c4192919062001994565b506040518060800160405280604881526020016200510760489139600060405162000c6c90620027ad565b9081526020016040518091039020908051906020019062000c8f92919062001994565b5060405180608001604052806044815260200162004cee60449139600060405162000cba9062002906565b9081526020016040518091039020908051906020019062000cdd92919062001994565b506040518060600160405280602e815260200162004f6b602e9139600060405162000d089062002a48565b9081526020016040518091039020908051906020019062000d2b92919062001994565b506040518060600160405280603b815260200162004c8c603b9139600060405162000d5690620028c1565b9081526020016040518091039020908051906020019062000d7992919062001994565b506040518060600160405280602a8152602001620049a9602a9139600060405162000da49062002751565b9081526020016040518091039020908051906020019062000dc792919062001994565b5060405180606001604052806034815260200162004eb160349139600060405162000df2906200287c565b9081526020016040518091039020908051906020019062000e1592919062001994565b506040518060600160405280603b815260200162004d6d603b9139600060405162000e40906200291d565b9081526020016040518091039020908051906020019062000e6392919062001994565b506040518060400160405280601f81526020017f3c7061746820643d274d3020334c3020324c33203256334c3020335a272f3e00815250600060405162000eaa9062002bfd565b9081526020016040518091039020908051906020019062000ecd92919062001994565b506040518060a00160405280607a8152602001620052ef607a9139600060405162000ef89062002b17565b9081526020016040518091039020908051906020019062000f1b92919062001994565b506040518060a001604052806062815260200162004da860629139600060405162000f469062002ae9565b9081526020016040518091039020908051906020019062000f6992919062001994565b5060405180602001604052806000815250600060405162000f8a90620028aa565b9081526020016040518091039020908051906020019062000fad92919062001994565b506040518060600160405280604081526020016200500e60409139600060405162000fd89062002796565b9081526020016040518091039020908051906020019062000ffb92919062001994565b50604051806080016040528060438152602001620050c4604391396000604051620010269062002b45565b908152602001604051809103902090805190602001906200104992919062001994565b506040518060600160405280602b815260200162004a49602b913960006040516200107490620026b0565b908152602001604051809103902090805190602001906200109792919062001994565b5060405180606001604052806036815260200162005277603691396000604051620010c29062002ccc565b90815260200160405180910390209080519060200190620010e592919062001994565b50604051806060016040528060358152602001620049d3603591396000604051620011109062002abb565b908152602001604051809103902090805190602001906200113392919062001994565b506040518060600160405280602f815260200162005369602f913960006040516200115e9062002bb8565b908152602001604051809103902090805190602001906200118192919062001994565b5060405180606001604052806033815260200162004ee5603391396000604051620011ac90620026de565b90815260200160405180910390209080519060200190620011cf92919062001994565b506040518060600160405280602f815260200162004a74602f91396000604051620011fa9062002aa4565b908152602001604051809103902090805190602001906200121d92919062001994565b506040518060600160405280603581526020016200514f603591396000604051620012489062002c70565b908152602001604051809103902090805190602001906200126b92919062001994565b5060405180606001604052806033815260200162004ade603391396000604051620012969062002b2e565b90815260200160405180910390209080519060200190620012b992919062001994565b506040518060600160405280603b815260200162004d32603b91396000604051620012e49062002cfa565b908152602001604051809103902090805190602001906200130792919062001994565b5060405180606001604052806021815260200162004e396021913960006040516200133290620028d8565b908152602001604051809103902090805190602001906200135592919062001994565b5060405180608001604052806057815260200162004e5a605791396000604051620013809062002c14565b90815260200160405180910390209080519060200190620013a392919062001994565b50604051806080016040528060438152602001620051e1604391396000604051620013ce9062002820565b90815260200160405180910390209080519060200190620013f192919062001994565b5060405180606001604052806036815260200162004bf26036913960006040516200141c906200284e565b908152602001604051809103902090805190602001906200143f92919062001994565b50604051806080016040528060428152602001620052ad6042913960006040516200146a906200270c565b908152602001604051809103902090805190602001906200148d92919062001994565b506040518060600160405280603a81526020016200489d603a91396000604051620014b890620027c4565b90815260200160405180910390209080519060200190620014db92919062001994565b506040518060800160405280604a81526020016200507a604a913960006040516200150690620027db565b908152602001604051809103902090805190602001906200152992919062001994565b506040518060800160405280604781526020016200547b604791396000604051620015549062002893565b908152602001604051809103902090805190602001906200157792919062001994565b506040518060600160405280602f815260200162004e0a602f91396000604051620015a29062002b8a565b90815260200160405180910390209080519060200190620015c592919062001994565b50604051806060016040528060318152602001620054c2603191396000604051620015f09062002768565b908152602001604051809103902090805190602001906200161392919062001994565b506040518060600160405280603b815260200162005440603b913960006040516200163e9062002a8d565b908152602001604051809103902090805190602001906200166192919062001994565b506040518060800160405280605d815260200162005184605d913960006040516200168c9062002626565b90815260200160405180910390209080519060200190620016af92919062001994565b5060405180608001604052806053815260200162005224605391396000604051620016da9062002934565b90815260200160405180910390209080519060200190620016fd92919062001994565b506040518060600160405280603b81526020016200496e603b913960006040516200172890620029a7565b908152602001604051809103902090805190602001906200174b92919062001994565b5060405180608001604052806053815260200162004f186053913960006040516200177690620027f2565b908152602001604051809103902090805190602001906200179992919062001994565b5060036001604051620017ac9062002a76565b908152602001604051809103902081905550600180604051620017cf90620028aa565b908152602001604051809103902081905550600180604051620017f29062002906565b908152602001604051809103902081905550600180604051620018159062002a48565b908152602001604051809103902081905550600180604051620018389062002751565b908152602001604051809103902081905550600260016040516200185c90620027ad565b908152602001604051809103902081905550600260016040516200188090620028c1565b90815260200160405180910390208190555060046001604051620018a49062002962565b90815260200160405180910390208190555060046001604051620018c89062002820565b90815260200160405180910390208190555060056001604051620018ec9062002ae9565b90815260200160405180910390208190555060056001604051620019109062002990565b90815260200160405180910390208190555060056001604051620019349062002c14565b90815260200160405180910390208190555060056001604051620019589062002bcf565b908152602001604051809103902081905550600560016040516200197c9062002626565b90815260200160405180910390208190555062003a16565b828054620019a29062002d33565b90600052602060002090601f016020900481019282620019c6576000855562001a12565b82601f10620019e157805160ff191683800117855562001a12565b8280016001018555821562001a12579182015b8281111562001a11578251825591602001919060010190620019f4565b5b50905062001a21919062001a25565b5090565b5b8082111562001a4057600081600090555060010162001a26565b5090565b600062001a5360018362002d28565b915062001a608262002d98565b600182019050919050565b600062001a7a60018362002d28565b915062001a878262002dc1565b600182019050919050565b600062001aa160018362002d28565b915062001aae8262002dea565b600182019050919050565b600062001ac860018362002d28565b915062001ad58262002e13565b600182019050919050565b600062001aef60018362002d28565b915062001afc8262002e3c565b600182019050919050565b600062001b1660018362002d28565b915062001b238262002e65565b600182019050919050565b600062001b3d60018362002d28565b915062001b4a8262002e8e565b600182019050919050565b600062001b6460018362002d28565b915062001b718262002eb7565b600182019050919050565b600062001b8b60018362002d28565b915062001b988262002ee0565b600182019050919050565b600062001bb260018362002d28565b915062001bbf8262002f09565b600182019050919050565b600062001bd960018362002d28565b915062001be68262002f32565b600182019050919050565b600062001c0060018362002d28565b915062001c0d8262002f5b565b600182019050919050565b600062001c2760018362002d28565b915062001c348262002f84565b600182019050919050565b600062001c4e60018362002d28565b915062001c5b8262002fad565b600182019050919050565b600062001c7560018362002d28565b915062001c828262002fd6565b600182019050919050565b600062001c9c60018362002d28565b915062001ca98262002fff565b600182019050919050565b600062001cc360018362002d28565b915062001cd08262003028565b600182019050919050565b600062001cea60018362002d28565b915062001cf78262003051565b600182019050919050565b600062001d1160018362002d28565b915062001d1e826200307a565b600182019050919050565b600062001d3860018362002d28565b915062001d4582620030a3565b600182019050919050565b600062001d5f60018362002d28565b915062001d6c82620030cc565b600182019050919050565b600062001d8660018362002d28565b915062001d9382620030f5565b600182019050919050565b600062001dad60018362002d28565b915062001dba826200311e565b600182019050919050565b600062001dd460018362002d28565b915062001de18262003147565b600182019050919050565b600062001dfb60018362002d28565b915062001e088262003170565b600182019050919050565b600062001e2260018362002d28565b915062001e2f8262003199565b600182019050919050565b600062001e4960018362002d28565b915062001e5682620031c2565b600182019050919050565b600062001e7060018362002d28565b915062001e7d82620031eb565b600182019050919050565b600062001e9760018362002d28565b915062001ea48262003214565b600182019050919050565b600062001ebe60018362002d28565b915062001ecb826200323d565b600182019050919050565b600062001ee560018362002d28565b915062001ef28262003266565b600182019050919050565b600062001f0c60018362002d28565b915062001f19826200328f565b600182019050919050565b600062001f3360018362002d28565b915062001f4082620032b8565b600182019050919050565b600062001f5a60018362002d28565b915062001f6782620032e1565b600182019050919050565b600062001f8160018362002d28565b915062001f8e826200330a565b600182019050919050565b600062001fa860018362002d28565b915062001fb58262003333565b600182019050919050565b600062001fcf60018362002d28565b915062001fdc826200335c565b600182019050919050565b600062001ff660018362002d28565b9150620020038262003385565b600182019050919050565b60006200201d60018362002d28565b91506200202a82620033ae565b600182019050919050565b60006200204460018362002d28565b91506200205182620033d7565b600182019050919050565b60006200206b60018362002d28565b9150620020788262003400565b600182019050919050565b60006200209260018362002d28565b91506200209f8262003429565b600182019050919050565b6000620020b960018362002d28565b9150620020c68262003452565b600182019050919050565b6000620020e060018362002d28565b9150620020ed826200347b565b600182019050919050565b60006200210760018362002d28565b91506200211482620034a4565b600182019050919050565b60006200212e60018362002d28565b91506200213b82620034cd565b600182019050919050565b60006200215560018362002d28565b91506200216282620034f6565b600182019050919050565b60006200217c60018362002d28565b915062002189826200351f565b600182019050919050565b6000620021a360078362002d28565b9150620021b08262003548565b600782019050919050565b6000620021ca60018362002d28565b9150620021d78262003571565b600182019050919050565b6000620021f160018362002d28565b9150620021fe826200359a565b600182019050919050565b60006200221860018362002d28565b91506200222582620035c3565b600182019050919050565b60006200223f60018362002d28565b91506200224c82620035ec565b600182019050919050565b60006200226660018362002d28565b9150620022738262003615565b600182019050919050565b60006200228d60018362002d28565b91506200229a826200363e565b600182019050919050565b6000620022b460018362002d28565b9150620022c18262003667565b600182019050919050565b6000620022db60018362002d28565b9150620022e88262003690565b600182019050919050565b60006200230260018362002d28565b91506200230f82620036b9565b600182019050919050565b60006200232960018362002d28565b91506200233682620036e2565b600182019050919050565b60006200235060018362002d28565b91506200235d826200370b565b600182019050919050565b60006200237760018362002d28565b9150620023848262003734565b600182019050919050565b60006200239e60018362002d28565b9150620023ab826200375d565b600182019050919050565b6000620023c560018362002d28565b9150620023d28262003786565b600182019050919050565b6000620023ec60018362002d28565b9150620023f982620037af565b600182019050919050565b60006200241360018362002d28565b91506200242082620037d8565b600182019050919050565b60006200243a60018362002d28565b9150620024478262003801565b600182019050919050565b60006200246160018362002d28565b91506200246e826200382a565b600182019050919050565b60006200248860018362002d28565b9150620024958262003853565b600182019050919050565b6000620024af60018362002d28565b9150620024bc826200387c565b600182019050919050565b6000620024d660018362002d28565b9150620024e382620038a5565b600182019050919050565b6000620024fd60018362002d28565b91506200250a82620038ce565b600182019050919050565b60006200252460018362002d28565b91506200253182620038f7565b600182019050919050565b60006200254b60018362002d28565b9150620025588262003920565b600182019050919050565b60006200257260018362002d28565b91506200257f8262003949565b600182019050919050565b60006200259960018362002d28565b9150620025a68262003972565b600182019050919050565b6000620025c060018362002d28565b9150620025cd826200399b565b600182019050919050565b6000620025e760018362002d28565b9150620025f482620039c4565b600182019050919050565b60006200260e60018362002d28565b91506200261b82620039ed565b600182019050919050565b6000620026338262001a44565b9150819050919050565b60006200264a8262001a6b565b9150819050919050565b6000620026618262001a92565b9150819050919050565b6000620026788262001ab9565b9150819050919050565b60006200268f8262001ae0565b9150819050919050565b6000620026a68262001b07565b9150819050919050565b6000620026bd8262001b2e565b9150819050919050565b6000620026d48262001b55565b9150819050919050565b6000620026eb8262001b7c565b9150819050919050565b6000620027028262001ba3565b9150819050919050565b6000620027198262001bca565b9150819050919050565b6000620027308262001bf1565b9150819050919050565b6000620027478262001c18565b9150819050919050565b60006200275e8262001c3f565b9150819050919050565b6000620027758262001c66565b9150819050919050565b60006200278c8262001c8d565b9150819050919050565b6000620027a38262001cb4565b9150819050919050565b6000620027ba8262001cdb565b9150819050919050565b6000620027d18262001d02565b9150819050919050565b6000620027e88262001d29565b9150819050919050565b6000620027ff8262001d50565b9150819050919050565b6000620028168262001d77565b9150819050919050565b60006200282d8262001d9e565b9150819050919050565b6000620028448262001dc5565b9150819050919050565b60006200285b8262001dec565b9150819050919050565b6000620028728262001e13565b9150819050919050565b6000620028898262001e3a565b9150819050919050565b6000620028a08262001e61565b9150819050919050565b6000620028b78262001e88565b9150819050919050565b6000620028ce8262001eaf565b9150819050919050565b6000620028e58262001ed6565b9150819050919050565b6000620028fc8262001efd565b9150819050919050565b6000620029138262001f24565b9150819050919050565b60006200292a8262001f4b565b9150819050919050565b6000620029418262001f72565b9150819050919050565b6000620029588262001f99565b9150819050919050565b60006200296f8262001fc0565b9150819050919050565b6000620029868262001fe7565b9150819050919050565b60006200299d826200200e565b9150819050919050565b6000620029b48262002035565b9150819050919050565b6000620029cb826200205c565b9150819050919050565b6000620029e28262002083565b9150819050919050565b6000620029f982620020aa565b9150819050919050565b600062002a1082620020d1565b9150819050919050565b600062002a2782620020f8565b9150819050919050565b600062002a3e826200211f565b9150819050919050565b600062002a558262002146565b9150819050919050565b600062002a6c826200216d565b9150819050919050565b600062002a838262002194565b9150819050919050565b600062002a9a82620021bb565b9150819050919050565b600062002ab182620021e2565b9150819050919050565b600062002ac88262002209565b9150819050919050565b600062002adf8262002230565b9150819050919050565b600062002af68262002257565b9150819050919050565b600062002b0d826200227e565b9150819050919050565b600062002b2482620022a5565b9150819050919050565b600062002b3b82620022cc565b9150819050919050565b600062002b5282620022f3565b9150819050919050565b600062002b69826200231a565b9150819050919050565b600062002b808262002341565b9150819050919050565b600062002b978262002368565b9150819050919050565b600062002bae826200238f565b9150819050919050565b600062002bc582620023b6565b9150819050919050565b600062002bdc82620023dd565b9150819050919050565b600062002bf38262002404565b9150819050919050565b600062002c0a826200242b565b9150819050919050565b600062002c218262002452565b9150819050919050565b600062002c388262002479565b9150819050919050565b600062002c4f82620024a0565b9150819050919050565b600062002c6682620024c7565b9150819050919050565b600062002c7d82620024ee565b9150819050919050565b600062002c948262002515565b9150819050919050565b600062002cab826200253c565b9150819050919050565b600062002cc28262002563565b9150819050919050565b600062002cd9826200258a565b9150819050919050565b600062002cf082620025b1565b9150819050919050565b600062002d0782620025d8565b9150819050919050565b600062002d1e82620025ff565b9150819050919050565b600081905092915050565b6000600282049050600182168062002d4c57607f821691505b6020821081141562002d635762002d6262002d69565b5b50919050565b7f4e487b7100000000000000000000000000000000000000000000000000000000600052602260045260246000fd5b7f7700000000000000000000000000000000000000000000000000000000000000600082015250565b7f4300000000000000000000000000000000000000000000000000000000000000600082015250565b7f4100000000000000000000000000000000000000000000000000000000000000600082015250565b7f3000000000000000000000000000000000000000000000000000000000000000600082015250565b7f2a00000000000000000000000000000000000000000000000000000000000000600082015250565b7f4700000000000000000000000000000000000000000000000000000000000000600082015250565b7f6300000000000000000000000000000000000000000000000000000000000000600082015250565b7f3400000000000000000000000000000000000000000000000000000000000000600082015250565b7f6700000000000000000000000000000000000000000000000000000000000000600082015250565b7f4200000000000000000000000000000000000000000000000000000000000000600082015250565b7f7000000000000000000000000000000000000000000000000000000000000000600082015250565b7f3300000000000000000000000000000000000000000000000000000000000000600082015250565b7f4800000000000000000000000000000000000000000000000000000000000000600082015250565b7f2100000000000000000000000000000000000000000000000000000000000000600082015250565b7f7500000000000000000000000000000000000000000000000000000000000000600082015250565b7f5500000000000000000000000000000000000000000000000000000000000000600082015250565b7f6100000000000000000000000000000000000000000000000000000000000000600082015250565b7f2c00000000000000000000000000000000000000000000000000000000000000600082015250565b7f7100000000000000000000000000000000000000000000000000000000000000600082015250565b7f7200000000000000000000000000000000000000000000000000000000000000600082015250565b7f7a00000000000000000000000000000000000000000000000000000000000000600082015250565b7f4500000000000000000000000000000000000000000000000000000000000000600082015250565b7f6e00000000000000000000000000000000000000000000000000000000000000600082015250565b7f3700000000000000000000000000000000000000000000000000000000000000600082015250565b7f6f00000000000000000000000000000000000000000000000000000000000000600082015250565b7f5800000000000000000000000000000000000000000000000000000000000000600082015250565b7f3f00000000000000000000000000000000000000000000000000000000000000600082015250565b7f7300000000000000000000000000000000000000000000000000000000000000600082015250565b7f2000000000000000000000000000000000000000000000000000000000000000600082015250565b7f3b00000000000000000000000000000000000000000000000000000000000000600082015250565b7f6c00000000000000000000000000000000000000000000000000000000000000600082015250565b7f4400000000000000000000000000000000000000000000000000000000000000600082015250565b7f2e00000000000000000000000000000000000000000000000000000000000000600082015250565b7f2b00000000000000000000000000000000000000000000000000000000000000600082015250565b7f7800000000000000000000000000000000000000000000000000000000000000600082015250565b7f5000000000000000000000000000000000000000000000000000000000000000600082015250565b7f4e00000000000000000000000000000000000000000000000000000000000000600082015250565b7f5a00000000000000000000000000000000000000000000000000000000000000600082015250565b7f4d00000000000000000000000000000000000000000000000000000000000000600082015250565b7f7900000000000000000000000000000000000000000000000000000000000000600082015250565b7f5400000000000000000000000000000000000000000000000000000000000000600082015250565b7f4c00000000000000000000000000000000000000000000000000000000000000600082015250565b7f3c00000000000000000000000000000000000000000000000000000000000000600082015250565b7f4900000000000000000000000000000000000000000000000000000000000000600082015250565b7f4a00000000000000000000000000000000000000000000000000000000000000600082015250565b7f4b00000000000000000000000000000000000000000000000000000000000000600082015250565b7f3a00000000000000000000000000000000000000000000000000000000000000600082015250565b7f5900000000000000000000000000000000000000000000000000000000000000600082015250565b7f44454641554c5400000000000000000000000000000000000000000000000000600082015250565b7f7600000000000000000000000000000000000000000000000000000000000000600082015250565b7f6800000000000000000000000000000000000000000000000000000000000000600082015250565b7f6500000000000000000000000000000000000000000000000000000000000000600082015250565b7f5300000000000000000000000000000000000000000000000000000000000000600082015250565b7f2300000000000000000000000000000000000000000000000000000000000000600082015250565b7f3200000000000000000000000000000000000000000000000000000000000000600082015250565b7f2400000000000000000000000000000000000000000000000000000000000000600082015250565b7f6a00000000000000000000000000000000000000000000000000000000000000600082015250565b7f6200000000000000000000000000000000000000000000000000000000000000600082015250565b7f4f00000000000000000000000000000000000000000000000000000000000000600082015250565b7f3100000000000000000000000000000000000000000000000000000000000000600082015250565b7f7400000000000000000000000000000000000000000000000000000000000000600082015250565b7f3500000000000000000000000000000000000000000000000000000000000000600082015250565b7f6600000000000000000000000000000000000000000000000000000000000000600082015250565b7f5700000000000000000000000000000000000000000000000000000000000000600082015250565b7f3900000000000000000000000000000000000000000000000000000000000000600082015250565b7f2d00000000000000000000000000000000000000000000000000000000000000600082015250565b7f6d00000000000000000000000000000000000000000000000000000000000000600082015250565b7f3600000000000000000000000000000000000000000000000000000000000000600082015250565b7f3800000000000000000000000000000000000000000000000000000000000000600082015250565b7f4600000000000000000000000000000000000000000000000000000000000000600082015250565b7f6900000000000000000000000000000000000000000000000000000000000000600082015250565b7f5200000000000000000000000000000000000000000000000000000000000000600082015250565b7f3e00000000000000000000000000000000000000000000000000000000000000600082015250565b7f5600000000000000000000000000000000000000000000000000000000000000600082015250565b7f6400000000000000000000000000000000000000000000000000000000000000600082015250565b7f3d00000000000000000000000000000000000000000000000000000000000000600082015250565b7f6b00000000000000000000000000000000000000000000000000000000000000600082015250565b7f5100000000000000000000000000000000000000000000000000000000000000600082015250565b610e778062003a266000396000f3fe608060405234801561001057600080fd5b506004361061002b5760003560e01c8063671639c114610030575b600080fd5b61004a600480360381019061004591906105da565b610060565b604051610057919061091d565b60405180910390f35b606060008060405180602001604052806000815250905060005b875181101561021657600061008f898361027f565b9050600080826040516100a29190610812565b908152602001604051809103902080546100bb90610ac3565b80601f01602080910402602001604051908101604052809291908181526020018280546100e790610ac3565b80156101345780601f1061010957610100808354040283529160200191610134565b820191906000526020600020905b81548152906001019060200180831161011757829003601f168201915b5050505050905060008060018460405161014e9190610812565b90815260200160405180910390205414156101855760016040516101719061087b565b9081526020016040518091039020546101a5565b6001836040516101959190610812565b9081526020016040518091039020545b905060008251116101b857505050610203565b846101c2876103b0565b836040516020016101d593929190610829565b60405160208183030381529060405294508881876101f391906109bc565b6101fd91906109bc565b95505050505b808061020e90610b26565b91505061007a565b5060006002836102269190610a12565b60646102329190610a43565b9050600061023f826103b0565b610248876103b0565b898b8660405160200161025f959493929190610890565b604051602081830303815290604052905080945050505050949350505050565b60606000600167ffffffffffffffff8111156102c4577f4e487b7100000000000000000000000000000000000000000000000000000000600052604160045260246000fd5b6040519080825280601f01601f1916602001820160405280156102f65781602001600182028036833780820191505090505b509050838381518110610332577f4e487b7100000000000000000000000000000000000000000000000000000000600052603260045260246000fd5b602001015160f81c60f81b81600081518110610377577f4e487b7100000000000000000000000000000000000000000000000000000000600052603260045260246000fd5b60200101907effffffffffffffffffffffffffffffffffffffffffffffffffffffffffffff1916908160001a9053508091505092915050565b606060008214156103f8576040518060400160405280600181526020017f30000000000000000000000000000000000000000000000000000000000000008152509050610558565b600082905060005b6000821461042a57808061041390610b26565b915050600a826104239190610a12565b9150610400565b60008167ffffffffffffffff81111561046c577f4e487b7100000000000000000000000000000000000000000000000000000000600052604160045260246000fd5b6040519080825280601f01601f19166020018201604052801561049e5781602001600182028036833780820191505090505b5090505b60008514610551576001826104b79190610a43565b9150600a856104c69190610b6f565b60306104d291906109bc565b60f81b81838151811061050e577f4e487b7100000000000000000000000000000000000000000000000000000000600052603260045260246000fd5b60200101907effffffffffffffffffffffffffffffffffffffffffffffffffffffffffffff1916908160001a905350600a8561054a9190610a12565b94506104a2565b8093505050505b919050565b600061057061056b84610964565b61093f565b90508281526020810184848401111561058857600080fd5b610593848285610a81565b509392505050565b600082601f8301126105ac57600080fd5b81356105bc84826020860161055d565b91505092915050565b6000813590506105d481610e2a565b92915050565b600080600080608085870312156105f057600080fd5b600085013567ffffffffffffffff81111561060a57600080fd5b6106168782880161059b565b945050602085013567ffffffffffffffff81111561063357600080fd5b61063f8782880161059b565b9350506040610650878288016105c5565b9250506060610661878288016105c5565b91505092959194509250565b600061067882610995565b61068281856109a0565b9350610692818560208601610a90565b61069b81610c5c565b840191505092915050565b60006106b182610995565b6106bb81856109b1565b93506106cb818560208601610a90565b80840191505092915050565b60006106e46001836109b1565b91506106ef82610c6d565b600182019050919050565b60006107076009836109b1565b915061071282610c96565b600982019050919050565b600061072a6036836109b1565b915061073582610cbf565b603682019050919050565b600061074d6007836109b1565b915061075882610d0e565b600782019050919050565b60006107706004836109b1565b915061077b82610d37565b600482019050919050565b60006107936018836109b1565b915061079e82610d60565b601882019050919050565b60006107b66002836109b1565b91506107c182610d89565b600282019050919050565b60006107d96024836109b1565b91506107e482610db2565b602482019050919050565b60006107fc6003836109b1565b915061080782610e01565b600382019050919050565b600061081e82846106a6565b915081905092915050565b600061083582866106a6565b915061084082610786565b915061084c82856106a6565b9150610857826107ef565b915061086382846106a6565b915061086e82610763565b9150819050949350505050565b600061088682610740565b9150819050919050565b600061089b826107cc565b91506108a782886106a6565b91506108b2826106d7565b91506108be82876106a6565b91506108c9826106fa565b91506108d582866106a6565b91506108e08261071d565b91506108ec82856106a6565b91506108f7826107a9565b915061090382846106a6565b915061090e82610763565b91508190509695505050505050565b60006020820190508181036000830152610937818461066d565b905092915050565b600061094961095a565b90506109558282610af5565b919050565b6000604051905090565b600067ffffffffffffffff82111561097f5761097e610c2d565b5b61098882610c5c565b9050602081019050919050565b600081519050919050565b600082825260208201905092915050565b600081905092915050565b60006109c782610a77565b91506109d283610a77565b9250827fffffffffffffffffffffffffffffffffffffffffffffffffffffffffffffffff03821115610a0757610a06610ba0565b5b828201905092915050565b6000610a1d82610a77565b9150610a2883610a77565b925082610a3857610a37610bcf565b5b828204905092915050565b6000610a4e82610a77565b9150610a5983610a77565b925082821015610a6c57610a6b610ba0565b5b828203905092915050565b6000819050919050565b82818337600083830152505050565b60005b83811015610aae578082015181840152602081019050610a93565b83811115610abd576000848401525b50505050565b60006002820490506001821680610adb57607f821691505b60208210811415610aef57610aee610bfe565b5b50919050565b610afe82610c5c565b810181811067ffffffffffffffff82111715610b1d57610b1c610c2d565b5b80604052505050565b6000610b3182610a77565b91507fffffffffffffffffffffffffffffffffffffffffffffffffffffffffffffffff821415610b6457610b63610ba0565b5b600182019050919050565b6000610b7a82610a77565b9150610b8583610a77565b925082610b9557610b94610bcf565b5b828206905092915050565b7f4e487b7100000000000000000000000000000000000000000000000000000000600052601160045260246000fd5b7f4e487b7100000000000000000000000000000000000000000000000000000000600052601260045260246000fd5b7f4e487b7100000000000000000000000000000000000000000000000000000000600052602260045260246000fd5b7f4e487b7100000000000000000000000000000000000000000000000000000000600052604160045260246000fd5b6000601f19601f8301169050919050565b7f2c00000000000000000000000000000000000000000000000000000000000000600082015250565b7f29272066696c6c3d270000000000000000000000000000000000000000000000600082015250565b7f272066696c6c2d72756c653d276576656e6f64642720636c69702d72756c653d60008201527f276576656e6f64642720617269612d6c6162656c3d2700000000000000000000602082015250565b7f44454641554c5400000000000000000000000000000000000000000000000000600082015250565b7f3c2f673e00000000000000000000000000000000000000000000000000000000600082015250565b7f3c67207472616e73666f726d3d277472616e736c617465280000000000000000600082015250565b7f273e000000000000000000000000000000000000000000000000000000000000600082015250565b7f3c6720207472616e73666f726d3d277363616c6528302e3529207472616e736c60008201527f6174652800000000000000000000000000000000000000000000000000000000602082015250565b7f29273e0000000000000000000000000000000000000000000000000000000000600082015250565b610e3381610a77565b8114610e3e57600080fd5b5056fea2646970667358221220bcbec5e8ed14d1f12a9fffb3cd4599ce2d8b33b11b728f838dc6af9802a7540664736f6c634300080100333c7061746820643d274d302035483148324c32203448334c33203048324831483056355a4d3120344c3120314c3220314c32203448315a272f3e3c7061746820643d274d302032563148314c3120324c3020325a4d3220324c3120325633483056344c31203456334c32203356344c33203456334c32203356325a4d3220324c3320325631483256325a272f3e3c7061746820643d274d31203148324c32203448314c3120315a4d3120314830563448314c31203548324c32203448334c33203148324c32203048314c3120315a272f3e3c7061746820643d274d3120334830563048314c3120335a4d3220334831563548324c3220335a4d3220334c32203048334c33203348325a272f3e3c7061746820643d274d30203348314c312030483056335a4d30203548314c312034483056355a272f3e3c7061746820643d274d3120304830563156345635483148335634483156334832563248314c3120314c332031563048315a272f3e3c7061746820643d274d3220314830563048334c3320314c3320334c3220334c3120334c31203448334c33203548305634563356324c3220324c3220315a272f3e3c7061746820643d274d3020304831483356314c312031563448335635483148305634563156305a272f3e3c7061746820643d274d30203048314c3120324832563048335632563356354832563348315635483056305a272f3e3c7061746820643d274d33203548324c32203348314c3020335632563048314c3120324c3220324c32203048334c3320324c33203356355a272f3e3c7061746820643d274d302030483248335631563456354832483148305634563348315634483256314c30203156305a272f3e3c7061746820643d274d30203048314833563148315632483256334831483056305a4d32203348335634563548305634483256335a272f3e3c7061746820643d274d3120314c32203156324c3120324c3120315a4d312030483248334c3320314c3320324c332033563548324c32203348314c30203356325631563048315a272f3e3c7061746820643d274d3220314c3120314c3120324c32203256315a4d32203048334c3320314c3320324c3320334c3320344c33203548324831483056345633563256315630483148325a4d32203456334c3120334c31203448325a272f3e3c7061746820643d274d3020354831483248334c33203048324831483056355a4d3220344c3220314c3120314c31203448325a272f3e3c7061746820643d274d302030563148315635483256315630483148305a272f3e3c7061746820643d274d3320314c3320304832483056314c32203156324c30203256334c322033563448305635483248334c3320344c3320334c33203256315a272f3e3c7061746820643d274d3120324c312031483256324c3120325a4d3120354c312033483256354c3120355a4d31203556364830563548315a272f3e3c7061746820643d274d3320314c3320304832483056314c3220314c322035483356315a272f3e3c7265637420783d27312720793d2735272077696474683d273127206865696768743d273127207472616e73666f726d3d27726f74617465283138302031203529272f3e3c7061746820643d274d3120304830563256335635483156334832563548334c3320334832563248334c33203048324c322032483156305a272f3e3c7061746820643d274d32203148314c3120324c30203256334c3120334c3120344c3220344c3220334c33203356324c3220324c3220315a272f3e3c7061746820643d274d31203548324c3220344833563548345634483556334834563248355631483456304833563148324c32203048314c3120314830563248314c3120334830563448314c3120355a4d33203248324c322033483356325a272f3e3c7061746820643d274d3320314c33203048324831483056314c3120314c31203548324c3220314c3320315a272f3e3c7061746820643d274d312030483056345635483148335634483156305a272f3e3c7061746820643d274d3120354830563048314c3120314c32203156324c3120324c3120355a4d332032563348324c3220324c3320325a4d3320324c3320314c3420314c34203048354c3520354834563248335a272f3e3c7061746820643d274d322030483056314832563248315633483256324833563048325a4d32203448315635483256345a272f3e3c7061746820643d274d302031563456354831483248335634563248325634483156314c33203156304831483056315a272f3e3c7061746820643d274d3220314830563048334c3320314c3320324c3220324c3220315a4d3120334c3120324c3220324c32203348315a4d3120334c31203448334c3320354830563456334c3120335a272f3e3c7061746820643d274d30203156324c3120324c31203148305a4d30203356344c3120344c31203348305a272f3e3c7061746820643d274d3120344c3020344c3020354c3120354c3120345a4d3220334c3220344c3120344c3120334c3220335a4d3220324c3220334c3320334c3320324c3220325a4d3120314c3120324c3220324c3220314c3120315a4d3120314c3120304c3020304c3020314c3120315a272f3e3c7061746820643d274d3020335635483156334c3220335635483356335632563156304832483148305631563256335a4d31203248325631483156325a272f3e3c7061746820643d274d30203156324c332032563148305a4d30203356344c33203456334c3020335a272f3e3c7061746820643d274d31203548305630483148334c33203156324c3220324c3220314c31203156324c3220324c322033483156355a4d32203348334c33203548324c3220335a272f3e3c7061746820643d274d3120304830563548314832483356334832563248335630483248315a4d32203248315631483256325a4d32203456334831563448325a272f3e3c70617468207472616e73666f726d3d277472616e736c61746528302c2031292720643d274d31203448324c32203348314c3120345a4d3120344830563548314c3120345a272f3e3c7061746820643d274d302031563048314832483356314c3220315634483356354832483148305634483156314c3020315a272f3e3c7061746820643d274d3420304c3520304c35203548344c34203448335633483456305a204d3220334c32203248334c3320334c3220335a204d3220334c3220344c3120344c31203548304c3020304c3120304c31203348325a272f3e3c7061746820643d274d30203048315635483056305a204d31203148325633483156315a204d32203248335634483256325a204d33203048345635483356305a272f3e3c7061746820643d274d3120324830563048314c3120325a4d32203248314c3120334830563548314c31203348324c32203548334c33203348324c3220325a4d3220324c32203048334c33203248325a272f3e3c7061746820643d274d302031563456354831483248335631483256304831483056315a4d32203456314c312031563448325a272f3e3c7061746820643d274d30203548314c3120334c3320334c3320324c3320314c3320304831483056355a4d3220314c3120314c3120324c3220324c3220315a272f3e3c70617468207472616e73666f726d3d277472616e736c61746528302c202d31292720643d274d3120314c31203048324c32203148334c3320324c3120324c3120334c32203348334c3320344c332035563648324c32203748314c312036483056354c3220354c3220344c312034483056314c3120315a272f3e3c7061746820643d274d3020304831483356314c31203156324832563348315635483056335632563156305a272f3e3c7061746820643d274d32203148334c332030483256315a4d3120324c3120314832563248315a4d3120334c3120324830563348315a4d3220344c32203348314c31203448325a4d322034563548334c33203448325a272f3e3c7061746820643d274d30203456335632563048302e3939393939394c31203248324c3320324c3320334c3320344c33203548324831483056345a4d32203456334c3120334c31203448325a272f3e3c7061746820643d274d3120344830563048314c3120345a4d3220344831563548324c3220345a4d3220344c32203048334c33203448325a272f3e3c7061746820643d274d31203348305630483148334c3320314c3120314c3120324c32203248334c3320334c33203456354832483056344c3220344c3220334c3120335a272f3e3c7061746820643d274d31203548305634563048314c3120344c3220344c32203048334c3320345635483248315a272f3e",
  "linkReferences": {},
  "deployedLinkReferences": {}
}